{
	"source/Marketplace.sol": {
		"Marketplace": {
			"abi": [
				{
					"inputs": [
						{
							"internalType": "address",
							"name": "_nft",
							"type": "address"
						},
						{
							"internalType": "address",
							"name": "__feeReceiver",
							"type": "address"
						},
						{
							"internalType": "uint256",
							"name": "__tradeFee",
							"type": "uint256"
						},
						{
							"internalType": "address[]",
							"name": "__allowedERC20",
							"type": "address[]"
						}
					],
					"stateMutability": "nonpayable",
					"type": "constructor"
				},
				{
					"anonymous": false,
					"inputs": [
						{
							"indexed": false,
							"internalType": "address",
							"name": "owner",
							"type": "address"
						},
						{
							"indexed": false,
							"internalType": "address",
							"name": "buyer",
							"type": "address"
						},
						{
							"indexed": false,
							"internalType": "uint256",
							"name": "tokenId",
							"type": "uint256"
						},
						{
							"indexed": false,
							"internalType": "uint256",
							"name": "price",
							"type": "uint256"
						}
					],
					"name": "Buy",
					"type": "event"
				},
				{
					"anonymous": false,
					"inputs": [
						{
							"indexed": false,
							"internalType": "address",
							"name": "owner",
							"type": "address"
						},
						{
							"indexed": false,
							"internalType": "address",
							"name": "buyer",
							"type": "address"
						},
						{
							"indexed": false,
							"internalType": "uint256",
							"name": "tokenId",
							"type": "uint256"
						},
						{
							"indexed": false,
							"internalType": "address",
							"name": "erc20",
							"type": "address"
						},
						{
							"indexed": false,
							"internalType": "uint256",
							"name": "price",
							"type": "uint256"
						}
					],
					"name": "BuyWithERC20",
					"type": "event"
				},
				{
					"anonymous": false,
					"inputs": [
						{
							"indexed": true,
							"internalType": "address",
							"name": "previousOwner",
							"type": "address"
						},
						{
							"indexed": true,
							"internalType": "address",
							"name": "newOwner",
							"type": "address"
						}
					],
					"name": "OwnershipTransferred",
					"type": "event"
				},
				{
					"anonymous": false,
					"inputs": [
						{
							"indexed": false,
							"internalType": "address",
							"name": "account",
							"type": "address"
						}
					],
					"name": "Paused",
					"type": "event"
				},
				{
					"anonymous": false,
					"inputs": [
						{
							"indexed": false,
							"internalType": "address",
							"name": "owner",
							"type": "address"
						},
						{
							"indexed": false,
							"internalType": "uint256",
							"name": "tokenId",
							"type": "uint256"
						},
						{
							"indexed": false,
							"internalType": "uint256",
							"name": "price",
							"type": "uint256"
						}
					],
					"name": "PutUpForSale",
					"type": "event"
				},
				{
					"anonymous": false,
					"inputs": [
						{
							"indexed": false,
							"internalType": "address",
							"name": "owner",
							"type": "address"
						},
						{
							"indexed": false,
							"internalType": "uint256",
							"name": "tokenId",
							"type": "uint256"
						},
						{
							"indexed": false,
							"internalType": "address",
							"name": "erc20",
							"type": "address"
						},
						{
							"indexed": false,
							"internalType": "uint256",
							"name": "price",
							"type": "uint256"
						}
					],
					"name": "PutUpForSaleWithERC20",
					"type": "event"
				},
				{
					"anonymous": false,
					"inputs": [
						{
							"indexed": false,
							"internalType": "address",
							"name": "account",
							"type": "address"
						}
					],
					"name": "Unpaused",
					"type": "event"
				},
				{
					"anonymous": false,
					"inputs": [
						{
							"indexed": false,
							"internalType": "address",
							"name": "to",
							"type": "address"
						},
						{
							"indexed": false,
							"internalType": "address",
							"name": "erc20",
							"type": "address"
						},
						{
							"indexed": false,
							"internalType": "uint256",
							"name": "amount",
							"type": "uint256"
						}
					],
					"name": "WithdrawERC20",
					"type": "event"
				},
				{
					"anonymous": false,
					"inputs": [
						{
							"indexed": false,
							"internalType": "address",
							"name": "owner",
							"type": "address"
						},
						{
							"indexed": false,
							"internalType": "uint256",
							"name": "tokenId",
							"type": "uint256"
						}
					],
					"name": "WithdrawFromSale",
					"type": "event"
				},
				{
					"anonymous": false,
					"inputs": [
						{
							"indexed": false,
							"internalType": "address",
							"name": "to",
							"type": "address"
						},
						{
							"indexed": false,
							"internalType": "uint256",
							"name": "amount",
							"type": "uint256"
						}
					],
					"name": "WithdrawWei",
					"type": "event"
				},
				{
					"inputs": [
						{
							"internalType": "uint256",
							"name": "_tokenId",
							"type": "uint256"
						}
					],
					"name": "buyNFT",
					"outputs": [],
					"stateMutability": "payable",
					"type": "function"
				},
				{
					"inputs": [
						{
							"internalType": "uint256",
							"name": "_tokenId",
							"type": "uint256"
						}
					],
					"name": "buyNFTbyERC20",
					"outputs": [],
					"stateMutability": "nonpayable",
					"type": "function"
				},
				{
					"inputs": [
						{
							"internalType": "uint256",
							"name": "_tokenId",
							"type": "uint256"
						}
					],
					"name": "deSellNFT",
					"outputs": [],
					"stateMutability": "nonpayable",
					"type": "function"
				},
				{
					"inputs": [],
					"name": "getAllowedERC20",
					"outputs": [
						{
							"internalType": "address[]",
							"name": "",
							"type": "address[]"
						}
					],
					"stateMutability": "view",
					"type": "function"
				},
				{
					"inputs": [],
					"name": "getFeeReceiver",
					"outputs": [
						{
							"internalType": "address",
							"name": "",
							"type": "address"
						}
					],
					"stateMutability": "view",
					"type": "function"
				},
				{
					"inputs": [],
					"name": "getMyTokensAtSale",
					"outputs": [
						{
							"components": [
								{
									"internalType": "uint256",
									"name": "tokenId",
									"type": "uint256"
								},
								{
									"internalType": "address",
									"name": "seller",
									"type": "address"
								},
								{
									"internalType": "uint256",
									"name": "price",
									"type": "uint256"
								},
								{
									"internalType": "address",
									"name": "erc20",
									"type": "address"
								},
								{
									"internalType": "uint256",
									"name": "utx",
									"type": "uint256"
								}
							],
							"internalType": "struct Marketplace.SelledNFT[]",
							"name": "ret",
							"type": "tuple[]"
						}
					],
					"stateMutability": "view",
					"type": "function"
				},
				{
					"inputs": [
						{
							"internalType": "uint256",
							"name": "offset",
							"type": "uint256"
						},
						{
							"internalType": "uint256",
							"name": "limit",
							"type": "uint256"
						}
					],
					"name": "getTokensAtSale",
					"outputs": [
						{
							"components": [
								{
									"internalType": "uint256",
									"name": "tokenId",
									"type": "uint256"
								},
								{
									"internalType": "address",
									"name": "seller",
									"type": "address"
								},
								{
									"internalType": "uint256",
									"name": "price",
									"type": "uint256"
								},
								{
									"internalType": "address",
									"name": "erc20",
									"type": "address"
								},
								{
									"internalType": "uint256",
									"name": "utx",
									"type": "uint256"
								}
							],
							"internalType": "struct Marketplace.SelledNFT[]",
							"name": "ret",
							"type": "tuple[]"
						}
					],
					"stateMutability": "view",
					"type": "function"
				},
				{
					"inputs": [],
					"name": "getTokensAtSaleCount",
					"outputs": [
						{
							"internalType": "uint256",
							"name": "",
							"type": "uint256"
						}
					],
					"stateMutability": "view",
					"type": "function"
				},
				{
					"inputs": [],
					"name": "getTradeFee",
					"outputs": [
						{
							"internalType": "uint256",
							"name": "",
							"type": "uint256"
						}
					],
					"stateMutability": "view",
					"type": "function"
				},
				{
					"inputs": [
						{
							"internalType": "address",
							"name": "seller",
							"type": "address"
						}
					],
					"name": "getUserTokensAtSale",
					"outputs": [
						{
							"components": [
								{
									"internalType": "uint256",
									"name": "tokenId",
									"type": "uint256"
								},
								{
									"internalType": "address",
									"name": "seller",
									"type": "address"
								},
								{
									"internalType": "uint256",
									"name": "price",
									"type": "uint256"
								},
								{
									"internalType": "address",
									"name": "erc20",
									"type": "address"
								},
								{
									"internalType": "uint256",
									"name": "utx",
									"type": "uint256"
								}
							],
							"internalType": "struct Marketplace.SelledNFT[]",
							"name": "ret",
							"type": "tuple[]"
						}
					],
					"stateMutability": "view",
					"type": "function"
				},
				{
					"inputs": [
						{
							"internalType": "address",
							"name": "erc20",
							"type": "address"
						}
					],
					"name": "isAllowedERC20",
					"outputs": [
						{
							"internalType": "bool",
							"name": "",
							"type": "bool"
						}
					],
					"stateMutability": "view",
					"type": "function"
				},
				{
					"inputs": [],
					"name": "isMarketPlaceContract",
					"outputs": [
						{
							"internalType": "bool",
							"name": "",
							"type": "bool"
						}
					],
					"stateMutability": "pure",
					"type": "function"
				},
				{
					"inputs": [],
					"name": "marketNft",
					"outputs": [
						{
							"internalType": "contract IERC721",
							"name": "",
							"type": "address"
						}
					],
					"stateMutability": "view",
					"type": "function"
				},
				{
					"inputs": [],
					"name": "owner",
					"outputs": [
						{
							"internalType": "address",
							"name": "",
							"type": "address"
						}
					],
					"stateMutability": "view",
					"type": "function"
				},
				{
					"inputs": [],
					"name": "paused",
					"outputs": [
						{
							"internalType": "bool",
							"name": "",
							"type": "bool"
						}
					],
					"stateMutability": "view",
					"type": "function"
				},
				{
					"inputs": [],
					"name": "renounceOwnership",
					"outputs": [],
					"stateMutability": "nonpayable",
					"type": "function"
				},
				{
					"inputs": [
						{
							"internalType": "uint256",
							"name": "_tokenId",
							"type": "uint256"
						},
						{
							"internalType": "uint256",
							"name": "price",
							"type": "uint256"
						},
						{
							"internalType": "address",
							"name": "_erc20",
							"type": "address"
						}
					],
					"name": "sellNFT",
					"outputs": [],
					"stateMutability": "nonpayable",
					"type": "function"
				},
				{
					"inputs": [
						{
							"internalType": "address[]",
							"name": "newAllowedERC20",
							"type": "address[]"
						}
					],
					"name": "setAllowedERC20",
					"outputs": [],
					"stateMutability": "nonpayable",
					"type": "function"
				},
				{
					"inputs": [
						{
							"internalType": "address",
							"name": "_newFeeReceiver",
							"type": "address"
						}
					],
					"name": "setFeeReceiver",
					"outputs": [],
					"stateMutability": "nonpayable",
					"type": "function"
				},
				{
					"inputs": [
						{
							"internalType": "uint256",
							"name": "_newTradeFee",
							"type": "uint256"
						}
					],
					"name": "setTradeFee",
					"outputs": [],
					"stateMutability": "nonpayable",
					"type": "function"
				},
				{
					"inputs": [
						{
							"internalType": "address",
							"name": "newOwner",
							"type": "address"
						}
					],
					"name": "transferOwnership",
					"outputs": [],
					"stateMutability": "nonpayable",
					"type": "function"
				},
				{
					"inputs": [],
					"name": "version",
					"outputs": [
						{
							"internalType": "uint256",
							"name": "",
							"type": "uint256"
						}
					],
					"stateMutability": "view",
					"type": "function"
				},
				{
					"inputs": [
						{
							"internalType": "address",
							"name": "erc20",
							"type": "address"
						}
					],
					"name": "withdrawERC20",
					"outputs": [],
					"stateMutability": "nonpayable",
					"type": "function"
				},
				{
					"inputs": [],
					"name": "withdrawWei",
					"outputs": [],
					"stateMutability": "nonpayable",
					"type": "function"
				}
			],
			"devdoc": {
				"events": {
					"Paused(address)": {
						"details": "Emitted when the pause is triggered by `account`."
					},
					"Unpaused(address)": {
						"details": "Emitted when the pause is lifted by `account`."
					}
				},
				"kind": "dev",
				"methods": {
					"owner()": {
						"details": "Returns the address of the current owner."
					},
					"paused()": {
						"details": "Returns true if the contract is paused, and false otherwise."
					},
					"renounceOwnership()": {
						"details": "Leaves the contract without owner. It will not be possible to call `onlyOwner` functions anymore. Can only be called by the current owner. NOTE: Renouncing ownership will leave the contract without an owner, thereby removing any functionality that is only available to the owner."
					},
					"transferOwnership(address)": {
						"details": "Transfers ownership of the contract to a new account (`newOwner`). Can only be called by the current owner."
					}
				},
				"version": 1
			},
			"evm": {
				"assembly": "    /* \"source/Marketplace.sol\":50386:61219  contract Marketplace is Ownable, Pausable {... */\n  mstore(0x40, 0x80)\n    /* \"source/Marketplace.sol\":51318:51319  1 */\n  0x01\n    /* \"source/Marketplace.sol\":51296:51319  uint public version = 1 */\n  0x02\n  sstore\n    /* \"source/Marketplace.sol\":51353:51354  0 */\n  0x00\n    /* \"source/Marketplace.sol\":51328:51354  uint private _tradeFee = 0 */\n  0x03\n  sstore\n    /* \"source/Marketplace.sol\":52470:52814  constructor(... */\n  callvalue\n  dup1\n  iszero\n  tag_1\n  jumpi\n  0x00\n  dup1\n  revert\ntag_1:\n  pop\n  mload(0x40)\n  sub(codesize, bytecodeSize)\n  dup1\n  bytecodeSize\n  dup4\n  codecopy\n  dup2\n  add\n  0x40\n  dup2\n  swap1\n  mstore\n  tag_2\n  swap2\n  tag_3\n  jump\t// in\ntag_2:\n    /* \"source/Marketplace.sol\":1740:1772  _transferOwnership(_msgSender()) */\n  tag_8\n    /* \"source/Marketplace.sol\":736:746  msg.sender */\n  caller\n    /* \"source/Marketplace.sol\":1740:1758  _transferOwnership */\n  tag_11\n    /* \"source/Marketplace.sol\":1740:1772  _transferOwnership(_msgSender()) */\n  jump\t// in\ntag_8:\n    /* \"source/Marketplace.sol\":49087:49092  false */\n  0x00\n    /* \"source/Marketplace.sol\":49077:49092  _paused = false */\n  dup1\n  sload\n  not(shl(0xa0, 0xff))\n  and\n  swap1\n  sstore\n  0x01\n    /* \"source/Marketplace.sol\":52623:52648  marketNft = IERC721(_nft) */\n  dup1\n  sload\n  not(sub(shl(0xa0, 0x01), 0x01))\n  and\n  sub(shl(0xa0, 0x01), 0x01)\n  dup7\n  and\n  or\n  swap1\n  sstore\n    /* \"source/Marketplace.sol\":52659:52668  _tradeFee */\n  0x03\n    /* \"source/Marketplace.sol\":52659:52681  _tradeFee = __tradeFee */\n  dup3\n  swap1\n  sstore\n    /* \"source/Marketplace.sol\":52692:52722  _allowedERC20 = __allowedERC20 */\n  dup1\n  mload\n  tag_14\n  swap1\n    /* \"source/Marketplace.sol\":52692:52705  _allowedERC20 */\n  0x06\n  swap1\n    /* \"source/Marketplace.sol\":52692:52722  _allowedERC20 = __allowedERC20 */\n  0x20\n  dup5\n  add\n  swap1\n  tag_15\n  jump\t// in\ntag_14:\n  pop\n  sub(shl(0xa0, 0x01), 0x01)\n    /* \"source/Marketplace.sol\":52749:52776  __feeReceiver == address(0) */\n  dup4\n  and\n  iszero\n    /* \"source/Marketplace.sol\":52748:52806  (__feeReceiver == address(0)) ? msg.sender : __feeReceiver */\n  tag_16\n  jumpi\n    /* \"source/Marketplace.sol\":52793:52806  __feeReceiver */\n  dup3\n    /* \"source/Marketplace.sol\":52748:52806  (__feeReceiver == address(0)) ? msg.sender : __feeReceiver */\n  jump(tag_17)\ntag_16:\n    /* \"source/Marketplace.sol\":52780:52790  msg.sender */\n  caller\n    /* \"source/Marketplace.sol\":52748:52806  (__feeReceiver == address(0)) ? msg.sender : __feeReceiver */\ntag_17:\n    /* \"source/Marketplace.sol\":52733:52745  _feeReceiver */\n  0x08\n    /* \"source/Marketplace.sol\":52733:52806  _feeReceiver = (__feeReceiver == address(0)) ? msg.sender : __feeReceiver */\n  dup1\n  sload\n  not(sub(shl(0xa0, 0x01), 0x01))\n  and\n  sub(shl(0xa0, 0x01), 0x01)\n  swap3\n  swap1\n  swap3\n  and\n  swap2\n  swap1\n  swap2\n  or\n  swap1\n  sstore\n  pop\n    /* \"source/Marketplace.sol\":50386:61219  contract Marketplace is Ownable, Pausable {... */\n  tag_30\n  swap3\n  pop\n  pop\n  pop\n  jump\n    /* \"source/Marketplace.sol\":3286:3477  function _transferOwnership(address newOwner) internal virtual {... */\ntag_11:\n    /* \"source/Marketplace.sol\":3360:3376  address oldOwner */\n  0x00\n    /* \"source/Marketplace.sol\":3379:3385  _owner */\n  dup1\n  sload\n  sub(shl(0xa0, 0x01), 0x01)\n    /* \"source/Marketplace.sol\":3396:3413  _owner = newOwner */\n  dup4\n  dup2\n  and\n  not(sub(shl(0xa0, 0x01), 0x01))\n  dup4\n  and\n  dup2\n  or\n  dup5\n  sstore\n    /* \"source/Marketplace.sol\":3429:3469  OwnershipTransferred(oldOwner, newOwner) */\n  mload(0x40)\n    /* \"source/Marketplace.sol\":3379:3385  _owner */\n  swap2\n  swap1\n  swap3\n  and\n  swap3\n  dup4\n  swap2\n    /* \"source/Marketplace.sol\":3429:3469  OwnershipTransferred(oldOwner, newOwner) */\n  0x8be0079c531659141344cd1fd0a4f28419497f9722a3daafe3b4186f6b6457e0\n  swap2\n    /* \"source/Marketplace.sol\":3360:3376  address oldOwner */\n  swap1\n    /* \"source/Marketplace.sol\":3429:3469  OwnershipTransferred(oldOwner, newOwner) */\n  log3\n    /* \"source/Marketplace.sol\":3349:3477  {... */\n  pop\n    /* \"source/Marketplace.sol\":3286:3477  function _transferOwnership(address newOwner) internal virtual {... */\n  pop\n  jump\t// out\n    /* \"source/Marketplace.sol\":50386:61219  contract Marketplace is Ownable, Pausable {... */\ntag_15:\n  dup3\n  dup1\n  sload\n  dup3\n  dup3\n  sstore\n  swap1\n  0x00\n  mstore\n  keccak256(0x00, 0x20)\n  swap1\n  dup2\n  add\n  swap3\n  dup3\n  iszero\n  tag_23\n  jumpi\n  swap2\n  0x20\n  mul\n  dup3\n  add\ntag_22:\n  dup3\n  dup2\n  gt\n  iszero\n  tag_23\n  jumpi\n  dup3\n  mload\n  dup3\n  sload\n  not(sub(shl(0xa0, 0x01), 0x01))\n  and\n  sub(shl(0xa0, 0x01), 0x01)\n  swap1\n  swap2\n  and\n  or\n  dup3\n  sstore\n  0x20\n  swap1\n  swap3\n  add\n  swap2\n  0x01\n  swap1\n  swap2\n  add\n  swap1\n  jump(tag_22)\ntag_23:\n  pop\n  tag_24\n  swap3\n  swap2\n  pop\n  tag_25\n  jump\t// in\ntag_24:\n  pop\n  swap1\n  jump\t// out\ntag_25:\ntag_26:\n  dup1\n  dup3\n  gt\n  iszero\n  tag_24\n  jumpi\n  0x00\n  dup2\n  sstore\n  0x01\n  add\n  jump(tag_26)\n    /* \"#utility.yul\":14:191   */\ntag_28:\n    /* \"#utility.yul\":93:106   */\n  dup1\n  mload\n  sub(shl(0xa0, 0x01), 0x01)\n    /* \"#utility.yul\":135:166   */\n  dup2\n  and\n    /* \"#utility.yul\":125:167   */\n  dup2\n  eq\n    /* \"#utility.yul\":115:185   */\n  tag_32\n  jumpi\n    /* \"#utility.yul\":181:182   */\n  0x00\n    /* \"#utility.yul\":178:179   */\n  dup1\n    /* \"#utility.yul\":171:183   */\n  revert\n    /* \"#utility.yul\":115:185   */\ntag_32:\n    /* \"#utility.yul\":14:191   */\n  swap2\n  swap1\n  pop\n  jump\t// out\n    /* \"#utility.yul\":196:323   */\ntag_29:\n    /* \"#utility.yul\":257:267   */\n  0x4e487b71\n    /* \"#utility.yul\":252:255   */\n  0xe0\n    /* \"#utility.yul\":248:268   */\n  shl\n    /* \"#utility.yul\":245:246   */\n  0x00\n    /* \"#utility.yul\":238:269   */\n  mstore\n    /* \"#utility.yul\":288:292   */\n  0x41\n    /* \"#utility.yul\":285:286   */\n  0x04\n    /* \"#utility.yul\":278:293   */\n  mstore\n    /* \"#utility.yul\":312:316   */\n  0x24\n    /* \"#utility.yul\":309:310   */\n  0x00\n    /* \"#utility.yul\":302:317   */\n  revert\n    /* \"#utility.yul\":328:1689   */\ntag_3:\n    /* \"#utility.yul\":450:456   */\n  0x00\n    /* \"#utility.yul\":458:464   */\n  dup1\n    /* \"#utility.yul\":466:472   */\n  0x00\n    /* \"#utility.yul\":474:480   */\n  dup1\n    /* \"#utility.yul\":527:530   */\n  0x80\n    /* \"#utility.yul\":515:524   */\n  dup6\n    /* \"#utility.yul\":506:513   */\n  dup8\n    /* \"#utility.yul\":502:525   */\n  sub\n    /* \"#utility.yul\":498:531   */\n  slt\n    /* \"#utility.yul\":495:548   */\n  iszero\n  tag_35\n  jumpi\n    /* \"#utility.yul\":544:545   */\n  0x00\n    /* \"#utility.yul\":541:542   */\n  dup1\n    /* \"#utility.yul\":534:546   */\n  revert\n    /* \"#utility.yul\":495:548   */\ntag_35:\n    /* \"#utility.yul\":567:607   */\n  tag_36\n    /* \"#utility.yul\":597:606   */\n  dup6\n    /* \"#utility.yul\":567:607   */\n  tag_28\n  jump\t// in\ntag_36:\n    /* \"#utility.yul\":557:607   */\n  swap4\n  pop\n    /* \"#utility.yul\":626:628   */\n  0x20\n    /* \"#utility.yul\":647:696   */\n  tag_37\n    /* \"#utility.yul\":692:694   */\n  dup2\n    /* \"#utility.yul\":681:690   */\n  dup8\n    /* \"#utility.yul\":677:695   */\n  add\n    /* \"#utility.yul\":647:696   */\n  tag_28\n  jump\t// in\ntag_37:\n    /* \"#utility.yul\":736:738   */\n  0x40\n    /* \"#utility.yul\":721:739   */\n  dup8\n  add\n    /* \"#utility.yul\":715:740   */\n  mload\n    /* \"#utility.yul\":784:786   */\n  0x60\n    /* \"#utility.yul\":769:787   */\n  dup9\n  add\n    /* \"#utility.yul\":763:788   */\n  mload\n    /* \"#utility.yul\":637:696   */\n  swap2\n  swap6\n  pop\n    /* \"#utility.yul\":715:740   */\n  swap4\n  pop\n  sub(shl(0x40, 0x01), 0x01)\n    /* \"#utility.yul\":837:851   */\n  dup1\n  dup3\n  gt\n    /* \"#utility.yul\":834:868   */\n  iszero\n  tag_38\n  jumpi\n    /* \"#utility.yul\":864:865   */\n  0x00\n    /* \"#utility.yul\":861:862   */\n  dup1\n    /* \"#utility.yul\":854:866   */\n  revert\n    /* \"#utility.yul\":834:868   */\ntag_38:\n    /* \"#utility.yul\":902:908   */\n  dup2\n    /* \"#utility.yul\":891:900   */\n  dup9\n    /* \"#utility.yul\":887:909   */\n  add\n    /* \"#utility.yul\":877:909   */\n  swap2\n  pop\n    /* \"#utility.yul\":947:954   */\n  dup9\n    /* \"#utility.yul\":940:944   */\n  0x1f\n    /* \"#utility.yul\":936:938   */\n  dup4\n    /* \"#utility.yul\":932:945   */\n  add\n    /* \"#utility.yul\":928:955   */\n  slt\n    /* \"#utility.yul\":918:973   */\n  tag_39\n  jumpi\n    /* \"#utility.yul\":969:970   */\n  0x00\n    /* \"#utility.yul\":966:967   */\n  dup1\n    /* \"#utility.yul\":959:971   */\n  revert\n    /* \"#utility.yul\":918:973   */\ntag_39:\n    /* \"#utility.yul\":998:1000   */\n  dup2\n    /* \"#utility.yul\":992:1001   */\n  mload\n    /* \"#utility.yul\":1020:1022   */\n  dup2\n    /* \"#utility.yul\":1016:1018   */\n  dup2\n    /* \"#utility.yul\":1013:1023   */\n  gt\n    /* \"#utility.yul\":1010:1046   */\n  iszero\n  tag_41\n  jumpi\n    /* \"#utility.yul\":1026:1044   */\n  tag_41\n  tag_29\n  jump\t// in\ntag_41:\n    /* \"#utility.yul\":1072:1074   */\n  dup1\n    /* \"#utility.yul\":1069:1070   */\n  0x05\n    /* \"#utility.yul\":1065:1075   */\n  shl\n    /* \"#utility.yul\":1104:1106   */\n  0x40\n    /* \"#utility.yul\":1098:1107   */\n  mload\n    /* \"#utility.yul\":1167:1169   */\n  0x1f\n    /* \"#utility.yul\":1163:1170   */\n  not\n    /* \"#utility.yul\":1158:1160   */\n  0x3f\n    /* \"#utility.yul\":1154:1156   */\n  dup4\n    /* \"#utility.yul\":1150:1161   */\n  add\n    /* \"#utility.yul\":1146:1171   */\n  and\n    /* \"#utility.yul\":1138:1144   */\n  dup2\n    /* \"#utility.yul\":1134:1172   */\n  add\n    /* \"#utility.yul\":1222:1228   */\n  dup2\n    /* \"#utility.yul\":1210:1220   */\n  dup2\n    /* \"#utility.yul\":1207:1229   */\n  lt\n    /* \"#utility.yul\":1202:1204   */\n  dup6\n    /* \"#utility.yul\":1190:1200   */\n  dup3\n    /* \"#utility.yul\":1187:1205   */\n  gt\n    /* \"#utility.yul\":1184:1230   */\n  or\n    /* \"#utility.yul\":1181:1253   */\n  iszero\n  tag_43\n  jumpi\n    /* \"#utility.yul\":1233:1251   */\n  tag_43\n  tag_29\n  jump\t// in\ntag_43:\n    /* \"#utility.yul\":1269:1271   */\n  0x40\n    /* \"#utility.yul\":1262:1284   */\n  mstore\n    /* \"#utility.yul\":1319:1337   */\n  swap2\n  dup3\n  mstore\n    /* \"#utility.yul\":1353:1368   */\n  dup5\n  dup3\n  add\n  swap3\n  pop\n    /* \"#utility.yul\":1395:1406   */\n  dup4\n  dup2\n  add\n    /* \"#utility.yul\":1391:1411   */\n  dup6\n  add\n  swap2\n    /* \"#utility.yul\":1423:1442   */\n  dup12\n  dup4\n  gt\n    /* \"#utility.yul\":1420:1459   */\n  iszero\n  tag_44\n  jumpi\n    /* \"#utility.yul\":1455:1456   */\n  0x00\n    /* \"#utility.yul\":1452:1453   */\n  dup1\n    /* \"#utility.yul\":1445:1457   */\n  revert\n    /* \"#utility.yul\":1420:1459   */\ntag_44:\n    /* \"#utility.yul\":1479:1490   */\n  swap4\n  dup6\n  add\n  swap4\n    /* \"#utility.yul\":1499:1658   */\ntag_45:\n    /* \"#utility.yul\":1515:1521   */\n  dup3\n    /* \"#utility.yul\":1510:1513   */\n  dup6\n    /* \"#utility.yul\":1507:1522   */\n  lt\n    /* \"#utility.yul\":1499:1658   */\n  iszero\n  tag_47\n  jumpi\n    /* \"#utility.yul\":1581:1615   */\n  tag_48\n    /* \"#utility.yul\":1611:1614   */\n  dup6\n    /* \"#utility.yul\":1581:1615   */\n  tag_28\n  jump\t// in\ntag_48:\n    /* \"#utility.yul\":1569:1616   */\n  dup5\n  mstore\n    /* \"#utility.yul\":1532:1544   */\n  swap4\n  dup6\n  add\n  swap4\n    /* \"#utility.yul\":1636:1648   */\n  swap3\n  dup6\n  add\n  swap3\n    /* \"#utility.yul\":1499:1658   */\n  jump(tag_45)\ntag_47:\n    /* \"#utility.yul\":328:1689   */\n  swap9\n  swap12\n  swap8\n  swap11\n  pop\n  swap6\n  swap9\n  pop\n  pop\n  pop\n  pop\n  pop\n  pop\n  pop\n  jump\t// out\ntag_30:\n    /* \"source/Marketplace.sol\":50386:61219  contract Marketplace is Ownable, Pausable {... */\n  dataSize(sub_0)\n  dup1\n  dataOffset(sub_0)\n  0x00\n  codecopy\n  0x00\n  return\nstop\n\nsub_0: assembly {\n        /* \"source/Marketplace.sol\":50386:61219  contract Marketplace is Ownable, Pausable {... */\n      mstore(0x40, 0x80)\n      jumpi(tag_1, lt(calldatasize, 0x04))\n      shr(0xe0, calldataload(0x00))\n      dup1\n      0x715018a6\n      gt\n      tag_26\n      jumpi\n      dup1\n      0xc8f77899\n      gt\n      tag_27\n      jumpi\n      dup1\n      0xc8f77899\n      eq\n      tag_20\n      jumpi\n      dup1\n      0xe8a35392\n      eq\n      tag_21\n      jumpi\n      dup1\n      0xe9e4e160\n      eq\n      tag_22\n      jumpi\n      dup1\n      0xefdcd974\n      eq\n      tag_23\n      jumpi\n      dup1\n      0xf2fde38b\n      eq\n      tag_24\n      jumpi\n      dup1\n      0xf4f3b200\n      eq\n      tag_25\n      jumpi\n      0x00\n      dup1\n      revert\n    tag_27:\n      dup1\n      0x715018a6\n      eq\n      tag_14\n      jumpi\n      dup1\n      0x785fa7ce\n      eq\n      tag_15\n      jumpi\n      dup1\n      0x7c237eea\n      eq\n      tag_16\n      jumpi\n      dup1\n      0x8da5cb5b\n      eq\n      tag_17\n      jumpi\n      dup1\n      0x952977f5\n      eq\n      tag_18\n      jumpi\n      dup1\n      0xa096c5a2\n      eq\n      tag_19\n      jumpi\n      0x00\n      dup1\n      revert\n    tag_26:\n      dup1\n      0x5211ac2e\n      gt\n      tag_28\n      jumpi\n      dup1\n      0x5211ac2e\n      eq\n      tag_8\n      jumpi\n      dup1\n      0x527f2902\n      eq\n      tag_9\n      jumpi\n      dup1\n      0x54fd4d50\n      eq\n      tag_10\n      jumpi\n      dup1\n      0x5b87f0f2\n      eq\n      tag_11\n      jumpi\n      dup1\n      0x5c975abb\n      eq\n      tag_12\n      jumpi\n      dup1\n      0x69c57352\n      eq\n      tag_13\n      jumpi\n      0x00\n      dup1\n      revert\n    tag_28:\n      dup1\n      0x047a5d43\n      eq\n      tag_2\n      jumpi\n      dup1\n      0x08cfbc19\n      eq\n      tag_3\n      jumpi\n      dup1\n      0x10603023\n      eq\n      tag_4\n      jumpi\n      dup1\n      0x19c8c1c5\n      eq\n      tag_5\n      jumpi\n      dup1\n      0x512ddcf9\n      eq\n      tag_6\n      jumpi\n      dup1\n      0x51ed8288\n      eq\n      tag_7\n      jumpi\n    tag_1:\n      0x00\n      dup1\n      revert\n        /* \"source/Marketplace.sol\":56681:58402  function buyNFTbyERC20(uint _tokenId)... */\n    tag_2:\n      callvalue\n      dup1\n      iszero\n      tag_29\n      jumpi\n      0x00\n      dup1\n      revert\n    tag_29:\n      pop\n      tag_30\n      tag_31\n      calldatasize\n      0x04\n      tag_32\n      jump\t// in\n    tag_31:\n      tag_33\n      jump\t// in\n    tag_30:\n      stop\n        /* \"source/Marketplace.sol\":51263:51287  IERC721 public marketNft */\n    tag_3:\n      callvalue\n      dup1\n      iszero\n      tag_34\n      jumpi\n      0x00\n      dup1\n      revert\n    tag_34:\n      pop\n      sload(0x01)\n      tag_35\n      swap1\n      sub(shl(0xa0, 0x01), 0x01)\n      and\n      dup2\n      jump\n    tag_35:\n      mload(0x40)\n      sub(shl(0xa0, 0x01), 0x01)\n        /* \"#utility.yul\":378:410   */\n      swap1\n      swap2\n      and\n        /* \"#utility.yul\":360:411   */\n      dup2\n      mstore\n        /* \"#utility.yul\":348:350   */\n      0x20\n        /* \"#utility.yul\":333:351   */\n      add\n        /* \"source/Marketplace.sol\":51263:51287  IERC721 public marketNft */\n    tag_37:\n      mload(0x40)\n      dup1\n      swap2\n      sub\n      swap1\n      return\n        /* \"source/Marketplace.sol\":54077:54177  function setTradeFee(uint _newTradeFee) public onlyOwner {... */\n    tag_4:\n      callvalue\n      dup1\n      iszero\n      tag_39\n      jumpi\n      0x00\n      dup1\n      revert\n    tag_39:\n      pop\n      tag_30\n      tag_41\n      calldatasize\n      0x04\n      tag_32\n      jump\t// in\n    tag_41:\n      tag_42\n      jump\t// in\n        /* \"source/Marketplace.sol\":54476:55503  function getUserTokensAtSale(address seller)... */\n    tag_5:\n      callvalue\n      dup1\n      iszero\n      tag_43\n      jumpi\n      0x00\n      dup1\n      revert\n    tag_43:\n      pop\n      tag_44\n      tag_45\n      calldatasize\n      0x04\n      tag_46\n      jump\t// in\n    tag_45:\n      tag_47\n      jump\t// in\n    tag_44:\n      mload(0x40)\n      tag_37\n      swap2\n      swap1\n      tag_49\n      jump\t// in\n        /* \"source/Marketplace.sol\":60720:61216  function deSellNFT(uint256 _tokenId) public {... */\n    tag_6:\n      callvalue\n      dup1\n      iszero\n      tag_50\n      jumpi\n      0x00\n      dup1\n      revert\n    tag_50:\n      pop\n      tag_30\n      tag_52\n      calldatasize\n      0x04\n      tag_32\n      jump\t// in\n    tag_52:\n      tag_53\n      jump\t// in\n        /* \"source/Marketplace.sol\":58412:59644  function buyNFT(uint256 _tokenId)... */\n    tag_7:\n      tag_30\n      tag_55\n      calldatasize\n      0x04\n      tag_32\n      jump\t// in\n    tag_55:\n      tag_56\n      jump\t// in\n        /* \"source/Marketplace.sol\":53518:53709  function withdrawWei() public onlyOwner {... */\n    tag_8:\n      callvalue\n      dup1\n      iszero\n      tag_57\n      jumpi\n      0x00\n      dup1\n      revert\n    tag_57:\n      pop\n      tag_30\n      tag_59\n      jump\t// in\n        /* \"source/Marketplace.sol\":51363:51453  function isMarketPlaceContract() public pure returns (bool) {... */\n    tag_9:\n      callvalue\n      dup1\n      iszero\n      tag_60\n      jumpi\n      0x00\n      dup1\n      revert\n    tag_60:\n      pop\n        /* \"source/Marketplace.sol\":51441:51445  true */\n      0x01\n        /* \"source/Marketplace.sol\":51363:51453  function isMarketPlaceContract() public pure returns (bool) {... */\n    tag_61:\n      mload(0x40)\n        /* \"#utility.yul\":2231:2245   */\n      swap1\n      iszero\n        /* \"#utility.yul\":2224:2246   */\n      iszero\n        /* \"#utility.yul\":2206:2247   */\n      dup2\n      mstore\n        /* \"#utility.yul\":2194:2196   */\n      0x20\n        /* \"#utility.yul\":2179:2197   */\n      add\n        /* \"source/Marketplace.sol\":51363:51453  function isMarketPlaceContract() public pure returns (bool) {... */\n      tag_37\n        /* \"#utility.yul\":2066:2253   */\n      jump\n        /* \"source/Marketplace.sol\":51296:51319  uint public version = 1 */\n    tag_10:\n      callvalue\n      dup1\n      iszero\n      tag_65\n      jumpi\n      0x00\n      dup1\n      revert\n    tag_65:\n      pop\n      tag_66\n      sload(0x02)\n      dup2\n      jump\n    tag_66:\n      mload(0x40)\n        /* \"#utility.yul\":2404:2429   */\n      swap1\n      dup2\n      mstore\n        /* \"#utility.yul\":2392:2394   */\n      0x20\n        /* \"#utility.yul\":2377:2395   */\n      add\n        /* \"source/Marketplace.sol\":51296:51319  uint public version = 1 */\n      tag_37\n        /* \"#utility.yul\":2258:2435   */\n      jump\n        /* \"source/Marketplace.sol\":55630:56673  function getTokensAtSale(uint256 offset, uint256 limit)... */\n    tag_11:\n      callvalue\n      dup1\n      iszero\n      tag_70\n      jumpi\n      0x00\n      dup1\n      revert\n    tag_70:\n      pop\n      tag_44\n      tag_72\n      calldatasize\n      0x04\n      tag_73\n      jump\t// in\n    tag_72:\n      tag_74\n      jump\t// in\n        /* \"source/Marketplace.sol\":49200:49286  function paused() public view virtual returns (bool) {... */\n    tag_12:\n      callvalue\n      dup1\n      iszero\n      tag_76\n      jumpi\n      0x00\n      dup1\n      revert\n    tag_76:\n      pop\n        /* \"source/Marketplace.sol\":49247:49251  bool */\n      0x00\n        /* \"source/Marketplace.sol\":49271:49278  _paused */\n      sload\n      shl(0xa0, 0x01)\n      swap1\n      div\n      0xff\n      and\n        /* \"source/Marketplace.sol\":49200:49286  function paused() public view virtual returns (bool) {... */\n      jump(tag_61)\n        /* \"source/Marketplace.sol\":53180:53284  function getAllowedERC20() public view returns(address[] memory) {... */\n    tag_13:\n      callvalue\n      dup1\n      iszero\n      tag_80\n      jumpi\n      0x00\n      dup1\n      revert\n    tag_80:\n      pop\n      tag_81\n      tag_82\n      jump\t// in\n    tag_81:\n      mload(0x40)\n      tag_37\n      swap2\n      swap1\n      tag_84\n      jump\t// in\n        /* \"source/Marketplace.sol\":2667:2770  function renounceOwnership() public virtual onlyOwner {... */\n    tag_14:\n      callvalue\n      dup1\n      iszero\n      tag_85\n      jumpi\n      0x00\n      dup1\n      revert\n    tag_85:\n      pop\n      tag_30\n      tag_87\n      jump\t// in\n        /* \"source/Marketplace.sol\":53292:53510  function isAllowedERC20(address erc20) public view returns (bool) {... */\n    tag_15:\n      callvalue\n      dup1\n      iszero\n      tag_88\n      jumpi\n      0x00\n      dup1\n      revert\n    tag_88:\n      pop\n      tag_61\n      tag_90\n      calldatasize\n      0x04\n      tag_46\n      jump\t// in\n    tag_90:\n      tag_91\n      jump\t// in\n        /* \"source/Marketplace.sol\":59652:60712  function sellNFT(... */\n    tag_16:\n      callvalue\n      dup1\n      iszero\n      tag_93\n      jumpi\n      0x00\n      dup1\n      revert\n    tag_93:\n      pop\n      tag_30\n      tag_95\n      calldatasize\n      0x04\n      tag_96\n      jump\t// in\n    tag_95:\n      tag_97\n      jump\t// in\n        /* \"source/Marketplace.sol\":2019:2106  function owner() public view virtual returns (address) {... */\n    tag_17:\n      callvalue\n      dup1\n      iszero\n      tag_98\n      jumpi\n      0x00\n      dup1\n      revert\n    tag_98:\n      pop\n        /* \"source/Marketplace.sol\":2065:2072  address */\n      0x00\n        /* \"source/Marketplace.sol\":2092:2098  _owner */\n      sload\n      sub(shl(0xa0, 0x01), 0x01)\n      and\n        /* \"source/Marketplace.sol\":2019:2106  function owner() public view virtual returns (address) {... */\n      jump(tag_35)\n        /* \"source/Marketplace.sol\":53986:54071  function getTradeFee() public view returns (uint) {... */\n    tag_18:\n      callvalue\n      dup1\n      iszero\n      tag_103\n      jumpi\n      0x00\n      dup1\n      revert\n    tag_103:\n      pop\n        /* \"source/Marketplace.sol\":54054:54063  _tradeFee */\n      sload(0x03)\n        /* \"source/Marketplace.sol\":53986:54071  function getTradeFee() public view returns (uint) {... */\n      jump(tag_66)\n        /* \"source/Marketplace.sol\":54335:54468  function getMyTokensAtSale() external view returns (SelledNFT[] memory ret) {... */\n    tag_19:\n      callvalue\n      dup1\n      iszero\n      tag_107\n      jumpi\n      0x00\n      dup1\n      revert\n    tag_107:\n      pop\n      tag_44\n      tag_109\n      jump\t// in\n        /* \"source/Marketplace.sol\":55511:55622  function getTokensAtSaleCount() public view returns (uint256) {... */\n    tag_20:\n      callvalue\n      dup1\n      iszero\n      tag_111\n      jumpi\n      0x00\n      dup1\n      revert\n    tag_111:\n      pop\n        /* \"source/Marketplace.sol\":55591:55607  _tokensIdsAtSale */\n      0x07\n        /* \"source/Marketplace.sol\":55591:55614  _tokensIdsAtSale.length */\n      sload\n        /* \"source/Marketplace.sol\":55511:55622  function getTokensAtSaleCount() public view returns (uint256) {... */\n      jump(tag_66)\n        /* \"source/Marketplace.sol\":52822:52915  function getFeeReceiver() public view returns(address) {... */\n    tag_21:\n      callvalue\n      dup1\n      iszero\n      tag_115\n      jumpi\n      0x00\n      dup1\n      revert\n    tag_115:\n      pop\n        /* \"source/Marketplace.sol\":52895:52907  _feeReceiver */\n      and(sub(shl(0xa0, 0x01), 0x01), sload(0x08))\n        /* \"source/Marketplace.sol\":52822:52915  function getFeeReceiver() public view returns(address) {... */\n      jump(tag_35)\n        /* \"source/Marketplace.sol\":53042:53168  function setAllowedERC20(address[] memory newAllowedERC20) public onlyOwner {... */\n    tag_22:\n      callvalue\n      dup1\n      iszero\n      tag_119\n      jumpi\n      0x00\n      dup1\n      revert\n    tag_119:\n      pop\n      tag_30\n      tag_121\n      calldatasize\n      0x04\n      tag_122\n      jump\t// in\n    tag_121:\n      tag_123\n      jump\t// in\n        /* \"source/Marketplace.sol\":52921:53036  function setFeeReceiver(address _newFeeReceiver) public onlyOwner {... */\n    tag_23:\n      callvalue\n      dup1\n      iszero\n      tag_124\n      jumpi\n      0x00\n      dup1\n      revert\n    tag_124:\n      pop\n      tag_30\n      tag_126\n      calldatasize\n      0x04\n      tag_46\n      jump\t// in\n    tag_126:\n      tag_127\n      jump\t// in\n        /* \"source/Marketplace.sol\":2925:3126  function transferOwnership(address newOwner) public virtual onlyOwner {... */\n    tag_24:\n      callvalue\n      dup1\n      iszero\n      tag_128\n      jumpi\n      0x00\n      dup1\n      revert\n    tag_128:\n      pop\n      tag_30\n      tag_130\n      calldatasize\n      0x04\n      tag_46\n      jump\t// in\n    tag_130:\n      tag_131\n      jump\t// in\n        /* \"source/Marketplace.sol\":53717:53978  function withdrawERC20(address erc20) public onlyOwner {... */\n    tag_25:\n      callvalue\n      dup1\n      iszero\n      tag_132\n      jumpi\n      0x00\n      dup1\n      revert\n    tag_132:\n      pop\n      tag_30\n      tag_134\n      calldatasize\n      0x04\n      tag_46\n      jump\t// in\n    tag_134:\n      tag_135\n      jump\t// in\n        /* \"source/Marketplace.sol\":56681:58402  function buyNFTbyERC20(uint _tokenId)... */\n    tag_33:\n        /* \"source/Marketplace.sol\":49247:49251  bool */\n      0x00\n        /* \"source/Marketplace.sol\":49271:49278  _paused */\n      sload\n      shl(0xa0, 0x01)\n      swap1\n      div\n      0xff\n      and\n        /* \"source/Marketplace.sol\":49525:49534  !paused() */\n      iszero\n        /* \"source/Marketplace.sol\":49517:49555  require(!paused(), \"Pausable: paused\") */\n      tag_138\n      jumpi\n      mload(0x40)\n      shl(0xe5, 0x461bcd)\n      dup2\n      mstore\n      0x04\n      add\n      tag_139\n      swap1\n      tag_140\n      jump\t// in\n    tag_139:\n      mload(0x40)\n      dup1\n      swap2\n      sub\n      swap1\n      revert\n    tag_138:\n        /* \"source/Marketplace.sol\":56782:56807  _isTokensAtSale[_tokenId] */\n      0x00\n      dup2\n      dup2\n      mstore\n        /* \"source/Marketplace.sol\":56782:56797  _isTokensAtSale */\n      0x04\n        /* \"source/Marketplace.sol\":56782:56807  _isTokensAtSale[_tokenId] */\n      0x20\n      mstore\n      0x40\n      swap1\n      keccak256\n      sload\n      0xff\n      and\n        /* \"source/Marketplace.sol\":56782:56815  _isTokensAtSale[_tokenId] == true */\n      iszero\n      iszero\n        /* \"source/Marketplace.sol\":56782:56807  _isTokensAtSale[_tokenId] */\n      0x01\n        /* \"source/Marketplace.sol\":56782:56815  _isTokensAtSale[_tokenId] == true */\n      eq\n        /* \"source/Marketplace.sol\":56774:56844  require(_isTokensAtSale[_tokenId] == true, \"This NFT is not for sale\") */\n      tag_142\n      jumpi\n      mload(0x40)\n      shl(0xe5, 0x461bcd)\n      dup2\n      mstore\n        /* \"#utility.yul\":5757:5759   */\n      0x20\n        /* \"source/Marketplace.sol\":56774:56844  require(_isTokensAtSale[_tokenId] == true, \"This NFT is not for sale\") */\n      0x04\n      dup3\n      add\n        /* \"#utility.yul\":5739:5760   */\n      mstore\n        /* \"#utility.yul\":5796:5798   */\n      0x18\n        /* \"#utility.yul\":5776:5794   */\n      0x24\n      dup3\n      add\n        /* \"#utility.yul\":5769:5799   */\n      mstore\n      shl(0x40, 0x54686973204e4654206973206e6f7420666f722073616c65)\n        /* \"#utility.yul\":5815:5833   */\n      0x44\n      dup3\n      add\n        /* \"#utility.yul\":5808:5862   */\n      mstore\n        /* \"#utility.yul\":5879:5897   */\n      0x64\n      add\n        /* \"source/Marketplace.sol\":56774:56844  require(_isTokensAtSale[_tokenId] == true, \"This NFT is not for sale\") */\n      tag_139\n        /* \"#utility.yul\":5555:5903   */\n      jump\n        /* \"source/Marketplace.sol\":56774:56844  require(_isTokensAtSale[_tokenId] == true, \"This NFT is not for sale\") */\n    tag_142:\n        /* \"source/Marketplace.sol\":56904:56905  0 */\n      0x00\n        /* \"source/Marketplace.sol\":56863:56886  _tokensAtSale[_tokenId] */\n      dup2\n      dup2\n      mstore\n        /* \"source/Marketplace.sol\":56863:56876  _tokensAtSale */\n      0x05\n        /* \"source/Marketplace.sol\":56863:56886  _tokensAtSale[_tokenId] */\n      0x20\n      mstore\n      0x40\n      swap1\n      keccak256\n        /* \"source/Marketplace.sol\":56863:56892  _tokensAtSale[_tokenId].erc20 */\n      0x03\n      add\n      sload\n      sub(shl(0xa0, 0x01), 0x01)\n      and\n        /* \"source/Marketplace.sol\":56855:56943  require(_tokensAtSale[_tokenId].erc20 != address(0), \"This token selled by Native coin\") */\n      tag_145\n      jumpi\n      mload(0x40)\n      shl(0xe5, 0x461bcd)\n      dup2\n      mstore\n        /* \"#utility.yul\":6110:6112   */\n      0x20\n        /* \"source/Marketplace.sol\":56855:56943  require(_tokensAtSale[_tokenId].erc20 != address(0), \"This token selled by Native coin\") */\n      0x04\n      dup3\n      add\n        /* \"#utility.yul\":6092:6113   */\n      dup2\n      swap1\n      mstore\n        /* \"#utility.yul\":6129:6147   */\n      0x24\n      dup3\n      add\n        /* \"#utility.yul\":6122:6152   */\n      mstore\n        /* \"#utility.yul\":6188:6222   */\n      0x5468697320746f6b656e2073656c6c6564206279204e617469766520636f696e\n        /* \"#utility.yul\":6168:6186   */\n      0x44\n      dup3\n      add\n        /* \"#utility.yul\":6161:6223   */\n      mstore\n        /* \"#utility.yul\":6240:6258   */\n      0x64\n      add\n        /* \"source/Marketplace.sol\":56855:56943  require(_tokensAtSale[_tokenId].erc20 != address(0), \"This token selled by Native coin\") */\n      tag_139\n        /* \"#utility.yul\":5908:6264   */\n      jump\n        /* \"source/Marketplace.sol\":56855:56943  require(_tokensAtSale[_tokenId].erc20 != address(0), \"This token selled by Native coin\") */\n    tag_145:\n        /* \"source/Marketplace.sol\":56956:56971  IERC20 payToken */\n      0x00\n        /* \"source/Marketplace.sol\":56981:57004  _tokensAtSale[_tokenId] */\n      dup2\n      dup2\n      mstore\n        /* \"source/Marketplace.sol\":56981:56994  _tokensAtSale */\n      0x05\n        /* \"source/Marketplace.sol\":56981:57004  _tokensAtSale[_tokenId] */\n      0x20\n      mstore\n      0x40\n      dup1\n      dup3\n      keccak256\n        /* \"source/Marketplace.sol\":56981:57010  _tokensAtSale[_tokenId].erc20 */\n      0x03\n      add\n      sload\n        /* \"source/Marketplace.sol\":57045:57075  payToken.balanceOf(msg.sender) */\n      swap1\n      mload\n      shl(0xe0, 0x70a08231)\n      dup2\n      mstore\n        /* \"source/Marketplace.sol\":57064:57074  msg.sender */\n      caller\n        /* \"source/Marketplace.sol\":57045:57075  payToken.balanceOf(msg.sender) */\n      0x04\n      dup3\n      add\n        /* \"#utility.yul\":360:411   */\n      mstore\n      sub(shl(0xa0, 0x01), 0x01)\n        /* \"source/Marketplace.sol\":56981:57010  _tokensAtSale[_tokenId].erc20 */\n      swap1\n      swap2\n      and\n      swap2\n        /* \"source/Marketplace.sol\":56956:56971  IERC20 payToken */\n      swap1\n        /* \"source/Marketplace.sol\":56981:57010  _tokensAtSale[_tokenId].erc20 */\n      dup3\n      swap1\n        /* \"source/Marketplace.sol\":57045:57063  payToken.balanceOf */\n      0x70a08231\n      swap1\n        /* \"#utility.yul\":333:351   */\n      0x24\n      add\n        /* \"source/Marketplace.sol\":57045:57075  payToken.balanceOf(msg.sender) */\n      0x20\n      mload(0x40)\n      dup1\n      dup4\n      sub\n      dup2\n      dup7\n      gas\n      staticcall\n      iszero\n      dup1\n      iszero\n      tag_150\n      jumpi\n      returndatasize\n      0x00\n      dup1\n      returndatacopy\n      revert(0x00, returndatasize)\n    tag_150:\n      pop\n      pop\n      pop\n      pop\n      mload(0x40)\n      returndatasize\n      not(0x1f)\n      0x1f\n      dup3\n      add\n      and\n      dup3\n      add\n      dup1\n      0x40\n      mstore\n      pop\n      dup2\n      add\n      swap1\n      tag_151\n      swap2\n      swap1\n      tag_152\n      jump\t// in\n    tag_151:\n        /* \"source/Marketplace.sol\":57110:57133  _tokensAtSale[_tokenId] */\n      0x00\n      dup5\n      dup2\n      mstore\n        /* \"source/Marketplace.sol\":57110:57123  _tokensAtSale */\n      0x05\n        /* \"source/Marketplace.sol\":57110:57133  _tokensAtSale[_tokenId] */\n      0x20\n      mstore\n      0x40\n      swap1\n      keccak256\n        /* \"source/Marketplace.sol\":57110:57139  _tokensAtSale[_tokenId].price */\n      0x02\n      add\n      sload\n        /* \"source/Marketplace.sol\":57022:57075  uint256 buyerBalance = payToken.balanceOf(msg.sender) */\n      swap1\n      swap2\n      pop\n        /* \"source/Marketplace.sol\":57094:57139  buyerBalance >= _tokensAtSale[_tokenId].price */\n      dup2\n      lt\n      iszero\n        /* \"source/Marketplace.sol\":57086:57196  require(buyerBalance >= _tokensAtSale[_tokenId].price, \"You do not have enough tokens on your balance to pay\") */\n      tag_153\n      jumpi\n      mload(0x40)\n      shl(0xe5, 0x461bcd)\n      dup2\n      mstore\n        /* \"#utility.yul\":6660:6662   */\n      0x20\n        /* \"source/Marketplace.sol\":57086:57196  require(buyerBalance >= _tokensAtSale[_tokenId].price, \"You do not have enough tokens on your balance to pay\") */\n      0x04\n      dup3\n      add\n        /* \"#utility.yul\":6642:6663   */\n      mstore\n        /* \"#utility.yul\":6699:6701   */\n      0x34\n        /* \"#utility.yul\":6679:6697   */\n      0x24\n      dup3\n      add\n        /* \"#utility.yul\":6672:6702   */\n      mstore\n        /* \"#utility.yul\":6738:6772   */\n      0x596f7520646f206e6f74206861766520656e6f75676820746f6b656e73206f6e\n        /* \"#utility.yul\":6718:6736   */\n      0x44\n      dup3\n      add\n        /* \"#utility.yul\":6711:6773   */\n      mstore\n      shl(0x60, 0x20796f75722062616c616e636520746f20706179)\n        /* \"#utility.yul\":6789:6807   */\n      0x64\n      dup3\n      add\n        /* \"#utility.yul\":6782:6832   */\n      mstore\n        /* \"#utility.yul\":6849:6868   */\n      0x84\n      add\n        /* \"source/Marketplace.sol\":57086:57196  require(buyerBalance >= _tokensAtSale[_tokenId].price, \"You do not have enough tokens on your balance to pay\") */\n      tag_139\n        /* \"#utility.yul\":6458:6874   */\n      jump\n        /* \"source/Marketplace.sol\":57086:57196  require(buyerBalance >= _tokensAtSale[_tokenId].price, \"You do not have enough tokens on your balance to pay\") */\n    tag_153:\n        /* \"source/Marketplace.sol\":57232:57277  payToken.allowance(msg.sender, address(this)) */\n      mload(0x40)\n      shl(0xe1, 0x6eb1769f)\n      dup2\n      mstore\n        /* \"source/Marketplace.sol\":57251:57261  msg.sender */\n      caller\n        /* \"source/Marketplace.sol\":57232:57277  payToken.allowance(msg.sender, address(this)) */\n      0x04\n      dup3\n      add\n        /* \"#utility.yul\":7091:7125   */\n      mstore\n        /* \"source/Marketplace.sol\":57271:57275  this */\n      address\n        /* \"#utility.yul\":7141:7159   */\n      0x24\n      dup3\n      add\n        /* \"#utility.yul\":7134:7177   */\n      mstore\n        /* \"source/Marketplace.sol\":57207:57229  uint256 buyerAllowance */\n      0x00\n      swap1\n      sub(shl(0xa0, 0x01), 0x01)\n        /* \"source/Marketplace.sol\":57232:57250  payToken.allowance */\n      dup5\n      and\n      swap1\n      0xdd62ed3e\n      swap1\n        /* \"#utility.yul\":7026:7044   */\n      0x44\n      add\n        /* \"source/Marketplace.sol\":57232:57277  payToken.allowance(msg.sender, address(this)) */\n      0x20\n      mload(0x40)\n      dup1\n      dup4\n      sub\n      dup2\n      dup7\n      gas\n      staticcall\n      iszero\n      dup1\n      iszero\n      tag_159\n      jumpi\n      returndatasize\n      0x00\n      dup1\n      returndatacopy\n      revert(0x00, returndatasize)\n    tag_159:\n      pop\n      pop\n      pop\n      pop\n      mload(0x40)\n      returndatasize\n      not(0x1f)\n      0x1f\n      dup3\n      add\n      and\n      dup3\n      add\n      dup1\n      0x40\n      mstore\n      pop\n      dup2\n      add\n      swap1\n      tag_160\n      swap2\n      swap1\n      tag_152\n      jump\t// in\n    tag_160:\n        /* \"source/Marketplace.sol\":57314:57337  _tokensAtSale[_tokenId] */\n      0x00\n      dup6\n      dup2\n      mstore\n        /* \"source/Marketplace.sol\":57314:57327  _tokensAtSale */\n      0x05\n        /* \"source/Marketplace.sol\":57314:57337  _tokensAtSale[_tokenId] */\n      0x20\n      mstore\n      0x40\n      swap1\n      keccak256\n        /* \"source/Marketplace.sol\":57314:57343  _tokensAtSale[_tokenId].price */\n      0x02\n      add\n      sload\n        /* \"source/Marketplace.sol\":57207:57277  uint256 buyerAllowance = payToken.allowance(msg.sender, address(this)) */\n      swap1\n      swap2\n      pop\n        /* \"source/Marketplace.sol\":57296:57343  buyerAllowance >= _tokensAtSale[_tokenId].price */\n      dup2\n      lt\n      iszero\n        /* \"source/Marketplace.sol\":57288:57406  require(buyerAllowance >= _tokensAtSale[_tokenId].price, \"You did not allow the contract to send the purchase amount\") */\n      tag_161\n      jumpi\n      mload(0x40)\n      shl(0xe5, 0x461bcd)\n      dup2\n      mstore\n        /* \"#utility.yul\":7390:7392   */\n      0x20\n        /* \"source/Marketplace.sol\":57288:57406  require(buyerAllowance >= _tokensAtSale[_tokenId].price, \"You did not allow the contract to send the purchase amount\") */\n      0x04\n      dup3\n      add\n        /* \"#utility.yul\":7372:7393   */\n      mstore\n        /* \"#utility.yul\":7429:7431   */\n      0x3a\n        /* \"#utility.yul\":7409:7427   */\n      0x24\n      dup3\n      add\n        /* \"#utility.yul\":7402:7432   */\n      mstore\n        /* \"#utility.yul\":7468:7502   */\n      0x596f7520646964206e6f7420616c6c6f772074686520636f6e74726163742074\n        /* \"#utility.yul\":7448:7466   */\n      0x44\n      dup3\n      add\n        /* \"#utility.yul\":7441:7503   */\n      mstore\n        /* \"#utility.yul\":7539:7567   */\n      0x6f2073656e642074686520707572636861736520616d6f756e74000000000000\n        /* \"#utility.yul\":7519:7537   */\n      0x64\n      dup3\n      add\n        /* \"#utility.yul\":7512:7568   */\n      mstore\n        /* \"#utility.yul\":7585:7604   */\n      0x84\n      add\n        /* \"source/Marketplace.sol\":57288:57406  require(buyerAllowance >= _tokensAtSale[_tokenId].price, \"You did not allow the contract to send the purchase amount\") */\n      tag_139\n        /* \"#utility.yul\":7188:7610   */\n      jump\n        /* \"source/Marketplace.sol\":57288:57406  require(buyerAllowance >= _tokensAtSale[_tokenId].price, \"You did not allow the contract to send the purchase amount\") */\n    tag_161:\n        /* \"source/Marketplace.sol\":57429:57443  uint256 amount */\n      0x00\n        /* \"source/Marketplace.sol\":57446:57469  _tokensAtSale[_tokenId] */\n      dup5\n      dup2\n      mstore\n        /* \"source/Marketplace.sol\":57446:57459  _tokensAtSale */\n      0x05\n        /* \"source/Marketplace.sol\":57446:57469  _tokensAtSale[_tokenId] */\n      0x20\n      mstore\n      0x40\n      dup2\n      keccak256\n        /* \"source/Marketplace.sol\":57446:57475  _tokensAtSale[_tokenId].price */\n      0x02\n      add\n      sload\n      swap1\n        /* \"source/Marketplace.sol\":57506:57556  SafeMath.mul(SafeMath.div(amount, 100), _tradeFee) */\n      tag_164\n        /* \"source/Marketplace.sol\":57519:57544  SafeMath.div(amount, 100) */\n      tag_165\n        /* \"source/Marketplace.sol\":57446:57475  _tokensAtSale[_tokenId].price */\n      dup4\n        /* \"source/Marketplace.sol\":57540:57543  100 */\n      0x64\n        /* \"source/Marketplace.sol\":57519:57531  SafeMath.div */\n      tag_166\n        /* \"source/Marketplace.sol\":57519:57544  SafeMath.div(amount, 100) */\n      jump\t// in\n    tag_165:\n        /* \"source/Marketplace.sol\":57546:57555  _tradeFee */\n      sload(0x03)\n        /* \"source/Marketplace.sol\":57506:57518  SafeMath.mul */\n      tag_167\n        /* \"source/Marketplace.sol\":57506:57556  SafeMath.mul(SafeMath.div(amount, 100), _tradeFee) */\n      jump\t// in\n    tag_164:\n        /* \"source/Marketplace.sol\":57486:57556  uint256 feeAmount = SafeMath.mul(SafeMath.div(amount, 100), _tradeFee) */\n      swap1\n      pop\n        /* \"source/Marketplace.sol\":57605:57612  owner() */\n      tag_168\n        /* \"source/Marketplace.sol\":2065:2072  address */\n      0x00\n        /* \"source/Marketplace.sol\":2092:2098  _owner */\n      sload\n      sub(shl(0xa0, 0x01), 0x01)\n      and\n      swap1\n        /* \"source/Marketplace.sol\":2019:2106  function owner() public view virtual returns (address) {... */\n      jump\n        /* \"source/Marketplace.sol\":57605:57612  owner() */\n    tag_168:\n        /* \"source/Marketplace.sol\":57571:57594  _tokensAtSale[_tokenId] */\n      0x00\n      dup8\n      dup2\n      mstore\n        /* \"source/Marketplace.sol\":57571:57584  _tokensAtSale */\n      0x05\n        /* \"source/Marketplace.sol\":57571:57594  _tokensAtSale[_tokenId] */\n      0x20\n      mstore\n      0x40\n      swap1\n      keccak256\n        /* \"source/Marketplace.sol\":57571:57601  _tokensAtSale[_tokenId].seller */\n      0x01\n      add\n      sload\n      sub(shl(0xa0, 0x01), 0x01)\n        /* \"source/Marketplace.sol\":57571:57612  _tokensAtSale[_tokenId].seller == owner() */\n      swap2\n      dup3\n      and\n        /* \"source/Marketplace.sol\":57571:57601  _tokensAtSale[_tokenId].seller */\n      swap2\n      and\n        /* \"source/Marketplace.sol\":57571:57612  _tokensAtSale[_tokenId].seller == owner() */\n      sub\n        /* \"source/Marketplace.sol\":57567:57627  if (_tokensAtSale[_tokenId].seller == owner()) feeAmount = 0 */\n      tag_169\n      jumpi\n      pop\n        /* \"source/Marketplace.sol\":57626:57627  0 */\n      0x00\n        /* \"source/Marketplace.sol\":57567:57627  if (_tokensAtSale[_tokenId].seller == owner()) feeAmount = 0 */\n    tag_169:\n        /* \"source/Marketplace.sol\":57638:57659  uint256 amountWithFee */\n      0x00\n        /* \"source/Marketplace.sol\":57662:57693  SafeMath.sub(amount, feeAmount) */\n      tag_170\n        /* \"source/Marketplace.sol\":57675:57681  amount */\n      dup4\n        /* \"source/Marketplace.sol\":57683:57692  feeAmount */\n      dup4\n        /* \"source/Marketplace.sol\":57662:57674  SafeMath.sub */\n      tag_171\n        /* \"source/Marketplace.sol\":57662:57693  SafeMath.sub(amount, feeAmount) */\n      jump\t// in\n    tag_170:\n        /* \"source/Marketplace.sol\":57788:57811  _tokensAtSale[_tokenId] */\n      0x00\n      dup9\n      dup2\n      mstore\n        /* \"source/Marketplace.sol\":57788:57801  _tokensAtSale */\n      0x05\n        /* \"source/Marketplace.sol\":57788:57811  _tokensAtSale[_tokenId] */\n      0x20\n      mstore\n      0x40\n      swap1\n      keccak256\n        /* \"source/Marketplace.sol\":57788:57818  _tokensAtSale[_tokenId].seller */\n      0x01\n      add\n      sload\n        /* \"source/Marketplace.sol\":57638:57693  uint256 amountWithFee = SafeMath.sub(amount, feeAmount) */\n      swap1\n      swap2\n      pop\n        /* \"source/Marketplace.sol\":57706:57858  payToken.safeTransferFrom(... */\n      tag_172\n      swap1\n      sub(shl(0xa0, 0x01), 0x01)\n        /* \"source/Marketplace.sol\":57706:57731  payToken.safeTransferFrom */\n      dup9\n      dup2\n      and\n      swap2\n        /* \"source/Marketplace.sol\":57754:57764  msg.sender */\n      caller\n      swap2\n        /* \"source/Marketplace.sol\":57788:57818  _tokensAtSale[_tokenId].seller */\n      and\n        /* \"source/Marketplace.sol\":57638:57693  uint256 amountWithFee = SafeMath.sub(amount, feeAmount) */\n      dup5\n        /* \"source/Marketplace.sol\":57706:57731  payToken.safeTransferFrom */\n      tag_173\n        /* \"source/Marketplace.sol\":57706:57858  payToken.safeTransferFrom(... */\n      jump\t// in\n    tag_172:\n        /* \"source/Marketplace.sol\":57873:57886  feeAmount > 0 */\n      dup2\n      iszero\n        /* \"source/Marketplace.sol\":57869:58061  if (feeAmount > 0) {... */\n      tag_175\n      jumpi\n        /* \"source/Marketplace.sol\":57993:58005  _feeReceiver */\n      sload(0x08)\n        /* \"source/Marketplace.sol\":57903:58049  payToken.safeTransferFrom(... */\n      tag_175\n      swap1\n      sub(shl(0xa0, 0x01), 0x01)\n        /* \"source/Marketplace.sol\":57903:57928  payToken.safeTransferFrom */\n      dup9\n      dup2\n      and\n      swap2\n        /* \"source/Marketplace.sol\":57955:57965  msg.sender */\n      caller\n      swap2\n        /* \"source/Marketplace.sol\":57993:58005  _feeReceiver */\n      and\n        /* \"source/Marketplace.sol\":58025:58034  feeAmount */\n      dup6\n        /* \"source/Marketplace.sol\":57903:57928  payToken.safeTransferFrom */\n      tag_173\n        /* \"source/Marketplace.sol\":57903:58049  payToken.safeTransferFrom(... */\n      jump\t// in\n    tag_175:\n        /* \"source/Marketplace.sol\":58071:58080  marketNft */\n      sload(0x01)\n        /* \"source/Marketplace.sol\":58071:58130  marketNft.transferFrom(address(this), msg.sender, _tokenId) */\n      mload(0x40)\n      shl(0xe0, 0x23b872dd)\n      dup2\n      mstore\n      sub(shl(0xa0, 0x01), 0x01)\n        /* \"source/Marketplace.sol\":58071:58080  marketNft */\n      swap1\n      swap2\n      and\n      swap1\n        /* \"source/Marketplace.sol\":58071:58093  marketNft.transferFrom */\n      0x23b872dd\n      swap1\n        /* \"source/Marketplace.sol\":58071:58130  marketNft.transferFrom(address(this), msg.sender, _tokenId) */\n      tag_176\n      swap1\n        /* \"source/Marketplace.sol\":58102:58106  this */\n      address\n      swap1\n        /* \"source/Marketplace.sol\":58109:58119  msg.sender */\n      caller\n      swap1\n        /* \"source/Marketplace.sol\":58121:58129  _tokenId */\n      dup13\n      swap1\n        /* \"source/Marketplace.sol\":58071:58130  marketNft.transferFrom(address(this), msg.sender, _tokenId) */\n      0x04\n      add\n      tag_177\n      jump\t// in\n    tag_176:\n      0x00\n      mload(0x40)\n      dup1\n      dup4\n      sub\n      dup2\n      0x00\n      dup8\n      dup1\n      extcodesize\n      iszero\n      dup1\n      iszero\n      tag_178\n      jumpi\n      0x00\n      dup1\n      revert\n    tag_178:\n      pop\n      gas\n      call\n      iszero\n      dup1\n      iszero\n      tag_180\n      jumpi\n      returndatasize\n      0x00\n      dup1\n      returndatacopy\n      revert(0x00, returndatasize)\n    tag_180:\n      pop\n      pop\n      pop\n        /* \"source/Marketplace.sol\":58169:58174  false */\n      0x00\n        /* \"source/Marketplace.sol\":58141:58166  _isTokensAtSale[_tokenId] */\n      dup9\n      dup2\n      mstore\n        /* \"source/Marketplace.sol\":58141:58156  _isTokensAtSale */\n      0x04\n        /* \"source/Marketplace.sol\":58141:58166  _isTokensAtSale[_tokenId] */\n      0x20\n      mstore\n      0x40\n      swap1\n      keccak256\n        /* \"source/Marketplace.sol\":58141:58174  _isTokensAtSale[_tokenId] = false */\n      dup1\n      sload\n      not(0xff)\n      and\n      swap1\n      sstore\n      pop\n        /* \"source/Marketplace.sol\":58185:58210  _clearSellToken(_tokenId) */\n      tag_181\n        /* \"source/Marketplace.sol\":58157:58165  _tokenId */\n      dup8\n        /* \"source/Marketplace.sol\":58185:58200  _clearSellToken */\n      tag_182\n        /* \"source/Marketplace.sol\":58185:58210  _clearSellToken(_tokenId) */\n      jump\t// in\n    tag_181:\n        /* \"source/Marketplace.sol\":58221:58248  __delTokenForSale(_tokenId) */\n      tag_183\n        /* \"source/Marketplace.sol\":58239:58247  _tokenId */\n      dup8\n        /* \"source/Marketplace.sol\":58221:58238  __delTokenForSale */\n      tag_184\n        /* \"source/Marketplace.sol\":58221:58248  __delTokenForSale(_tokenId) */\n      jump\t// in\n    tag_183:\n        /* \"source/Marketplace.sol\":58279:58302  _tokensAtSale[_tokenId] */\n      0x00\n      dup8\n      dup2\n      mstore\n        /* \"source/Marketplace.sol\":58279:58292  _tokensAtSale */\n      0x05\n        /* \"source/Marketplace.sol\":58279:58302  _tokensAtSale[_tokenId] */\n      0x20\n      swap1\n      dup2\n      mstore\n      0x40\n      swap2\n      dup3\n      swap1\n      keccak256\n        /* \"source/Marketplace.sol\":58279:58309  _tokensAtSale[_tokenId].seller */\n      0x01\n      dup2\n      add\n      sload\n        /* \"source/Marketplace.sol\":58333:58362  _tokensAtSale[_tokenId].erc20 */\n      0x03\n      dup3\n      add\n      sload\n        /* \"source/Marketplace.sol\":58364:58393  _tokensAtSale[_tokenId].price */\n      0x02\n      swap1\n      swap3\n      add\n      sload\n        /* \"source/Marketplace.sol\":58266:58394  BuyWithERC20(_tokensAtSale[_tokenId].seller, msg.sender, _tokenId, _tokensAtSale[_tokenId].erc20, _tokensAtSale[_tokenId].price) */\n      dup5\n      mload\n      sub(shl(0xa0, 0x01), 0x01)\n        /* \"source/Marketplace.sol\":58279:58309  _tokensAtSale[_tokenId].seller */\n      swap3\n      dup4\n      and\n        /* \"#utility.yul\":8292:8326   */\n      dup2\n      mstore\n        /* \"source/Marketplace.sol\":58311:58321  msg.sender */\n      caller\n        /* \"#utility.yul\":8342:8360   */\n      swap5\n      dup2\n      add\n        /* \"#utility.yul\":8335:8378   */\n      swap5\n      swap1\n      swap5\n      mstore\n        /* \"#utility.yul\":8394:8412   */\n      dup4\n      dup6\n      add\n        /* \"#utility.yul\":8387:8421   */\n      dup13\n      swap1\n      mstore\n        /* \"source/Marketplace.sol\":58333:58362  _tokensAtSale[_tokenId].erc20 */\n      swap2\n      and\n        /* \"#utility.yul\":8452:8454   */\n      0x60\n        /* \"#utility.yul\":8437:8455   */\n      dup4\n      add\n        /* \"#utility.yul\":8430:8473   */\n      mstore\n        /* \"#utility.yul\":8504:8507   */\n      0x80\n        /* \"#utility.yul\":8489:8508   */\n      dup3\n      add\n        /* \"#utility.yul\":8482:8517   */\n      mstore\n        /* \"source/Marketplace.sol\":58266:58394  BuyWithERC20(_tokensAtSale[_tokenId].seller, msg.sender, _tokenId, _tokensAtSale[_tokenId].erc20, _tokensAtSale[_tokenId].price) */\n      swap1\n      mload\n      0xd369fdcfeb128f60117661ebd8f220b7265c0a04fee0e9905eb8c6ab2767b9e5\n      swap2\n      dup2\n      swap1\n      sub\n        /* \"#utility.yul\":8241:8244   */\n      0xa0\n        /* \"source/Marketplace.sol\":58266:58394  BuyWithERC20(_tokensAtSale[_tokenId].seller, msg.sender, _tokenId, _tokensAtSale[_tokenId].erc20, _tokensAtSale[_tokenId].price) */\n      add\n      swap1\n      log1\n        /* \"source/Marketplace.sol\":56763:58402  {... */\n      pop\n      pop\n      pop\n      pop\n      pop\n      pop\n        /* \"source/Marketplace.sol\":56681:58402  function buyNFTbyERC20(uint _tokenId)... */\n      pop\n      jump\t// out\n        /* \"source/Marketplace.sol\":54077:54177  function setTradeFee(uint _newTradeFee) public onlyOwner {... */\n    tag_42:\n        /* \"source/Marketplace.sol\":1905:1918  _checkOwner() */\n      tag_188\n        /* \"source/Marketplace.sol\":1905:1916  _checkOwner */\n      tag_189\n        /* \"source/Marketplace.sol\":1905:1918  _checkOwner() */\n      jump\t// in\n    tag_188:\n        /* \"source/Marketplace.sol\":54145:54154  _tradeFee */\n      0x03\n        /* \"source/Marketplace.sol\":54145:54169  _tradeFee = _newTradeFee */\n      sstore\n        /* \"source/Marketplace.sol\":54077:54177  function setTradeFee(uint _newTradeFee) public onlyOwner {... */\n      jump\t// out\n        /* \"source/Marketplace.sol\":54476:55503  function getUserTokensAtSale(address seller)... */\n    tag_47:\n        /* \"source/Marketplace.sol\":54560:54582  SelledNFT[] memory ret */\n      0x60\n        /* \"source/Marketplace.sol\":54600:54616  uint256 _counter */\n      0x00\n        /* \"source/Marketplace.sol\":54636:54645  uint256 i */\n      dup1\n        /* \"source/Marketplace.sol\":54631:54779  for (uint256 i = 0; i < _tokensIdsAtSale.length; i++) {... */\n    tag_192:\n        /* \"source/Marketplace.sol\":54655:54671  _tokensIdsAtSale */\n      0x07\n        /* \"source/Marketplace.sol\":54655:54678  _tokensIdsAtSale.length */\n      sload\n        /* \"source/Marketplace.sol\":54651:54678  i < _tokensIdsAtSale.length */\n      dup2\n      lt\n        /* \"source/Marketplace.sol\":54631:54779  for (uint256 i = 0; i < _tokensIdsAtSale.length; i++) {... */\n      iszero\n      tag_193\n      jumpi\n        /* \"source/Marketplace.sol\":54749:54755  seller */\n      dup4\n      sub(shl(0xa0, 0x01), 0x01)\n        /* \"source/Marketplace.sol\":54704:54755  _tokensAtSale[_tokensIdsAtSale[i]].seller == seller */\n      and\n        /* \"source/Marketplace.sol\":54704:54717  _tokensAtSale */\n      0x05\n        /* \"source/Marketplace.sol\":54704:54738  _tokensAtSale[_tokensIdsAtSale[i]] */\n      0x00\n        /* \"source/Marketplace.sol\":54718:54734  _tokensIdsAtSale */\n      0x07\n        /* \"source/Marketplace.sol\":54735:54736  i */\n      dup5\n        /* \"source/Marketplace.sol\":54718:54737  _tokensIdsAtSale[i] */\n      dup2\n      sload\n      dup2\n      lt\n      tag_196\n      jumpi\n      tag_196\n      tag_197\n      jump\t// in\n    tag_196:\n      0x00\n      swap2\n      dup3\n      mstore\n      0x20\n      dup1\n      dup4\n      keccak256\n      swap1\n      swap2\n      add\n      sload\n        /* \"source/Marketplace.sol\":54704:54738  _tokensAtSale[_tokensIdsAtSale[i]] */\n      dup4\n      mstore\n      dup3\n      add\n      swap3\n      swap1\n      swap3\n      mstore\n      0x40\n      add\n      swap1\n      keccak256\n        /* \"source/Marketplace.sol\":54704:54745  _tokensAtSale[_tokensIdsAtSale[i]].seller */\n      0x01\n      add\n      sload\n      sub(shl(0xa0, 0x01), 0x01)\n      and\n        /* \"source/Marketplace.sol\":54704:54755  _tokensAtSale[_tokensIdsAtSale[i]].seller == seller */\n      sub\n        /* \"source/Marketplace.sol\":54700:54767  if (_tokensAtSale[_tokensIdsAtSale[i]].seller == seller) _counter++ */\n      tag_199\n      jumpi\n        /* \"source/Marketplace.sol\":54757:54767  _counter++ */\n      dup2\n      tag_200\n      dup2\n      tag_201\n      jump\t// in\n    tag_200:\n      swap3\n      pop\n      pop\n        /* \"source/Marketplace.sol\":54700:54767  if (_tokensAtSale[_tokensIdsAtSale[i]].seller == seller) _counter++ */\n    tag_199:\n        /* \"source/Marketplace.sol\":54680:54683  i++ */\n      dup1\n      tag_202\n      dup2\n      tag_201\n      jump\t// in\n    tag_202:\n      swap2\n      pop\n      pop\n        /* \"source/Marketplace.sol\":54631:54779  for (uint256 i = 0; i < _tokensIdsAtSale.length; i++) {... */\n      jump(tag_192)\n    tag_193:\n      pop\n        /* \"source/Marketplace.sol\":54789:54812  SelledNFT[] memory _ret */\n      0x00\n        /* \"source/Marketplace.sol\":54831:54839  _counter */\n      dup2\n        /* \"source/Marketplace.sol\":54815:54840  new SelledNFT[](_counter) */\n      0xffffffffffffffff\n      dup2\n      gt\n      iszero\n      tag_204\n      jumpi\n      tag_204\n      tag_205\n      jump\t// in\n    tag_204:\n      mload(0x40)\n      swap1\n      dup1\n      dup3\n      mstore\n      dup1\n      0x20\n      mul\n      0x20\n      add\n      dup3\n      add\n      0x40\n      mstore\n      dup1\n      iszero\n      tag_206\n      jumpi\n      dup2\n      0x20\n      add\n    tag_207:\n      tag_208\n      tag_209\n      jump\t// in\n    tag_208:\n      dup2\n      mstore\n      0x20\n      add\n      swap1\n      0x01\n      swap1\n      sub\n      swap1\n      dup2\n      tag_207\n      jumpi\n      swap1\n      pop\n    tag_206:\n      pop\n        /* \"source/Marketplace.sol\":54789:54840  SelledNFT[] memory _ret = new SelledNFT[](_counter) */\n      swap1\n      pop\n        /* \"source/Marketplace.sol\":54862:54863  0 */\n      0x00\n        /* \"source/Marketplace.sol\":54851:54863  _counter = 0 */\n      swap2\n      pop\n        /* \"source/Marketplace.sol\":54881:54890  uint256 i */\n      0x00\n        /* \"source/Marketplace.sol\":54876:55472  for (uint256 i = 0; i < _tokensIdsAtSale.length; i++) {... */\n    tag_210:\n        /* \"source/Marketplace.sol\":54900:54916  _tokensIdsAtSale */\n      0x07\n        /* \"source/Marketplace.sol\":54900:54923  _tokensIdsAtSale.length */\n      sload\n        /* \"source/Marketplace.sol\":54896:54923  i < _tokensIdsAtSale.length */\n      dup2\n      lt\n        /* \"source/Marketplace.sol\":54876:55472  for (uint256 i = 0; i < _tokensIdsAtSale.length; i++) {... */\n      iszero\n      tag_211\n      jumpi\n        /* \"source/Marketplace.sol\":54994:55000  seller */\n      dup5\n      sub(shl(0xa0, 0x01), 0x01)\n        /* \"source/Marketplace.sol\":54949:55000  _tokensAtSale[_tokensIdsAtSale[i]].seller == seller */\n      and\n        /* \"source/Marketplace.sol\":54949:54962  _tokensAtSale */\n      0x05\n        /* \"source/Marketplace.sol\":54949:54983  _tokensAtSale[_tokensIdsAtSale[i]] */\n      0x00\n        /* \"source/Marketplace.sol\":54963:54979  _tokensIdsAtSale */\n      0x07\n        /* \"source/Marketplace.sol\":54980:54981  i */\n      dup5\n        /* \"source/Marketplace.sol\":54963:54982  _tokensIdsAtSale[i] */\n      dup2\n      sload\n      dup2\n      lt\n      tag_214\n      jumpi\n      tag_214\n      tag_197\n      jump\t// in\n    tag_214:\n      0x00\n      swap2\n      dup3\n      mstore\n      0x20\n      dup1\n      dup4\n      keccak256\n      swap1\n      swap2\n      add\n      sload\n        /* \"source/Marketplace.sol\":54949:54983  _tokensAtSale[_tokensIdsAtSale[i]] */\n      dup4\n      mstore\n      dup3\n      add\n      swap3\n      swap1\n      swap3\n      mstore\n      0x40\n      add\n      swap1\n      keccak256\n        /* \"source/Marketplace.sol\":54949:54990  _tokensAtSale[_tokensIdsAtSale[i]].seller */\n      0x01\n      add\n      sload\n      sub(shl(0xa0, 0x01), 0x01)\n      and\n        /* \"source/Marketplace.sol\":54949:55000  _tokensAtSale[_tokensIdsAtSale[i]].seller == seller */\n      sub\n        /* \"source/Marketplace.sol\":54945:55461  if (_tokensAtSale[_tokensIdsAtSale[i]].seller == seller) {... */\n      tag_216\n      jumpi\n        /* \"source/Marketplace.sol\":55021:55047  SelledNFT memory _pushItem */\n      0x00\n        /* \"source/Marketplace.sol\":55050:55371  SelledNFT(... */\n      mload(0x40)\n      dup1\n      0xa0\n      add\n      0x40\n      mstore\n      dup1\n        /* \"source/Marketplace.sol\":55082:55098  _tokensIdsAtSale */\n      0x07\n        /* \"source/Marketplace.sol\":55099:55100  i */\n      dup5\n        /* \"source/Marketplace.sol\":55082:55101  _tokensIdsAtSale[i] */\n      dup2\n      sload\n      dup2\n      lt\n      tag_218\n      jumpi\n      tag_218\n      tag_197\n      jump\t// in\n    tag_218:\n      swap1\n      0x00\n      mstore\n      keccak256(0x00, 0x20)\n      add\n      sload\n        /* \"source/Marketplace.sol\":55050:55371  SelledNFT(... */\n      dup2\n      mstore\n      0x20\n      add\n        /* \"source/Marketplace.sol\":55124:55137  _tokensAtSale */\n      0x05\n        /* \"source/Marketplace.sol\":55124:55158  _tokensAtSale[_tokensIdsAtSale[i]] */\n      0x00\n        /* \"source/Marketplace.sol\":55138:55154  _tokensIdsAtSale */\n      0x07\n        /* \"source/Marketplace.sol\":55155:55156  i */\n      dup7\n        /* \"source/Marketplace.sol\":55138:55157  _tokensIdsAtSale[i] */\n      dup2\n      sload\n      dup2\n      lt\n      tag_221\n      jumpi\n      tag_221\n      tag_197\n      jump\t// in\n    tag_221:\n      swap1\n      0x00\n      mstore\n      keccak256(0x00, 0x20)\n      add\n      sload\n        /* \"source/Marketplace.sol\":55124:55158  _tokensAtSale[_tokensIdsAtSale[i]] */\n      dup2\n      mstore\n      0x20\n      add\n      swap1\n      dup2\n      mstore\n      0x20\n      add\n      0x00\n      keccak256\n        /* \"source/Marketplace.sol\":55124:55165  _tokensAtSale[_tokensIdsAtSale[i]].seller */\n      0x01\n      add\n      0x00\n      swap1\n      sload\n      swap1\n      0x0100\n      exp\n      swap1\n      div\n      sub(shl(0xa0, 0x01), 0x01)\n      and\n      sub(shl(0xa0, 0x01), 0x01)\n        /* \"source/Marketplace.sol\":55050:55371  SelledNFT(... */\n      and\n      dup2\n      mstore\n      0x20\n      add\n        /* \"source/Marketplace.sol\":55188:55201  _tokensAtSale */\n      0x05\n        /* \"source/Marketplace.sol\":55188:55222  _tokensAtSale[_tokensIdsAtSale[i]] */\n      0x00\n        /* \"source/Marketplace.sol\":55202:55218  _tokensIdsAtSale */\n      0x07\n        /* \"source/Marketplace.sol\":55219:55220  i */\n      dup7\n        /* \"source/Marketplace.sol\":55202:55221  _tokensIdsAtSale[i] */\n      dup2\n      sload\n      dup2\n      lt\n      tag_224\n      jumpi\n      tag_224\n      tag_197\n      jump\t// in\n    tag_224:\n      swap1\n      0x00\n      mstore\n      keccak256(0x00, 0x20)\n      add\n      sload\n        /* \"source/Marketplace.sol\":55188:55222  _tokensAtSale[_tokensIdsAtSale[i]] */\n      dup2\n      mstore\n      0x20\n      add\n      swap1\n      dup2\n      mstore\n      0x20\n      add\n      0x00\n      keccak256\n        /* \"source/Marketplace.sol\":55188:55228  _tokensAtSale[_tokensIdsAtSale[i]].price */\n      0x02\n      add\n      sload\n        /* \"source/Marketplace.sol\":55050:55371  SelledNFT(... */\n      dup2\n      mstore\n      0x20\n      add\n        /* \"source/Marketplace.sol\":55251:55264  _tokensAtSale */\n      0x05\n        /* \"source/Marketplace.sol\":55251:55285  _tokensAtSale[_tokensIdsAtSale[i]] */\n      0x00\n        /* \"source/Marketplace.sol\":55265:55281  _tokensIdsAtSale */\n      0x07\n        /* \"source/Marketplace.sol\":55282:55283  i */\n      dup7\n        /* \"source/Marketplace.sol\":55265:55284  _tokensIdsAtSale[i] */\n      dup2\n      sload\n      dup2\n      lt\n      tag_227\n      jumpi\n      tag_227\n      tag_197\n      jump\t// in\n    tag_227:\n      swap1\n      0x00\n      mstore\n      keccak256(0x00, 0x20)\n      add\n      sload\n        /* \"source/Marketplace.sol\":55251:55285  _tokensAtSale[_tokensIdsAtSale[i]] */\n      dup2\n      mstore\n      0x20\n      add\n      swap1\n      dup2\n      mstore\n      0x20\n      add\n      0x00\n      keccak256\n        /* \"source/Marketplace.sol\":55251:55291  _tokensAtSale[_tokensIdsAtSale[i]].erc20 */\n      0x03\n      add\n      0x00\n      swap1\n      sload\n      swap1\n      0x0100\n      exp\n      swap1\n      div\n      sub(shl(0xa0, 0x01), 0x01)\n      and\n      sub(shl(0xa0, 0x01), 0x01)\n        /* \"source/Marketplace.sol\":55050:55371  SelledNFT(... */\n      and\n      dup2\n      mstore\n      0x20\n      add\n        /* \"source/Marketplace.sol\":55314:55327  _tokensAtSale */\n      0x05\n        /* \"source/Marketplace.sol\":55314:55348  _tokensAtSale[_tokensIdsAtSale[i]] */\n      0x00\n        /* \"source/Marketplace.sol\":55328:55344  _tokensIdsAtSale */\n      0x07\n        /* \"source/Marketplace.sol\":55345:55346  i */\n      dup7\n        /* \"source/Marketplace.sol\":55328:55347  _tokensIdsAtSale[i] */\n      dup2\n      sload\n      dup2\n      lt\n      tag_230\n      jumpi\n      tag_230\n      tag_197\n      jump\t// in\n    tag_230:\n      swap1\n      0x00\n      mstore\n      keccak256(0x00, 0x20)\n      add\n      sload\n        /* \"source/Marketplace.sol\":55314:55348  _tokensAtSale[_tokensIdsAtSale[i]] */\n      dup2\n      mstore\n      0x20\n      add\n      swap1\n      dup2\n      mstore\n      0x20\n      add\n      0x00\n      keccak256\n        /* \"source/Marketplace.sol\":55314:55352  _tokensAtSale[_tokensIdsAtSale[i]].utx */\n      0x04\n      add\n      sload\n        /* \"source/Marketplace.sol\":55050:55371  SelledNFT(... */\n      dup2\n      mstore\n      pop\n        /* \"source/Marketplace.sol\":55021:55371  SelledNFT memory _pushItem = SelledNFT(... */\n      swap1\n      pop\n        /* \"source/Marketplace.sol\":55407:55416  _pushItem */\n      dup1\n        /* \"source/Marketplace.sol\":55390:55394  _ret */\n      dup4\n        /* \"source/Marketplace.sol\":55395:55403  _counter */\n      dup6\n        /* \"source/Marketplace.sol\":55390:55404  _ret[_counter] */\n      dup2\n      mload\n      dup2\n      lt\n      tag_233\n      jumpi\n      tag_233\n      tag_197\n      jump\t// in\n    tag_233:\n      0x20\n      mul\n      0x20\n      add\n      add\n        /* \"source/Marketplace.sol\":55390:55416  _ret[_counter] = _pushItem */\n      dup2\n      swap1\n      mstore\n      pop\n        /* \"source/Marketplace.sol\":55435:55445  _counter++ */\n      dup4\n      dup1\n      tag_234\n      swap1\n      tag_201\n      jump\t// in\n    tag_234:\n      swap5\n      pop\n      pop\n        /* \"source/Marketplace.sol\":55002:55461  {... */\n      pop\n        /* \"source/Marketplace.sol\":54945:55461  if (_tokensAtSale[_tokensIdsAtSale[i]].seller == seller) {... */\n    tag_216:\n        /* \"source/Marketplace.sol\":54925:54928  i++ */\n      dup1\n      tag_235\n      dup2\n      tag_201\n      jump\t// in\n    tag_235:\n      swap2\n      pop\n      pop\n        /* \"source/Marketplace.sol\":54876:55472  for (uint256 i = 0; i < _tokensIdsAtSale.length; i++) {... */\n      jump(tag_210)\n    tag_211:\n      pop\n        /* \"source/Marketplace.sol\":55491:55495  _ret */\n      swap4\n        /* \"source/Marketplace.sol\":54476:55503  function getUserTokensAtSale(address seller)... */\n      swap3\n      pop\n      pop\n      pop\n      jump\t// out\n        /* \"source/Marketplace.sol\":60720:61216  function deSellNFT(uint256 _tokenId) public {... */\n    tag_53:\n        /* \"source/Marketplace.sol\":2065:2072  address */\n      0x00\n        /* \"source/Marketplace.sol\":2092:2098  _owner */\n      sload\n      sub(shl(0xa0, 0x01), 0x01)\n      and\n        /* \"source/Marketplace.sol\":60778:60788  msg.sender */\n      caller\n        /* \"source/Marketplace.sol\":60778:60799  msg.sender != owner() */\n      eq\n        /* \"source/Marketplace.sol\":60775:60905  if(msg.sender != owner()) {... */\n      tag_239\n      jumpi\n        /* \"source/Marketplace.sol\":60838:60861  _tokensAtSale[_tokenId] */\n      0x00\n      dup2\n      dup2\n      mstore\n        /* \"source/Marketplace.sol\":60838:60851  _tokensAtSale */\n      0x05\n        /* \"source/Marketplace.sol\":60838:60861  _tokensAtSale[_tokenId] */\n      0x20\n      mstore\n      0x40\n      swap1\n      keccak256\n        /* \"source/Marketplace.sol\":60838:60868  _tokensAtSale[_tokenId].seller */\n      0x01\n      add\n      sload\n      sub(shl(0xa0, 0x01), 0x01)\n      and\n        /* \"source/Marketplace.sol\":60824:60834  msg.sender */\n      caller\n        /* \"source/Marketplace.sol\":60824:60868  msg.sender == _tokensAtSale[_tokenId].seller */\n      eq\n        /* \"source/Marketplace.sol\":60816:60893  require(msg.sender == _tokensAtSale[_tokenId].seller, \"This is not your NFT\") */\n      tag_239\n      jumpi\n      mload(0x40)\n      shl(0xe5, 0x461bcd)\n      dup2\n      mstore\n        /* \"#utility.yul\":9134:9136   */\n      0x20\n        /* \"source/Marketplace.sol\":60816:60893  require(msg.sender == _tokensAtSale[_tokenId].seller, \"This is not your NFT\") */\n      0x04\n      dup3\n      add\n        /* \"#utility.yul\":9116:9137   */\n      mstore\n        /* \"#utility.yul\":9173:9175   */\n      0x14\n        /* \"#utility.yul\":9153:9171   */\n      0x24\n      dup3\n      add\n        /* \"#utility.yul\":9146:9176   */\n      mstore\n      shl(0x62, 0x151a1a5cc81a5cc81b9bdd081e5bdd5c88139195)\n        /* \"#utility.yul\":9192:9210   */\n      0x44\n      dup3\n      add\n        /* \"#utility.yul\":9185:9235   */\n      mstore\n        /* \"#utility.yul\":9252:9270   */\n      0x64\n      add\n        /* \"source/Marketplace.sol\":60816:60893  require(msg.sender == _tokensAtSale[_tokenId].seller, \"This is not your NFT\") */\n      tag_139\n        /* \"#utility.yul\":8932:9276   */\n      jump\n        /* \"source/Marketplace.sol\":60816:60893  require(msg.sender == _tokensAtSale[_tokenId].seller, \"This is not your NFT\") */\n    tag_239:\n        /* \"source/Marketplace.sol\":60917:60926  marketNft */\n      0x01\n      dup1\n      sload\n      0x00\n        /* \"source/Marketplace.sol\":60955:60978  _tokensAtSale[_tokenId] */\n      dup4\n      dup2\n      mstore\n        /* \"source/Marketplace.sol\":60955:60968  _tokensAtSale */\n      0x05\n        /* \"source/Marketplace.sol\":60955:60978  _tokensAtSale[_tokenId] */\n      0x20\n      mstore\n      0x40\n      swap1\n      dup2\n      swap1\n      keccak256\n        /* \"source/Marketplace.sol\":60955:60985  _tokensAtSale[_tokenId].seller */\n      swap1\n      swap3\n      add\n      sload\n        /* \"source/Marketplace.sol\":60917:60996  marketNft.transferFrom(address(this), _tokensAtSale[_tokenId].seller, _tokenId) */\n      swap2\n      mload\n      shl(0xe0, 0x23b872dd)\n      dup2\n      mstore\n      sub(shl(0xa0, 0x01), 0x01)\n        /* \"source/Marketplace.sol\":60917:60926  marketNft */\n      swap2\n      dup3\n      and\n      swap3\n        /* \"source/Marketplace.sol\":60917:60939  marketNft.transferFrom */\n      0x23b872dd\n      swap3\n        /* \"source/Marketplace.sol\":60917:60996  marketNft.transferFrom(address(this), _tokensAtSale[_tokenId].seller, _tokenId) */\n      tag_242\n      swap3\n        /* \"source/Marketplace.sol\":60948:60952  this */\n      address\n      swap3\n        /* \"source/Marketplace.sol\":60955:60985  _tokensAtSale[_tokenId].seller */\n      swap1\n      swap2\n      and\n      swap1\n        /* \"source/Marketplace.sol\":60969:60977  _tokenId */\n      dup7\n      swap1\n        /* \"source/Marketplace.sol\":60917:60996  marketNft.transferFrom(address(this), _tokensAtSale[_tokenId].seller, _tokenId) */\n      0x04\n      add\n      tag_177\n      jump\t// in\n    tag_242:\n      0x00\n      mload(0x40)\n      dup1\n      dup4\n      sub\n      dup2\n      0x00\n      dup8\n      dup1\n      extcodesize\n      iszero\n      dup1\n      iszero\n      tag_243\n      jumpi\n      0x00\n      dup1\n      revert\n    tag_243:\n      pop\n      gas\n      call\n      iszero\n      dup1\n      iszero\n      tag_245\n      jumpi\n      returndatasize\n      0x00\n      dup1\n      returndatacopy\n      revert(0x00, returndatasize)\n    tag_245:\n      pop\n      pop\n      pop\n        /* \"source/Marketplace.sol\":61037:61042  false */\n      0x00\n        /* \"source/Marketplace.sol\":61009:61034  _isTokensAtSale[_tokenId] */\n      dup3\n      dup2\n      mstore\n        /* \"source/Marketplace.sol\":61009:61024  _isTokensAtSale */\n      0x04\n        /* \"source/Marketplace.sol\":61009:61034  _isTokensAtSale[_tokenId] */\n      0x20\n      mstore\n      0x40\n      swap1\n      keccak256\n        /* \"source/Marketplace.sol\":61009:61042  _isTokensAtSale[_tokenId] = false */\n      dup1\n      sload\n      not(0xff)\n      and\n      swap1\n      sstore\n      pop\n        /* \"source/Marketplace.sol\":61061:61086  _clearSellToken(_tokenId) */\n      tag_246\n        /* \"source/Marketplace.sol\":61025:61033  _tokenId */\n      dup2\n        /* \"source/Marketplace.sol\":61061:61076  _clearSellToken */\n      tag_182\n        /* \"source/Marketplace.sol\":61061:61086  _clearSellToken(_tokenId) */\n      jump\t// in\n    tag_246:\n        /* \"source/Marketplace.sol\":61097:61124  __delTokenForSale(_tokenId) */\n      tag_247\n        /* \"source/Marketplace.sol\":61115:61123  _tokenId */\n      dup2\n        /* \"source/Marketplace.sol\":61097:61114  __delTokenForSale */\n      tag_184\n        /* \"source/Marketplace.sol\":61097:61124  __delTokenForSale(_tokenId) */\n      jump\t// in\n    tag_247:\n        /* \"source/Marketplace.sol\":61167:61190  _tokensAtSale[_tokenId] */\n      0x00\n      dup2\n      dup2\n      mstore\n        /* \"source/Marketplace.sol\":61167:61180  _tokensAtSale */\n      0x05\n        /* \"source/Marketplace.sol\":61167:61190  _tokensAtSale[_tokenId] */\n      0x20\n      swap1\n      dup2\n      mstore\n      0x40\n      swap2\n      dup3\n      swap1\n      keccak256\n        /* \"source/Marketplace.sol\":61167:61197  _tokensAtSale[_tokenId].seller */\n      0x01\n      add\n      sload\n        /* \"source/Marketplace.sol\":61150:61208  WithdrawFromSale(_tokensAtSale[_tokenId].seller, _tokenId) */\n      dup3\n      mload\n      sub(shl(0xa0, 0x01), 0x01)\n        /* \"source/Marketplace.sol\":61167:61197  _tokensAtSale[_tokenId].seller */\n      swap1\n      swap2\n      and\n        /* \"#utility.yul\":9455:9506   */\n      dup2\n      mstore\n        /* \"#utility.yul\":9522:9540   */\n      swap1\n      dup2\n      add\n        /* \"#utility.yul\":9515:9549   */\n      dup4\n      swap1\n      mstore\n        /* \"source/Marketplace.sol\":61150:61208  WithdrawFromSale(_tokensAtSale[_tokenId].seller, _tokenId) */\n      0x8bf8e8f2f9d065b620f4e940d87122b03dd779d0ffd6a1590572e1e6d0416bef\n      swap2\n        /* \"#utility.yul\":9428:9446   */\n      add\n        /* \"source/Marketplace.sol\":61150:61208  WithdrawFromSale(_tokensAtSale[_tokenId].seller, _tokenId) */\n    tag_248:\n      mload(0x40)\n      dup1\n      swap2\n      sub\n      swap1\n      log1\n        /* \"source/Marketplace.sol\":60720:61216  function deSellNFT(uint256 _tokenId) public {... */\n      pop\n      jump\t// out\n        /* \"source/Marketplace.sol\":58412:59644  function buyNFT(uint256 _tokenId)... */\n    tag_56:\n        /* \"source/Marketplace.sol\":49247:49251  bool */\n      0x00\n        /* \"source/Marketplace.sol\":49271:49278  _paused */\n      sload\n      shl(0xa0, 0x01)\n      swap1\n      div\n      0xff\n      and\n        /* \"source/Marketplace.sol\":49525:49534  !paused() */\n      iszero\n        /* \"source/Marketplace.sol\":49517:49555  require(!paused(), \"Pausable: paused\") */\n      tag_252\n      jumpi\n      mload(0x40)\n      shl(0xe5, 0x461bcd)\n      dup2\n      mstore\n      0x04\n      add\n      tag_139\n      swap1\n      tag_140\n      jump\t// in\n    tag_252:\n        /* \"source/Marketplace.sol\":58563:58588  _isTokensAtSale[_tokenId] */\n      0x00\n      dup2\n      dup2\n      mstore\n        /* \"source/Marketplace.sol\":58563:58578  _isTokensAtSale */\n      0x04\n        /* \"source/Marketplace.sol\":58563:58588  _isTokensAtSale[_tokenId] */\n      0x20\n      mstore\n      0x40\n      swap1\n      keccak256\n      sload\n      0xff\n      and\n        /* \"source/Marketplace.sol\":58563:58596  _isTokensAtSale[_tokenId] == true */\n      iszero\n      iszero\n        /* \"source/Marketplace.sol\":58563:58588  _isTokensAtSale[_tokenId] */\n      0x01\n        /* \"source/Marketplace.sol\":58563:58596  _isTokensAtSale[_tokenId] == true */\n      eq\n        /* \"source/Marketplace.sol\":58555:58625  require(_isTokensAtSale[_tokenId] == true, \"This NFT is not for sale\") */\n      tag_255\n      jumpi\n      mload(0x40)\n      shl(0xe5, 0x461bcd)\n      dup2\n      mstore\n        /* \"#utility.yul\":5757:5759   */\n      0x20\n        /* \"source/Marketplace.sol\":58555:58625  require(_isTokensAtSale[_tokenId] == true, \"This NFT is not for sale\") */\n      0x04\n      dup3\n      add\n        /* \"#utility.yul\":5739:5760   */\n      mstore\n        /* \"#utility.yul\":5796:5798   */\n      0x18\n        /* \"#utility.yul\":5776:5794   */\n      0x24\n      dup3\n      add\n        /* \"#utility.yul\":5769:5799   */\n      mstore\n      shl(0x40, 0x54686973204e4654206973206e6f7420666f722073616c65)\n        /* \"#utility.yul\":5815:5833   */\n      0x44\n      dup3\n      add\n        /* \"#utility.yul\":5808:5862   */\n      mstore\n        /* \"#utility.yul\":5879:5897   */\n      0x64\n      add\n        /* \"source/Marketplace.sol\":58555:58625  require(_isTokensAtSale[_tokenId] == true, \"This NFT is not for sale\") */\n      tag_139\n        /* \"#utility.yul\":5555:5903   */\n      jump\n        /* \"source/Marketplace.sol\":58555:58625  require(_isTokensAtSale[_tokenId] == true, \"This NFT is not for sale\") */\n    tag_255:\n        /* \"source/Marketplace.sol\":58683:58706  _tokensAtSale[_tokenId] */\n      0x00\n      dup2\n      dup2\n      mstore\n        /* \"source/Marketplace.sol\":58683:58696  _tokensAtSale */\n      0x05\n        /* \"source/Marketplace.sol\":58683:58706  _tokensAtSale[_tokenId] */\n      0x20\n      mstore\n      0x40\n      swap1\n      keccak256\n        /* \"source/Marketplace.sol\":58683:58712  _tokensAtSale[_tokenId].price */\n      0x02\n      add\n      sload\n        /* \"source/Marketplace.sol\":58670:58679  msg.value */\n      callvalue\n        /* \"source/Marketplace.sol\":58670:58712  msg.value >= _tokensAtSale[_tokenId].price */\n      lt\n      iszero\n        /* \"source/Marketplace.sol\":58662:58755  require(msg.value >= _tokensAtSale[_tokenId].price, \"You have not paid enough for this item\") */\n      tag_257\n      jumpi\n      mload(0x40)\n      shl(0xe5, 0x461bcd)\n      dup2\n      mstore\n        /* \"#utility.yul\":9762:9764   */\n      0x20\n        /* \"source/Marketplace.sol\":58662:58755  require(msg.value >= _tokensAtSale[_tokenId].price, \"You have not paid enough for this item\") */\n      0x04\n      dup3\n      add\n        /* \"#utility.yul\":9744:9765   */\n      mstore\n        /* \"#utility.yul\":9801:9803   */\n      0x26\n        /* \"#utility.yul\":9781:9799   */\n      0x24\n      dup3\n      add\n        /* \"#utility.yul\":9774:9804   */\n      mstore\n        /* \"#utility.yul\":9840:9874   */\n      0x596f752068617665206e6f74207061696420656e6f75676820666f7220746869\n        /* \"#utility.yul\":9820:9838   */\n      0x44\n      dup3\n      add\n        /* \"#utility.yul\":9813:9875   */\n      mstore\n      shl(0xd0, 0x73206974656d)\n        /* \"#utility.yul\":9891:9909   */\n      0x64\n      dup3\n      add\n        /* \"#utility.yul\":9884:9920   */\n      mstore\n        /* \"#utility.yul\":9937:9956   */\n      0x84\n      add\n        /* \"source/Marketplace.sol\":58662:58755  require(msg.value >= _tokensAtSale[_tokenId].price, \"You have not paid enough for this item\") */\n      tag_139\n        /* \"#utility.yul\":9560:9962   */\n      jump\n        /* \"source/Marketplace.sol\":58662:58755  require(msg.value >= _tokensAtSale[_tokenId].price, \"You have not paid enough for this item\") */\n    tag_257:\n        /* \"source/Marketplace.sol\":58859:58860  0 */\n      0x00\n        /* \"source/Marketplace.sol\":58818:58841  _tokensAtSale[_tokenId] */\n      dup2\n      dup2\n      mstore\n        /* \"source/Marketplace.sol\":58818:58831  _tokensAtSale */\n      0x05\n        /* \"source/Marketplace.sol\":58818:58841  _tokensAtSale[_tokenId] */\n      0x20\n      mstore\n      0x40\n      swap1\n      keccak256\n        /* \"source/Marketplace.sol\":58818:58847  _tokensAtSale[_tokenId].erc20 */\n      0x03\n      add\n      sload\n      sub(shl(0xa0, 0x01), 0x01)\n      and\n        /* \"source/Marketplace.sol\":58818:58861  _tokensAtSale[_tokenId].erc20 == address(0) */\n      iszero\n        /* \"source/Marketplace.sol\":58810:58892  require(_tokensAtSale[_tokenId].erc20 == address(0), \"This token selled by ERC20\") */\n      tag_260\n      jumpi\n      mload(0x40)\n      shl(0xe5, 0x461bcd)\n      dup2\n      mstore\n        /* \"#utility.yul\":10169:10171   */\n      0x20\n        /* \"source/Marketplace.sol\":58810:58892  require(_tokensAtSale[_tokenId].erc20 == address(0), \"This token selled by ERC20\") */\n      0x04\n      dup3\n      add\n        /* \"#utility.yul\":10151:10172   */\n      mstore\n        /* \"#utility.yul\":10208:10210   */\n      0x1a\n        /* \"#utility.yul\":10188:10206   */\n      0x24\n      dup3\n      add\n        /* \"#utility.yul\":10181:10211   */\n      mstore\n        /* \"#utility.yul\":10247:10275   */\n      0x5468697320746f6b656e2073656c6c6564206279204552433230000000000000\n        /* \"#utility.yul\":10227:10245   */\n      0x44\n      dup3\n      add\n        /* \"#utility.yul\":10220:10276   */\n      mstore\n        /* \"#utility.yul\":10293:10311   */\n      0x64\n      add\n        /* \"source/Marketplace.sol\":58810:58892  require(_tokensAtSale[_tokenId].erc20 == address(0), \"This token selled by ERC20\") */\n      tag_139\n        /* \"#utility.yul\":9967:10317   */\n      jump\n        /* \"source/Marketplace.sol\":58810:58892  require(_tokensAtSale[_tokenId].erc20 == address(0), \"This token selled by ERC20\") */\n    tag_260:\n        /* \"source/Marketplace.sol\":58930:58939  msg.value */\n      callvalue\n        /* \"source/Marketplace.sol\":58913:58927  uint256 amount */\n      0x00\n        /* \"source/Marketplace.sol\":58970:59020  SafeMath.mul(SafeMath.div(amount, 100), _tradeFee) */\n      tag_263\n        /* \"source/Marketplace.sol\":58983:59008  SafeMath.div(amount, 100) */\n      tag_165\n        /* \"source/Marketplace.sol\":58930:58939  msg.value */\n      dup4\n        /* \"source/Marketplace.sol\":59004:59007  100 */\n      0x64\n        /* \"source/Marketplace.sol\":58983:58995  SafeMath.div */\n      tag_166\n        /* \"source/Marketplace.sol\":58983:59008  SafeMath.div(amount, 100) */\n      jump\t// in\n        /* \"source/Marketplace.sol\":58970:59020  SafeMath.mul(SafeMath.div(amount, 100), _tradeFee) */\n    tag_263:\n        /* \"source/Marketplace.sol\":58950:59020  uint256 feeAmount = SafeMath.mul(SafeMath.div(amount, 100), _tradeFee) */\n      swap1\n      pop\n        /* \"source/Marketplace.sol\":59069:59076  owner() */\n      tag_265\n        /* \"source/Marketplace.sol\":2065:2072  address */\n      0x00\n        /* \"source/Marketplace.sol\":2092:2098  _owner */\n      sload\n      sub(shl(0xa0, 0x01), 0x01)\n      and\n      swap1\n        /* \"source/Marketplace.sol\":2019:2106  function owner() public view virtual returns (address) {... */\n      jump\n        /* \"source/Marketplace.sol\":59069:59076  owner() */\n    tag_265:\n        /* \"source/Marketplace.sol\":59035:59058  _tokensAtSale[_tokenId] */\n      0x00\n      dup5\n      dup2\n      mstore\n        /* \"source/Marketplace.sol\":59035:59048  _tokensAtSale */\n      0x05\n        /* \"source/Marketplace.sol\":59035:59058  _tokensAtSale[_tokenId] */\n      0x20\n      mstore\n      0x40\n      swap1\n      keccak256\n        /* \"source/Marketplace.sol\":59035:59065  _tokensAtSale[_tokenId].seller */\n      0x01\n      add\n      sload\n      sub(shl(0xa0, 0x01), 0x01)\n        /* \"source/Marketplace.sol\":59035:59076  _tokensAtSale[_tokenId].seller == owner() */\n      swap2\n      dup3\n      and\n        /* \"source/Marketplace.sol\":59035:59065  _tokensAtSale[_tokenId].seller */\n      swap2\n      and\n        /* \"source/Marketplace.sol\":59035:59076  _tokensAtSale[_tokenId].seller == owner() */\n      sub\n        /* \"source/Marketplace.sol\":59031:59091  if (_tokensAtSale[_tokenId].seller == owner()) feeAmount = 0 */\n      tag_266\n      jumpi\n      pop\n        /* \"source/Marketplace.sol\":59090:59091  0 */\n      0x00\n        /* \"source/Marketplace.sol\":59031:59091  if (_tokensAtSale[_tokenId].seller == owner()) feeAmount = 0 */\n    tag_266:\n        /* \"source/Marketplace.sol\":59102:59123  uint256 amountWithFee */\n      0x00\n        /* \"source/Marketplace.sol\":59126:59157  SafeMath.sub(amount, feeAmount) */\n      tag_267\n        /* \"source/Marketplace.sol\":59139:59145  amount */\n      dup4\n        /* \"source/Marketplace.sol\":59147:59156  feeAmount */\n      dup4\n        /* \"source/Marketplace.sol\":59126:59138  SafeMath.sub */\n      tag_171\n        /* \"source/Marketplace.sol\":59126:59157  SafeMath.sub(amount, feeAmount) */\n      jump\t// in\n    tag_267:\n        /* \"source/Marketplace.sol\":59178:59201  _tokensAtSale[_tokenId] */\n      0x00\n      dup6\n      dup2\n      mstore\n        /* \"source/Marketplace.sol\":59178:59191  _tokensAtSale */\n      0x05\n        /* \"source/Marketplace.sol\":59178:59201  _tokensAtSale[_tokenId] */\n      0x20\n      mstore\n      0x40\n      dup1\n      dup3\n      keccak256\n        /* \"source/Marketplace.sol\":59178:59208  _tokensAtSale[_tokenId].seller */\n      0x01\n      add\n      sload\n        /* \"source/Marketplace.sol\":59170:59233  payable(_tokensAtSale[_tokenId].seller).transfer(amountWithFee) */\n      swap1\n      mload\n        /* \"source/Marketplace.sol\":59102:59157  uint256 amountWithFee = SafeMath.sub(amount, feeAmount) */\n      swap3\n      swap4\n      pop\n      sub(shl(0xa0, 0x01), 0x01)\n        /* \"source/Marketplace.sol\":59178:59208  _tokensAtSale[_tokenId].seller */\n      and\n      swap2\n        /* \"source/Marketplace.sol\":59170:59233  payable(_tokensAtSale[_tokenId].seller).transfer(amountWithFee) */\n      dup4\n      iszero\n      0x08fc\n      mul\n      swap2\n        /* \"source/Marketplace.sol\":59102:59157  uint256 amountWithFee = SafeMath.sub(amount, feeAmount) */\n      dup5\n      swap2\n        /* \"source/Marketplace.sol\":59170:59233  payable(_tokensAtSale[_tokenId].seller).transfer(amountWithFee) */\n      swap1\n      dup2\n        /* \"source/Marketplace.sol\":59178:59201  _tokensAtSale[_tokenId] */\n      dup2\n        /* \"source/Marketplace.sol\":59170:59233  payable(_tokensAtSale[_tokenId].seller).transfer(amountWithFee) */\n      dup2\n        /* \"source/Marketplace.sol\":59102:59157  uint256 amountWithFee = SafeMath.sub(amount, feeAmount) */\n      dup6\n        /* \"source/Marketplace.sol\":59178:59208  _tokensAtSale[_tokenId].seller */\n      dup9\n        /* \"source/Marketplace.sol\":59170:59233  payable(_tokensAtSale[_tokenId].seller).transfer(amountWithFee) */\n      dup9\n      call\n      swap4\n      pop\n      pop\n      pop\n      pop\n      iszero\n      dup1\n      iszero\n      tag_269\n      jumpi\n      returndatasize\n      0x00\n      dup1\n      returndatacopy\n      revert(0x00, returndatasize)\n    tag_269:\n      pop\n        /* \"source/Marketplace.sol\":59248:59261  feeAmount > 0 */\n      dup2\n      iszero\n        /* \"source/Marketplace.sol\":59244:59331  if (feeAmount > 0) {... */\n      tag_270\n      jumpi\n        /* \"source/Marketplace.sol\":59286:59298  _feeReceiver */\n      sload(0x08)\n        /* \"source/Marketplace.sol\":59278:59319  payable(_feeReceiver).transfer(feeAmount) */\n      mload(0x40)\n      sub(shl(0xa0, 0x01), 0x01)\n        /* \"source/Marketplace.sol\":59286:59298  _feeReceiver */\n      swap1\n      swap2\n      and\n      swap1\n        /* \"source/Marketplace.sol\":59278:59319  payable(_feeReceiver).transfer(feeAmount) */\n      dup4\n      iszero\n      0x08fc\n      mul\n      swap1\n        /* \"source/Marketplace.sol\":59309:59318  feeAmount */\n      dup5\n      swap1\n        /* \"source/Marketplace.sol\":59286:59298  _feeReceiver */\n      0x00\n        /* \"source/Marketplace.sol\":59278:59319  payable(_feeReceiver).transfer(feeAmount) */\n      dup2\n        /* \"source/Marketplace.sol\":59286:59298  _feeReceiver */\n      dup2\n        /* \"source/Marketplace.sol\":59278:59319  payable(_feeReceiver).transfer(feeAmount) */\n      dup2\n        /* \"source/Marketplace.sol\":59309:59318  feeAmount */\n      dup6\n        /* \"source/Marketplace.sol\":59286:59298  _feeReceiver */\n      dup9\n        /* \"source/Marketplace.sol\":59278:59319  payable(_feeReceiver).transfer(feeAmount) */\n      dup9\n      call\n      swap4\n      pop\n      pop\n      pop\n      pop\n      iszero\n      dup1\n      iszero\n      tag_272\n      jumpi\n      returndatasize\n      0x00\n      dup1\n      returndatacopy\n      revert(0x00, returndatasize)\n    tag_272:\n      pop\n        /* \"source/Marketplace.sol\":59244:59331  if (feeAmount > 0) {... */\n    tag_270:\n        /* \"source/Marketplace.sol\":59351:59360  marketNft */\n      sload(0x01)\n        /* \"source/Marketplace.sol\":59351:59410  marketNft.transferFrom(address(this), msg.sender, _tokenId) */\n      mload(0x40)\n      shl(0xe0, 0x23b872dd)\n      dup2\n      mstore\n      sub(shl(0xa0, 0x01), 0x01)\n        /* \"source/Marketplace.sol\":59351:59360  marketNft */\n      swap1\n      swap2\n      and\n      swap1\n        /* \"source/Marketplace.sol\":59351:59373  marketNft.transferFrom */\n      0x23b872dd\n      swap1\n        /* \"source/Marketplace.sol\":59351:59410  marketNft.transferFrom(address(this), msg.sender, _tokenId) */\n      tag_273\n      swap1\n        /* \"source/Marketplace.sol\":59382:59386  this */\n      address\n      swap1\n        /* \"source/Marketplace.sol\":59389:59399  msg.sender */\n      caller\n      swap1\n        /* \"source/Marketplace.sol\":59401:59409  _tokenId */\n      dup10\n      swap1\n        /* \"source/Marketplace.sol\":59351:59410  marketNft.transferFrom(address(this), msg.sender, _tokenId) */\n      0x04\n      add\n      tag_177\n      jump\t// in\n    tag_273:\n      0x00\n      mload(0x40)\n      dup1\n      dup4\n      sub\n      dup2\n      0x00\n      dup8\n      dup1\n      extcodesize\n      iszero\n      dup1\n      iszero\n      tag_274\n      jumpi\n      0x00\n      dup1\n      revert\n    tag_274:\n      pop\n      gas\n      call\n      iszero\n      dup1\n      iszero\n      tag_276\n      jumpi\n      returndatasize\n      0x00\n      dup1\n      returndatacopy\n      revert(0x00, returndatasize)\n    tag_276:\n      pop\n      pop\n      pop\n        /* \"source/Marketplace.sol\":59449:59454  false */\n      0x00\n        /* \"source/Marketplace.sol\":59421:59446  _isTokensAtSale[_tokenId] */\n      dup6\n      dup2\n      mstore\n        /* \"source/Marketplace.sol\":59421:59436  _isTokensAtSale */\n      0x04\n        /* \"source/Marketplace.sol\":59421:59446  _isTokensAtSale[_tokenId] */\n      0x20\n      swap1\n      dup2\n      mstore\n      0x40\n      dup1\n      dup4\n      keccak256\n        /* \"source/Marketplace.sol\":59421:59454  _isTokensAtSale[_tokenId] = false */\n      dup1\n      sload\n      not(0xff)\n      and\n      swap1\n      sstore\n        /* \"source/Marketplace.sol\":59476:59489  _tokensAtSale */\n      0x05\n        /* \"source/Marketplace.sol\":59476:59499  _tokensAtSale[_tokenId] */\n      dup3\n      mstore\n      swap2\n      dup3\n      swap1\n      keccak256\n      0x01\n        /* \"source/Marketplace.sol\":59476:59506  _tokensAtSale[_tokenId].seller */\n      dup2\n      add\n      sload\n        /* \"source/Marketplace.sol\":59530:59559  _tokensAtSale[_tokenId].price */\n      0x02\n      swap1\n      swap2\n      add\n      sload\n        /* \"source/Marketplace.sol\":59472:59560  Buy(_tokensAtSale[_tokenId].seller, msg.sender, _tokenId, _tokensAtSale[_tokenId].price) */\n      dup4\n      mload\n      sub(shl(0xa0, 0x01), 0x01)\n        /* \"source/Marketplace.sol\":59476:59506  _tokensAtSale[_tokenId].seller */\n      swap1\n      swap3\n      and\n        /* \"#utility.yul\":10591:10625   */\n      dup3\n      mstore\n        /* \"source/Marketplace.sol\":59508:59518  msg.sender */\n      caller\n        /* \"#utility.yul\":10641:10659   */\n      swap3\n      dup3\n      add\n        /* \"#utility.yul\":10634:10677   */\n      swap3\n      swap1\n      swap3\n      mstore\n        /* \"#utility.yul\":10693:10711   */\n      swap2\n      dup3\n      add\n        /* \"#utility.yul\":10686:10720   */\n      dup8\n      swap1\n      mstore\n        /* \"#utility.yul\":10751:10753   */\n      0x60\n        /* \"#utility.yul\":10736:10754   */\n      dup3\n      add\n        /* \"#utility.yul\":10729:10763   */\n      mstore\n        /* \"source/Marketplace.sol\":59472:59560  Buy(_tokensAtSale[_tokenId].seller, msg.sender, _tokenId, _tokensAtSale[_tokenId].price) */\n      0x89f5adc174562e07c9c9b1cae7109bbecb21cf9d1b2847e550042b8653c54a0e\n      swap2\n      pop\n        /* \"#utility.yul\":10540:10543   */\n      0x80\n        /* \"#utility.yul\":10525:10544   */\n      add\n        /* \"source/Marketplace.sol\":59472:59560  Buy(_tokensAtSale[_tokenId].seller, msg.sender, _tokenId, _tokensAtSale[_tokenId].price) */\n      mload(0x40)\n      dup1\n      swap2\n      sub\n      swap1\n      log1\n        /* \"source/Marketplace.sol\":59573:59598  _clearSellToken(_tokenId) */\n      tag_279\n        /* \"source/Marketplace.sol\":59589:59597  _tokenId */\n      dup5\n        /* \"source/Marketplace.sol\":59573:59588  _clearSellToken */\n      tag_182\n        /* \"source/Marketplace.sol\":59573:59598  _clearSellToken(_tokenId) */\n      jump\t// in\n    tag_279:\n        /* \"source/Marketplace.sol\":59609:59636  __delTokenForSale(_tokenId) */\n      tag_280\n        /* \"source/Marketplace.sol\":59627:59635  _tokenId */\n      dup5\n        /* \"source/Marketplace.sol\":59609:59626  __delTokenForSale */\n      tag_184\n        /* \"source/Marketplace.sol\":59609:59636  __delTokenForSale(_tokenId) */\n      jump\t// in\n    tag_280:\n        /* \"source/Marketplace.sol\":58507:59644  {... */\n      pop\n      pop\n      pop\n        /* \"source/Marketplace.sol\":58412:59644  function buyNFT(uint256 _tokenId)... */\n      pop\n      jump\t// out\n        /* \"source/Marketplace.sol\":53518:53709  function withdrawWei() public onlyOwner {... */\n    tag_59:\n        /* \"source/Marketplace.sol\":1905:1918  _checkOwner() */\n      tag_282\n        /* \"source/Marketplace.sol\":1905:1916  _checkOwner */\n      tag_189\n        /* \"source/Marketplace.sol\":1905:1918  _checkOwner() */\n      jump\t// in\n    tag_282:\n        /* \"source/Marketplace.sol\":53618:53654  payable(msg.sender).transfer(amount) */\n      mload(0x40)\n        /* \"source/Marketplace.sol\":53586:53607  address(this).balance */\n      selfbalance\n      swap1\n        /* \"source/Marketplace.sol\":53626:53636  msg.sender */\n      caller\n      swap1\n        /* \"source/Marketplace.sol\":53618:53654  payable(msg.sender).transfer(amount) */\n      dup3\n      iszero\n      0x08fc\n      mul\n      swap1\n        /* \"source/Marketplace.sol\":53586:53607  address(this).balance */\n      dup4\n      swap1\n        /* \"source/Marketplace.sol\":53569:53583  uint256 amount */\n      0x00\n        /* \"source/Marketplace.sol\":53618:53654  payable(msg.sender).transfer(amount) */\n      dup2\n        /* \"source/Marketplace.sol\":53569:53583  uint256 amount */\n      dup2\n        /* \"source/Marketplace.sol\":53618:53654  payable(msg.sender).transfer(amount) */\n      dup2\n        /* \"source/Marketplace.sol\":53586:53607  address(this).balance */\n      dup6\n        /* \"source/Marketplace.sol\":53626:53636  msg.sender */\n      dup9\n        /* \"source/Marketplace.sol\":53618:53654  payable(msg.sender).transfer(amount) */\n      dup9\n      call\n      swap4\n      pop\n      pop\n      pop\n      pop\n      iszero\n      dup1\n      iszero\n      tag_285\n      jumpi\n      returndatasize\n      0x00\n      dup1\n      returndatacopy\n      revert(0x00, returndatasize)\n    tag_285:\n      pop\n        /* \"source/Marketplace.sol\":53670:53701  WithdrawWei(msg.sender, amount) */\n      0x40\n      dup1\n      mload\n        /* \"source/Marketplace.sol\":53682:53692  msg.sender */\n      caller\n        /* \"#utility.yul\":9455:9506   */\n      dup2\n      mstore\n        /* \"#utility.yul\":9537:9539   */\n      0x20\n        /* \"#utility.yul\":9522:9540   */\n      dup2\n      add\n        /* \"#utility.yul\":9515:9549   */\n      dup4\n      swap1\n      mstore\n        /* \"source/Marketplace.sol\":53670:53701  WithdrawWei(msg.sender, amount) */\n      0x2f15b7a52fc8a006876377705647acbd22eed72dec9b154aa290e286c06a3cd4\n      swap2\n        /* \"#utility.yul\":9428:9446   */\n      add\n        /* \"source/Marketplace.sol\":53670:53701  WithdrawWei(msg.sender, amount) */\n      tag_248\n        /* \"#utility.yul\":9281:9555   */\n      jump\n        /* \"source/Marketplace.sol\":55630:56673  function getTokensAtSale(uint256 offset, uint256 limit)... */\n    tag_74:\n        /* \"source/Marketplace.sol\":55727:55749  SelledNFT[] memory ret */\n      0x60\n        /* \"source/Marketplace.sol\":55784:55790  offset */\n      dup3\n        /* \"source/Marketplace.sol\":55767:55781  uint256 iStart */\n      0x00\n        /* \"source/Marketplace.sol\":55816:55830  iStart + limit */\n      tag_289\n        /* \"source/Marketplace.sol\":55825:55830  limit */\n      dup5\n        /* \"source/Marketplace.sol\":55784:55790  offset */\n      dup4\n        /* \"source/Marketplace.sol\":55816:55830  iStart + limit */\n      tag_290\n      jump\t// in\n    tag_289:\n        /* \"source/Marketplace.sol\":55855:55871  _tokensIdsAtSale */\n      0x07\n        /* \"source/Marketplace.sol\":55855:55878  _tokensIdsAtSale.length */\n      sload\n        /* \"source/Marketplace.sol\":55801:55830  uint256 iEnd = iStart + limit */\n      swap1\n      swap2\n      pop\n        /* \"source/Marketplace.sol\":55845:55878  iStart >= _tokensIdsAtSale.length */\n      dup3\n      lt\n        /* \"source/Marketplace.sol\":55841:55905  if (iStart >= _tokensIdsAtSale.length) return new SelledNFT[](0) */\n      tag_291\n      jumpi\n        /* \"source/Marketplace.sol\":55887:55905  new SelledNFT[](0) */\n      0x40\n      dup1\n      mload\n        /* \"source/Marketplace.sol\":55903:55904  0 */\n      0x00\n        /* \"source/Marketplace.sol\":55887:55905  new SelledNFT[](0) */\n      dup1\n      dup3\n      mstore\n      0x20\n      dup3\n      add\n      swap1\n      swap3\n      mstore\n      swap1\n      jump(tag_294)\n    tag_295:\n      tag_296\n      tag_209\n      jump\t// in\n    tag_296:\n      dup2\n      mstore\n      0x20\n      add\n      swap1\n      0x01\n      swap1\n      sub\n      swap1\n      dup2\n      tag_295\n      jumpi\n      swap1\n      pop\n    tag_294:\n      pop\n        /* \"source/Marketplace.sol\":55880:55905  return new SelledNFT[](0) */\n      swap3\n      pop\n      pop\n      pop\n      jump(tag_288)\n        /* \"source/Marketplace.sol\":55841:55905  if (iStart >= _tokensIdsAtSale.length) return new SelledNFT[](0) */\n    tag_291:\n        /* \"source/Marketplace.sol\":55920:55931  offset == 0 */\n      dup5\n      iszero\n        /* \"source/Marketplace.sol\":55920:55945  offset == 0 && limit == 0 */\n      dup1\n      iszero\n      tag_297\n      jumpi\n      pop\n        /* \"source/Marketplace.sol\":55935:55945  limit == 0 */\n      dup4\n      iszero\n        /* \"source/Marketplace.sol\":55920:55945  offset == 0 && limit == 0 */\n    tag_297:\n        /* \"source/Marketplace.sol\":55916:55977  if (offset == 0 && limit == 0) iEnd = _tokensIdsAtSale.length */\n      iszero\n      tag_298\n      jumpi\n      pop\n        /* \"source/Marketplace.sol\":55954:55970  _tokensIdsAtSale */\n      0x07\n        /* \"source/Marketplace.sol\":55954:55977  _tokensIdsAtSale.length */\n      sload\n        /* \"source/Marketplace.sol\":55916:55977  if (offset == 0 && limit == 0) iEnd = _tokensIdsAtSale.length */\n    tag_298:\n        /* \"source/Marketplace.sol\":55999:56015  _tokensIdsAtSale */\n      0x07\n        /* \"source/Marketplace.sol\":55999:56022  _tokensIdsAtSale.length */\n      sload\n        /* \"source/Marketplace.sol\":55992:56022  iEnd > _tokensIdsAtSale.length */\n      dup2\n      gt\n        /* \"source/Marketplace.sol\":55988:56054  if (iEnd > _tokensIdsAtSale.length) iEnd = _tokensIdsAtSale.length */\n      iszero\n      tag_299\n      jumpi\n      pop\n        /* \"source/Marketplace.sol\":56031:56047  _tokensIdsAtSale */\n      0x07\n        /* \"source/Marketplace.sol\":56031:56054  _tokensIdsAtSale.length */\n      sload\n        /* \"source/Marketplace.sol\":55988:56054  if (iEnd > _tokensIdsAtSale.length) iEnd = _tokensIdsAtSale.length */\n    tag_299:\n        /* \"source/Marketplace.sol\":56075:56088  uint256 count */\n      0x00\n        /* \"source/Marketplace.sol\":56091:56104  iEnd - iStart */\n      tag_300\n        /* \"source/Marketplace.sol\":56098:56104  iStart */\n      dup4\n        /* \"source/Marketplace.sol\":56091:56095  iEnd */\n      dup4\n        /* \"source/Marketplace.sol\":56091:56104  iEnd - iStart */\n      tag_301\n      jump\t// in\n    tag_300:\n        /* \"source/Marketplace.sol\":56075:56104  uint256 count = iEnd - iStart */\n      swap1\n      pop\n        /* \"source/Marketplace.sol\":56115:56125  uint256 ii */\n      0x00\n        /* \"source/Marketplace.sol\":56140:56163  SelledNFT[] memory _ret */\n      dup1\n        /* \"source/Marketplace.sol\":56182:56187  count */\n      dup3\n        /* \"source/Marketplace.sol\":56166:56188  new SelledNFT[](count) */\n      0xffffffffffffffff\n      dup2\n      gt\n      iszero\n      tag_303\n      jumpi\n      tag_303\n      tag_205\n      jump\t// in\n    tag_303:\n      mload(0x40)\n      swap1\n      dup1\n      dup3\n      mstore\n      dup1\n      0x20\n      mul\n      0x20\n      add\n      dup3\n      add\n      0x40\n      mstore\n      dup1\n      iszero\n      tag_304\n      jumpi\n      dup2\n      0x20\n      add\n    tag_305:\n      tag_306\n      tag_209\n      jump\t// in\n    tag_306:\n      dup2\n      mstore\n      0x20\n      add\n      swap1\n      0x01\n      swap1\n      sub\n      swap1\n      dup2\n      tag_305\n      jumpi\n      swap1\n      pop\n    tag_304:\n      pop\n        /* \"source/Marketplace.sol\":56140:56188  SelledNFT[] memory _ret = new SelledNFT[](count) */\n      swap1\n      pop\n        /* \"source/Marketplace.sol\":56216:56222  iStart */\n      dup5\n        /* \"source/Marketplace.sol\":56199:56644  for (uint256 i = iStart; i < iEnd; i++) {... */\n    tag_307:\n        /* \"source/Marketplace.sol\":56228:56232  iEnd */\n      dup5\n        /* \"source/Marketplace.sol\":56224:56225  i */\n      dup2\n        /* \"source/Marketplace.sol\":56224:56232  i < iEnd */\n      lt\n        /* \"source/Marketplace.sol\":56199:56644  for (uint256 i = iStart; i < iEnd; i++) {... */\n      iszero\n      tag_308\n      jumpi\n        /* \"source/Marketplace.sol\":56254:56270  uint256 _tokenId */\n      0x00\n        /* \"source/Marketplace.sol\":56273:56289  _tokensIdsAtSale */\n      0x07\n        /* \"source/Marketplace.sol\":56290:56291  i */\n      dup3\n        /* \"source/Marketplace.sol\":56273:56292  _tokensIdsAtSale[i] */\n      dup2\n      sload\n      dup2\n      lt\n      tag_311\n      jumpi\n      tag_311\n      tag_197\n      jump\t// in\n    tag_311:\n      0x00\n      swap2\n      dup3\n      mstore\n      0x20\n      dup1\n      dup4\n      keccak256\n      swap1\n      swap2\n      add\n      sload\n        /* \"source/Marketplace.sol\":56336:56578  SelledNFT(... */\n      0x40\n      dup1\n      mload\n      0xa0\n      dup2\n      add\n      dup3\n      mstore\n      dup3\n      dup2\n      mstore\n        /* \"source/Marketplace.sol\":56391:56414  _tokensAtSale[_tokenId] */\n      dup3\n      dup6\n      mstore\n        /* \"source/Marketplace.sol\":56391:56404  _tokensAtSale */\n      0x05\n        /* \"source/Marketplace.sol\":56391:56414  _tokensAtSale[_tokenId] */\n      dup1\n      dup6\n      mstore\n      dup3\n      dup7\n      keccak256\n        /* \"source/Marketplace.sol\":56391:56421  _tokensAtSale[_tokenId].seller */\n      0x01\n      dup2\n      add\n      sload\n      sub(shl(0xa0, 0x01), 0x01)\n      swap1\n      dup2\n      and\n        /* \"source/Marketplace.sol\":56336:56578  SelledNFT(... */\n      dup5\n      dup9\n      add\n      mstore\n        /* \"source/Marketplace.sol\":56440:56469  _tokensAtSale[_tokenId].price */\n      0x02\n      dup3\n      add\n      sload\n        /* \"source/Marketplace.sol\":56336:56578  SelledNFT(... */\n      swap5\n      dup5\n      add\n      swap5\n      swap1\n      swap5\n      mstore\n        /* \"source/Marketplace.sol\":56488:56517  _tokensAtSale[_tokenId].erc20 */\n      0x03\n      dup2\n      add\n      sload\n      swap1\n      swap4\n      and\n        /* \"source/Marketplace.sol\":56336:56578  SelledNFT(... */\n      0x60\n      dup4\n      add\n      mstore\n        /* \"source/Marketplace.sol\":56536:56559  _tokensAtSale[_tokenId] */\n      swap5\n      dup4\n      swap1\n      mstore\n      swap4\n      swap1\n      swap3\n      mstore\n        /* \"source/Marketplace.sol\":56536:56563  _tokensAtSale[_tokenId].utx */\n      0x04\n      swap1\n      swap2\n      add\n      sload\n        /* \"source/Marketplace.sol\":56336:56578  SelledNFT(... */\n      0x80\n      dup4\n      add\n      mstore\n        /* \"source/Marketplace.sol\":56593:56601  _ret[ii] */\n      dup5\n      mload\n        /* \"source/Marketplace.sol\":56273:56292  _tokensIdsAtSale[i] */\n      swap1\n      swap3\n      pop\n        /* \"source/Marketplace.sol\":56336:56578  SelledNFT(... */\n      dup2\n      swap1\n        /* \"source/Marketplace.sol\":56593:56597  _ret */\n      dup6\n      swap1\n        /* \"source/Marketplace.sol\":56598:56600  ii */\n      dup8\n      swap1\n        /* \"source/Marketplace.sol\":56593:56601  _ret[ii] */\n      dup2\n      lt\n      tag_314\n      jumpi\n      tag_314\n      tag_197\n      jump\t// in\n    tag_314:\n      0x20\n      mul\n      0x20\n      add\n      add\n        /* \"source/Marketplace.sol\":56593:56613  _ret[ii] = _pushItem */\n      dup2\n      swap1\n      mstore\n      pop\n        /* \"source/Marketplace.sol\":56628:56632  ii++ */\n      dup5\n      dup1\n      tag_315\n      swap1\n      tag_201\n      jump\t// in\n    tag_315:\n      swap6\n      pop\n      pop\n        /* \"source/Marketplace.sol\":56239:56644  {... */\n      pop\n      pop\n        /* \"source/Marketplace.sol\":56234:56237  i++ */\n      dup1\n      dup1\n      tag_316\n      swap1\n      tag_201\n      jump\t// in\n    tag_316:\n      swap2\n      pop\n      pop\n        /* \"source/Marketplace.sol\":56199:56644  for (uint256 i = iStart; i < iEnd; i++) {... */\n      jump(tag_307)\n    tag_308:\n      pop\n        /* \"source/Marketplace.sol\":56661:56665  _ret */\n      swap5\n      pop\n      pop\n      pop\n      pop\n      pop\n        /* \"source/Marketplace.sol\":55630:56673  function getTokensAtSale(uint256 offset, uint256 limit)... */\n    tag_288:\n      swap3\n      swap2\n      pop\n      pop\n      jump\t// out\n        /* \"source/Marketplace.sol\":53180:53284  function getAllowedERC20() public view returns(address[] memory) {... */\n    tag_82:\n        /* \"source/Marketplace.sol\":53227:53243  address[] memory */\n      0x60\n        /* \"source/Marketplace.sol\":53263:53276  _allowedERC20 */\n      0x06\n        /* \"source/Marketplace.sol\":53256:53276  return _allowedERC20 */\n      dup1\n      sload\n      dup1\n      0x20\n      mul\n      0x20\n      add\n      mload(0x40)\n      swap1\n      dup2\n      add\n      0x40\n      mstore\n      dup1\n      swap3\n      swap2\n      swap1\n      dup2\n      dup2\n      mstore\n      0x20\n      add\n      dup3\n      dup1\n      sload\n      dup1\n      iszero\n      tag_319\n      jumpi\n      0x20\n      mul\n      dup3\n      add\n      swap2\n      swap1\n      0x00\n      mstore\n      keccak256(0x00, 0x20)\n      swap1\n    tag_320:\n      dup2\n      sload\n      sub(shl(0xa0, 0x01), 0x01)\n      and\n      dup2\n      mstore\n      0x01\n      swap1\n      swap2\n      add\n      swap1\n      0x20\n      add\n      dup1\n      dup4\n      gt\n      tag_320\n      jumpi\n    tag_319:\n      pop\n      pop\n      pop\n      pop\n      pop\n      swap1\n      pop\n        /* \"source/Marketplace.sol\":53180:53284  function getAllowedERC20() public view returns(address[] memory) {... */\n      swap1\n      jump\t// out\n        /* \"source/Marketplace.sol\":2667:2770  function renounceOwnership() public virtual onlyOwner {... */\n    tag_87:\n        /* \"source/Marketplace.sol\":1905:1918  _checkOwner() */\n      tag_322\n        /* \"source/Marketplace.sol\":1905:1916  _checkOwner */\n      tag_189\n        /* \"source/Marketplace.sol\":1905:1918  _checkOwner() */\n      jump\t// in\n    tag_322:\n        /* \"source/Marketplace.sol\":2732:2762  _transferOwnership(address(0)) */\n      tag_324\n        /* \"source/Marketplace.sol\":2759:2760  0 */\n      0x00\n        /* \"source/Marketplace.sol\":2732:2750  _transferOwnership */\n      tag_325\n        /* \"source/Marketplace.sol\":2732:2762  _transferOwnership(address(0)) */\n      jump\t// in\n    tag_324:\n        /* \"source/Marketplace.sol\":2667:2770  function renounceOwnership() public virtual onlyOwner {... */\n      jump\t// out\n        /* \"source/Marketplace.sol\":53292:53510  function isAllowedERC20(address erc20) public view returns (bool) {... */\n    tag_91:\n        /* \"source/Marketplace.sol\":53352:53356  bool */\n      0x00\n      dup1\n        /* \"source/Marketplace.sol\":53369:53480  for(uint i=0; i<_allowedERC20.length;i++) {... */\n    tag_327:\n        /* \"source/Marketplace.sol\":53385:53398  _allowedERC20 */\n      0x06\n        /* \"source/Marketplace.sol\":53385:53405  _allowedERC20.length */\n      sload\n        /* \"source/Marketplace.sol\":53383:53405  i<_allowedERC20.length */\n      dup2\n      lt\n        /* \"source/Marketplace.sol\":53369:53480  for(uint i=0; i<_allowedERC20.length;i++) {... */\n      iszero\n      tag_328\n      jumpi\n        /* \"source/Marketplace.sol\":53439:53452  _allowedERC20 */\n      0x06\n        /* \"source/Marketplace.sol\":53453:53454  i */\n      dup2\n        /* \"source/Marketplace.sol\":53439:53455  _allowedERC20[i] */\n      dup2\n      sload\n      dup2\n      lt\n      tag_331\n      jumpi\n      tag_331\n      tag_197\n      jump\t// in\n    tag_331:\n      0x00\n      swap2\n      dup3\n      mstore\n      0x20\n      swap1\n      swap2\n      keccak256\n      add\n      sload\n      sub(shl(0xa0, 0x01), 0x01)\n      swap1\n      dup2\n      and\n        /* \"source/Marketplace.sol\":53430:53455  erc20 == _allowedERC20[i] */\n      swap1\n      dup5\n      and\n      sub\n        /* \"source/Marketplace.sol\":53426:53468  if (erc20 == _allowedERC20[i]) return true */\n      tag_333\n      jumpi\n      pop\n        /* \"source/Marketplace.sol\":53464:53468  true */\n      0x01\n      swap3\n        /* \"source/Marketplace.sol\":53292:53510  function isAllowedERC20(address erc20) public view returns (bool) {... */\n      swap2\n      pop\n      pop\n      jump\t// out\n        /* \"source/Marketplace.sol\":53426:53468  if (erc20 == _allowedERC20[i]) return true */\n    tag_333:\n        /* \"source/Marketplace.sol\":53406:53409  i++ */\n      dup1\n      tag_334\n      dup2\n      tag_201\n      jump\t// in\n    tag_334:\n      swap2\n      pop\n      pop\n        /* \"source/Marketplace.sol\":53369:53480  for(uint i=0; i<_allowedERC20.length;i++) {... */\n      jump(tag_327)\n    tag_328:\n      pop\n        /* \"source/Marketplace.sol\":53497:53502  false */\n      0x00\n      swap3\n        /* \"source/Marketplace.sol\":53292:53510  function isAllowedERC20(address erc20) public view returns (bool) {... */\n      swap2\n      pop\n      pop\n      jump\t// out\n        /* \"source/Marketplace.sol\":59652:60712  function sellNFT(... */\n    tag_97:\n        /* \"source/Marketplace.sol\":49247:49251  bool */\n      0x00\n        /* \"source/Marketplace.sol\":49271:49278  _paused */\n      sload\n      shl(0xa0, 0x01)\n      swap1\n      div\n      0xff\n      and\n        /* \"source/Marketplace.sol\":49525:49534  !paused() */\n      iszero\n        /* \"source/Marketplace.sol\":49517:49555  require(!paused(), \"Pausable: paused\") */\n      tag_337\n      jumpi\n      mload(0x40)\n      shl(0xe5, 0x461bcd)\n      dup2\n      mstore\n      0x04\n      add\n      tag_139\n      swap1\n      tag_140\n      jump\t// in\n    tag_337:\n        /* \"source/Marketplace.sol\":59829:59838  marketNft */\n      sload(0x01)\n        /* \"source/Marketplace.sol\":59829:59856  marketNft.ownerOf(_tokenId) */\n      mload(0x40)\n      shl(0xe1, 0x31a9108f)\n      dup2\n      mstore\n      0x04\n      dup2\n      add\n        /* \"#utility.yul\":2404:2429   */\n      dup6\n      swap1\n      mstore\n        /* \"source/Marketplace.sol\":59860:59870  msg.sender */\n      caller\n      swap2\n      sub(shl(0xa0, 0x01), 0x01)\n        /* \"source/Marketplace.sol\":59829:59838  marketNft */\n      and\n      swap1\n        /* \"source/Marketplace.sol\":59829:59846  marketNft.ownerOf */\n      0x6352211e\n      swap1\n        /* \"#utility.yul\":2377:2395   */\n      0x24\n      add\n        /* \"source/Marketplace.sol\":59829:59856  marketNft.ownerOf(_tokenId) */\n      0x20\n      mload(0x40)\n      dup1\n      dup4\n      sub\n      dup2\n      dup7\n      gas\n      staticcall\n      iszero\n      dup1\n      iszero\n      tag_342\n      jumpi\n      returndatasize\n      0x00\n      dup1\n      returndatacopy\n      revert(0x00, returndatasize)\n    tag_342:\n      pop\n      pop\n      pop\n      pop\n      mload(0x40)\n      returndatasize\n      not(0x1f)\n      0x1f\n      dup3\n      add\n      and\n      dup3\n      add\n      dup1\n      0x40\n      mstore\n      pop\n      dup2\n      add\n      swap1\n      tag_343\n      swap2\n      swap1\n      tag_344\n      jump\t// in\n    tag_343:\n      sub(shl(0xa0, 0x01), 0x01)\n        /* \"source/Marketplace.sol\":59829:59870  marketNft.ownerOf(_tokenId) == msg.sender */\n      and\n      eq\n        /* \"source/Marketplace.sol\":59807:59923  require(... */\n      tag_345\n      jumpi\n      mload(0x40)\n      shl(0xe5, 0x461bcd)\n      dup2\n      mstore\n        /* \"#utility.yul\":11495:11497   */\n      0x20\n        /* \"source/Marketplace.sol\":59807:59923  require(... */\n      0x04\n      dup3\n      add\n        /* \"#utility.yul\":11477:11498   */\n      mstore\n        /* \"#utility.yul\":11534:11536   */\n      0x19\n        /* \"#utility.yul\":11514:11532   */\n      0x24\n      dup3\n      add\n        /* \"#utility.yul\":11507:11537   */\n      mstore\n        /* \"#utility.yul\":11573:11600   */\n      0x596f7520646f6e2774206f776e207468697320746f6b656e2100000000000000\n        /* \"#utility.yul\":11553:11571   */\n      0x44\n      dup3\n      add\n        /* \"#utility.yul\":11546:11601   */\n      mstore\n        /* \"#utility.yul\":11618:11636   */\n      0x64\n      add\n        /* \"source/Marketplace.sol\":59807:59923  require(... */\n      tag_139\n        /* \"#utility.yul\":11293:11642   */\n      jump\n        /* \"source/Marketplace.sol\":59807:59923  require(... */\n    tag_345:\n        /* \"source/Marketplace.sol\":59950:59951  0 */\n      0x00\n        /* \"source/Marketplace.sol\":59942:59947  price */\n      dup3\n        /* \"source/Marketplace.sol\":59942:59951  price > 0 */\n      gt\n        /* \"source/Marketplace.sol\":59934:59987  require(price > 0, \"Price must be greater than zero\") */\n      tag_348\n      jumpi\n      mload(0x40)\n      shl(0xe5, 0x461bcd)\n      dup2\n      mstore\n        /* \"#utility.yul\":11849:11851   */\n      0x20\n        /* \"source/Marketplace.sol\":59934:59987  require(price > 0, \"Price must be greater than zero\") */\n      0x04\n      dup3\n      add\n        /* \"#utility.yul\":11831:11852   */\n      mstore\n        /* \"#utility.yul\":11888:11890   */\n      0x1f\n        /* \"#utility.yul\":11868:11886   */\n      0x24\n      dup3\n      add\n        /* \"#utility.yul\":11861:11891   */\n      mstore\n        /* \"#utility.yul\":11927:11960   */\n      0x5072696365206d7573742062652067726561746572207468616e207a65726f00\n        /* \"#utility.yul\":11907:11925   */\n      0x44\n      dup3\n      add\n        /* \"#utility.yul\":11900:11961   */\n      mstore\n        /* \"#utility.yul\":11978:11996   */\n      0x64\n      add\n        /* \"source/Marketplace.sol\":59934:59987  require(price > 0, \"Price must be greater than zero\") */\n      tag_139\n        /* \"#utility.yul\":11647:12002   */\n      jump\n        /* \"source/Marketplace.sol\":59934:59987  require(price > 0, \"Price must be greater than zero\") */\n    tag_348:\n      sub(shl(0xa0, 0x01), 0x01)\n        /* \"source/Marketplace.sol\":60002:60022  _erc20 != address(0) */\n      dup2\n      and\n      iszero\n        /* \"source/Marketplace.sol\":59998:60170  if (_erc20 != address(0)) {... */\n      tag_353\n      jumpi\n        /* \"source/Marketplace.sol\":60079:60101  isAllowedERC20(_erc20) */\n      tag_352\n        /* \"source/Marketplace.sol\":60094:60100  _erc20 */\n      dup2\n        /* \"source/Marketplace.sol\":60079:60093  isAllowedERC20 */\n      tag_91\n        /* \"source/Marketplace.sol\":60079:60101  isAllowedERC20(_erc20) */\n      jump\t// in\n    tag_352:\n        /* \"source/Marketplace.sol\":60079:60109  isAllowedERC20(_erc20) == true */\n      iszero\n      iszero\n        /* \"source/Marketplace.sol\":60105:60109  true */\n      0x01\n        /* \"source/Marketplace.sol\":60079:60109  isAllowedERC20(_erc20) == true */\n      eq\n        /* \"source/Marketplace.sol\":60071:60158  require(isAllowedERC20(_erc20) == true, \"This ERC20 not allowed as a trading currency\") */\n      tag_353\n      jumpi\n      mload(0x40)\n      shl(0xe5, 0x461bcd)\n      dup2\n      mstore\n        /* \"#utility.yul\":12209:12211   */\n      0x20\n        /* \"source/Marketplace.sol\":60071:60158  require(isAllowedERC20(_erc20) == true, \"This ERC20 not allowed as a trading currency\") */\n      0x04\n      dup3\n      add\n        /* \"#utility.yul\":12191:12212   */\n      mstore\n        /* \"#utility.yul\":12248:12250   */\n      0x2c\n        /* \"#utility.yul\":12228:12246   */\n      0x24\n      dup3\n      add\n        /* \"#utility.yul\":12221:12251   */\n      mstore\n        /* \"#utility.yul\":12287:12321   */\n      0x54686973204552433230206e6f7420616c6c6f77656420617320612074726164\n        /* \"#utility.yul\":12267:12285   */\n      0x44\n      dup3\n      add\n        /* \"#utility.yul\":12260:12322   */\n      mstore\n      shl(0xa0, 0x696e672063757272656e6379)\n        /* \"#utility.yul\":12338:12356   */\n      0x64\n      dup3\n      add\n        /* \"#utility.yul\":12331:12373   */\n      mstore\n        /* \"#utility.yul\":12390:12409   */\n      0x84\n      add\n        /* \"source/Marketplace.sol\":60071:60158  require(isAllowedERC20(_erc20) == true, \"This ERC20 not allowed as a trading currency\") */\n      tag_139\n        /* \"#utility.yul\":12007:12415   */\n      jump\n        /* \"source/Marketplace.sol\":60071:60158  require(isAllowedERC20(_erc20) == true, \"This ERC20 not allowed as a trading currency\") */\n    tag_353:\n        /* \"source/Marketplace.sol\":60182:60207  _isTokensAtSale[_tokenId] */\n      0x00\n      dup4\n      dup2\n      mstore\n        /* \"source/Marketplace.sol\":60182:60197  _isTokensAtSale */\n      0x04\n        /* \"source/Marketplace.sol\":60182:60207  _isTokensAtSale[_tokenId] */\n      0x20\n      dup2\n      dup2\n      mstore\n      0x40\n      dup1\n      dup5\n      keccak256\n        /* \"source/Marketplace.sol\":60182:60214  _isTokensAtSale[_tokenId] = true */\n      dup1\n      sload\n      not(0xff)\n      and\n        /* \"source/Marketplace.sol\":60210:60214  true */\n      0x01\n        /* \"source/Marketplace.sol\":60182:60214  _isTokensAtSale[_tokenId] = true */\n      swap1\n      dup2\n      or\n      swap1\n      swap2\n      sstore\n        /* \"source/Marketplace.sol\":60251:60390  SelledNFT(... */\n      dup2\n      mload\n      0xa0\n      dup2\n      add\n      dup4\n      mstore\n      dup9\n      dup2\n      mstore\n        /* \"source/Marketplace.sol\":60298:60308  msg.sender */\n      caller\n        /* \"source/Marketplace.sol\":60251:60390  SelledNFT(... */\n      dup2\n      dup6\n      add\n      dup2\n      dup2\n      mstore\n      dup3\n      dup6\n      add\n      dup11\n      dup2\n      mstore\n      sub(shl(0xa0, 0x01), 0x01)\n      dup11\n      dup2\n      and\n      0x60\n      dup7\n      add\n      swap1\n      dup2\n      mstore\n        /* \"source/Marketplace.sol\":60364:60379  block.timestamp */\n      timestamp\n        /* \"source/Marketplace.sol\":60251:60390  SelledNFT(... */\n      0x80\n      dup8\n      add\n      swap1\n      dup2\n      mstore\n        /* \"source/Marketplace.sol\":60225:60248  _tokensAtSale[_tokenId] */\n      dup15\n      dup13\n      mstore\n        /* \"source/Marketplace.sol\":60225:60238  _tokensAtSale */\n      0x05\n        /* \"source/Marketplace.sol\":60225:60248  _tokensAtSale[_tokenId] */\n      swap1\n      swap10\n      mstore\n      swap10\n      dup8\n      swap1\n      keccak256\n        /* \"source/Marketplace.sol\":60225:60390  _tokensAtSale[_tokenId] = SelledNFT(... */\n      swap5\n      mload\n      dup6\n      sstore\n      swap2\n      mload\n      dup5\n      dup7\n      add\n      dup1\n      sload\n      swap2\n      dup5\n      and\n      not(sub(shl(0xa0, 0x01), 0x01))\n      swap3\n      dup4\n      and\n      or\n      swap1\n      sstore\n      swap1\n      mload\n      0x02\n      dup6\n      add\n      sstore\n      swap8\n      mload\n      0x03\n      dup5\n      add\n      dup1\n      sload\n      swap2\n      dup4\n      and\n      swap2\n      swap1\n      swap10\n      and\n      or\n      swap1\n      swap8\n      sstore\n      swap4\n      mload\n      swap1\n      dup6\n      add\n      sstore\n        /* \"source/Marketplace.sol\":60401:60410  marketNft */\n      sload\n        /* \"source/Marketplace.sol\":60401:60460  marketNft.transferFrom(msg.sender, address(this), _tokenId) */\n      swap1\n      mload\n      shl(0xe0, 0x23b872dd)\n      dup2\n      mstore\n        /* \"source/Marketplace.sol\":60401:60410  marketNft */\n      swap4\n      and\n      swap3\n        /* \"source/Marketplace.sol\":60401:60423  marketNft.transferFrom */\n      0x23b872dd\n      swap3\n        /* \"source/Marketplace.sol\":60401:60460  marketNft.transferFrom(msg.sender, address(this), _tokenId) */\n      tag_356\n      swap3\n        /* \"source/Marketplace.sol\":60298:60308  msg.sender */\n      swap2\n        /* \"source/Marketplace.sol\":60444:60448  this */\n      address\n      swap2\n        /* \"source/Marketplace.sol\":60198:60206  _tokenId */\n      dup10\n      swap2\n        /* \"source/Marketplace.sol\":60401:60460  marketNft.transferFrom(msg.sender, address(this), _tokenId) */\n      add\n      tag_177\n      jump\t// in\n    tag_356:\n      0x00\n      mload(0x40)\n      dup1\n      dup4\n      sub\n      dup2\n      0x00\n      dup8\n      dup1\n      extcodesize\n      iszero\n      dup1\n      iszero\n      tag_357\n      jumpi\n      0x00\n      dup1\n      revert\n    tag_357:\n      pop\n      gas\n      call\n      iszero\n      dup1\n      iszero\n      tag_359\n      jumpi\n      returndatasize\n      0x00\n      dup1\n      returndatacopy\n      revert(0x00, returndatasize)\n    tag_359:\n      pop\n      pop\n      pop\n      pop\n        /* \"source/Marketplace.sol\":60471:60497  __addTokenToSale(_tokenId) */\n      tag_360\n        /* \"source/Marketplace.sol\":60488:60496  _tokenId */\n      dup4\n        /* \"source/Marketplace.sol\":51761:51777  _tokensIdsAtSale */\n      0x07\n        /* \"source/Marketplace.sol\":51761:51792  _tokensIdsAtSale.push(_tokenId) */\n      dup1\n      sload\n      0x01\n      dup2\n      add\n      dup3\n      sstore\n      0x00\n      swap2\n      swap1\n      swap2\n      mstore\n      0xa66cc928b5edb82af9bd49922954155ab7b0942694bea4ce44661d9a8736c688\n      add\n      sstore\n        /* \"source/Marketplace.sol\":51696:51800  function __addTokenToSale(uint256 _tokenId) internal  {... */\n      jump\n        /* \"source/Marketplace.sol\":60471:60497  __addTokenToSale(_tokenId) */\n    tag_360:\n      sub(shl(0xa0, 0x01), 0x01)\n        /* \"source/Marketplace.sol\":60514:60534  _erc20 == address(0) */\n      dup2\n      and\n        /* \"source/Marketplace.sol\":60510:60705  if (_erc20 == address(0)) {... */\n      tag_362\n      jumpi\n        /* \"source/Marketplace.sol\":60556:60614  PutUpForSaleWithERC20(msg.sender, _tokenId, _erc20, price) */\n      0x40\n      dup1\n      mload\n        /* \"source/Marketplace.sol\":60578:60588  msg.sender */\n      caller\n        /* \"#utility.yul\":12689:12723   */\n      dup2\n      mstore\n        /* \"#utility.yul\":12754:12756   */\n      0x20\n        /* \"#utility.yul\":12739:12757   */\n      dup2\n      add\n        /* \"#utility.yul\":12732:12766   */\n      dup6\n      swap1\n      mstore\n      sub(shl(0xa0, 0x01), 0x01)\n        /* \"#utility.yul\":12802:12817   */\n      dup4\n      and\n        /* \"#utility.yul\":12782:12800   */\n      swap2\n      dup2\n      add\n        /* \"#utility.yul\":12775:12818   */\n      swap2\n      swap1\n      swap2\n      mstore\n        /* \"#utility.yul\":12849:12851   */\n      0x60\n        /* \"#utility.yul\":12834:12852   */\n      dup2\n      add\n        /* \"#utility.yul\":12827:12861   */\n      dup4\n      swap1\n      mstore\n        /* \"source/Marketplace.sol\":60556:60614  PutUpForSaleWithERC20(msg.sender, _tokenId, _erc20, price) */\n      0x0a4292e75f7eafde90821610c4cabfc298540c274b50a7ea784a529a2b8a4a6f\n      swap1\n        /* \"#utility.yul\":12638:12641   */\n      0x80\n        /* \"#utility.yul\":12623:12642   */\n      add\n        /* \"source/Marketplace.sol\":60556:60614  PutUpForSaleWithERC20(msg.sender, _tokenId, _erc20, price) */\n    tag_363:\n      mload(0x40)\n      dup1\n      swap2\n      sub\n      swap1\n      log1\n        /* \"source/Marketplace.sol\":59652:60712  function sellNFT(... */\n      pop\n      pop\n      pop\n      jump\t// out\n        /* \"source/Marketplace.sol\":60510:60705  if (_erc20 == address(0)) {... */\n    tag_362:\n        /* \"source/Marketplace.sol\":60652:60693  PutUpForSale(msg.sender, _tokenId, price) */\n      0x40\n      dup1\n      mload\n        /* \"source/Marketplace.sol\":60665:60675  msg.sender */\n      caller\n        /* \"#utility.yul\":13074:13125   */\n      dup2\n      mstore\n        /* \"#utility.yul\":13156:13158   */\n      0x20\n        /* \"#utility.yul\":13141:13159   */\n      dup2\n      add\n        /* \"#utility.yul\":13134:13168   */\n      dup6\n      swap1\n      mstore\n        /* \"#utility.yul\":13184:13202   */\n      swap1\n      dup2\n      add\n        /* \"#utility.yul\":13177:13211   */\n      dup4\n      swap1\n      mstore\n        /* \"source/Marketplace.sol\":60652:60693  PutUpForSale(msg.sender, _tokenId, price) */\n      0x4524387b4311078b7531910a140a6975002b10aca4cf12255e98da8f1ff1b35b\n      swap1\n        /* \"#utility.yul\":13062:13064   */\n      0x60\n        /* \"#utility.yul\":13047:13065   */\n      add\n        /* \"source/Marketplace.sol\":60652:60693  PutUpForSale(msg.sender, _tokenId, price) */\n      tag_363\n        /* \"#utility.yul\":12872:13217   */\n      jump\n        /* \"source/Marketplace.sol\":60510:60705  if (_erc20 == address(0)) {... */\n    tag_365:\n        /* \"source/Marketplace.sol\":59652:60712  function sellNFT(... */\n      pop\n      pop\n      pop\n      jump\t// out\n        /* \"source/Marketplace.sol\":54335:54468  function getMyTokensAtSale() external view returns (SelledNFT[] memory ret) {... */\n    tag_109:\n        /* \"source/Marketplace.sol\":54387:54409  SelledNFT[] memory ret */\n      0x60\n        /* \"source/Marketplace.sol\":54429:54460  getUserTokensAtSale(msg.sender) */\n      tag_371\n        /* \"source/Marketplace.sol\":54449:54459  msg.sender */\n      caller\n        /* \"source/Marketplace.sol\":54429:54448  getUserTokensAtSale */\n      tag_47\n        /* \"source/Marketplace.sol\":54429:54460  getUserTokensAtSale(msg.sender) */\n      jump\t// in\n    tag_371:\n        /* \"source/Marketplace.sol\":54422:54460  return getUserTokensAtSale(msg.sender) */\n      swap1\n      pop\n        /* \"source/Marketplace.sol\":54335:54468  function getMyTokensAtSale() external view returns (SelledNFT[] memory ret) {... */\n      swap1\n      jump\t// out\n        /* \"source/Marketplace.sol\":53042:53168  function setAllowedERC20(address[] memory newAllowedERC20) public onlyOwner {... */\n    tag_123:\n        /* \"source/Marketplace.sol\":1905:1918  _checkOwner() */\n      tag_375\n        /* \"source/Marketplace.sol\":1905:1916  _checkOwner */\n      tag_189\n        /* \"source/Marketplace.sol\":1905:1918  _checkOwner() */\n      jump\t// in\n    tag_375:\n        /* \"source/Marketplace.sol\":53129:53160  _allowedERC20 = newAllowedERC20 */\n      dup1\n      mload\n      tag_377\n      swap1\n        /* \"source/Marketplace.sol\":53129:53142  _allowedERC20 */\n      0x06\n      swap1\n        /* \"source/Marketplace.sol\":53129:53160  _allowedERC20 = newAllowedERC20 */\n      0x20\n      dup5\n      add\n      swap1\n      tag_378\n      jump\t// in\n    tag_377:\n      pop\n        /* \"source/Marketplace.sol\":53042:53168  function setAllowedERC20(address[] memory newAllowedERC20) public onlyOwner {... */\n      pop\n      jump\t// out\n        /* \"source/Marketplace.sol\":52921:53036  function setFeeReceiver(address _newFeeReceiver) public onlyOwner {... */\n    tag_127:\n        /* \"source/Marketplace.sol\":1905:1918  _checkOwner() */\n      tag_380\n        /* \"source/Marketplace.sol\":1905:1916  _checkOwner */\n      tag_189\n        /* \"source/Marketplace.sol\":1905:1918  _checkOwner() */\n      jump\t// in\n    tag_380:\n        /* \"source/Marketplace.sol\":52998:53010  _feeReceiver */\n      0x08\n        /* \"source/Marketplace.sol\":52998:53028  _feeReceiver = _newFeeReceiver */\n      dup1\n      sload\n      not(sub(shl(0xa0, 0x01), 0x01))\n      and\n      sub(shl(0xa0, 0x01), 0x01)\n      swap3\n      swap1\n      swap3\n      and\n      swap2\n      swap1\n      swap2\n      or\n      swap1\n      sstore\n        /* \"source/Marketplace.sol\":52921:53036  function setFeeReceiver(address _newFeeReceiver) public onlyOwner {... */\n      jump\t// out\n        /* \"source/Marketplace.sol\":2925:3126  function transferOwnership(address newOwner) public virtual onlyOwner {... */\n    tag_131:\n        /* \"source/Marketplace.sol\":1905:1918  _checkOwner() */\n      tag_383\n        /* \"source/Marketplace.sol\":1905:1916  _checkOwner */\n      tag_189\n        /* \"source/Marketplace.sol\":1905:1918  _checkOwner() */\n      jump\t// in\n    tag_383:\n      sub(shl(0xa0, 0x01), 0x01)\n        /* \"source/Marketplace.sol\":3014:3036  newOwner != address(0) */\n      dup2\n      and\n        /* \"source/Marketplace.sol\":3006:3079  require(newOwner != address(0), \"Ownable: new owner is the zero address\") */\n      tag_385\n      jumpi\n      mload(0x40)\n      shl(0xe5, 0x461bcd)\n      dup2\n      mstore\n        /* \"#utility.yul\":13424:13426   */\n      0x20\n        /* \"source/Marketplace.sol\":3006:3079  require(newOwner != address(0), \"Ownable: new owner is the zero address\") */\n      0x04\n      dup3\n      add\n        /* \"#utility.yul\":13406:13427   */\n      mstore\n        /* \"#utility.yul\":13463:13465   */\n      0x26\n        /* \"#utility.yul\":13443:13461   */\n      0x24\n      dup3\n      add\n        /* \"#utility.yul\":13436:13466   */\n      mstore\n        /* \"#utility.yul\":13502:13536   */\n      0x4f776e61626c653a206e6577206f776e657220697320746865207a65726f2061\n        /* \"#utility.yul\":13482:13500   */\n      0x44\n      dup3\n      add\n        /* \"#utility.yul\":13475:13537   */\n      mstore\n      shl(0xd0, 0x646472657373)\n        /* \"#utility.yul\":13553:13571   */\n      0x64\n      dup3\n      add\n        /* \"#utility.yul\":13546:13582   */\n      mstore\n        /* \"#utility.yul\":13599:13618   */\n      0x84\n      add\n        /* \"source/Marketplace.sol\":3006:3079  require(newOwner != address(0), \"Ownable: new owner is the zero address\") */\n      tag_139\n        /* \"#utility.yul\":13222:13624   */\n      jump\n        /* \"source/Marketplace.sol\":3006:3079  require(newOwner != address(0), \"Ownable: new owner is the zero address\") */\n    tag_385:\n        /* \"source/Marketplace.sol\":3090:3118  _transferOwnership(newOwner) */\n      tag_388\n        /* \"source/Marketplace.sol\":3109:3117  newOwner */\n      dup2\n        /* \"source/Marketplace.sol\":3090:3108  _transferOwnership */\n      tag_325\n        /* \"source/Marketplace.sol\":3090:3118  _transferOwnership(newOwner) */\n      jump\t// in\n    tag_388:\n        /* \"source/Marketplace.sol\":2925:3126  function transferOwnership(address newOwner) public virtual onlyOwner {... */\n      pop\n      jump\t// out\n        /* \"source/Marketplace.sol\":53717:53978  function withdrawERC20(address erc20) public onlyOwner {... */\n    tag_135:\n        /* \"source/Marketplace.sol\":1905:1918  _checkOwner() */\n      tag_390\n        /* \"source/Marketplace.sol\":1905:1916  _checkOwner */\n      tag_189\n        /* \"source/Marketplace.sol\":1905:1918  _checkOwner() */\n      jump\t// in\n    tag_390:\n        /* \"source/Marketplace.sol\":53840:53870  token.balanceOf(address(this)) */\n      mload(0x40)\n      shl(0xe0, 0x70a08231)\n      dup2\n      mstore\n        /* \"source/Marketplace.sol\":53864:53868  this */\n      address\n        /* \"source/Marketplace.sol\":53840:53870  token.balanceOf(address(this)) */\n      0x04\n      dup3\n      add\n        /* \"#utility.yul\":360:411   */\n      mstore\n        /* \"source/Marketplace.sol\":53805:53810  erc20 */\n      dup2\n      swap1\n        /* \"source/Marketplace.sol\":53783:53795  IERC20 token */\n      0x00\n      swap1\n      sub(shl(0xa0, 0x01), 0x01)\n        /* \"source/Marketplace.sol\":53840:53855  token.balanceOf */\n      dup4\n      and\n      swap1\n      0x70a08231\n      swap1\n        /* \"#utility.yul\":333:351   */\n      0x24\n      add\n        /* \"source/Marketplace.sol\":53840:53870  token.balanceOf(address(this)) */\n      0x20\n      mload(0x40)\n      dup1\n      dup4\n      sub\n      dup2\n      dup7\n      gas\n      staticcall\n      iszero\n      dup1\n      iszero\n      tag_394\n      jumpi\n      returndatasize\n      0x00\n      dup1\n      returndatacopy\n      revert(0x00, returndatasize)\n    tag_394:\n      pop\n      pop\n      pop\n      pop\n      mload(0x40)\n      returndatasize\n      not(0x1f)\n      0x1f\n      dup3\n      add\n      and\n      dup3\n      add\n      dup1\n      0x40\n      mstore\n      pop\n      dup2\n      add\n      swap1\n      tag_395\n      swap2\n      swap1\n      tag_152\n      jump\t// in\n    tag_395:\n        /* \"source/Marketplace.sol\":53822:53870  uint256 balance = token.balanceOf(address(this)) */\n      swap1\n      pop\n        /* \"source/Marketplace.sol\":53881:53886  token */\n      dup2\n      sub(shl(0xa0, 0x01), 0x01)\n        /* \"source/Marketplace.sol\":53881:53895  token.transfer */\n      and\n      0xa9059cbb\n        /* \"source/Marketplace.sol\":53896:53903  owner() */\n      tag_396\n        /* \"source/Marketplace.sol\":2065:2072  address */\n      0x00\n        /* \"source/Marketplace.sol\":2092:2098  _owner */\n      sload\n      sub(shl(0xa0, 0x01), 0x01)\n      and\n      swap1\n        /* \"source/Marketplace.sol\":2019:2106  function owner() public view virtual returns (address) {... */\n      jump\n        /* \"source/Marketplace.sol\":53896:53903  owner() */\n    tag_396:\n        /* \"source/Marketplace.sol\":53881:53913  token.transfer(owner(), balance) */\n      mload(0x40)\n      not(sub(shl(0xe0, 0x01), 0x01))\n      0xe0\n      dup5\n      swap1\n      shl\n      and\n      dup2\n      mstore\n      sub(shl(0xa0, 0x01), 0x01)\n        /* \"#utility.yul\":9473:9505   */\n      swap1\n      swap2\n      and\n        /* \"source/Marketplace.sol\":53881:53913  token.transfer(owner(), balance) */\n      0x04\n      dup3\n      add\n        /* \"#utility.yul\":9455:9506   */\n      mstore\n        /* \"#utility.yul\":9522:9540   */\n      0x24\n      dup2\n      add\n        /* \"#utility.yul\":9515:9549   */\n      dup5\n      swap1\n      mstore\n        /* \"#utility.yul\":9428:9446   */\n      0x44\n      add\n        /* \"source/Marketplace.sol\":53881:53913  token.transfer(owner(), balance) */\n      0x20\n      mload(0x40)\n      dup1\n      dup4\n      sub\n      dup2\n      0x00\n      dup8\n      gas\n      call\n      iszero\n      dup1\n      iszero\n      tag_399\n      jumpi\n      returndatasize\n      0x00\n      dup1\n      returndatacopy\n      revert(0x00, returndatasize)\n    tag_399:\n      pop\n      pop\n      pop\n      pop\n      mload(0x40)\n      returndatasize\n      not(0x1f)\n      0x1f\n      dup3\n      add\n      and\n      dup3\n      add\n      dup1\n      0x40\n      mstore\n      pop\n      dup2\n      add\n      swap1\n      tag_400\n      swap2\n      swap1\n      tag_401\n      jump\t// in\n    tag_400:\n      pop\n        /* \"source/Marketplace.sol\":53929:53970  WithdrawERC20(msg.sender, erc20, balance) */\n      0x33c35f9541201e342d5e7467016e65a0a06182eb12a5f17103f71cec95b6cb29\n        /* \"source/Marketplace.sol\":53943:53953  msg.sender */\n      caller\n        /* \"source/Marketplace.sol\":53955:53960  erc20 */\n      dup5\n        /* \"source/Marketplace.sol\":53962:53969  balance */\n      dup4\n        /* \"source/Marketplace.sol\":53929:53970  WithdrawERC20(msg.sender, erc20, balance) */\n      mload(0x40)\n      tag_363\n      swap4\n      swap3\n      swap2\n      swap1\n      tag_177\n      jump\t// in\n        /* \"source/Marketplace.sol\":35741:35839  function div(uint256 a, uint256 b) internal pure returns (uint256) {... */\n    tag_166:\n        /* \"source/Marketplace.sol\":35799:35806  uint256 */\n      0x00\n        /* \"source/Marketplace.sol\":35826:35831  a / b */\n      tag_404\n        /* \"source/Marketplace.sol\":35830:35831  b */\n      dup3\n        /* \"source/Marketplace.sol\":35826:35827  a */\n      dup5\n        /* \"source/Marketplace.sol\":35826:35831  a / b */\n      tag_405\n      jump\t// in\n    tag_404:\n        /* \"source/Marketplace.sol\":35819:35831  return a / b */\n      swap4\n        /* \"source/Marketplace.sol\":35741:35839  function div(uint256 a, uint256 b) internal pure returns (uint256) {... */\n      swap3\n      pop\n      pop\n      pop\n      jump\t// out\n        /* \"source/Marketplace.sol\":35342:35440  function mul(uint256 a, uint256 b) internal pure returns (uint256) {... */\n    tag_167:\n        /* \"source/Marketplace.sol\":35400:35407  uint256 */\n      0x00\n        /* \"source/Marketplace.sol\":35427:35432  a * b */\n      tag_404\n        /* \"source/Marketplace.sol\":35431:35432  b */\n      dup3\n        /* \"source/Marketplace.sol\":35427:35428  a */\n      dup5\n        /* \"source/Marketplace.sol\":35427:35432  a * b */\n      tag_408\n      jump\t// in\n        /* \"source/Marketplace.sol\":34985:35083  function sub(uint256 a, uint256 b) internal pure returns (uint256) {... */\n    tag_171:\n        /* \"source/Marketplace.sol\":35043:35050  uint256 */\n      0x00\n        /* \"source/Marketplace.sol\":35070:35075  a - b */\n      tag_404\n        /* \"source/Marketplace.sol\":35074:35075  b */\n      dup3\n        /* \"source/Marketplace.sol\":35070:35071  a */\n      dup5\n        /* \"source/Marketplace.sol\":35070:35075  a - b */\n      tag_301\n      jump\t// in\n        /* \"source/Marketplace.sol\":6528:6733  function safeTransferFrom(IERC20 token, address from, address to, uint256 value) internal {... */\n    tag_173:\n        /* \"source/Marketplace.sol\":6629:6725  _callOptionalReturn(token, abi.encodeWithSelector(token.transferFrom.selector, from, to, value)) */\n      tag_280\n        /* \"source/Marketplace.sol\":6649:6654  token */\n      dup5\n        /* \"source/Marketplace.sol\":6679:6706  token.transferFrom.selector */\n      shl(0xe0, 0x23b872dd)\n        /* \"source/Marketplace.sol\":6708:6712  from */\n      dup6\n        /* \"source/Marketplace.sol\":6714:6716  to */\n      dup6\n        /* \"source/Marketplace.sol\":6718:6723  value */\n      dup6\n        /* \"source/Marketplace.sol\":6656:6724  abi.encodeWithSelector(token.transferFrom.selector, from, to, value) */\n      add(0x24, mload(0x40))\n      tag_413\n      swap4\n      swap3\n      swap2\n      swap1\n      tag_177\n      jump\t// in\n    tag_413:\n      0x40\n      dup1\n      mload\n      not(0x1f)\n      dup2\n      dup5\n      sub\n      add\n      dup2\n      mstore\n      swap2\n      swap1\n      mstore\n      0x20\n      dup2\n      add\n      dup1\n      mload\n      sub(shl(0xe0, 0x01), 0x01)\n      and\n      not(sub(shl(0xe0, 0x01), 0x01))\n      swap1\n      swap4\n      and\n      swap3\n      swap1\n      swap3\n      or\n      swap1\n      swap2\n      mstore\n        /* \"source/Marketplace.sol\":6629:6648  _callOptionalReturn */\n      tag_414\n        /* \"source/Marketplace.sol\":6629:6725  _callOptionalReturn(token, abi.encodeWithSelector(token.transferFrom.selector, from, to, value)) */\n      jump\t// in\n        /* \"source/Marketplace.sol\":54187:54327  function _clearSellToken(uint256 _tokenId) internal  {... */\n    tag_182:\n        /* \"source/Marketplace.sol\":54277:54319  SelledNFT(0, address(0), 0, address(0), 0) */\n      0x40\n      dup1\n      mload\n      0xa0\n      dup2\n      add\n      dup3\n      mstore\n      0x00\n      dup1\n      dup3\n      mstore\n      0x20\n      dup1\n      dup4\n      add\n      dup3\n      dup2\n      mstore\n      dup4\n      dup6\n      add\n      dup4\n      dup2\n      mstore\n      0x60\n      dup6\n      add\n      dup5\n      dup2\n      mstore\n      0x80\n      dup7\n      add\n      dup6\n      dup2\n      mstore\n        /* \"source/Marketplace.sol\":54251:54274  _tokensAtSale[_tokenId] */\n      swap8\n      dup6\n      mstore\n        /* \"source/Marketplace.sol\":54251:54264  _tokensAtSale */\n      0x05\n        /* \"source/Marketplace.sol\":54251:54274  _tokensAtSale[_tokenId] */\n      swap1\n      swap4\n      mstore\n      swap5\n      swap1\n      swap3\n      keccak256\n        /* \"source/Marketplace.sol\":54251:54319  _tokensAtSale[_tokenId] = SelledNFT(0, address(0), 0, address(0), 0) */\n      swap3\n      mload\n      dup4\n      sstore\n      swap1\n      mload\n      0x01\n      dup4\n      add\n      dup1\n      sload\n      not(sub(shl(0xa0, 0x01), 0x01))\n      swap1\n      dup2\n      and\n      sub(shl(0xa0, 0x01), 0x01)\n      swap4\n      dup5\n      and\n      or\n      swap1\n      swap2\n      sstore\n      swap4\n      mload\n      0x02\n      dup5\n      add\n      sstore\n      swap1\n      mload\n      0x03\n      dup4\n      add\n      dup1\n      sload\n      swap1\n      swap5\n      and\n      swap2\n      and\n      or\n      swap1\n      swap2\n      sstore\n      swap1\n      mload\n      0x04\n      swap1\n      swap2\n      add\n      sstore\n        /* \"source/Marketplace.sol\":54187:54327  function _clearSellToken(uint256 _tokenId) internal  {... */\n      jump\t// out\n        /* \"source/Marketplace.sol\":51806:52462  function __delTokenForSale(uint256 _tokenId) internal  {... */\n    tag_184:\n        /* \"source/Marketplace.sol\":51876:51892  _tokensIdsAtSale */\n      0x07\n        /* \"source/Marketplace.sol\":51893:51916  _tokensIdsAtSale.length */\n      dup1\n      sload\n        /* \"source/Marketplace.sol\":51925:51933  _tokenId */\n      dup3\n      swap2\n        /* \"source/Marketplace.sol\":51876:51892  _tokensIdsAtSale */\n      swap1\n        /* \"source/Marketplace.sol\":51893:51920  _tokensIdsAtSale.length - 1 */\n      tag_417\n      swap1\n        /* \"source/Marketplace.sol\":51919:51920  1 */\n      0x01\n      swap1\n        /* \"source/Marketplace.sol\":51893:51920  _tokensIdsAtSale.length - 1 */\n      tag_301\n      jump\t// in\n    tag_417:\n        /* \"source/Marketplace.sol\":51876:51921  _tokensIdsAtSale[_tokensIdsAtSale.length - 1] */\n      dup2\n      sload\n      dup2\n      lt\n      tag_419\n      jumpi\n      tag_419\n      tag_197\n      jump\t// in\n    tag_419:\n      swap1\n      0x00\n      mstore\n      keccak256(0x00, 0x20)\n      add\n      sload\n        /* \"source/Marketplace.sol\":51876:51933  _tokensIdsAtSale[_tokensIdsAtSale.length - 1] == _tokenId */\n      sub\n        /* \"source/Marketplace.sol\":51872:52005  if (_tokensIdsAtSale[_tokensIdsAtSale.length - 1] == _tokenId) {... */\n      tag_421\n      jumpi\n        /* \"source/Marketplace.sol\":51950:51966  _tokensIdsAtSale */\n      0x07\n        /* \"source/Marketplace.sol\":51950:51972  _tokensIdsAtSale.pop() */\n      dup1\n      sload\n      dup1\n      tag_423\n      jumpi\n      tag_423\n      tag_424\n      jump\t// in\n    tag_423:\n      0x01\n      swap1\n      sub\n      dup2\n      dup2\n      swap1\n      0x00\n      mstore\n      keccak256(0x00, 0x20)\n      add\n      0x00\n      swap1\n      sstore\n      swap1\n      sstore\n        /* \"source/Marketplace.sol\":51806:52462  function __delTokenForSale(uint256 _tokenId) internal  {... */\n      pop\n      jump\t// out\n        /* \"source/Marketplace.sol\":51872:52005  if (_tokensIdsAtSale[_tokensIdsAtSale.length - 1] == _tokenId) {... */\n    tag_421:\n        /* \"source/Marketplace.sol\":52015:52027  bool hasItem */\n      0x00\n      dup1\n      dup1\n        /* \"source/Marketplace.sol\":52074:52295  for(uint256 i = 0; i < _tokensIdsAtSale.length; i++) {... */\n    tag_426:\n        /* \"source/Marketplace.sol\":52097:52113  _tokensIdsAtSale */\n      0x07\n        /* \"source/Marketplace.sol\":52097:52120  _tokensIdsAtSale.length */\n      sload\n        /* \"source/Marketplace.sol\":52093:52120  i < _tokensIdsAtSale.length */\n      dup2\n      lt\n        /* \"source/Marketplace.sol\":52074:52295  for(uint256 i = 0; i < _tokensIdsAtSale.length; i++) {... */\n      iszero\n      tag_427\n      jumpi\n        /* \"source/Marketplace.sol\":52169:52177  _tokenId */\n      dup4\n        /* \"source/Marketplace.sol\":52146:52162  _tokensIdsAtSale */\n      0x07\n        /* \"source/Marketplace.sol\":52163:52164  i */\n      dup3\n        /* \"source/Marketplace.sol\":52146:52165  _tokensIdsAtSale[i] */\n      dup2\n      sload\n      dup2\n      lt\n      tag_430\n      jumpi\n      tag_430\n      tag_197\n      jump\t// in\n    tag_430:\n      swap1\n      0x00\n      mstore\n      keccak256(0x00, 0x20)\n      add\n      sload\n        /* \"source/Marketplace.sol\":52146:52177  _tokensIdsAtSale[i] == _tokenId */\n      sub\n        /* \"source/Marketplace.sol\":52142:52284  if (_tokensIdsAtSale[i] == _tokenId) {... */\n      tag_432\n      jumpi\n        /* \"source/Marketplace.sol\":52208:52212  true */\n      0x01\n        /* \"source/Marketplace.sol\":52198:52212  hasItem = true */\n      swap3\n      pop\n        /* \"source/Marketplace.sol\":52243:52244  i */\n      dup1\n        /* \"source/Marketplace.sol\":52231:52244  needIndex = i */\n      swap2\n      pop\n        /* \"source/Marketplace.sol\":52263:52268  break */\n      jump(tag_427)\n        /* \"source/Marketplace.sol\":52142:52284  if (_tokensIdsAtSale[i] == _tokenId) {... */\n    tag_432:\n        /* \"source/Marketplace.sol\":52122:52125  i++ */\n      dup1\n      tag_433\n      dup2\n      tag_201\n      jump\t// in\n    tag_433:\n      swap2\n      pop\n      pop\n        /* \"source/Marketplace.sol\":52074:52295  for(uint256 i = 0; i < _tokensIdsAtSale.length; i++) {... */\n      jump(tag_426)\n    tag_427:\n      pop\n        /* \"source/Marketplace.sol\":52309:52316  hasItem */\n      dup2\n        /* \"source/Marketplace.sol\":52305:52455  if (hasItem) {... */\n      iszero\n      tag_365\n      jumpi\n        /* \"source/Marketplace.sol\":52363:52379  _tokensIdsAtSale */\n      0x07\n        /* \"source/Marketplace.sol\":52380:52403  _tokensIdsAtSale.length */\n      dup1\n      sload\n        /* \"source/Marketplace.sol\":52380:52405  _tokensIdsAtSale.length-1 */\n      tag_435\n      swap1\n        /* \"source/Marketplace.sol\":52404:52405  1 */\n      0x01\n      swap1\n        /* \"source/Marketplace.sol\":52380:52405  _tokensIdsAtSale.length-1 */\n      tag_301\n      jump\t// in\n    tag_435:\n        /* \"source/Marketplace.sol\":52363:52406  _tokensIdsAtSale[_tokensIdsAtSale.length-1] */\n      dup2\n      sload\n      dup2\n      lt\n      tag_437\n      jumpi\n      tag_437\n      tag_197\n      jump\t// in\n    tag_437:\n      swap1\n      0x00\n      mstore\n      keccak256(0x00, 0x20)\n      add\n      sload\n        /* \"source/Marketplace.sol\":52333:52349  _tokensIdsAtSale */\n      0x07\n        /* \"source/Marketplace.sol\":52350:52359  needIndex */\n      dup3\n        /* \"source/Marketplace.sol\":52333:52360  _tokensIdsAtSale[needIndex] */\n      dup2\n      sload\n      dup2\n      lt\n      tag_440\n      jumpi\n      tag_440\n      tag_197\n      jump\t// in\n    tag_440:\n      0x00\n      swap2\n      dup3\n      mstore\n      0x20\n      swap1\n      swap2\n      keccak256\n      add\n        /* \"source/Marketplace.sol\":52333:52406  _tokensIdsAtSale[needIndex] = _tokensIdsAtSale[_tokensIdsAtSale.length-1] */\n      sstore\n        /* \"source/Marketplace.sol\":52421:52437  _tokensIdsAtSale */\n      0x07\n        /* \"source/Marketplace.sol\":52421:52443  _tokensIdsAtSale.pop() */\n      dup1\n      sload\n      dup1\n      tag_443\n      jumpi\n      tag_443\n      tag_424\n      jump\t// in\n    tag_443:\n      0x01\n      swap1\n      sub\n      dup2\n      dup2\n      swap1\n      0x00\n      mstore\n      keccak256(0x00, 0x20)\n      add\n      0x00\n      swap1\n      sstore\n      swap1\n      sstore\n        /* \"source/Marketplace.sol\":51861:52462  {... */\n      pop\n      pop\n        /* \"source/Marketplace.sol\":51806:52462  function __delTokenForSale(uint256 _tokenId) internal  {... */\n      pop\n      jump\t// out\n        /* \"source/Marketplace.sol\":2184:2316  function _checkOwner() internal view virtual {... */\n    tag_189:\n        /* \"source/Marketplace.sol\":2065:2072  address */\n      0x00\n        /* \"source/Marketplace.sol\":2092:2098  _owner */\n      sload\n      sub(shl(0xa0, 0x01), 0x01)\n      and\n        /* \"source/Marketplace.sol\":736:746  msg.sender */\n      caller\n        /* \"source/Marketplace.sol\":2248:2271  owner() == _msgSender() */\n      eq\n        /* \"source/Marketplace.sol\":2240:2308  require(owner() == _msgSender(), \"Ownable: caller is not the owner\") */\n      tag_324\n      jumpi\n      mload(0x40)\n      shl(0xe5, 0x461bcd)\n      dup2\n      mstore\n        /* \"#utility.yul\":14640:14642   */\n      0x20\n        /* \"source/Marketplace.sol\":2240:2308  require(owner() == _msgSender(), \"Ownable: caller is not the owner\") */\n      0x04\n      dup3\n      add\n        /* \"#utility.yul\":14622:14643   */\n      dup2\n      swap1\n      mstore\n        /* \"#utility.yul\":14659:14677   */\n      0x24\n      dup3\n      add\n        /* \"#utility.yul\":14652:14682   */\n      mstore\n        /* \"#utility.yul\":14718:14752   */\n      0x4f776e61626c653a2063616c6c6572206973206e6f7420746865206f776e6572\n        /* \"#utility.yul\":14698:14716   */\n      0x44\n      dup3\n      add\n        /* \"#utility.yul\":14691:14753   */\n      mstore\n        /* \"#utility.yul\":14770:14788   */\n      0x64\n      add\n        /* \"source/Marketplace.sol\":2240:2308  require(owner() == _msgSender(), \"Ownable: caller is not the owner\") */\n      tag_139\n        /* \"#utility.yul\":14438:14794   */\n      jump\n        /* \"source/Marketplace.sol\":3286:3477  function _transferOwnership(address newOwner) internal virtual {... */\n    tag_325:\n        /* \"source/Marketplace.sol\":3360:3376  address oldOwner */\n      0x00\n        /* \"source/Marketplace.sol\":3379:3385  _owner */\n      dup1\n      sload\n      sub(shl(0xa0, 0x01), 0x01)\n        /* \"source/Marketplace.sol\":3396:3413  _owner = newOwner */\n      dup4\n      dup2\n      and\n      not(sub(shl(0xa0, 0x01), 0x01))\n      dup4\n      and\n      dup2\n      or\n      dup5\n      sstore\n        /* \"source/Marketplace.sol\":3429:3469  OwnershipTransferred(oldOwner, newOwner) */\n      mload(0x40)\n        /* \"source/Marketplace.sol\":3379:3385  _owner */\n      swap2\n      swap1\n      swap3\n      and\n      swap3\n      dup4\n      swap2\n        /* \"source/Marketplace.sol\":3429:3469  OwnershipTransferred(oldOwner, newOwner) */\n      0x8be0079c531659141344cd1fd0a4f28419497f9722a3daafe3b4186f6b6457e0\n      swap2\n        /* \"source/Marketplace.sol\":3360:3376  address oldOwner */\n      swap1\n        /* \"source/Marketplace.sol\":3429:3469  OwnershipTransferred(oldOwner, newOwner) */\n      log3\n        /* \"source/Marketplace.sol\":3349:3477  {... */\n      pop\n        /* \"source/Marketplace.sol\":3286:3477  function _transferOwnership(address newOwner) internal virtual {... */\n      pop\n      jump\t// out\n        /* \"source/Marketplace.sol\":9231:9947  function _callOptionalReturn(IERC20 token, bytes memory data) private {... */\n    tag_414:\n        /* \"source/Marketplace.sol\":9655:9678  bytes memory returndata */\n      0x00\n        /* \"source/Marketplace.sol\":9681:9750  address(token).functionCall(data, \"SafeERC20: low-level call failed\") */\n      tag_456\n        /* \"source/Marketplace.sol\":9709:9713  data */\n      dup3\n        /* \"source/Marketplace.sol\":9681:9750  address(token).functionCall(data, \"SafeERC20: low-level call failed\") */\n      mload(0x40)\n      dup1\n      0x40\n      add\n      0x40\n      mstore\n      dup1\n      0x20\n      dup2\n      mstore\n      0x20\n      add\n      0x5361666545524332303a206c6f772d6c6576656c2063616c6c206661696c6564\n      dup2\n      mstore\n      pop\n        /* \"source/Marketplace.sol\":9689:9694  token */\n      dup6\n      sub(shl(0xa0, 0x01), 0x01)\n        /* \"source/Marketplace.sol\":9681:9708  address(token).functionCall */\n      and\n      tag_457\n      swap1\n        /* \"source/Marketplace.sol\":9681:9750  address(token).functionCall(data, \"SafeERC20: low-level call failed\") */\n      swap3\n      swap2\n      swap1\n      0xffffffff\n      and\n      jump\t// in\n    tag_456:\n        /* \"source/Marketplace.sol\":9765:9782  returndata.length */\n      dup1\n      mload\n        /* \"source/Marketplace.sol\":9655:9750  bytes memory returndata = address(token).functionCall(data, \"SafeERC20: low-level call failed\") */\n      swap1\n      swap2\n      pop\n        /* \"source/Marketplace.sol\":9765:9786  returndata.length > 0 */\n      iszero\n        /* \"source/Marketplace.sol\":9761:9940  if (returndata.length > 0) {... */\n      tag_365\n      jumpi\n        /* \"source/Marketplace.sol\":9862:9872  returndata */\n      dup1\n        /* \"source/Marketplace.sol\":9851:9881  abi.decode(returndata, (bool)) */\n      dup1\n      0x20\n      add\n      swap1\n      mload\n      dup2\n      add\n      swap1\n      tag_459\n      swap2\n      swap1\n      tag_401\n      jump\t// in\n    tag_459:\n        /* \"source/Marketplace.sol\":9843:9928  require(abi.decode(returndata, (bool)), \"SafeERC20: ERC20 operation did not succeed\") */\n      tag_365\n      jumpi\n      mload(0x40)\n      shl(0xe5, 0x461bcd)\n      dup2\n      mstore\n        /* \"#utility.yul\":15001:15003   */\n      0x20\n        /* \"source/Marketplace.sol\":9843:9928  require(abi.decode(returndata, (bool)), \"SafeERC20: ERC20 operation did not succeed\") */\n      0x04\n      dup3\n      add\n        /* \"#utility.yul\":14983:15004   */\n      mstore\n        /* \"#utility.yul\":15040:15042   */\n      0x2a\n        /* \"#utility.yul\":15020:15038   */\n      0x24\n      dup3\n      add\n        /* \"#utility.yul\":15013:15043   */\n      mstore\n        /* \"#utility.yul\":15079:15113   */\n      0x5361666545524332303a204552433230206f7065726174696f6e20646964206e\n        /* \"#utility.yul\":15059:15077   */\n      0x44\n      dup3\n      add\n        /* \"#utility.yul\":15052:15114   */\n      mstore\n      shl(0xb2, 0x1bdd081cdd58d8d95959)\n        /* \"#utility.yul\":15130:15148   */\n      0x64\n      dup3\n      add\n        /* \"#utility.yul\":15123:15163   */\n      mstore\n        /* \"#utility.yul\":15180:15199   */\n      0x84\n      add\n        /* \"source/Marketplace.sol\":9843:9928  require(abi.decode(returndata, (bool)), \"SafeERC20: ERC20 operation did not succeed\") */\n      tag_139\n        /* \"#utility.yul\":14799:15205   */\n      jump\n        /* \"source/Marketplace.sol\":42812:43041  function functionCall(... */\n    tag_457:\n        /* \"source/Marketplace.sol\":42949:42961  bytes memory */\n      0x60\n        /* \"source/Marketplace.sol\":42981:43033  functionCallWithValue(target, data, 0, errorMessage) */\n      tag_465\n        /* \"source/Marketplace.sol\":43003:43009  target */\n      dup5\n        /* \"source/Marketplace.sol\":43011:43015  data */\n      dup5\n        /* \"source/Marketplace.sol\":43017:43018  0 */\n      0x00\n        /* \"source/Marketplace.sol\":43020:43032  errorMessage */\n      dup6\n        /* \"source/Marketplace.sol\":42981:43002  functionCallWithValue */\n      tag_466\n        /* \"source/Marketplace.sol\":42981:43033  functionCallWithValue(target, data, 0, errorMessage) */\n      jump\t// in\n    tag_465:\n        /* \"source/Marketplace.sol\":42974:43033  return functionCallWithValue(target, data, 0, errorMessage) */\n      swap5\n        /* \"source/Marketplace.sol\":42812:43041  function functionCall(... */\n      swap4\n      pop\n      pop\n      pop\n      pop\n      jump\t// out\n        /* \"source/Marketplace.sol\":43898:44353  function functionCallWithValue(... */\n    tag_466:\n        /* \"source/Marketplace.sol\":44068:44080  bytes memory */\n      0x60\n        /* \"source/Marketplace.sol\":44126:44131  value */\n      dup3\n        /* \"source/Marketplace.sol\":44101:44122  address(this).balance */\n      selfbalance\n        /* \"source/Marketplace.sol\":44101:44131  address(this).balance >= value */\n      lt\n      iszero\n        /* \"source/Marketplace.sol\":44093:44174  require(address(this).balance >= value, \"Address: insufficient balance for call\") */\n      tag_468\n      jumpi\n      mload(0x40)\n      shl(0xe5, 0x461bcd)\n      dup2\n      mstore\n        /* \"#utility.yul\":15412:15414   */\n      0x20\n        /* \"source/Marketplace.sol\":44093:44174  require(address(this).balance >= value, \"Address: insufficient balance for call\") */\n      0x04\n      dup3\n      add\n        /* \"#utility.yul\":15394:15415   */\n      mstore\n        /* \"#utility.yul\":15451:15453   */\n      0x26\n        /* \"#utility.yul\":15431:15449   */\n      0x24\n      dup3\n      add\n        /* \"#utility.yul\":15424:15454   */\n      mstore\n        /* \"#utility.yul\":15490:15524   */\n      0x416464726573733a20696e73756666696369656e742062616c616e636520666f\n        /* \"#utility.yul\":15470:15488   */\n      0x44\n      dup3\n      add\n        /* \"#utility.yul\":15463:15525   */\n      mstore\n      shl(0xd2, 0x1c8818d85b1b)\n        /* \"#utility.yul\":15541:15559   */\n      0x64\n      dup3\n      add\n        /* \"#utility.yul\":15534:15570   */\n      mstore\n        /* \"#utility.yul\":15587:15606   */\n      0x84\n      add\n        /* \"source/Marketplace.sol\":44093:44174  require(address(this).balance >= value, \"Address: insufficient balance for call\") */\n      tag_139\n        /* \"#utility.yul\":15210:15612   */\n      jump\n        /* \"source/Marketplace.sol\":44093:44174  require(address(this).balance >= value, \"Address: insufficient balance for call\") */\n    tag_468:\n        /* \"source/Marketplace.sol\":44186:44198  bool success */\n      0x00\n        /* \"source/Marketplace.sol\":44200:44223  bytes memory returndata */\n      dup1\n        /* \"source/Marketplace.sol\":44227:44233  target */\n      dup7\n      sub(shl(0xa0, 0x01), 0x01)\n        /* \"source/Marketplace.sol\":44227:44238  target.call */\n      and\n        /* \"source/Marketplace.sol\":44246:44251  value */\n      dup6\n        /* \"source/Marketplace.sol\":44253:44257  data */\n      dup8\n        /* \"source/Marketplace.sol\":44227:44258  target.call{value: value}(data) */\n      mload(0x40)\n      tag_471\n      swap2\n      swap1\n      tag_472\n      jump\t// in\n    tag_471:\n      0x00\n      mload(0x40)\n      dup1\n      dup4\n      sub\n      dup2\n      dup6\n      dup8\n      gas\n      call\n      swap3\n      pop\n      pop\n      pop\n      returndatasize\n      dup1\n      0x00\n      dup2\n      eq\n      tag_475\n      jumpi\n      mload(0x40)\n      swap2\n      pop\n      and(add(returndatasize, 0x3f), not(0x1f))\n      dup3\n      add\n      0x40\n      mstore\n      returndatasize\n      dup3\n      mstore\n      returndatasize\n      0x00\n      0x20\n      dup5\n      add\n      returndatacopy\n      jump(tag_474)\n    tag_475:\n      0x60\n      swap2\n      pop\n    tag_474:\n      pop\n        /* \"source/Marketplace.sol\":44185:44258  (bool success, bytes memory returndata) = target.call{value: value}(data) */\n      swap2\n      pop\n      swap2\n      pop\n        /* \"source/Marketplace.sol\":44276:44345  verifyCallResultFromTarget(target, success, returndata, errorMessage) */\n      tag_476\n        /* \"source/Marketplace.sol\":44303:44309  target */\n      dup8\n        /* \"source/Marketplace.sol\":44311:44318  success */\n      dup4\n        /* \"source/Marketplace.sol\":44320:44330  returndata */\n      dup4\n        /* \"source/Marketplace.sol\":44332:44344  errorMessage */\n      dup8\n        /* \"source/Marketplace.sol\":44276:44302  verifyCallResultFromTarget */\n      tag_477\n        /* \"source/Marketplace.sol\":44276:44345  verifyCallResultFromTarget(target, success, returndata, errorMessage) */\n      jump\t// in\n    tag_476:\n        /* \"source/Marketplace.sol\":44269:44345  return verifyCallResultFromTarget(target, success, returndata, errorMessage) */\n      swap8\n        /* \"source/Marketplace.sol\":43898:44353  function functionCallWithValue(... */\n      swap7\n      pop\n      pop\n      pop\n      pop\n      pop\n      pop\n      pop\n      jump\t// out\n        /* \"source/Marketplace.sol\":46471:47115  function verifyCallResultFromTarget(... */\n    tag_477:\n        /* \"source/Marketplace.sol\":46656:46668  bytes memory */\n      0x60\n        /* \"source/Marketplace.sol\":46685:46692  success */\n      dup4\n        /* \"source/Marketplace.sol\":46681:47108  if (success) {... */\n      iszero\n      tag_479\n      jumpi\n        /* \"source/Marketplace.sol\":46713:46723  returndata */\n      dup3\n        /* \"source/Marketplace.sol\":46713:46730  returndata.length */\n      mload\n        /* \"source/Marketplace.sol\":46734:46735  0 */\n      0x00\n        /* \"source/Marketplace.sol\":46713:46735  returndata.length == 0 */\n      sub\n        /* \"source/Marketplace.sol\":46709:46999  if (returndata.length == 0) {... */\n      tag_483\n      jumpi\n      sub(shl(0xa0, 0x01), 0x01)\n        /* \"source/Marketplace.sol\":40351:40370  account.code.length */\n      dup6\n      and\n      extcodesize\n        /* \"source/Marketplace.sol\":46923:46983  require(isContract(target), \"Address: call to non-contract\") */\n      tag_483\n      jumpi\n      mload(0x40)\n      shl(0xe5, 0x461bcd)\n      dup2\n      mstore\n        /* \"#utility.yul\":16366:16368   */\n      0x20\n        /* \"source/Marketplace.sol\":46923:46983  require(isContract(target), \"Address: call to non-contract\") */\n      0x04\n      dup3\n      add\n        /* \"#utility.yul\":16348:16369   */\n      mstore\n        /* \"#utility.yul\":16405:16407   */\n      0x1d\n        /* \"#utility.yul\":16385:16403   */\n      0x24\n      dup3\n      add\n        /* \"#utility.yul\":16378:16408   */\n      mstore\n        /* \"#utility.yul\":16444:16475   */\n      0x416464726573733a2063616c6c20746f206e6f6e2d636f6e7472616374000000\n        /* \"#utility.yul\":16424:16442   */\n      0x44\n      dup3\n      add\n        /* \"#utility.yul\":16417:16476   */\n      mstore\n        /* \"#utility.yul\":16493:16511   */\n      0x64\n      add\n        /* \"source/Marketplace.sol\":46923:46983  require(isContract(target), \"Address: call to non-contract\") */\n      tag_139\n        /* \"#utility.yul\":16164:16517   */\n      jump\n        /* \"source/Marketplace.sol\":46923:46983  require(isContract(target), \"Address: call to non-contract\") */\n    tag_483:\n      pop\n        /* \"source/Marketplace.sol\":47020:47030  returndata */\n      dup2\n        /* \"source/Marketplace.sol\":47013:47030  return returndata */\n      jump(tag_465)\n        /* \"source/Marketplace.sol\":46681:47108  if (success) {... */\n    tag_479:\n        /* \"source/Marketplace.sol\":47063:47096  _revert(returndata, errorMessage) */\n      tag_465\n        /* \"source/Marketplace.sol\":47071:47081  returndata */\n      dup4\n        /* \"source/Marketplace.sol\":47083:47095  errorMessage */\n      dup4\n        /* \"source/Marketplace.sol\":47818:47835  returndata.length */\n      dup2\n      mload\n        /* \"source/Marketplace.sol\":47818:47839  returndata.length > 0 */\n      iszero\n        /* \"source/Marketplace.sol\":47814:48202  if (returndata.length > 0) {... */\n      tag_491\n      jumpi\n        /* \"source/Marketplace.sol\":48050:48060  returndata */\n      dup2\n        /* \"source/Marketplace.sol\":48044:48061  mload(returndata) */\n      mload\n        /* \"source/Marketplace.sol\":48107:48122  returndata_size */\n      dup1\n        /* \"source/Marketplace.sol\":48094:48104  returndata */\n      dup4\n        /* \"source/Marketplace.sol\":48090:48092  32 */\n      0x20\n        /* \"source/Marketplace.sol\":48086:48105  add(32, returndata) */\n      add\n        /* \"source/Marketplace.sol\":48079:48123  revert(add(32, returndata), returndata_size) */\n      revert\n        /* \"source/Marketplace.sol\":47814:48202  if (returndata.length > 0) {... */\n    tag_491:\n        /* \"source/Marketplace.sol\":48177:48189  errorMessage */\n      dup1\n        /* \"source/Marketplace.sol\":48170:48190  revert(errorMessage) */\n      mload(0x40)\n      shl(0xe5, 0x461bcd)\n      dup2\n      mstore\n      0x04\n      add\n      tag_139\n      swap2\n      swap1\n      tag_494\n      jump\t// in\n    tag_209:\n      mload(0x40)\n      dup1\n      0xa0\n      add\n      0x40\n      mstore\n      dup1\n      0x00\n      dup2\n      mstore\n      0x20\n      add\n      and(sub(shl(0xa0, 0x01), 0x01), 0x00)\n      dup2\n      mstore\n      0x20\n      add\n      0x00\n      dup2\n      mstore\n      0x20\n      add\n      and(sub(shl(0xa0, 0x01), 0x01), 0x00)\n      dup2\n      mstore\n      0x20\n      add\n      0x00\n      dup2\n      mstore\n      pop\n      swap1\n      jump\t// out\n    tag_378:\n      dup3\n      dup1\n      sload\n      dup3\n      dup3\n      sstore\n      swap1\n      0x00\n      mstore\n      keccak256(0x00, 0x20)\n      swap1\n      dup2\n      add\n      swap3\n      dup3\n      iszero\n      tag_497\n      jumpi\n      swap2\n      0x20\n      mul\n      dup3\n      add\n    tag_496:\n      dup3\n      dup2\n      gt\n      iszero\n      tag_497\n      jumpi\n      dup3\n      mload\n      dup3\n      sload\n      not(sub(shl(0xa0, 0x01), 0x01))\n      and\n      sub(shl(0xa0, 0x01), 0x01)\n      swap1\n      swap2\n      and\n      or\n      dup3\n      sstore\n      0x20\n      swap1\n      swap3\n      add\n      swap2\n      0x01\n      swap1\n      swap2\n      add\n      swap1\n      jump(tag_496)\n    tag_497:\n      pop\n      tag_498\n      swap3\n      swap2\n      pop\n      tag_499\n      jump\t// in\n    tag_498:\n      pop\n      swap1\n      jump\t// out\n    tag_499:\n    tag_500:\n      dup1\n      dup3\n      gt\n      iszero\n      tag_498\n      jumpi\n      0x00\n      dup2\n      sstore\n      0x01\n      add\n      jump(tag_500)\n        /* \"#utility.yul\":14:194   */\n    tag_32:\n        /* \"#utility.yul\":73:79   */\n      0x00\n        /* \"#utility.yul\":126:128   */\n      0x20\n        /* \"#utility.yul\":114:123   */\n      dup3\n        /* \"#utility.yul\":105:112   */\n      dup5\n        /* \"#utility.yul\":101:124   */\n      sub\n        /* \"#utility.yul\":97:129   */\n      slt\n        /* \"#utility.yul\":94:146   */\n      iszero\n      tag_508\n      jumpi\n        /* \"#utility.yul\":142:143   */\n      0x00\n        /* \"#utility.yul\":139:140   */\n      dup1\n        /* \"#utility.yul\":132:144   */\n      revert\n        /* \"#utility.yul\":94:146   */\n    tag_508:\n      pop\n        /* \"#utility.yul\":165:188   */\n      calldataload\n      swap2\n        /* \"#utility.yul\":14:194   */\n      swap1\n      pop\n      jump\t// out\n        /* \"#utility.yul\":422:553   */\n    tag_502:\n      sub(shl(0xa0, 0x01), 0x01)\n        /* \"#utility.yul\":497:528   */\n      dup2\n      and\n        /* \"#utility.yul\":487:529   */\n      dup2\n      eq\n        /* \"#utility.yul\":477:547   */\n      tag_388\n      jumpi\n        /* \"#utility.yul\":543:544   */\n      0x00\n        /* \"#utility.yul\":540:541   */\n      dup1\n        /* \"#utility.yul\":533:545   */\n      revert\n        /* \"#utility.yul\":558:692   */\n    tag_503:\n        /* \"#utility.yul\":626:646   */\n      dup1\n      calldataload\n        /* \"#utility.yul\":655:686   */\n      tag_513\n        /* \"#utility.yul\":626:646   */\n      dup2\n        /* \"#utility.yul\":655:686   */\n      tag_502\n      jump\t// in\n    tag_513:\n        /* \"#utility.yul\":558:692   */\n      swap2\n      swap1\n      pop\n      jump\t// out\n        /* \"#utility.yul\":697:944   */\n    tag_46:\n        /* \"#utility.yul\":756:762   */\n      0x00\n        /* \"#utility.yul\":809:811   */\n      0x20\n        /* \"#utility.yul\":797:806   */\n      dup3\n        /* \"#utility.yul\":788:795   */\n      dup5\n        /* \"#utility.yul\":784:807   */\n      sub\n        /* \"#utility.yul\":780:812   */\n      slt\n        /* \"#utility.yul\":777:829   */\n      iszero\n      tag_515\n      jumpi\n        /* \"#utility.yul\":825:826   */\n      0x00\n        /* \"#utility.yul\":822:823   */\n      dup1\n        /* \"#utility.yul\":815:827   */\n      revert\n        /* \"#utility.yul\":777:829   */\n    tag_515:\n        /* \"#utility.yul\":864:873   */\n      dup2\n        /* \"#utility.yul\":851:874   */\n      calldataload\n        /* \"#utility.yul\":883:914   */\n      tag_404\n        /* \"#utility.yul\":908:913   */\n      dup2\n        /* \"#utility.yul\":883:914   */\n      tag_502\n      jump\t// in\n        /* \"#utility.yul\":949:2061   */\n    tag_49:\n        /* \"#utility.yul\":1174:1176   */\n      0x20\n        /* \"#utility.yul\":1226:1247   */\n      dup1\n      dup3\n      mstore\n        /* \"#utility.yul\":1296:1309   */\n      dup3\n      mload\n        /* \"#utility.yul\":1199:1217   */\n      dup3\n      dup3\n      add\n        /* \"#utility.yul\":1318:1340   */\n      dup2\n      swap1\n      mstore\n        /* \"#utility.yul\":1145:1149   */\n      0x00\n      swap2\n        /* \"#utility.yul\":1174:1176   */\n      swap1\n        /* \"#utility.yul\":1359:1361   */\n      0x40\n      swap1\n        /* \"#utility.yul\":1377:1395   */\n      dup2\n      dup6\n      add\n      swap1\n        /* \"#utility.yul\":1418:1433   */\n      dup7\n      dup5\n      add\n        /* \"#utility.yul\":1145:1149   */\n      dup6\n        /* \"#utility.yul\":1461:2035   */\n    tag_518:\n        /* \"#utility.yul\":1475:1481   */\n      dup3\n        /* \"#utility.yul\":1472:1473   */\n      dup2\n        /* \"#utility.yul\":1469:1482   */\n      lt\n        /* \"#utility.yul\":1461:2035   */\n      iszero\n      tag_520\n      jumpi\n        /* \"#utility.yul\":1534:1547   */\n      dup2\n      mload\n        /* \"#utility.yul\":1572:1581   */\n      dup1\n      mload\n        /* \"#utility.yul\":1560:1582   */\n      dup6\n      mstore\n        /* \"#utility.yul\":1621:1632   */\n      dup7\n      dup2\n      add\n        /* \"#utility.yul\":1615:1633   */\n      mload\n      sub(shl(0xa0, 0x01), 0x01)\n        /* \"#utility.yul\":1709:1730   */\n      swap1\n      dup2\n      and\n        /* \"#utility.yul\":1695:1707   */\n      dup9\n      dup8\n      add\n        /* \"#utility.yul\":1688:1731   */\n      mstore\n        /* \"#utility.yul\":1771:1782   */\n      dup7\n      dup3\n      add\n        /* \"#utility.yul\":1765:1783   */\n      mload\n        /* \"#utility.yul\":1751:1763   */\n      dup8\n      dup8\n      add\n        /* \"#utility.yul\":1744:1784   */\n      mstore\n        /* \"#utility.yul\":1807:1811   */\n      0x60\n        /* \"#utility.yul\":1855:1866   */\n      dup1\n      dup4\n      add\n        /* \"#utility.yul\":1849:1867   */\n      mload\n        /* \"#utility.yul\":1845:1872   */\n      swap1\n      swap2\n      and\n        /* \"#utility.yul\":1831:1843   */\n      swap1\n      dup7\n      add\n        /* \"#utility.yul\":1824:1873   */\n      mstore\n        /* \"#utility.yul\":1896:1900   */\n      0x80\n        /* \"#utility.yul\":1940:1951   */\n      swap1\n      dup2\n      add\n        /* \"#utility.yul\":1934:1952   */\n      mload\n        /* \"#utility.yul\":1920:1932   */\n      swap1\n      dup6\n      add\n        /* \"#utility.yul\":1913:1953   */\n      mstore\n        /* \"#utility.yul\":1664:1667   */\n      0xa0\n        /* \"#utility.yul\":1973:1987   */\n      swap1\n      swap4\n      add\n      swap3\n        /* \"#utility.yul\":2010:2025   */\n      swap1\n      dup6\n      add\n      swap1\n        /* \"#utility.yul\":1673:1674   */\n      0x01\n        /* \"#utility.yul\":1490:1499   */\n      add\n        /* \"#utility.yul\":1461:2035   */\n      jump(tag_518)\n    tag_520:\n      pop\n        /* \"#utility.yul\":2052:2055   */\n      swap2\n      swap8\n        /* \"#utility.yul\":949:2061   */\n      swap7\n      pop\n      pop\n      pop\n      pop\n      pop\n      pop\n      pop\n      jump\t// out\n        /* \"#utility.yul\":2440:2688   */\n    tag_73:\n        /* \"#utility.yul\":2508:2514   */\n      0x00\n        /* \"#utility.yul\":2516:2522   */\n      dup1\n        /* \"#utility.yul\":2569:2571   */\n      0x40\n        /* \"#utility.yul\":2557:2566   */\n      dup4\n        /* \"#utility.yul\":2548:2555   */\n      dup6\n        /* \"#utility.yul\":2544:2567   */\n      sub\n        /* \"#utility.yul\":2540:2572   */\n      slt\n        /* \"#utility.yul\":2537:2589   */\n      iszero\n      tag_524\n      jumpi\n        /* \"#utility.yul\":2585:2586   */\n      0x00\n        /* \"#utility.yul\":2582:2583   */\n      dup1\n        /* \"#utility.yul\":2575:2587   */\n      revert\n        /* \"#utility.yul\":2537:2589   */\n    tag_524:\n      pop\n      pop\n        /* \"#utility.yul\":2608:2631   */\n      dup1\n      calldataload\n      swap3\n        /* \"#utility.yul\":2678:2680   */\n      0x20\n        /* \"#utility.yul\":2663:2681   */\n      swap1\n      swap2\n      add\n        /* \"#utility.yul\":2650:2682   */\n      calldataload\n      swap2\n      pop\n        /* \"#utility.yul\":2440:2688   */\n      jump\t// out\n        /* \"#utility.yul\":2693:3351   */\n    tag_84:\n        /* \"#utility.yul\":2864:2866   */\n      0x20\n        /* \"#utility.yul\":2916:2937   */\n      dup1\n      dup3\n      mstore\n        /* \"#utility.yul\":2986:2999   */\n      dup3\n      mload\n        /* \"#utility.yul\":2889:2907   */\n      dup3\n      dup3\n      add\n        /* \"#utility.yul\":3008:3030   */\n      dup2\n      swap1\n      mstore\n        /* \"#utility.yul\":2835:2839   */\n      0x00\n      swap2\n        /* \"#utility.yul\":2864:2866   */\n      swap1\n        /* \"#utility.yul\":3087:3102   */\n      dup5\n      dup3\n      add\n      swap1\n        /* \"#utility.yul\":3061:3063   */\n      0x40\n        /* \"#utility.yul\":3046:3064   */\n      dup6\n      add\n      swap1\n        /* \"#utility.yul\":2835:2839   */\n      dup5\n        /* \"#utility.yul\":3130:3325   */\n    tag_526:\n        /* \"#utility.yul\":3144:3150   */\n      dup2\n        /* \"#utility.yul\":3141:3142   */\n      dup2\n        /* \"#utility.yul\":3138:3151   */\n      lt\n        /* \"#utility.yul\":3130:3325   */\n      iszero\n      tag_528\n      jumpi\n        /* \"#utility.yul\":3209:3222   */\n      dup4\n      mload\n      sub(shl(0xa0, 0x01), 0x01)\n        /* \"#utility.yul\":3205:3244   */\n      and\n        /* \"#utility.yul\":3193:3245   */\n      dup4\n      mstore\n        /* \"#utility.yul\":3300:3315   */\n      swap3\n      dup5\n      add\n      swap3\n        /* \"#utility.yul\":3265:3277   */\n      swap2\n      dup5\n      add\n      swap2\n        /* \"#utility.yul\":3241:3242   */\n      0x01\n        /* \"#utility.yul\":3159:3168   */\n      add\n        /* \"#utility.yul\":3130:3325   */\n      jump(tag_526)\n    tag_528:\n      pop\n        /* \"#utility.yul\":3342:3345   */\n      swap1\n      swap7\n        /* \"#utility.yul\":2693:3351   */\n      swap6\n      pop\n      pop\n      pop\n      pop\n      pop\n      pop\n      jump\t// out\n        /* \"#utility.yul\":3356:3739   */\n    tag_96:\n        /* \"#utility.yul\":3433:3439   */\n      0x00\n        /* \"#utility.yul\":3441:3447   */\n      dup1\n        /* \"#utility.yul\":3449:3455   */\n      0x00\n        /* \"#utility.yul\":3502:3504   */\n      0x60\n        /* \"#utility.yul\":3490:3499   */\n      dup5\n        /* \"#utility.yul\":3481:3488   */\n      dup7\n        /* \"#utility.yul\":3477:3500   */\n      sub\n        /* \"#utility.yul\":3473:3505   */\n      slt\n        /* \"#utility.yul\":3470:3522   */\n      iszero\n      tag_530\n      jumpi\n        /* \"#utility.yul\":3518:3519   */\n      0x00\n        /* \"#utility.yul\":3515:3516   */\n      dup1\n        /* \"#utility.yul\":3508:3520   */\n      revert\n        /* \"#utility.yul\":3470:3522   */\n    tag_530:\n        /* \"#utility.yul\":3554:3563   */\n      dup4\n        /* \"#utility.yul\":3541:3564   */\n      calldataload\n        /* \"#utility.yul\":3531:3564   */\n      swap3\n      pop\n        /* \"#utility.yul\":3611:3613   */\n      0x20\n        /* \"#utility.yul\":3600:3609   */\n      dup5\n        /* \"#utility.yul\":3596:3614   */\n      add\n        /* \"#utility.yul\":3583:3615   */\n      calldataload\n        /* \"#utility.yul\":3573:3615   */\n      swap2\n      pop\n        /* \"#utility.yul\":3665:3667   */\n      0x40\n        /* \"#utility.yul\":3654:3663   */\n      dup5\n        /* \"#utility.yul\":3650:3668   */\n      add\n        /* \"#utility.yul\":3637:3669   */\n      calldataload\n        /* \"#utility.yul\":3678:3709   */\n      tag_531\n        /* \"#utility.yul\":3703:3708   */\n      dup2\n        /* \"#utility.yul\":3678:3709   */\n      tag_502\n      jump\t// in\n    tag_531:\n        /* \"#utility.yul\":3728:3733   */\n      dup1\n        /* \"#utility.yul\":3718:3733   */\n      swap2\n      pop\n      pop\n        /* \"#utility.yul\":3356:3739   */\n      swap3\n      pop\n      swap3\n      pop\n      swap3\n      jump\t// out\n        /* \"#utility.yul\":3952:4079   */\n    tag_205:\n        /* \"#utility.yul\":4013:4023   */\n      0x4e487b71\n        /* \"#utility.yul\":4008:4011   */\n      0xe0\n        /* \"#utility.yul\":4004:4024   */\n      shl\n        /* \"#utility.yul\":4001:4002   */\n      0x00\n        /* \"#utility.yul\":3994:4025   */\n      mstore\n        /* \"#utility.yul\":4044:4048   */\n      0x41\n        /* \"#utility.yul\":4041:4042   */\n      0x04\n        /* \"#utility.yul\":4034:4049   */\n      mstore\n        /* \"#utility.yul\":4068:4072   */\n      0x24\n        /* \"#utility.yul\":4065:4066   */\n      0x00\n        /* \"#utility.yul\":4058:4073   */\n      revert\n        /* \"#utility.yul\":4084:5205   */\n    tag_122:\n        /* \"#utility.yul\":4168:4174   */\n      0x00\n        /* \"#utility.yul\":4199:4201   */\n      0x20\n        /* \"#utility.yul\":4242:4244   */\n      dup1\n        /* \"#utility.yul\":4230:4239   */\n      dup4\n        /* \"#utility.yul\":4221:4228   */\n      dup6\n        /* \"#utility.yul\":4217:4240   */\n      sub\n        /* \"#utility.yul\":4213:4245   */\n      slt\n        /* \"#utility.yul\":4210:4262   */\n      iszero\n      tag_535\n      jumpi\n        /* \"#utility.yul\":4258:4259   */\n      0x00\n        /* \"#utility.yul\":4255:4256   */\n      dup1\n        /* \"#utility.yul\":4248:4260   */\n      revert\n        /* \"#utility.yul\":4210:4262   */\n    tag_535:\n        /* \"#utility.yul\":4298:4307   */\n      dup3\n        /* \"#utility.yul\":4285:4308   */\n      calldataload\n        /* \"#utility.yul\":4327:4345   */\n      0xffffffffffffffff\n        /* \"#utility.yul\":4368:4370   */\n      dup1\n        /* \"#utility.yul\":4360:4366   */\n      dup3\n        /* \"#utility.yul\":4357:4371   */\n      gt\n        /* \"#utility.yul\":4354:4388   */\n      iszero\n      tag_536\n      jumpi\n        /* \"#utility.yul\":4384:4385   */\n      0x00\n        /* \"#utility.yul\":4381:4382   */\n      dup1\n        /* \"#utility.yul\":4374:4386   */\n      revert\n        /* \"#utility.yul\":4354:4388   */\n    tag_536:\n        /* \"#utility.yul\":4422:4428   */\n      dup2\n        /* \"#utility.yul\":4411:4420   */\n      dup6\n        /* \"#utility.yul\":4407:4429   */\n      add\n        /* \"#utility.yul\":4397:4429   */\n      swap2\n      pop\n        /* \"#utility.yul\":4467:4474   */\n      dup6\n        /* \"#utility.yul\":4460:4464   */\n      0x1f\n        /* \"#utility.yul\":4456:4458   */\n      dup4\n        /* \"#utility.yul\":4452:4465   */\n      add\n        /* \"#utility.yul\":4448:4475   */\n      slt\n        /* \"#utility.yul\":4438:4493   */\n      tag_537\n      jumpi\n        /* \"#utility.yul\":4489:4490   */\n      0x00\n        /* \"#utility.yul\":4486:4487   */\n      dup1\n        /* \"#utility.yul\":4479:4491   */\n      revert\n        /* \"#utility.yul\":4438:4493   */\n    tag_537:\n        /* \"#utility.yul\":4525:4527   */\n      dup2\n        /* \"#utility.yul\":4512:4528   */\n      calldataload\n        /* \"#utility.yul\":4547:4549   */\n      dup2\n        /* \"#utility.yul\":4543:4545   */\n      dup2\n        /* \"#utility.yul\":4540:4550   */\n      gt\n        /* \"#utility.yul\":4537:4573   */\n      iszero\n      tag_539\n      jumpi\n        /* \"#utility.yul\":4553:4571   */\n      tag_539\n      tag_205\n      jump\t// in\n    tag_539:\n        /* \"#utility.yul\":4599:4601   */\n      dup1\n        /* \"#utility.yul\":4596:4597   */\n      0x05\n        /* \"#utility.yul\":4592:4602   */\n      shl\n        /* \"#utility.yul\":4631:4633   */\n      0x40\n        /* \"#utility.yul\":4625:4634   */\n      mload\n        /* \"#utility.yul\":4694:4696   */\n      0x1f\n        /* \"#utility.yul\":4690:4697   */\n      not\n        /* \"#utility.yul\":4685:4687   */\n      0x3f\n        /* \"#utility.yul\":4681:4683   */\n      dup4\n        /* \"#utility.yul\":4677:4688   */\n      add\n        /* \"#utility.yul\":4673:4698   */\n      and\n        /* \"#utility.yul\":4665:4671   */\n      dup2\n        /* \"#utility.yul\":4661:4699   */\n      add\n        /* \"#utility.yul\":4749:4755   */\n      dup2\n        /* \"#utility.yul\":4737:4747   */\n      dup2\n        /* \"#utility.yul\":4734:4756   */\n      lt\n        /* \"#utility.yul\":4729:4731   */\n      dup6\n        /* \"#utility.yul\":4717:4727   */\n      dup3\n        /* \"#utility.yul\":4714:4732   */\n      gt\n        /* \"#utility.yul\":4711:4757   */\n      or\n        /* \"#utility.yul\":4708:4780   */\n      iszero\n      tag_541\n      jumpi\n        /* \"#utility.yul\":4760:4778   */\n      tag_541\n      tag_205\n      jump\t// in\n    tag_541:\n        /* \"#utility.yul\":4796:4798   */\n      0x40\n        /* \"#utility.yul\":4789:4811   */\n      mstore\n        /* \"#utility.yul\":4846:4864   */\n      swap2\n      dup3\n      mstore\n        /* \"#utility.yul\":4880:4895   */\n      dup5\n      dup3\n      add\n      swap3\n      pop\n        /* \"#utility.yul\":4922:4933   */\n      dup4\n      dup2\n      add\n        /* \"#utility.yul\":4918:4938   */\n      dup6\n      add\n      swap2\n        /* \"#utility.yul\":4950:4969   */\n      dup9\n      dup4\n      gt\n        /* \"#utility.yul\":4947:4986   */\n      iszero\n      tag_542\n      jumpi\n        /* \"#utility.yul\":4982:4983   */\n      0x00\n        /* \"#utility.yul\":4979:4980   */\n      dup1\n        /* \"#utility.yul\":4972:4984   */\n      revert\n        /* \"#utility.yul\":4947:4986   */\n    tag_542:\n        /* \"#utility.yul\":5006:5017   */\n      swap4\n      dup6\n      add\n      swap4\n        /* \"#utility.yul\":5026:5174   */\n    tag_543:\n        /* \"#utility.yul\":5042:5048   */\n      dup3\n        /* \"#utility.yul\":5037:5040   */\n      dup6\n        /* \"#utility.yul\":5034:5049   */\n      lt\n        /* \"#utility.yul\":5026:5174   */\n      iszero\n      tag_545\n      jumpi\n        /* \"#utility.yul\":5108:5131   */\n      tag_546\n        /* \"#utility.yul\":5127:5130   */\n      dup6\n        /* \"#utility.yul\":5108:5131   */\n      tag_503\n      jump\t// in\n    tag_546:\n        /* \"#utility.yul\":5096:5132   */\n      dup5\n      mstore\n        /* \"#utility.yul\":5059:5071   */\n      swap4\n      dup6\n      add\n      swap4\n        /* \"#utility.yul\":5152:5164   */\n      swap3\n      dup6\n      add\n      swap3\n        /* \"#utility.yul\":5026:5174   */\n      jump(tag_543)\n    tag_545:\n        /* \"#utility.yul\":5193:5199   */\n      swap9\n        /* \"#utility.yul\":4084:5205   */\n      swap8\n      pop\n      pop\n      pop\n      pop\n      pop\n      pop\n      pop\n      pop\n      jump\t// out\n        /* \"#utility.yul\":5210:5550   */\n    tag_140:\n        /* \"#utility.yul\":5412:5414   */\n      0x20\n        /* \"#utility.yul\":5394:5415   */\n      dup1\n      dup3\n      mstore\n        /* \"#utility.yul\":5451:5453   */\n      0x10\n        /* \"#utility.yul\":5431:5449   */\n      swap1\n      dup3\n      add\n        /* \"#utility.yul\":5424:5454   */\n      mstore\n      shl(0x82, 0x14185d5cd8589b194e881c185d5cd959)\n        /* \"#utility.yul\":5485:5487   */\n      0x40\n        /* \"#utility.yul\":5470:5488   */\n      dup3\n      add\n        /* \"#utility.yul\":5463:5509   */\n      mstore\n        /* \"#utility.yul\":5541:5543   */\n      0x60\n        /* \"#utility.yul\":5526:5544   */\n      add\n      swap1\n        /* \"#utility.yul\":5210:5550   */\n      jump\t// out\n        /* \"#utility.yul\":6269:6453   */\n    tag_152:\n        /* \"#utility.yul\":6339:6345   */\n      0x00\n        /* \"#utility.yul\":6392:6394   */\n      0x20\n        /* \"#utility.yul\":6380:6389   */\n      dup3\n        /* \"#utility.yul\":6371:6378   */\n      dup5\n        /* \"#utility.yul\":6367:6390   */\n      sub\n        /* \"#utility.yul\":6363:6395   */\n      slt\n        /* \"#utility.yul\":6360:6412   */\n      iszero\n      tag_551\n      jumpi\n        /* \"#utility.yul\":6408:6409   */\n      0x00\n        /* \"#utility.yul\":6405:6406   */\n      dup1\n        /* \"#utility.yul\":6398:6410   */\n      revert\n        /* \"#utility.yul\":6360:6412   */\n    tag_551:\n      pop\n        /* \"#utility.yul\":6431:6447   */\n      mload\n      swap2\n        /* \"#utility.yul\":6269:6453   */\n      swap1\n      pop\n      jump\t// out\n        /* \"#utility.yul\":7615:7990   */\n    tag_177:\n      sub(shl(0xa0, 0x01), 0x01)\n        /* \"#utility.yul\":7873:7888   */\n      swap4\n      dup5\n      and\n        /* \"#utility.yul\":7855:7889   */\n      dup2\n      mstore\n        /* \"#utility.yul\":7925:7940   */\n      swap2\n      swap1\n      swap3\n      and\n        /* \"#utility.yul\":7920:7922   */\n      0x20\n        /* \"#utility.yul\":7905:7923   */\n      dup3\n      add\n        /* \"#utility.yul\":7898:7941   */\n      mstore\n        /* \"#utility.yul\":7972:7974   */\n      0x40\n        /* \"#utility.yul\":7957:7975   */\n      dup2\n      add\n        /* \"#utility.yul\":7950:7984   */\n      swap2\n      swap1\n      swap2\n      mstore\n        /* \"#utility.yul\":7805:7807   */\n      0x60\n        /* \"#utility.yul\":7790:7808   */\n      add\n      swap1\n        /* \"#utility.yul\":7615:7990   */\n      jump\t// out\n        /* \"#utility.yul\":8528:8655   */\n    tag_197:\n        /* \"#utility.yul\":8589:8599   */\n      0x4e487b71\n        /* \"#utility.yul\":8584:8587   */\n      0xe0\n        /* \"#utility.yul\":8580:8600   */\n      shl\n        /* \"#utility.yul\":8577:8578   */\n      0x00\n        /* \"#utility.yul\":8570:8601   */\n      mstore\n        /* \"#utility.yul\":8620:8624   */\n      0x32\n        /* \"#utility.yul\":8617:8618   */\n      0x04\n        /* \"#utility.yul\":8610:8625   */\n      mstore\n        /* \"#utility.yul\":8644:8648   */\n      0x24\n        /* \"#utility.yul\":8641:8642   */\n      0x00\n        /* \"#utility.yul\":8634:8649   */\n      revert\n        /* \"#utility.yul\":8660:8787   */\n    tag_504:\n        /* \"#utility.yul\":8721:8731   */\n      0x4e487b71\n        /* \"#utility.yul\":8716:8719   */\n      0xe0\n        /* \"#utility.yul\":8712:8732   */\n      shl\n        /* \"#utility.yul\":8709:8710   */\n      0x00\n        /* \"#utility.yul\":8702:8733   */\n      mstore\n        /* \"#utility.yul\":8752:8756   */\n      0x11\n        /* \"#utility.yul\":8749:8750   */\n      0x04\n        /* \"#utility.yul\":8742:8757   */\n      mstore\n        /* \"#utility.yul\":8776:8780   */\n      0x24\n        /* \"#utility.yul\":8773:8774   */\n      0x00\n        /* \"#utility.yul\":8766:8781   */\n      revert\n        /* \"#utility.yul\":8792:8927   */\n    tag_201:\n        /* \"#utility.yul\":8831:8834   */\n      0x00\n        /* \"#utility.yul\":8852:8869   */\n      0x01\n      dup3\n      add\n        /* \"#utility.yul\":8849:8892   */\n      tag_561\n      jumpi\n        /* \"#utility.yul\":8872:8890   */\n      tag_561\n      tag_504\n      jump\t// in\n    tag_561:\n      pop\n        /* \"#utility.yul\":8919:8920   */\n      0x01\n        /* \"#utility.yul\":8908:8921   */\n      add\n      swap1\n        /* \"#utility.yul\":8792:8927   */\n      jump\t// out\n        /* \"#utility.yul\":10774:10899   */\n    tag_290:\n        /* \"#utility.yul\":10839:10848   */\n      dup1\n      dup3\n      add\n        /* \"#utility.yul\":10860:10870   */\n      dup1\n      dup3\n      gt\n        /* \"#utility.yul\":10857:10893   */\n      iszero\n      tag_288\n      jumpi\n        /* \"#utility.yul\":10873:10891   */\n      tag_288\n      tag_504\n      jump\t// in\n        /* \"#utility.yul\":10904:11032   */\n    tag_301:\n        /* \"#utility.yul\":10971:10980   */\n      dup2\n      dup2\n      sub\n        /* \"#utility.yul\":10992:11003   */\n      dup2\n      dup2\n      gt\n        /* \"#utility.yul\":10989:11026   */\n      iszero\n      tag_288\n      jumpi\n        /* \"#utility.yul\":11006:11024   */\n      tag_288\n      tag_504\n      jump\t// in\n        /* \"#utility.yul\":11037:11288   */\n    tag_344:\n        /* \"#utility.yul\":11107:11113   */\n      0x00\n        /* \"#utility.yul\":11160:11162   */\n      0x20\n        /* \"#utility.yul\":11148:11157   */\n      dup3\n        /* \"#utility.yul\":11139:11146   */\n      dup5\n        /* \"#utility.yul\":11135:11158   */\n      sub\n        /* \"#utility.yul\":11131:11163   */\n      slt\n        /* \"#utility.yul\":11128:11180   */\n      iszero\n      tag_574\n      jumpi\n        /* \"#utility.yul\":11176:11177   */\n      0x00\n        /* \"#utility.yul\":11173:11174   */\n      dup1\n        /* \"#utility.yul\":11166:11178   */\n      revert\n        /* \"#utility.yul\":11128:11180   */\n    tag_574:\n        /* \"#utility.yul\":11208:11217   */\n      dup2\n        /* \"#utility.yul\":11202:11218   */\n      mload\n        /* \"#utility.yul\":11227:11258   */\n      tag_404\n        /* \"#utility.yul\":11252:11257   */\n      dup2\n        /* \"#utility.yul\":11227:11258   */\n      tag_502\n      jump\t// in\n        /* \"#utility.yul\":13629:13906   */\n    tag_401:\n        /* \"#utility.yul\":13696:13702   */\n      0x00\n        /* \"#utility.yul\":13749:13751   */\n      0x20\n        /* \"#utility.yul\":13737:13746   */\n      dup3\n        /* \"#utility.yul\":13728:13735   */\n      dup5\n        /* \"#utility.yul\":13724:13747   */\n      sub\n        /* \"#utility.yul\":13720:13752   */\n      slt\n        /* \"#utility.yul\":13717:13769   */\n      iszero\n      tag_583\n      jumpi\n        /* \"#utility.yul\":13765:13766   */\n      0x00\n        /* \"#utility.yul\":13762:13763   */\n      dup1\n        /* \"#utility.yul\":13755:13767   */\n      revert\n        /* \"#utility.yul\":13717:13769   */\n    tag_583:\n        /* \"#utility.yul\":13797:13806   */\n      dup2\n        /* \"#utility.yul\":13791:13807   */\n      mload\n        /* \"#utility.yul\":13850:13855   */\n      dup1\n        /* \"#utility.yul\":13843:13856   */\n      iszero\n        /* \"#utility.yul\":13836:13857   */\n      iszero\n        /* \"#utility.yul\":13829:13834   */\n      dup2\n        /* \"#utility.yul\":13826:13858   */\n      eq\n        /* \"#utility.yul\":13816:13876   */\n      tag_404\n      jumpi\n        /* \"#utility.yul\":13872:13873   */\n      0x00\n        /* \"#utility.yul\":13869:13870   */\n      dup1\n        /* \"#utility.yul\":13862:13874   */\n      revert\n        /* \"#utility.yul\":13911:14128   */\n    tag_405:\n        /* \"#utility.yul\":13951:13952   */\n      0x00\n        /* \"#utility.yul\":13977:13978   */\n      dup3\n        /* \"#utility.yul\":13967:14099   */\n      tag_586\n      jumpi\n        /* \"#utility.yul\":14021:14031   */\n      0x4e487b71\n        /* \"#utility.yul\":14016:14019   */\n      0xe0\n        /* \"#utility.yul\":14012:14032   */\n      shl\n        /* \"#utility.yul\":14009:14010   */\n      0x00\n        /* \"#utility.yul\":14002:14033   */\n      mstore\n        /* \"#utility.yul\":14056:14060   */\n      0x12\n        /* \"#utility.yul\":14053:14054   */\n      0x04\n        /* \"#utility.yul\":14046:14061   */\n      mstore\n        /* \"#utility.yul\":14084:14088   */\n      0x24\n        /* \"#utility.yul\":14081:14082   */\n      0x00\n        /* \"#utility.yul\":14074:14089   */\n      revert\n        /* \"#utility.yul\":13967:14099   */\n    tag_586:\n      pop\n        /* \"#utility.yul\":14113:14122   */\n      div\n      swap1\n        /* \"#utility.yul\":13911:14128   */\n      jump\t// out\n        /* \"#utility.yul\":14133:14301   */\n    tag_408:\n        /* \"#utility.yul\":14206:14215   */\n      dup1\n      dup3\n      mul\n        /* \"#utility.yul\":14237:14246   */\n      dup2\n      iszero\n        /* \"#utility.yul\":14254:14269   */\n      dup3\n      dup3\n      div\n        /* \"#utility.yul\":14248:14270   */\n      dup5\n      eq\n        /* \"#utility.yul\":14234:14271   */\n      or\n        /* \"#utility.yul\":14224:14295   */\n      tag_288\n      jumpi\n        /* \"#utility.yul\":14275:14293   */\n      tag_288\n      tag_504\n      jump\t// in\n        /* \"#utility.yul\":14306:14433   */\n    tag_424:\n        /* \"#utility.yul\":14367:14377   */\n      0x4e487b71\n        /* \"#utility.yul\":14362:14365   */\n      0xe0\n        /* \"#utility.yul\":14358:14378   */\n      shl\n        /* \"#utility.yul\":14355:14356   */\n      0x00\n        /* \"#utility.yul\":14348:14379   */\n      mstore\n        /* \"#utility.yul\":14398:14402   */\n      0x31\n        /* \"#utility.yul\":14395:14396   */\n      0x04\n        /* \"#utility.yul\":14388:14403   */\n      mstore\n        /* \"#utility.yul\":14422:14426   */\n      0x24\n        /* \"#utility.yul\":14419:14420   */\n      0x00\n        /* \"#utility.yul\":14412:14427   */\n      revert\n        /* \"#utility.yul\":15617:15867   */\n    tag_505:\n        /* \"#utility.yul\":15702:15703   */\n      0x00\n        /* \"#utility.yul\":15712:15825   */\n    tag_595:\n        /* \"#utility.yul\":15726:15732   */\n      dup4\n        /* \"#utility.yul\":15723:15724   */\n      dup2\n        /* \"#utility.yul\":15720:15733   */\n      lt\n        /* \"#utility.yul\":15712:15825   */\n      iszero\n      tag_597\n      jumpi\n        /* \"#utility.yul\":15802:15813   */\n      dup2\n      dup2\n      add\n        /* \"#utility.yul\":15796:15814   */\n      mload\n        /* \"#utility.yul\":15783:15794   */\n      dup4\n      dup3\n      add\n        /* \"#utility.yul\":15776:15815   */\n      mstore\n        /* \"#utility.yul\":15748:15750   */\n      0x20\n        /* \"#utility.yul\":15741:15751   */\n      add\n        /* \"#utility.yul\":15712:15825   */\n      jump(tag_595)\n    tag_597:\n      pop\n      pop\n        /* \"#utility.yul\":15859:15860   */\n      0x00\n        /* \"#utility.yul\":15841:15857   */\n      swap2\n      add\n        /* \"#utility.yul\":15834:15861   */\n      mstore\n        /* \"#utility.yul\":15617:15867   */\n      jump\t// out\n        /* \"#utility.yul\":15872:16159   */\n    tag_472:\n        /* \"#utility.yul\":16001:16004   */\n      0x00\n        /* \"#utility.yul\":16039:16045   */\n      dup3\n        /* \"#utility.yul\":16033:16046   */\n      mload\n        /* \"#utility.yul\":16055:16121   */\n      tag_599\n        /* \"#utility.yul\":16114:16120   */\n      dup2\n        /* \"#utility.yul\":16109:16112   */\n      dup5\n        /* \"#utility.yul\":16102:16106   */\n      0x20\n        /* \"#utility.yul\":16094:16100   */\n      dup8\n        /* \"#utility.yul\":16090:16107   */\n      add\n        /* \"#utility.yul\":16055:16121   */\n      tag_505\n      jump\t// in\n    tag_599:\n        /* \"#utility.yul\":16137:16153   */\n      swap2\n      swap1\n      swap2\n      add\n      swap3\n        /* \"#utility.yul\":15872:16159   */\n      swap2\n      pop\n      pop\n      jump\t// out\n        /* \"#utility.yul\":16522:16918   */\n    tag_494:\n        /* \"#utility.yul\":16671:16673   */\n      0x20\n        /* \"#utility.yul\":16660:16669   */\n      dup2\n        /* \"#utility.yul\":16653:16674   */\n      mstore\n        /* \"#utility.yul\":16634:16638   */\n      0x00\n        /* \"#utility.yul\":16703:16709   */\n      dup3\n        /* \"#utility.yul\":16697:16710   */\n      mload\n        /* \"#utility.yul\":16746:16752   */\n      dup1\n        /* \"#utility.yul\":16741:16743   */\n      0x20\n        /* \"#utility.yul\":16730:16739   */\n      dup5\n        /* \"#utility.yul\":16726:16744   */\n      add\n        /* \"#utility.yul\":16719:16753   */\n      mstore\n        /* \"#utility.yul\":16762:16841   */\n      tag_602\n        /* \"#utility.yul\":16834:16840   */\n      dup2\n        /* \"#utility.yul\":16829:16831   */\n      0x40\n        /* \"#utility.yul\":16818:16827   */\n      dup6\n        /* \"#utility.yul\":16814:16832   */\n      add\n        /* \"#utility.yul\":16809:16811   */\n      0x20\n        /* \"#utility.yul\":16801:16807   */\n      dup8\n        /* \"#utility.yul\":16797:16812   */\n      add\n        /* \"#utility.yul\":16762:16841   */\n      tag_505\n      jump\t// in\n    tag_602:\n        /* \"#utility.yul\":16902:16904   */\n      0x1f\n        /* \"#utility.yul\":16881:16896   */\n      add\n      not(0x1f)\n        /* \"#utility.yul\":16877:16906   */\n      and\n        /* \"#utility.yul\":16862:16907   */\n      swap2\n      swap1\n      swap2\n      add\n        /* \"#utility.yul\":16909:16911   */\n      0x40\n        /* \"#utility.yul\":16858:16912   */\n      add\n      swap3\n        /* \"#utility.yul\":16522:16918   */\n      swap2\n      pop\n      pop\n      jump\t// out\n\n    auxdata: 0xa26469706673582212206d9fd803a033c9f8ce55d436f097fe945589fa9e234f4e66180b6795a5c3b5f164736f6c63430008120033\n}\n",
				"bytecode": {
					"linkReferences": {},
					"object": "6080604052600160025560006003553480156200001b57600080fd5b506040516200265d3803806200265d8339810160408190526200003e91620001d4565b6200004933620000d0565b6000805460ff60a01b19169055600180546001600160a01b0319166001600160a01b038616179055600382905580516200008b90600690602084019062000120565b506001600160a01b03831615620000a35782620000a5565b335b600880546001600160a01b0319166001600160a01b039290921691909117905550620002d692505050565b600080546001600160a01b038381166001600160a01b0319831681178455604051919092169283917f8be0079c531659141344cd1fd0a4f28419497f9722a3daafe3b4186f6b6457e09190a35050565b82805482825590600052602060002090810192821562000178579160200282015b828111156200017857825182546001600160a01b0319166001600160a01b0390911617825560209092019160019091019062000141565b50620001869291506200018a565b5090565b5b808211156200018657600081556001016200018b565b80516001600160a01b0381168114620001b957600080fd5b919050565b634e487b7160e01b600052604160045260246000fd5b60008060008060808587031215620001eb57600080fd5b620001f685620001a1565b9350602062000207818701620001a1565b6040870151606088015191955093506001600160401b03808211156200022c57600080fd5b818801915088601f8301126200024157600080fd5b815181811115620002565762000256620001be565b8060051b604051601f19603f830116810181811085821117156200027e576200027e620001be565b60405291825284820192508381018501918b8311156200029d57600080fd5b938501935b82851015620002c657620002b685620001a1565b84529385019392850192620002a2565b989b979a50959850505050505050565b61237780620002e66000396000f3fe60806040526004361061014b5760003560e01c8063715018a6116100b6578063c8f778991161006f578063c8f7789914610386578063e8a353921461039b578063e9e4e160146103b9578063efdcd974146103d9578063f2fde38b146103f9578063f4f3b2001461041957600080fd5b8063715018a6146102e9578063785fa7ce146102fe5780637c237eea1461031e5780638da5cb5b1461033e578063952977f51461035c578063a096c5a21461037157600080fd5b80635211ac2e116101085780635211ac2e1461022f578063527f29021461024457806354fd4d50146102645780635b87f0f2146102885780635c975abb146102a857806369c57352146102c757600080fd5b8063047a5d431461015057806308cfbc191461017257806310603023146101af57806319c8c1c5146101cf578063512ddcf9146101fc57806351ed82881461021c575b600080fd5b34801561015c57600080fd5b5061017061016b366004611f14565b610439565b005b34801561017e57600080fd5b50600154610192906001600160a01b031681565b6040516001600160a01b0390911681526020015b60405180910390f35b3480156101bb57600080fd5b506101706101ca366004611f14565b6108fa565b3480156101db57600080fd5b506101ef6101ea366004611f52565b610907565b6040516101a69190611f6f565b34801561020857600080fd5b50610170610217366004611f14565b610bd0565b61017061022a366004611f14565b610d40565b34801561023b57600080fd5b5061017061107e565b34801561025057600080fd5b5060015b60405190151581526020016101a6565b34801561027057600080fd5b5061027a60025481565b6040519081526020016101a6565b34801561029457600080fd5b506101ef6102a3366004611feb565b6110ec565b3480156102b457600080fd5b50600054600160a01b900460ff16610254565b3480156102d357600080fd5b506102dc6112a7565b6040516101a6919061200d565b3480156102f557600080fd5b50610170611309565b34801561030a57600080fd5b50610254610319366004611f52565b61131d565b34801561032a57600080fd5b5061017061033936600461205a565b611381565b34801561034a57600080fd5b506000546001600160a01b0316610192565b34801561036857600080fd5b5060035461027a565b34801561037d57600080fd5b506101ef611710565b34801561039257600080fd5b5060075461027a565b3480156103a757600080fd5b506008546001600160a01b0316610192565b3480156103c557600080fd5b506101706103d43660046120a9565b611720565b3480156103e557600080fd5b506101706103f4366004611f52565b61173f565b34801561040557600080fd5b50610170610414366004611f52565b611769565b34801561042557600080fd5b50610170610434366004611f52565b6117e2565b600054600160a01b900460ff161561046c5760405162461bcd60e51b81526004016104639061216e565b60405180910390fd5b60008181526004602052604090205460ff1615156001146104ca5760405162461bcd60e51b815260206004820152601860248201527754686973204e4654206973206e6f7420666f722073616c6560401b6044820152606401610463565b6000818152600560205260409020600301546001600160a01b03166105315760405162461bcd60e51b815260206004820181905260248201527f5468697320746f6b656e2073656c6c6564206279204e617469766520636f696e6044820152606401610463565b6000818152600560205260408082206003015490516370a0823160e01b81523360048201526001600160a01b03909116919082906370a0823190602401602060405180830381865afa15801561058b573d6000803e3d6000fd5b505050506040513d601f19601f820116820180604052508101906105af9190612198565b6000848152600560205260409020600201549091508110156106305760405162461bcd60e51b815260206004820152603460248201527f596f7520646f206e6f74206861766520656e6f75676820746f6b656e73206f6e60448201527320796f75722062616c616e636520746f2070617960601b6064820152608401610463565b604051636eb1769f60e11b81523360048201523060248201526000906001600160a01b0384169063dd62ed3e90604401602060405180830381865afa15801561067d573d6000803e3d6000fd5b505050506040513d601f19601f820116820180604052508101906106a19190612198565b60008581526005602052604090206002015490915081101561072b5760405162461bcd60e51b815260206004820152603a60248201527f596f7520646964206e6f7420616c6c6f772074686520636f6e7472616374207460448201527f6f2073656e642074686520707572636861736520616d6f756e740000000000006064820152608401610463565b6000848152600560205260408120600201549061075461074c83606461191f565b600354611932565b90506107686000546001600160a01b031690565b6000878152600560205260409020600101546001600160a01b03918216911603610790575060005b600061079c838361193e565b6000888152600560205260409020600101549091506107ca906001600160a01b03888116913391168461194a565b81156107ec576008546107ec906001600160a01b03888116913391168561194a565b6001546040516323b872dd60e01b81526001600160a01b03909116906323b872dd9061082090309033908c906004016121b1565b600060405180830381600087803b15801561083a57600080fd5b505af115801561084e573d6000803e3d6000fd5b5050506000888152600460205260409020805460ff1916905550610871876119a2565b61087a87611a22565b6000878152600560209081526040918290206001810154600382015460029092015484516001600160a01b03928316815233948101949094528385018c905291166060830152608082015290517fd369fdcfeb128f60117661ebd8f220b7265c0a04fee0e9905eb8c6ab2767b9e59181900360a00190a150505050505050565b610902611b4d565b600355565b60606000805b60075481101561098557836001600160a01b03166005600060078481548110610938576109386121d5565b600091825260208083209091015483528201929092526040019020600101546001600160a01b031603610973578161096f81612201565b9250505b8061097d81612201565b91505061090d565b5060008167ffffffffffffffff8111156109a1576109a1612093565b6040519080825280602002602001820160405280156109da57816020015b6109c7611e59565b8152602001906001900390816109bf5790505b5090506000915060005b600754811015610bc857846001600160a01b03166005600060078481548110610a0f57610a0f6121d5565b600091825260208083209091015483528201929092526040019020600101546001600160a01b031603610bb65760006040518060a0016040528060078481548110610a5c57610a5c6121d5565b906000526020600020015481526020016005600060078681548110610a8357610a836121d5565b9060005260206000200154815260200190815260200160002060010160009054906101000a90046001600160a01b03166001600160a01b031681526020016005600060078681548110610ad857610ad86121d5565b906000526020600020015481526020019081526020016000206002015481526020016005600060078681548110610b1157610b116121d5565b9060005260206000200154815260200190815260200160002060030160009054906101000a90046001600160a01b03166001600160a01b031681526020016005600060078681548110610b6657610b666121d5565b9060005260206000200154815260200190815260200160002060040154815250905080838581518110610b9b57610b9b6121d5565b60200260200101819052508380610bb190612201565b945050505b80610bc081612201565b9150506109e4565b509392505050565b6000546001600160a01b03163314610c42576000818152600560205260409020600101546001600160a01b03163314610c425760405162461bcd60e51b8152602060048201526014602482015273151a1a5cc81a5cc81b9bdd081e5bdd5c8813919560621b6044820152606401610463565b60018054600083815260056020526040908190209092015491516323b872dd60e01b81526001600160a01b03918216926323b872dd92610c8c9230929091169086906004016121b1565b600060405180830381600087803b158015610ca657600080fd5b505af1158015610cba573d6000803e3d6000fd5b5050506000828152600460205260409020805460ff1916905550610cdd816119a2565b610ce681611a22565b6000818152600560209081526040918290206001015482516001600160a01b0390911681529081018390527f8bf8e8f2f9d065b620f4e940d87122b03dd779d0ffd6a1590572e1e6d0416bef91015b60405180910390a150565b600054600160a01b900460ff1615610d6a5760405162461bcd60e51b81526004016104639061216e565b60008181526004602052604090205460ff161515600114610dc85760405162461bcd60e51b815260206004820152601860248201527754686973204e4654206973206e6f7420666f722073616c6560401b6044820152606401610463565b600081815260056020526040902060020154341015610e385760405162461bcd60e51b815260206004820152602660248201527f596f752068617665206e6f74207061696420656e6f75676820666f722074686960448201526573206974656d60d01b6064820152608401610463565b6000818152600560205260409020600301546001600160a01b031615610ea05760405162461bcd60e51b815260206004820152601a60248201527f5468697320746f6b656e2073656c6c65642062792045524332300000000000006044820152606401610463565b346000610eb161074c83606461191f565b9050610ec56000546001600160a01b031690565b6000848152600560205260409020600101546001600160a01b03918216911603610eed575060005b6000610ef9838361193e565b6000858152600560205260408082206001015490519293506001600160a01b03169183156108fc0291849190818181858888f19350505050158015610f42573d6000803e3d6000fd5b508115610f85576008546040516001600160a01b039091169083156108fc029084906000818181858888f19350505050158015610f83573d6000803e3d6000fd5b505b6001546040516323b872dd60e01b81526001600160a01b03909116906323b872dd90610fb9903090339089906004016121b1565b600060405180830381600087803b158015610fd357600080fd5b505af1158015610fe7573d6000803e3d6000fd5b5050506000858152600460209081526040808320805460ff191690556005825291829020600181015460029091015483516001600160a01b039092168252339282019290925291820187905260608201527f89f5adc174562e07c9c9b1cae7109bbecb21cf9d1b2847e550042b8653c54a0e915060800160405180910390a161106f846119a2565b61107884611a22565b50505050565b611086611b4d565b6040514790339082156108fc029083906000818181858888f193505050501580156110b5573d6000803e3d6000fd5b5060408051338152602081018390527f2f15b7a52fc8a006876377705647acbd22eed72dec9b154aa290e286c06a3cd49101610d35565b60608260006110fb848361221a565b6007549091508210611142576040805160008082526020820190925290611138565b611125611e59565b81526020019060019003908161111d5790505b50925050506112a1565b8415801561114e575083155b1561115857506007545b60075481111561116757506007545b6000611173838361222d565b90506000808267ffffffffffffffff81111561119157611191612093565b6040519080825280602002602001820160405280156111ca57816020015b6111b7611e59565b8152602001906001900390816111af5790505b509050845b84811015611299576000600782815481106111ec576111ec6121d5565b60009182526020808320909101546040805160a081018252828152828552600580855282862060018101546001600160a01b039081168488015260028201549484019490945260038101549093166060830152948390529390925260049091015460808301528451909250819085908790811061126b5761126b6121d5565b6020026020010181905250848061128190612201565b9550505050808061129190612201565b9150506111cf565b509450505050505b92915050565b606060068054806020026020016040519081016040528092919081815260200182805480156112ff57602002820191906000526020600020905b81546001600160a01b031681526001909101906020018083116112e1575b5050505050905090565b611311611b4d565b61131b6000611ba7565b565b6000805b600654811015611378576006818154811061133e5761133e6121d5565b6000918252602090912001546001600160a01b03908116908416036113665750600192915050565b8061137081612201565b915050611321565b50600092915050565b600054600160a01b900460ff16156113ab5760405162461bcd60e51b81526004016104639061216e565b6001546040516331a9108f60e11b81526004810185905233916001600160a01b031690636352211e90602401602060405180830381865afa1580156113f4573d6000803e3d6000fd5b505050506040513d601f19601f820116820180604052508101906114189190612240565b6001600160a01b03161461146e5760405162461bcd60e51b815260206004820152601960248201527f596f7520646f6e2774206f776e207468697320746f6b656e21000000000000006044820152606401610463565b600082116114be5760405162461bcd60e51b815260206004820152601f60248201527f5072696365206d7573742062652067726561746572207468616e207a65726f006044820152606401610463565b6001600160a01b0381161561153c576114d68161131d565b151560011461153c5760405162461bcd60e51b815260206004820152602c60248201527f54686973204552433230206e6f7420616c6c6f7765642061732061207472616460448201526b696e672063757272656e637960a01b6064820152608401610463565b6000838152600460208181526040808420805460ff19166001908117909155815160a081018352888152338185018181528285018a81526001600160a01b038a81166060860190815242608087019081528e8c5260059099529987902094518555915184860180549184166001600160a01b031992831617905590516002850155975160038401805491831691909916179097559351908501555490516323b872dd60e01b81529316926323b872dd926115fb929130918991016121b1565b600060405180830381600087803b15801561161557600080fd5b505af1158015611629573d6000803e3d6000fd5b5050505061166683600780546001810182556000919091527fa66cc928b5edb82af9bd49922954155ab7b0942694bea4ce44661d9a8736c6880155565b6001600160a01b0381166116cd5760408051338152602081018590526001600160a01b03831691810191909152606081018390527f0a4292e75f7eafde90821610c4cabfc298540c274b50a7ea784a529a2b8a4a6f906080015b60405180910390a1505050565b60408051338152602081018590529081018390527f4524387b4311078b7531910a140a6975002b10aca4cf12255e98da8f1ff1b35b906060016116c0565b505050565b606061171b33610907565b905090565b611728611b4d565b805161173b906006906020840190611e9a565b5050565b611747611b4d565b600880546001600160a01b0319166001600160a01b0392909216919091179055565b611771611b4d565b6001600160a01b0381166117d65760405162461bcd60e51b815260206004820152602660248201527f4f776e61626c653a206e6577206f776e657220697320746865207a65726f206160448201526564647265737360d01b6064820152608401610463565b6117df81611ba7565b50565b6117ea611b4d565b6040516370a0823160e01b815230600482015281906000906001600160a01b038316906370a0823190602401602060405180830381865afa158015611833573d6000803e3d6000fd5b505050506040513d601f19601f820116820180604052508101906118579190612198565b9050816001600160a01b031663a9059cbb61187a6000546001600160a01b031690565b6040516001600160e01b031960e084901b1681526001600160a01b039091166004820152602481018490526044016020604051808303816000875af11580156118c7573d6000803e3d6000fd5b505050506040513d601f19601f820116820180604052508101906118eb919061225d565b507f33c35f9541201e342d5e7467016e65a0a06182eb12a5f17103f71cec95b6cb293384836040516116c0939291906121b1565b600061192b828461227f565b9392505050565b600061192b82846122a1565b600061192b828461222d565b611078846323b872dd60e01b85858560405160240161196b939291906121b1565b60408051601f198184030181529190526020810180516001600160e01b03166001600160e01b031990931692909217909152611bf7565b6040805160a0810182526000808252602080830182815283850183815260608501848152608086018581529785526005909352949092209251835590516001830180546001600160a01b03199081166001600160a01b03938416179091559351600284015590516003830180549094169116179091559051600490910155565b60078054829190611a359060019061222d565b81548110611a4557611a456121d5565b906000526020600020015403611a7f576007805480611a6657611a666122b8565b6001900381819060005260206000200160009055905550565b600080805b600754811015611ad0578360078281548110611aa257611aa26121d5565b906000526020600020015403611abe5760019250809150611ad0565b80611ac881612201565b915050611a84565b50811561170b5760078054611ae79060019061222d565b81548110611af757611af76121d5565b906000526020600020015460078281548110611b1557611b156121d5565b6000918252602090912001556007805480611b3257611b326122b8565b60019003818190600052602060002001600090559055505050565b6000546001600160a01b0316331461131b5760405162461bcd60e51b815260206004820181905260248201527f4f776e61626c653a2063616c6c6572206973206e6f7420746865206f776e65726044820152606401610463565b600080546001600160a01b038381166001600160a01b0319831681178455604051919092169283917f8be0079c531659141344cd1fd0a4f28419497f9722a3daafe3b4186f6b6457e09190a35050565b6000611c4c826040518060400160405280602081526020017f5361666545524332303a206c6f772d6c6576656c2063616c6c206661696c6564815250856001600160a01b0316611cc99092919063ffffffff16565b80519091501561170b5780806020019051810190611c6a919061225d565b61170b5760405162461bcd60e51b815260206004820152602a60248201527f5361666545524332303a204552433230206f7065726174696f6e20646964206e6044820152691bdd081cdd58d8d9595960b21b6064820152608401610463565b6060611cd88484600085611ce0565b949350505050565b606082471015611d415760405162461bcd60e51b815260206004820152602660248201527f416464726573733a20696e73756666696369656e742062616c616e636520666f6044820152651c8818d85b1b60d21b6064820152608401610463565b600080866001600160a01b03168587604051611d5d91906122f2565b60006040518083038185875af1925050503d8060008114611d9a576040519150601f19603f3d011682016040523d82523d6000602084013e611d9f565b606091505b5091509150611db087838387611dbb565b979650505050505050565b60608315611e2a578251600003611e23576001600160a01b0385163b611e235760405162461bcd60e51b815260206004820152601d60248201527f416464726573733a2063616c6c20746f206e6f6e2d636f6e74726163740000006044820152606401610463565b5081611cd8565b611cd88383815115611e3f5781518083602001fd5b8060405162461bcd60e51b8152600401610463919061230e565b6040518060a001604052806000815260200160006001600160a01b031681526020016000815260200160006001600160a01b03168152602001600081525090565b828054828255906000526020600020908101928215611eef579160200282015b82811115611eef57825182546001600160a01b0319166001600160a01b03909116178255602090920191600190910190611eba565b50611efb929150611eff565b5090565b5b80821115611efb5760008155600101611f00565b600060208284031215611f2657600080fd5b5035919050565b6001600160a01b03811681146117df57600080fd5b8035611f4d81611f2d565b919050565b600060208284031215611f6457600080fd5b813561192b81611f2d565b602080825282518282018190526000919060409081850190868401855b82811015611fde57815180518552868101516001600160a01b03908116888701528682015187870152606080830151909116908601526080908101519085015260a09093019290850190600101611f8c565b5091979650505050505050565b60008060408385031215611ffe57600080fd5b50508035926020909101359150565b6020808252825182820181905260009190848201906040850190845b8181101561204e5783516001600160a01b031683529284019291840191600101612029565b50909695505050505050565b60008060006060848603121561206f57600080fd5b8335925060208401359150604084013561208881611f2d565b809150509250925092565b634e487b7160e01b600052604160045260246000fd5b600060208083850312156120bc57600080fd5b823567ffffffffffffffff808211156120d457600080fd5b818501915085601f8301126120e857600080fd5b8135818111156120fa576120fa612093565b8060051b604051601f19603f8301168101818110858211171561211f5761211f612093565b60405291825284820192508381018501918883111561213d57600080fd5b938501935b828510156121625761215385611f42565b84529385019392850192612142565b98975050505050505050565b60208082526010908201526f14185d5cd8589b194e881c185d5cd95960821b604082015260600190565b6000602082840312156121aa57600080fd5b5051919050565b6001600160a01b039384168152919092166020820152604081019190915260600190565b634e487b7160e01b600052603260045260246000fd5b634e487b7160e01b600052601160045260246000fd5b600060018201612213576122136121eb565b5060010190565b808201808211156112a1576112a16121eb565b818103818111156112a1576112a16121eb565b60006020828403121561225257600080fd5b815161192b81611f2d565b60006020828403121561226f57600080fd5b8151801515811461192b57600080fd5b60008261229c57634e487b7160e01b600052601260045260246000fd5b500490565b80820281158282048414176112a1576112a16121eb565b634e487b7160e01b600052603160045260246000fd5b60005b838110156122e95781810151838201526020016122d1565b50506000910152565b600082516123048184602087016122ce565b9190910192915050565b602081526000825180602084015261232d8160408501602087016122ce565b601f01601f1916919091016040019291505056fea26469706673582212206d9fd803a033c9f8ce55d436f097fe945589fa9e234f4e66180b6795a5c3b5f164736f6c63430008120033",
					"opcodes": "PUSH1 0x80 PUSH1 0x40 MSTORE PUSH1 0x1 PUSH1 0x2 SSTORE PUSH1 0x0 PUSH1 0x3 SSTORE CALLVALUE DUP1 ISZERO PUSH3 0x1B JUMPI PUSH1 0x0 DUP1 REVERT JUMPDEST POP PUSH1 0x40 MLOAD PUSH3 0x265D CODESIZE SUB DUP1 PUSH3 0x265D DUP4 CODECOPY DUP2 ADD PUSH1 0x40 DUP2 SWAP1 MSTORE PUSH3 0x3E SWAP2 PUSH3 0x1D4 JUMP JUMPDEST PUSH3 0x49 CALLER PUSH3 0xD0 JUMP JUMPDEST PUSH1 0x0 DUP1 SLOAD PUSH1 0xFF PUSH1 0xA0 SHL NOT AND SWAP1 SSTORE PUSH1 0x1 DUP1 SLOAD PUSH1 0x1 PUSH1 0x1 PUSH1 0xA0 SHL SUB NOT AND PUSH1 0x1 PUSH1 0x1 PUSH1 0xA0 SHL SUB DUP7 AND OR SWAP1 SSTORE PUSH1 0x3 DUP3 SWAP1 SSTORE DUP1 MLOAD PUSH3 0x8B SWAP1 PUSH1 0x6 SWAP1 PUSH1 0x20 DUP5 ADD SWAP1 PUSH3 0x120 JUMP JUMPDEST POP PUSH1 0x1 PUSH1 0x1 PUSH1 0xA0 SHL SUB DUP4 AND ISZERO PUSH3 0xA3 JUMPI DUP3 PUSH3 0xA5 JUMP JUMPDEST CALLER JUMPDEST PUSH1 0x8 DUP1 SLOAD PUSH1 0x1 PUSH1 0x1 PUSH1 0xA0 SHL SUB NOT AND PUSH1 0x1 PUSH1 0x1 PUSH1 0xA0 SHL SUB SWAP3 SWAP1 SWAP3 AND SWAP2 SWAP1 SWAP2 OR SWAP1 SSTORE POP PUSH3 0x2D6 SWAP3 POP POP POP JUMP JUMPDEST PUSH1 0x0 DUP1 SLOAD PUSH1 0x1 PUSH1 0x1 PUSH1 0xA0 SHL SUB DUP4 DUP2 AND PUSH1 0x1 PUSH1 0x1 PUSH1 0xA0 SHL SUB NOT DUP4 AND DUP2 OR DUP5 SSTORE PUSH1 0x40 MLOAD SWAP2 SWAP1 SWAP3 AND SWAP3 DUP4 SWAP2 PUSH32 0x8BE0079C531659141344CD1FD0A4F28419497F9722A3DAAFE3B4186F6B6457E0 SWAP2 SWAP1 LOG3 POP POP JUMP JUMPDEST DUP3 DUP1 SLOAD DUP3 DUP3 SSTORE SWAP1 PUSH1 0x0 MSTORE PUSH1 0x20 PUSH1 0x0 KECCAK256 SWAP1 DUP2 ADD SWAP3 DUP3 ISZERO PUSH3 0x178 JUMPI SWAP2 PUSH1 0x20 MUL DUP3 ADD JUMPDEST DUP3 DUP2 GT ISZERO PUSH3 0x178 JUMPI DUP3 MLOAD DUP3 SLOAD PUSH1 0x1 PUSH1 0x1 PUSH1 0xA0 SHL SUB NOT AND PUSH1 0x1 PUSH1 0x1 PUSH1 0xA0 SHL SUB SWAP1 SWAP2 AND OR DUP3 SSTORE PUSH1 0x20 SWAP1 SWAP3 ADD SWAP2 PUSH1 0x1 SWAP1 SWAP2 ADD SWAP1 PUSH3 0x141 JUMP JUMPDEST POP PUSH3 0x186 SWAP3 SWAP2 POP PUSH3 0x18A JUMP JUMPDEST POP SWAP1 JUMP JUMPDEST JUMPDEST DUP1 DUP3 GT ISZERO PUSH3 0x186 JUMPI PUSH1 0x0 DUP2 SSTORE PUSH1 0x1 ADD PUSH3 0x18B JUMP JUMPDEST DUP1 MLOAD PUSH1 0x1 PUSH1 0x1 PUSH1 0xA0 SHL SUB DUP2 AND DUP2 EQ PUSH3 0x1B9 JUMPI PUSH1 0x0 DUP1 REVERT JUMPDEST SWAP2 SWAP1 POP JUMP JUMPDEST PUSH4 0x4E487B71 PUSH1 0xE0 SHL PUSH1 0x0 MSTORE PUSH1 0x41 PUSH1 0x4 MSTORE PUSH1 0x24 PUSH1 0x0 REVERT JUMPDEST PUSH1 0x0 DUP1 PUSH1 0x0 DUP1 PUSH1 0x80 DUP6 DUP8 SUB SLT ISZERO PUSH3 0x1EB JUMPI PUSH1 0x0 DUP1 REVERT JUMPDEST PUSH3 0x1F6 DUP6 PUSH3 0x1A1 JUMP JUMPDEST SWAP4 POP PUSH1 0x20 PUSH3 0x207 DUP2 DUP8 ADD PUSH3 0x1A1 JUMP JUMPDEST PUSH1 0x40 DUP8 ADD MLOAD PUSH1 0x60 DUP9 ADD MLOAD SWAP2 SWAP6 POP SWAP4 POP PUSH1 0x1 PUSH1 0x1 PUSH1 0x40 SHL SUB DUP1 DUP3 GT ISZERO PUSH3 0x22C JUMPI PUSH1 0x0 DUP1 REVERT JUMPDEST DUP2 DUP9 ADD SWAP2 POP DUP9 PUSH1 0x1F DUP4 ADD SLT PUSH3 0x241 JUMPI PUSH1 0x0 DUP1 REVERT JUMPDEST DUP2 MLOAD DUP2 DUP2 GT ISZERO PUSH3 0x256 JUMPI PUSH3 0x256 PUSH3 0x1BE JUMP JUMPDEST DUP1 PUSH1 0x5 SHL PUSH1 0x40 MLOAD PUSH1 0x1F NOT PUSH1 0x3F DUP4 ADD AND DUP2 ADD DUP2 DUP2 LT DUP6 DUP3 GT OR ISZERO PUSH3 0x27E JUMPI PUSH3 0x27E PUSH3 0x1BE JUMP JUMPDEST PUSH1 0x40 MSTORE SWAP2 DUP3 MSTORE DUP5 DUP3 ADD SWAP3 POP DUP4 DUP2 ADD DUP6 ADD SWAP2 DUP12 DUP4 GT ISZERO PUSH3 0x29D JUMPI PUSH1 0x0 DUP1 REVERT JUMPDEST SWAP4 DUP6 ADD SWAP4 JUMPDEST DUP3 DUP6 LT ISZERO PUSH3 0x2C6 JUMPI PUSH3 0x2B6 DUP6 PUSH3 0x1A1 JUMP JUMPDEST DUP5 MSTORE SWAP4 DUP6 ADD SWAP4 SWAP3 DUP6 ADD SWAP3 PUSH3 0x2A2 JUMP JUMPDEST SWAP9 SWAP12 SWAP8 SWAP11 POP SWAP6 SWAP9 POP POP POP POP POP POP POP JUMP JUMPDEST PUSH2 0x2377 DUP1 PUSH3 0x2E6 PUSH1 0x0 CODECOPY PUSH1 0x0 RETURN INVALID PUSH1 0x80 PUSH1 0x40 MSTORE PUSH1 0x4 CALLDATASIZE LT PUSH2 0x14B JUMPI PUSH1 0x0 CALLDATALOAD PUSH1 0xE0 SHR DUP1 PUSH4 0x715018A6 GT PUSH2 0xB6 JUMPI DUP1 PUSH4 0xC8F77899 GT PUSH2 0x6F JUMPI DUP1 PUSH4 0xC8F77899 EQ PUSH2 0x386 JUMPI DUP1 PUSH4 0xE8A35392 EQ PUSH2 0x39B JUMPI DUP1 PUSH4 0xE9E4E160 EQ PUSH2 0x3B9 JUMPI DUP1 PUSH4 0xEFDCD974 EQ PUSH2 0x3D9 JUMPI DUP1 PUSH4 0xF2FDE38B EQ PUSH2 0x3F9 JUMPI DUP1 PUSH4 0xF4F3B200 EQ PUSH2 0x419 JUMPI PUSH1 0x0 DUP1 REVERT JUMPDEST DUP1 PUSH4 0x715018A6 EQ PUSH2 0x2E9 JUMPI DUP1 PUSH4 0x785FA7CE EQ PUSH2 0x2FE JUMPI DUP1 PUSH4 0x7C237EEA EQ PUSH2 0x31E JUMPI DUP1 PUSH4 0x8DA5CB5B EQ PUSH2 0x33E JUMPI DUP1 PUSH4 0x952977F5 EQ PUSH2 0x35C JUMPI DUP1 PUSH4 0xA096C5A2 EQ PUSH2 0x371 JUMPI PUSH1 0x0 DUP1 REVERT JUMPDEST DUP1 PUSH4 0x5211AC2E GT PUSH2 0x108 JUMPI DUP1 PUSH4 0x5211AC2E EQ PUSH2 0x22F JUMPI DUP1 PUSH4 0x527F2902 EQ PUSH2 0x244 JUMPI DUP1 PUSH4 0x54FD4D50 EQ PUSH2 0x264 JUMPI DUP1 PUSH4 0x5B87F0F2 EQ PUSH2 0x288 JUMPI DUP1 PUSH4 0x5C975ABB EQ PUSH2 0x2A8 JUMPI DUP1 PUSH4 0x69C57352 EQ PUSH2 0x2C7 JUMPI PUSH1 0x0 DUP1 REVERT JUMPDEST DUP1 PUSH4 0x47A5D43 EQ PUSH2 0x150 JUMPI DUP1 PUSH4 0x8CFBC19 EQ PUSH2 0x172 JUMPI DUP1 PUSH4 0x10603023 EQ PUSH2 0x1AF JUMPI DUP1 PUSH4 0x19C8C1C5 EQ PUSH2 0x1CF JUMPI DUP1 PUSH4 0x512DDCF9 EQ PUSH2 0x1FC JUMPI DUP1 PUSH4 0x51ED8288 EQ PUSH2 0x21C JUMPI JUMPDEST PUSH1 0x0 DUP1 REVERT JUMPDEST CALLVALUE DUP1 ISZERO PUSH2 0x15C JUMPI PUSH1 0x0 DUP1 REVERT JUMPDEST POP PUSH2 0x170 PUSH2 0x16B CALLDATASIZE PUSH1 0x4 PUSH2 0x1F14 JUMP JUMPDEST PUSH2 0x439 JUMP JUMPDEST STOP JUMPDEST CALLVALUE DUP1 ISZERO PUSH2 0x17E JUMPI PUSH1 0x0 DUP1 REVERT JUMPDEST POP PUSH1 0x1 SLOAD PUSH2 0x192 SWAP1 PUSH1 0x1 PUSH1 0x1 PUSH1 0xA0 SHL SUB AND DUP2 JUMP JUMPDEST PUSH1 0x40 MLOAD PUSH1 0x1 PUSH1 0x1 PUSH1 0xA0 SHL SUB SWAP1 SWAP2 AND DUP2 MSTORE PUSH1 0x20 ADD JUMPDEST PUSH1 0x40 MLOAD DUP1 SWAP2 SUB SWAP1 RETURN JUMPDEST CALLVALUE DUP1 ISZERO PUSH2 0x1BB JUMPI PUSH1 0x0 DUP1 REVERT JUMPDEST POP PUSH2 0x170 PUSH2 0x1CA CALLDATASIZE PUSH1 0x4 PUSH2 0x1F14 JUMP JUMPDEST PUSH2 0x8FA JUMP JUMPDEST CALLVALUE DUP1 ISZERO PUSH2 0x1DB JUMPI PUSH1 0x0 DUP1 REVERT JUMPDEST POP PUSH2 0x1EF PUSH2 0x1EA CALLDATASIZE PUSH1 0x4 PUSH2 0x1F52 JUMP JUMPDEST PUSH2 0x907 JUMP JUMPDEST PUSH1 0x40 MLOAD PUSH2 0x1A6 SWAP2 SWAP1 PUSH2 0x1F6F JUMP JUMPDEST CALLVALUE DUP1 ISZERO PUSH2 0x208 JUMPI PUSH1 0x0 DUP1 REVERT JUMPDEST POP PUSH2 0x170 PUSH2 0x217 CALLDATASIZE PUSH1 0x4 PUSH2 0x1F14 JUMP JUMPDEST PUSH2 0xBD0 JUMP JUMPDEST PUSH2 0x170 PUSH2 0x22A CALLDATASIZE PUSH1 0x4 PUSH2 0x1F14 JUMP JUMPDEST PUSH2 0xD40 JUMP JUMPDEST CALLVALUE DUP1 ISZERO PUSH2 0x23B JUMPI PUSH1 0x0 DUP1 REVERT JUMPDEST POP PUSH2 0x170 PUSH2 0x107E JUMP JUMPDEST CALLVALUE DUP1 ISZERO PUSH2 0x250 JUMPI PUSH1 0x0 DUP1 REVERT JUMPDEST POP PUSH1 0x1 JUMPDEST PUSH1 0x40 MLOAD SWAP1 ISZERO ISZERO DUP2 MSTORE PUSH1 0x20 ADD PUSH2 0x1A6 JUMP JUMPDEST CALLVALUE DUP1 ISZERO PUSH2 0x270 JUMPI PUSH1 0x0 DUP1 REVERT JUMPDEST POP PUSH2 0x27A PUSH1 0x2 SLOAD DUP2 JUMP JUMPDEST PUSH1 0x40 MLOAD SWAP1 DUP2 MSTORE PUSH1 0x20 ADD PUSH2 0x1A6 JUMP JUMPDEST CALLVALUE DUP1 ISZERO PUSH2 0x294 JUMPI PUSH1 0x0 DUP1 REVERT JUMPDEST POP PUSH2 0x1EF PUSH2 0x2A3 CALLDATASIZE PUSH1 0x4 PUSH2 0x1FEB JUMP JUMPDEST PUSH2 0x10EC JUMP JUMPDEST CALLVALUE DUP1 ISZERO PUSH2 0x2B4 JUMPI PUSH1 0x0 DUP1 REVERT JUMPDEST POP PUSH1 0x0 SLOAD PUSH1 0x1 PUSH1 0xA0 SHL SWAP1 DIV PUSH1 0xFF AND PUSH2 0x254 JUMP JUMPDEST CALLVALUE DUP1 ISZERO PUSH2 0x2D3 JUMPI PUSH1 0x0 DUP1 REVERT JUMPDEST POP PUSH2 0x2DC PUSH2 0x12A7 JUMP JUMPDEST PUSH1 0x40 MLOAD PUSH2 0x1A6 SWAP2 SWAP1 PUSH2 0x200D JUMP JUMPDEST CALLVALUE DUP1 ISZERO PUSH2 0x2F5 JUMPI PUSH1 0x0 DUP1 REVERT JUMPDEST POP PUSH2 0x170 PUSH2 0x1309 JUMP JUMPDEST CALLVALUE DUP1 ISZERO PUSH2 0x30A JUMPI PUSH1 0x0 DUP1 REVERT JUMPDEST POP PUSH2 0x254 PUSH2 0x319 CALLDATASIZE PUSH1 0x4 PUSH2 0x1F52 JUMP JUMPDEST PUSH2 0x131D JUMP JUMPDEST CALLVALUE DUP1 ISZERO PUSH2 0x32A JUMPI PUSH1 0x0 DUP1 REVERT JUMPDEST POP PUSH2 0x170 PUSH2 0x339 CALLDATASIZE PUSH1 0x4 PUSH2 0x205A JUMP JUMPDEST PUSH2 0x1381 JUMP JUMPDEST CALLVALUE DUP1 ISZERO PUSH2 0x34A JUMPI PUSH1 0x0 DUP1 REVERT JUMPDEST POP PUSH1 0x0 SLOAD PUSH1 0x1 PUSH1 0x1 PUSH1 0xA0 SHL SUB AND PUSH2 0x192 JUMP JUMPDEST CALLVALUE DUP1 ISZERO PUSH2 0x368 JUMPI PUSH1 0x0 DUP1 REVERT JUMPDEST POP PUSH1 0x3 SLOAD PUSH2 0x27A JUMP JUMPDEST CALLVALUE DUP1 ISZERO PUSH2 0x37D JUMPI PUSH1 0x0 DUP1 REVERT JUMPDEST POP PUSH2 0x1EF PUSH2 0x1710 JUMP JUMPDEST CALLVALUE DUP1 ISZERO PUSH2 0x392 JUMPI PUSH1 0x0 DUP1 REVERT JUMPDEST POP PUSH1 0x7 SLOAD PUSH2 0x27A JUMP JUMPDEST CALLVALUE DUP1 ISZERO PUSH2 0x3A7 JUMPI PUSH1 0x0 DUP1 REVERT JUMPDEST POP PUSH1 0x8 SLOAD PUSH1 0x1 PUSH1 0x1 PUSH1 0xA0 SHL SUB AND PUSH2 0x192 JUMP JUMPDEST CALLVALUE DUP1 ISZERO PUSH2 0x3C5 JUMPI PUSH1 0x0 DUP1 REVERT JUMPDEST POP PUSH2 0x170 PUSH2 0x3D4 CALLDATASIZE PUSH1 0x4 PUSH2 0x20A9 JUMP JUMPDEST PUSH2 0x1720 JUMP JUMPDEST CALLVALUE DUP1 ISZERO PUSH2 0x3E5 JUMPI PUSH1 0x0 DUP1 REVERT JUMPDEST POP PUSH2 0x170 PUSH2 0x3F4 CALLDATASIZE PUSH1 0x4 PUSH2 0x1F52 JUMP JUMPDEST PUSH2 0x173F JUMP JUMPDEST CALLVALUE DUP1 ISZERO PUSH2 0x405 JUMPI PUSH1 0x0 DUP1 REVERT JUMPDEST POP PUSH2 0x170 PUSH2 0x414 CALLDATASIZE PUSH1 0x4 PUSH2 0x1F52 JUMP JUMPDEST PUSH2 0x1769 JUMP JUMPDEST CALLVALUE DUP1 ISZERO PUSH2 0x425 JUMPI PUSH1 0x0 DUP1 REVERT JUMPDEST POP PUSH2 0x170 PUSH2 0x434 CALLDATASIZE PUSH1 0x4 PUSH2 0x1F52 JUMP JUMPDEST PUSH2 0x17E2 JUMP JUMPDEST PUSH1 0x0 SLOAD PUSH1 0x1 PUSH1 0xA0 SHL SWAP1 DIV PUSH1 0xFF AND ISZERO PUSH2 0x46C JUMPI PUSH1 0x40 MLOAD PUSH3 0x461BCD PUSH1 0xE5 SHL DUP2 MSTORE PUSH1 0x4 ADD PUSH2 0x463 SWAP1 PUSH2 0x216E JUMP JUMPDEST PUSH1 0x40 MLOAD DUP1 SWAP2 SUB SWAP1 REVERT JUMPDEST PUSH1 0x0 DUP2 DUP2 MSTORE PUSH1 0x4 PUSH1 0x20 MSTORE PUSH1 0x40 SWAP1 KECCAK256 SLOAD PUSH1 0xFF AND ISZERO ISZERO PUSH1 0x1 EQ PUSH2 0x4CA JUMPI PUSH1 0x40 MLOAD PUSH3 0x461BCD PUSH1 0xE5 SHL DUP2 MSTORE PUSH1 0x20 PUSH1 0x4 DUP3 ADD MSTORE PUSH1 0x18 PUSH1 0x24 DUP3 ADD MSTORE PUSH24 0x54686973204E4654206973206E6F7420666F722073616C65 PUSH1 0x40 SHL PUSH1 0x44 DUP3 ADD MSTORE PUSH1 0x64 ADD PUSH2 0x463 JUMP JUMPDEST PUSH1 0x0 DUP2 DUP2 MSTORE PUSH1 0x5 PUSH1 0x20 MSTORE PUSH1 0x40 SWAP1 KECCAK256 PUSH1 0x3 ADD SLOAD PUSH1 0x1 PUSH1 0x1 PUSH1 0xA0 SHL SUB AND PUSH2 0x531 JUMPI PUSH1 0x40 MLOAD PUSH3 0x461BCD PUSH1 0xE5 SHL DUP2 MSTORE PUSH1 0x20 PUSH1 0x4 DUP3 ADD DUP2 SWAP1 MSTORE PUSH1 0x24 DUP3 ADD MSTORE PUSH32 0x5468697320746F6B656E2073656C6C6564206279204E617469766520636F696E PUSH1 0x44 DUP3 ADD MSTORE PUSH1 0x64 ADD PUSH2 0x463 JUMP JUMPDEST PUSH1 0x0 DUP2 DUP2 MSTORE PUSH1 0x5 PUSH1 0x20 MSTORE PUSH1 0x40 DUP1 DUP3 KECCAK256 PUSH1 0x3 ADD SLOAD SWAP1 MLOAD PUSH4 0x70A08231 PUSH1 0xE0 SHL DUP2 MSTORE CALLER PUSH1 0x4 DUP3 ADD MSTORE PUSH1 0x1 PUSH1 0x1 PUSH1 0xA0 SHL SUB SWAP1 SWAP2 AND SWAP2 SWAP1 DUP3 SWAP1 PUSH4 0x70A08231 SWAP1 PUSH1 0x24 ADD PUSH1 0x20 PUSH1 0x40 MLOAD DUP1 DUP4 SUB DUP2 DUP7 GAS STATICCALL ISZERO DUP1 ISZERO PUSH2 0x58B JUMPI RETURNDATASIZE PUSH1 0x0 DUP1 RETURNDATACOPY RETURNDATASIZE PUSH1 0x0 REVERT JUMPDEST POP POP POP POP PUSH1 0x40 MLOAD RETURNDATASIZE PUSH1 0x1F NOT PUSH1 0x1F DUP3 ADD AND DUP3 ADD DUP1 PUSH1 0x40 MSTORE POP DUP2 ADD SWAP1 PUSH2 0x5AF SWAP2 SWAP1 PUSH2 0x2198 JUMP JUMPDEST PUSH1 0x0 DUP5 DUP2 MSTORE PUSH1 0x5 PUSH1 0x20 MSTORE PUSH1 0x40 SWAP1 KECCAK256 PUSH1 0x2 ADD SLOAD SWAP1 SWAP2 POP DUP2 LT ISZERO PUSH2 0x630 JUMPI PUSH1 0x40 MLOAD PUSH3 0x461BCD PUSH1 0xE5 SHL DUP2 MSTORE PUSH1 0x20 PUSH1 0x4 DUP3 ADD MSTORE PUSH1 0x34 PUSH1 0x24 DUP3 ADD MSTORE PUSH32 0x596F7520646F206E6F74206861766520656E6F75676820746F6B656E73206F6E PUSH1 0x44 DUP3 ADD MSTORE PUSH20 0x20796F75722062616C616E636520746F20706179 PUSH1 0x60 SHL PUSH1 0x64 DUP3 ADD MSTORE PUSH1 0x84 ADD PUSH2 0x463 JUMP JUMPDEST PUSH1 0x40 MLOAD PUSH4 0x6EB1769F PUSH1 0xE1 SHL DUP2 MSTORE CALLER PUSH1 0x4 DUP3 ADD MSTORE ADDRESS PUSH1 0x24 DUP3 ADD MSTORE PUSH1 0x0 SWAP1 PUSH1 0x1 PUSH1 0x1 PUSH1 0xA0 SHL SUB DUP5 AND SWAP1 PUSH4 0xDD62ED3E SWAP1 PUSH1 0x44 ADD PUSH1 0x20 PUSH1 0x40 MLOAD DUP1 DUP4 SUB DUP2 DUP7 GAS STATICCALL ISZERO DUP1 ISZERO PUSH2 0x67D JUMPI RETURNDATASIZE PUSH1 0x0 DUP1 RETURNDATACOPY RETURNDATASIZE PUSH1 0x0 REVERT JUMPDEST POP POP POP POP PUSH1 0x40 MLOAD RETURNDATASIZE PUSH1 0x1F NOT PUSH1 0x1F DUP3 ADD AND DUP3 ADD DUP1 PUSH1 0x40 MSTORE POP DUP2 ADD SWAP1 PUSH2 0x6A1 SWAP2 SWAP1 PUSH2 0x2198 JUMP JUMPDEST PUSH1 0x0 DUP6 DUP2 MSTORE PUSH1 0x5 PUSH1 0x20 MSTORE PUSH1 0x40 SWAP1 KECCAK256 PUSH1 0x2 ADD SLOAD SWAP1 SWAP2 POP DUP2 LT ISZERO PUSH2 0x72B JUMPI PUSH1 0x40 MLOAD PUSH3 0x461BCD PUSH1 0xE5 SHL DUP2 MSTORE PUSH1 0x20 PUSH1 0x4 DUP3 ADD MSTORE PUSH1 0x3A PUSH1 0x24 DUP3 ADD MSTORE PUSH32 0x596F7520646964206E6F7420616C6C6F772074686520636F6E74726163742074 PUSH1 0x44 DUP3 ADD MSTORE PUSH32 0x6F2073656E642074686520707572636861736520616D6F756E74000000000000 PUSH1 0x64 DUP3 ADD MSTORE PUSH1 0x84 ADD PUSH2 0x463 JUMP JUMPDEST PUSH1 0x0 DUP5 DUP2 MSTORE PUSH1 0x5 PUSH1 0x20 MSTORE PUSH1 0x40 DUP2 KECCAK256 PUSH1 0x2 ADD SLOAD SWAP1 PUSH2 0x754 PUSH2 0x74C DUP4 PUSH1 0x64 PUSH2 0x191F JUMP JUMPDEST PUSH1 0x3 SLOAD PUSH2 0x1932 JUMP JUMPDEST SWAP1 POP PUSH2 0x768 PUSH1 0x0 SLOAD PUSH1 0x1 PUSH1 0x1 PUSH1 0xA0 SHL SUB AND SWAP1 JUMP JUMPDEST PUSH1 0x0 DUP8 DUP2 MSTORE PUSH1 0x5 PUSH1 0x20 MSTORE PUSH1 0x40 SWAP1 KECCAK256 PUSH1 0x1 ADD SLOAD PUSH1 0x1 PUSH1 0x1 PUSH1 0xA0 SHL SUB SWAP2 DUP3 AND SWAP2 AND SUB PUSH2 0x790 JUMPI POP PUSH1 0x0 JUMPDEST PUSH1 0x0 PUSH2 0x79C DUP4 DUP4 PUSH2 0x193E JUMP JUMPDEST PUSH1 0x0 DUP9 DUP2 MSTORE PUSH1 0x5 PUSH1 0x20 MSTORE PUSH1 0x40 SWAP1 KECCAK256 PUSH1 0x1 ADD SLOAD SWAP1 SWAP2 POP PUSH2 0x7CA SWAP1 PUSH1 0x1 PUSH1 0x1 PUSH1 0xA0 SHL SUB DUP9 DUP2 AND SWAP2 CALLER SWAP2 AND DUP5 PUSH2 0x194A JUMP JUMPDEST DUP2 ISZERO PUSH2 0x7EC JUMPI PUSH1 0x8 SLOAD PUSH2 0x7EC SWAP1 PUSH1 0x1 PUSH1 0x1 PUSH1 0xA0 SHL SUB DUP9 DUP2 AND SWAP2 CALLER SWAP2 AND DUP6 PUSH2 0x194A JUMP JUMPDEST PUSH1 0x1 SLOAD PUSH1 0x40 MLOAD PUSH4 0x23B872DD PUSH1 0xE0 SHL DUP2 MSTORE PUSH1 0x1 PUSH1 0x1 PUSH1 0xA0 SHL SUB SWAP1 SWAP2 AND SWAP1 PUSH4 0x23B872DD SWAP1 PUSH2 0x820 SWAP1 ADDRESS SWAP1 CALLER SWAP1 DUP13 SWAP1 PUSH1 0x4 ADD PUSH2 0x21B1 JUMP JUMPDEST PUSH1 0x0 PUSH1 0x40 MLOAD DUP1 DUP4 SUB DUP2 PUSH1 0x0 DUP8 DUP1 EXTCODESIZE ISZERO DUP1 ISZERO PUSH2 0x83A JUMPI PUSH1 0x0 DUP1 REVERT JUMPDEST POP GAS CALL ISZERO DUP1 ISZERO PUSH2 0x84E JUMPI RETURNDATASIZE PUSH1 0x0 DUP1 RETURNDATACOPY RETURNDATASIZE PUSH1 0x0 REVERT JUMPDEST POP POP POP PUSH1 0x0 DUP9 DUP2 MSTORE PUSH1 0x4 PUSH1 0x20 MSTORE PUSH1 0x40 SWAP1 KECCAK256 DUP1 SLOAD PUSH1 0xFF NOT AND SWAP1 SSTORE POP PUSH2 0x871 DUP8 PUSH2 0x19A2 JUMP JUMPDEST PUSH2 0x87A DUP8 PUSH2 0x1A22 JUMP JUMPDEST PUSH1 0x0 DUP8 DUP2 MSTORE PUSH1 0x5 PUSH1 0x20 SWAP1 DUP2 MSTORE PUSH1 0x40 SWAP2 DUP3 SWAP1 KECCAK256 PUSH1 0x1 DUP2 ADD SLOAD PUSH1 0x3 DUP3 ADD SLOAD PUSH1 0x2 SWAP1 SWAP3 ADD SLOAD DUP5 MLOAD PUSH1 0x1 PUSH1 0x1 PUSH1 0xA0 SHL SUB SWAP3 DUP4 AND DUP2 MSTORE CALLER SWAP5 DUP2 ADD SWAP5 SWAP1 SWAP5 MSTORE DUP4 DUP6 ADD DUP13 SWAP1 MSTORE SWAP2 AND PUSH1 0x60 DUP4 ADD MSTORE PUSH1 0x80 DUP3 ADD MSTORE SWAP1 MLOAD PUSH32 0xD369FDCFEB128F60117661EBD8F220B7265C0A04FEE0E9905EB8C6AB2767B9E5 SWAP2 DUP2 SWAP1 SUB PUSH1 0xA0 ADD SWAP1 LOG1 POP POP POP POP POP POP POP JUMP JUMPDEST PUSH2 0x902 PUSH2 0x1B4D JUMP JUMPDEST PUSH1 0x3 SSTORE JUMP JUMPDEST PUSH1 0x60 PUSH1 0x0 DUP1 JUMPDEST PUSH1 0x7 SLOAD DUP2 LT ISZERO PUSH2 0x985 JUMPI DUP4 PUSH1 0x1 PUSH1 0x1 PUSH1 0xA0 SHL SUB AND PUSH1 0x5 PUSH1 0x0 PUSH1 0x7 DUP5 DUP2 SLOAD DUP2 LT PUSH2 0x938 JUMPI PUSH2 0x938 PUSH2 0x21D5 JUMP JUMPDEST PUSH1 0x0 SWAP2 DUP3 MSTORE PUSH1 0x20 DUP1 DUP4 KECCAK256 SWAP1 SWAP2 ADD SLOAD DUP4 MSTORE DUP3 ADD SWAP3 SWAP1 SWAP3 MSTORE PUSH1 0x40 ADD SWAP1 KECCAK256 PUSH1 0x1 ADD SLOAD PUSH1 0x1 PUSH1 0x1 PUSH1 0xA0 SHL SUB AND SUB PUSH2 0x973 JUMPI DUP2 PUSH2 0x96F DUP2 PUSH2 0x2201 JUMP JUMPDEST SWAP3 POP POP JUMPDEST DUP1 PUSH2 0x97D DUP2 PUSH2 0x2201 JUMP JUMPDEST SWAP2 POP POP PUSH2 0x90D JUMP JUMPDEST POP PUSH1 0x0 DUP2 PUSH8 0xFFFFFFFFFFFFFFFF DUP2 GT ISZERO PUSH2 0x9A1 JUMPI PUSH2 0x9A1 PUSH2 0x2093 JUMP JUMPDEST PUSH1 0x40 MLOAD SWAP1 DUP1 DUP3 MSTORE DUP1 PUSH1 0x20 MUL PUSH1 0x20 ADD DUP3 ADD PUSH1 0x40 MSTORE DUP1 ISZERO PUSH2 0x9DA JUMPI DUP2 PUSH1 0x20 ADD JUMPDEST PUSH2 0x9C7 PUSH2 0x1E59 JUMP JUMPDEST DUP2 MSTORE PUSH1 0x20 ADD SWAP1 PUSH1 0x1 SWAP1 SUB SWAP1 DUP2 PUSH2 0x9BF JUMPI SWAP1 POP JUMPDEST POP SWAP1 POP PUSH1 0x0 SWAP2 POP PUSH1 0x0 JUMPDEST PUSH1 0x7 SLOAD DUP2 LT ISZERO PUSH2 0xBC8 JUMPI DUP5 PUSH1 0x1 PUSH1 0x1 PUSH1 0xA0 SHL SUB AND PUSH1 0x5 PUSH1 0x0 PUSH1 0x7 DUP5 DUP2 SLOAD DUP2 LT PUSH2 0xA0F JUMPI PUSH2 0xA0F PUSH2 0x21D5 JUMP JUMPDEST PUSH1 0x0 SWAP2 DUP3 MSTORE PUSH1 0x20 DUP1 DUP4 KECCAK256 SWAP1 SWAP2 ADD SLOAD DUP4 MSTORE DUP3 ADD SWAP3 SWAP1 SWAP3 MSTORE PUSH1 0x40 ADD SWAP1 KECCAK256 PUSH1 0x1 ADD SLOAD PUSH1 0x1 PUSH1 0x1 PUSH1 0xA0 SHL SUB AND SUB PUSH2 0xBB6 JUMPI PUSH1 0x0 PUSH1 0x40 MLOAD DUP1 PUSH1 0xA0 ADD PUSH1 0x40 MSTORE DUP1 PUSH1 0x7 DUP5 DUP2 SLOAD DUP2 LT PUSH2 0xA5C JUMPI PUSH2 0xA5C PUSH2 0x21D5 JUMP JUMPDEST SWAP1 PUSH1 0x0 MSTORE PUSH1 0x20 PUSH1 0x0 KECCAK256 ADD SLOAD DUP2 MSTORE PUSH1 0x20 ADD PUSH1 0x5 PUSH1 0x0 PUSH1 0x7 DUP7 DUP2 SLOAD DUP2 LT PUSH2 0xA83 JUMPI PUSH2 0xA83 PUSH2 0x21D5 JUMP JUMPDEST SWAP1 PUSH1 0x0 MSTORE PUSH1 0x20 PUSH1 0x0 KECCAK256 ADD SLOAD DUP2 MSTORE PUSH1 0x20 ADD SWAP1 DUP2 MSTORE PUSH1 0x20 ADD PUSH1 0x0 KECCAK256 PUSH1 0x1 ADD PUSH1 0x0 SWAP1 SLOAD SWAP1 PUSH2 0x100 EXP SWAP1 DIV PUSH1 0x1 PUSH1 0x1 PUSH1 0xA0 SHL SUB AND PUSH1 0x1 PUSH1 0x1 PUSH1 0xA0 SHL SUB AND DUP2 MSTORE PUSH1 0x20 ADD PUSH1 0x5 PUSH1 0x0 PUSH1 0x7 DUP7 DUP2 SLOAD DUP2 LT PUSH2 0xAD8 JUMPI PUSH2 0xAD8 PUSH2 0x21D5 JUMP JUMPDEST SWAP1 PUSH1 0x0 MSTORE PUSH1 0x20 PUSH1 0x0 KECCAK256 ADD SLOAD DUP2 MSTORE PUSH1 0x20 ADD SWAP1 DUP2 MSTORE PUSH1 0x20 ADD PUSH1 0x0 KECCAK256 PUSH1 0x2 ADD SLOAD DUP2 MSTORE PUSH1 0x20 ADD PUSH1 0x5 PUSH1 0x0 PUSH1 0x7 DUP7 DUP2 SLOAD DUP2 LT PUSH2 0xB11 JUMPI PUSH2 0xB11 PUSH2 0x21D5 JUMP JUMPDEST SWAP1 PUSH1 0x0 MSTORE PUSH1 0x20 PUSH1 0x0 KECCAK256 ADD SLOAD DUP2 MSTORE PUSH1 0x20 ADD SWAP1 DUP2 MSTORE PUSH1 0x20 ADD PUSH1 0x0 KECCAK256 PUSH1 0x3 ADD PUSH1 0x0 SWAP1 SLOAD SWAP1 PUSH2 0x100 EXP SWAP1 DIV PUSH1 0x1 PUSH1 0x1 PUSH1 0xA0 SHL SUB AND PUSH1 0x1 PUSH1 0x1 PUSH1 0xA0 SHL SUB AND DUP2 MSTORE PUSH1 0x20 ADD PUSH1 0x5 PUSH1 0x0 PUSH1 0x7 DUP7 DUP2 SLOAD DUP2 LT PUSH2 0xB66 JUMPI PUSH2 0xB66 PUSH2 0x21D5 JUMP JUMPDEST SWAP1 PUSH1 0x0 MSTORE PUSH1 0x20 PUSH1 0x0 KECCAK256 ADD SLOAD DUP2 MSTORE PUSH1 0x20 ADD SWAP1 DUP2 MSTORE PUSH1 0x20 ADD PUSH1 0x0 KECCAK256 PUSH1 0x4 ADD SLOAD DUP2 MSTORE POP SWAP1 POP DUP1 DUP4 DUP6 DUP2 MLOAD DUP2 LT PUSH2 0xB9B JUMPI PUSH2 0xB9B PUSH2 0x21D5 JUMP JUMPDEST PUSH1 0x20 MUL PUSH1 0x20 ADD ADD DUP2 SWAP1 MSTORE POP DUP4 DUP1 PUSH2 0xBB1 SWAP1 PUSH2 0x2201 JUMP JUMPDEST SWAP5 POP POP POP JUMPDEST DUP1 PUSH2 0xBC0 DUP2 PUSH2 0x2201 JUMP JUMPDEST SWAP2 POP POP PUSH2 0x9E4 JUMP JUMPDEST POP SWAP4 SWAP3 POP POP POP JUMP JUMPDEST PUSH1 0x0 SLOAD PUSH1 0x1 PUSH1 0x1 PUSH1 0xA0 SHL SUB AND CALLER EQ PUSH2 0xC42 JUMPI PUSH1 0x0 DUP2 DUP2 MSTORE PUSH1 0x5 PUSH1 0x20 MSTORE PUSH1 0x40 SWAP1 KECCAK256 PUSH1 0x1 ADD SLOAD PUSH1 0x1 PUSH1 0x1 PUSH1 0xA0 SHL SUB AND CALLER EQ PUSH2 0xC42 JUMPI PUSH1 0x40 MLOAD PUSH3 0x461BCD PUSH1 0xE5 SHL DUP2 MSTORE PUSH1 0x20 PUSH1 0x4 DUP3 ADD MSTORE PUSH1 0x14 PUSH1 0x24 DUP3 ADD MSTORE PUSH20 0x151A1A5CC81A5CC81B9BDD081E5BDD5C88139195 PUSH1 0x62 SHL PUSH1 0x44 DUP3 ADD MSTORE PUSH1 0x64 ADD PUSH2 0x463 JUMP JUMPDEST PUSH1 0x1 DUP1 SLOAD PUSH1 0x0 DUP4 DUP2 MSTORE PUSH1 0x5 PUSH1 0x20 MSTORE PUSH1 0x40 SWAP1 DUP2 SWAP1 KECCAK256 SWAP1 SWAP3 ADD SLOAD SWAP2 MLOAD PUSH4 0x23B872DD PUSH1 0xE0 SHL DUP2 MSTORE PUSH1 0x1 PUSH1 0x1 PUSH1 0xA0 SHL SUB SWAP2 DUP3 AND SWAP3 PUSH4 0x23B872DD SWAP3 PUSH2 0xC8C SWAP3 ADDRESS SWAP3 SWAP1 SWAP2 AND SWAP1 DUP7 SWAP1 PUSH1 0x4 ADD PUSH2 0x21B1 JUMP JUMPDEST PUSH1 0x0 PUSH1 0x40 MLOAD DUP1 DUP4 SUB DUP2 PUSH1 0x0 DUP8 DUP1 EXTCODESIZE ISZERO DUP1 ISZERO PUSH2 0xCA6 JUMPI PUSH1 0x0 DUP1 REVERT JUMPDEST POP GAS CALL ISZERO DUP1 ISZERO PUSH2 0xCBA JUMPI RETURNDATASIZE PUSH1 0x0 DUP1 RETURNDATACOPY RETURNDATASIZE PUSH1 0x0 REVERT JUMPDEST POP POP POP PUSH1 0x0 DUP3 DUP2 MSTORE PUSH1 0x4 PUSH1 0x20 MSTORE PUSH1 0x40 SWAP1 KECCAK256 DUP1 SLOAD PUSH1 0xFF NOT AND SWAP1 SSTORE POP PUSH2 0xCDD DUP2 PUSH2 0x19A2 JUMP JUMPDEST PUSH2 0xCE6 DUP2 PUSH2 0x1A22 JUMP JUMPDEST PUSH1 0x0 DUP2 DUP2 MSTORE PUSH1 0x5 PUSH1 0x20 SWAP1 DUP2 MSTORE PUSH1 0x40 SWAP2 DUP3 SWAP1 KECCAK256 PUSH1 0x1 ADD SLOAD DUP3 MLOAD PUSH1 0x1 PUSH1 0x1 PUSH1 0xA0 SHL SUB SWAP1 SWAP2 AND DUP2 MSTORE SWAP1 DUP2 ADD DUP4 SWAP1 MSTORE PUSH32 0x8BF8E8F2F9D065B620F4E940D87122B03DD779D0FFD6A1590572E1E6D0416BEF SWAP2 ADD JUMPDEST PUSH1 0x40 MLOAD DUP1 SWAP2 SUB SWAP1 LOG1 POP JUMP JUMPDEST PUSH1 0x0 SLOAD PUSH1 0x1 PUSH1 0xA0 SHL SWAP1 DIV PUSH1 0xFF AND ISZERO PUSH2 0xD6A JUMPI PUSH1 0x40 MLOAD PUSH3 0x461BCD PUSH1 0xE5 SHL DUP2 MSTORE PUSH1 0x4 ADD PUSH2 0x463 SWAP1 PUSH2 0x216E JUMP JUMPDEST PUSH1 0x0 DUP2 DUP2 MSTORE PUSH1 0x4 PUSH1 0x20 MSTORE PUSH1 0x40 SWAP1 KECCAK256 SLOAD PUSH1 0xFF AND ISZERO ISZERO PUSH1 0x1 EQ PUSH2 0xDC8 JUMPI PUSH1 0x40 MLOAD PUSH3 0x461BCD PUSH1 0xE5 SHL DUP2 MSTORE PUSH1 0x20 PUSH1 0x4 DUP3 ADD MSTORE PUSH1 0x18 PUSH1 0x24 DUP3 ADD MSTORE PUSH24 0x54686973204E4654206973206E6F7420666F722073616C65 PUSH1 0x40 SHL PUSH1 0x44 DUP3 ADD MSTORE PUSH1 0x64 ADD PUSH2 0x463 JUMP JUMPDEST PUSH1 0x0 DUP2 DUP2 MSTORE PUSH1 0x5 PUSH1 0x20 MSTORE PUSH1 0x40 SWAP1 KECCAK256 PUSH1 0x2 ADD SLOAD CALLVALUE LT ISZERO PUSH2 0xE38 JUMPI PUSH1 0x40 MLOAD PUSH3 0x461BCD PUSH1 0xE5 SHL DUP2 MSTORE PUSH1 0x20 PUSH1 0x4 DUP3 ADD MSTORE PUSH1 0x26 PUSH1 0x24 DUP3 ADD MSTORE PUSH32 0x596F752068617665206E6F74207061696420656E6F75676820666F7220746869 PUSH1 0x44 DUP3 ADD MSTORE PUSH6 0x73206974656D PUSH1 0xD0 SHL PUSH1 0x64 DUP3 ADD MSTORE PUSH1 0x84 ADD PUSH2 0x463 JUMP JUMPDEST PUSH1 0x0 DUP2 DUP2 MSTORE PUSH1 0x5 PUSH1 0x20 MSTORE PUSH1 0x40 SWAP1 KECCAK256 PUSH1 0x3 ADD SLOAD PUSH1 0x1 PUSH1 0x1 PUSH1 0xA0 SHL SUB AND ISZERO PUSH2 0xEA0 JUMPI PUSH1 0x40 MLOAD PUSH3 0x461BCD PUSH1 0xE5 SHL DUP2 MSTORE PUSH1 0x20 PUSH1 0x4 DUP3 ADD MSTORE PUSH1 0x1A PUSH1 0x24 DUP3 ADD MSTORE PUSH32 0x5468697320746F6B656E2073656C6C6564206279204552433230000000000000 PUSH1 0x44 DUP3 ADD MSTORE PUSH1 0x64 ADD PUSH2 0x463 JUMP JUMPDEST CALLVALUE PUSH1 0x0 PUSH2 0xEB1 PUSH2 0x74C DUP4 PUSH1 0x64 PUSH2 0x191F JUMP JUMPDEST SWAP1 POP PUSH2 0xEC5 PUSH1 0x0 SLOAD PUSH1 0x1 PUSH1 0x1 PUSH1 0xA0 SHL SUB AND SWAP1 JUMP JUMPDEST PUSH1 0x0 DUP5 DUP2 MSTORE PUSH1 0x5 PUSH1 0x20 MSTORE PUSH1 0x40 SWAP1 KECCAK256 PUSH1 0x1 ADD SLOAD PUSH1 0x1 PUSH1 0x1 PUSH1 0xA0 SHL SUB SWAP2 DUP3 AND SWAP2 AND SUB PUSH2 0xEED JUMPI POP PUSH1 0x0 JUMPDEST PUSH1 0x0 PUSH2 0xEF9 DUP4 DUP4 PUSH2 0x193E JUMP JUMPDEST PUSH1 0x0 DUP6 DUP2 MSTORE PUSH1 0x5 PUSH1 0x20 MSTORE PUSH1 0x40 DUP1 DUP3 KECCAK256 PUSH1 0x1 ADD SLOAD SWAP1 MLOAD SWAP3 SWAP4 POP PUSH1 0x1 PUSH1 0x1 PUSH1 0xA0 SHL SUB AND SWAP2 DUP4 ISZERO PUSH2 0x8FC MUL SWAP2 DUP5 SWAP2 SWAP1 DUP2 DUP2 DUP2 DUP6 DUP9 DUP9 CALL SWAP4 POP POP POP POP ISZERO DUP1 ISZERO PUSH2 0xF42 JUMPI RETURNDATASIZE PUSH1 0x0 DUP1 RETURNDATACOPY RETURNDATASIZE PUSH1 0x0 REVERT JUMPDEST POP DUP2 ISZERO PUSH2 0xF85 JUMPI PUSH1 0x8 SLOAD PUSH1 0x40 MLOAD PUSH1 0x1 PUSH1 0x1 PUSH1 0xA0 SHL SUB SWAP1 SWAP2 AND SWAP1 DUP4 ISZERO PUSH2 0x8FC MUL SWAP1 DUP5 SWAP1 PUSH1 0x0 DUP2 DUP2 DUP2 DUP6 DUP9 DUP9 CALL SWAP4 POP POP POP POP ISZERO DUP1 ISZERO PUSH2 0xF83 JUMPI RETURNDATASIZE PUSH1 0x0 DUP1 RETURNDATACOPY RETURNDATASIZE PUSH1 0x0 REVERT JUMPDEST POP JUMPDEST PUSH1 0x1 SLOAD PUSH1 0x40 MLOAD PUSH4 0x23B872DD PUSH1 0xE0 SHL DUP2 MSTORE PUSH1 0x1 PUSH1 0x1 PUSH1 0xA0 SHL SUB SWAP1 SWAP2 AND SWAP1 PUSH4 0x23B872DD SWAP1 PUSH2 0xFB9 SWAP1 ADDRESS SWAP1 CALLER SWAP1 DUP10 SWAP1 PUSH1 0x4 ADD PUSH2 0x21B1 JUMP JUMPDEST PUSH1 0x0 PUSH1 0x40 MLOAD DUP1 DUP4 SUB DUP2 PUSH1 0x0 DUP8 DUP1 EXTCODESIZE ISZERO DUP1 ISZERO PUSH2 0xFD3 JUMPI PUSH1 0x0 DUP1 REVERT JUMPDEST POP GAS CALL ISZERO DUP1 ISZERO PUSH2 0xFE7 JUMPI RETURNDATASIZE PUSH1 0x0 DUP1 RETURNDATACOPY RETURNDATASIZE PUSH1 0x0 REVERT JUMPDEST POP POP POP PUSH1 0x0 DUP6 DUP2 MSTORE PUSH1 0x4 PUSH1 0x20 SWAP1 DUP2 MSTORE PUSH1 0x40 DUP1 DUP4 KECCAK256 DUP1 SLOAD PUSH1 0xFF NOT AND SWAP1 SSTORE PUSH1 0x5 DUP3 MSTORE SWAP2 DUP3 SWAP1 KECCAK256 PUSH1 0x1 DUP2 ADD SLOAD PUSH1 0x2 SWAP1 SWAP2 ADD SLOAD DUP4 MLOAD PUSH1 0x1 PUSH1 0x1 PUSH1 0xA0 SHL SUB SWAP1 SWAP3 AND DUP3 MSTORE CALLER SWAP3 DUP3 ADD SWAP3 SWAP1 SWAP3 MSTORE SWAP2 DUP3 ADD DUP8 SWAP1 MSTORE PUSH1 0x60 DUP3 ADD MSTORE PUSH32 0x89F5ADC174562E07C9C9B1CAE7109BBECB21CF9D1B2847E550042B8653C54A0E SWAP2 POP PUSH1 0x80 ADD PUSH1 0x40 MLOAD DUP1 SWAP2 SUB SWAP1 LOG1 PUSH2 0x106F DUP5 PUSH2 0x19A2 JUMP JUMPDEST PUSH2 0x1078 DUP5 PUSH2 0x1A22 JUMP JUMPDEST POP POP POP POP JUMP JUMPDEST PUSH2 0x1086 PUSH2 0x1B4D JUMP JUMPDEST PUSH1 0x40 MLOAD SELFBALANCE SWAP1 CALLER SWAP1 DUP3 ISZERO PUSH2 0x8FC MUL SWAP1 DUP4 SWAP1 PUSH1 0x0 DUP2 DUP2 DUP2 DUP6 DUP9 DUP9 CALL SWAP4 POP POP POP POP ISZERO DUP1 ISZERO PUSH2 0x10B5 JUMPI RETURNDATASIZE PUSH1 0x0 DUP1 RETURNDATACOPY RETURNDATASIZE PUSH1 0x0 REVERT JUMPDEST POP PUSH1 0x40 DUP1 MLOAD CALLER DUP2 MSTORE PUSH1 0x20 DUP2 ADD DUP4 SWAP1 MSTORE PUSH32 0x2F15B7A52FC8A006876377705647ACBD22EED72DEC9B154AA290E286C06A3CD4 SWAP2 ADD PUSH2 0xD35 JUMP JUMPDEST PUSH1 0x60 DUP3 PUSH1 0x0 PUSH2 0x10FB DUP5 DUP4 PUSH2 0x221A JUMP JUMPDEST PUSH1 0x7 SLOAD SWAP1 SWAP2 POP DUP3 LT PUSH2 0x1142 JUMPI PUSH1 0x40 DUP1 MLOAD PUSH1 0x0 DUP1 DUP3 MSTORE PUSH1 0x20 DUP3 ADD SWAP1 SWAP3 MSTORE SWAP1 PUSH2 0x1138 JUMP JUMPDEST PUSH2 0x1125 PUSH2 0x1E59 JUMP JUMPDEST DUP2 MSTORE PUSH1 0x20 ADD SWAP1 PUSH1 0x1 SWAP1 SUB SWAP1 DUP2 PUSH2 0x111D JUMPI SWAP1 POP JUMPDEST POP SWAP3 POP POP POP PUSH2 0x12A1 JUMP JUMPDEST DUP5 ISZERO DUP1 ISZERO PUSH2 0x114E JUMPI POP DUP4 ISZERO JUMPDEST ISZERO PUSH2 0x1158 JUMPI POP PUSH1 0x7 SLOAD JUMPDEST PUSH1 0x7 SLOAD DUP2 GT ISZERO PUSH2 0x1167 JUMPI POP PUSH1 0x7 SLOAD JUMPDEST PUSH1 0x0 PUSH2 0x1173 DUP4 DUP4 PUSH2 0x222D JUMP JUMPDEST SWAP1 POP PUSH1 0x0 DUP1 DUP3 PUSH8 0xFFFFFFFFFFFFFFFF DUP2 GT ISZERO PUSH2 0x1191 JUMPI PUSH2 0x1191 PUSH2 0x2093 JUMP JUMPDEST PUSH1 0x40 MLOAD SWAP1 DUP1 DUP3 MSTORE DUP1 PUSH1 0x20 MUL PUSH1 0x20 ADD DUP3 ADD PUSH1 0x40 MSTORE DUP1 ISZERO PUSH2 0x11CA JUMPI DUP2 PUSH1 0x20 ADD JUMPDEST PUSH2 0x11B7 PUSH2 0x1E59 JUMP JUMPDEST DUP2 MSTORE PUSH1 0x20 ADD SWAP1 PUSH1 0x1 SWAP1 SUB SWAP1 DUP2 PUSH2 0x11AF JUMPI SWAP1 POP JUMPDEST POP SWAP1 POP DUP5 JUMPDEST DUP5 DUP2 LT ISZERO PUSH2 0x1299 JUMPI PUSH1 0x0 PUSH1 0x7 DUP3 DUP2 SLOAD DUP2 LT PUSH2 0x11EC JUMPI PUSH2 0x11EC PUSH2 0x21D5 JUMP JUMPDEST PUSH1 0x0 SWAP2 DUP3 MSTORE PUSH1 0x20 DUP1 DUP4 KECCAK256 SWAP1 SWAP2 ADD SLOAD PUSH1 0x40 DUP1 MLOAD PUSH1 0xA0 DUP2 ADD DUP3 MSTORE DUP3 DUP2 MSTORE DUP3 DUP6 MSTORE PUSH1 0x5 DUP1 DUP6 MSTORE DUP3 DUP7 KECCAK256 PUSH1 0x1 DUP2 ADD SLOAD PUSH1 0x1 PUSH1 0x1 PUSH1 0xA0 SHL SUB SWAP1 DUP2 AND DUP5 DUP9 ADD MSTORE PUSH1 0x2 DUP3 ADD SLOAD SWAP5 DUP5 ADD SWAP5 SWAP1 SWAP5 MSTORE PUSH1 0x3 DUP2 ADD SLOAD SWAP1 SWAP4 AND PUSH1 0x60 DUP4 ADD MSTORE SWAP5 DUP4 SWAP1 MSTORE SWAP4 SWAP1 SWAP3 MSTORE PUSH1 0x4 SWAP1 SWAP2 ADD SLOAD PUSH1 0x80 DUP4 ADD MSTORE DUP5 MLOAD SWAP1 SWAP3 POP DUP2 SWAP1 DUP6 SWAP1 DUP8 SWAP1 DUP2 LT PUSH2 0x126B JUMPI PUSH2 0x126B PUSH2 0x21D5 JUMP JUMPDEST PUSH1 0x20 MUL PUSH1 0x20 ADD ADD DUP2 SWAP1 MSTORE POP DUP5 DUP1 PUSH2 0x1281 SWAP1 PUSH2 0x2201 JUMP JUMPDEST SWAP6 POP POP POP POP DUP1 DUP1 PUSH2 0x1291 SWAP1 PUSH2 0x2201 JUMP JUMPDEST SWAP2 POP POP PUSH2 0x11CF JUMP JUMPDEST POP SWAP5 POP POP POP POP POP JUMPDEST SWAP3 SWAP2 POP POP JUMP JUMPDEST PUSH1 0x60 PUSH1 0x6 DUP1 SLOAD DUP1 PUSH1 0x20 MUL PUSH1 0x20 ADD PUSH1 0x40 MLOAD SWAP1 DUP2 ADD PUSH1 0x40 MSTORE DUP1 SWAP3 SWAP2 SWAP1 DUP2 DUP2 MSTORE PUSH1 0x20 ADD DUP3 DUP1 SLOAD DUP1 ISZERO PUSH2 0x12FF JUMPI PUSH1 0x20 MUL DUP3 ADD SWAP2 SWAP1 PUSH1 0x0 MSTORE PUSH1 0x20 PUSH1 0x0 KECCAK256 SWAP1 JUMPDEST DUP2 SLOAD PUSH1 0x1 PUSH1 0x1 PUSH1 0xA0 SHL SUB AND DUP2 MSTORE PUSH1 0x1 SWAP1 SWAP2 ADD SWAP1 PUSH1 0x20 ADD DUP1 DUP4 GT PUSH2 0x12E1 JUMPI JUMPDEST POP POP POP POP POP SWAP1 POP SWAP1 JUMP JUMPDEST PUSH2 0x1311 PUSH2 0x1B4D JUMP JUMPDEST PUSH2 0x131B PUSH1 0x0 PUSH2 0x1BA7 JUMP JUMPDEST JUMP JUMPDEST PUSH1 0x0 DUP1 JUMPDEST PUSH1 0x6 SLOAD DUP2 LT ISZERO PUSH2 0x1378 JUMPI PUSH1 0x6 DUP2 DUP2 SLOAD DUP2 LT PUSH2 0x133E JUMPI PUSH2 0x133E PUSH2 0x21D5 JUMP JUMPDEST PUSH1 0x0 SWAP2 DUP3 MSTORE PUSH1 0x20 SWAP1 SWAP2 KECCAK256 ADD SLOAD PUSH1 0x1 PUSH1 0x1 PUSH1 0xA0 SHL SUB SWAP1 DUP2 AND SWAP1 DUP5 AND SUB PUSH2 0x1366 JUMPI POP PUSH1 0x1 SWAP3 SWAP2 POP POP JUMP JUMPDEST DUP1 PUSH2 0x1370 DUP2 PUSH2 0x2201 JUMP JUMPDEST SWAP2 POP POP PUSH2 0x1321 JUMP JUMPDEST POP PUSH1 0x0 SWAP3 SWAP2 POP POP JUMP JUMPDEST PUSH1 0x0 SLOAD PUSH1 0x1 PUSH1 0xA0 SHL SWAP1 DIV PUSH1 0xFF AND ISZERO PUSH2 0x13AB JUMPI PUSH1 0x40 MLOAD PUSH3 0x461BCD PUSH1 0xE5 SHL DUP2 MSTORE PUSH1 0x4 ADD PUSH2 0x463 SWAP1 PUSH2 0x216E JUMP JUMPDEST PUSH1 0x1 SLOAD PUSH1 0x40 MLOAD PUSH4 0x31A9108F PUSH1 0xE1 SHL DUP2 MSTORE PUSH1 0x4 DUP2 ADD DUP6 SWAP1 MSTORE CALLER SWAP2 PUSH1 0x1 PUSH1 0x1 PUSH1 0xA0 SHL SUB AND SWAP1 PUSH4 0x6352211E SWAP1 PUSH1 0x24 ADD PUSH1 0x20 PUSH1 0x40 MLOAD DUP1 DUP4 SUB DUP2 DUP7 GAS STATICCALL ISZERO DUP1 ISZERO PUSH2 0x13F4 JUMPI RETURNDATASIZE PUSH1 0x0 DUP1 RETURNDATACOPY RETURNDATASIZE PUSH1 0x0 REVERT JUMPDEST POP POP POP POP PUSH1 0x40 MLOAD RETURNDATASIZE PUSH1 0x1F NOT PUSH1 0x1F DUP3 ADD AND DUP3 ADD DUP1 PUSH1 0x40 MSTORE POP DUP2 ADD SWAP1 PUSH2 0x1418 SWAP2 SWAP1 PUSH2 0x2240 JUMP JUMPDEST PUSH1 0x1 PUSH1 0x1 PUSH1 0xA0 SHL SUB AND EQ PUSH2 0x146E JUMPI PUSH1 0x40 MLOAD PUSH3 0x461BCD PUSH1 0xE5 SHL DUP2 MSTORE PUSH1 0x20 PUSH1 0x4 DUP3 ADD MSTORE PUSH1 0x19 PUSH1 0x24 DUP3 ADD MSTORE PUSH32 0x596F7520646F6E2774206F776E207468697320746F6B656E2100000000000000 PUSH1 0x44 DUP3 ADD MSTORE PUSH1 0x64 ADD PUSH2 0x463 JUMP JUMPDEST PUSH1 0x0 DUP3 GT PUSH2 0x14BE JUMPI PUSH1 0x40 MLOAD PUSH3 0x461BCD PUSH1 0xE5 SHL DUP2 MSTORE PUSH1 0x20 PUSH1 0x4 DUP3 ADD MSTORE PUSH1 0x1F PUSH1 0x24 DUP3 ADD MSTORE PUSH32 0x5072696365206D7573742062652067726561746572207468616E207A65726F00 PUSH1 0x44 DUP3 ADD MSTORE PUSH1 0x64 ADD PUSH2 0x463 JUMP JUMPDEST PUSH1 0x1 PUSH1 0x1 PUSH1 0xA0 SHL SUB DUP2 AND ISZERO PUSH2 0x153C JUMPI PUSH2 0x14D6 DUP2 PUSH2 0x131D JUMP JUMPDEST ISZERO ISZERO PUSH1 0x1 EQ PUSH2 0x153C JUMPI PUSH1 0x40 MLOAD PUSH3 0x461BCD PUSH1 0xE5 SHL DUP2 MSTORE PUSH1 0x20 PUSH1 0x4 DUP3 ADD MSTORE PUSH1 0x2C PUSH1 0x24 DUP3 ADD MSTORE PUSH32 0x54686973204552433230206E6F7420616C6C6F77656420617320612074726164 PUSH1 0x44 DUP3 ADD MSTORE PUSH12 0x696E672063757272656E6379 PUSH1 0xA0 SHL PUSH1 0x64 DUP3 ADD MSTORE PUSH1 0x84 ADD PUSH2 0x463 JUMP JUMPDEST PUSH1 0x0 DUP4 DUP2 MSTORE PUSH1 0x4 PUSH1 0x20 DUP2 DUP2 MSTORE PUSH1 0x40 DUP1 DUP5 KECCAK256 DUP1 SLOAD PUSH1 0xFF NOT AND PUSH1 0x1 SWAP1 DUP2 OR SWAP1 SWAP2 SSTORE DUP2 MLOAD PUSH1 0xA0 DUP2 ADD DUP4 MSTORE DUP9 DUP2 MSTORE CALLER DUP2 DUP6 ADD DUP2 DUP2 MSTORE DUP3 DUP6 ADD DUP11 DUP2 MSTORE PUSH1 0x1 PUSH1 0x1 PUSH1 0xA0 SHL SUB DUP11 DUP2 AND PUSH1 0x60 DUP7 ADD SWAP1 DUP2 MSTORE TIMESTAMP PUSH1 0x80 DUP8 ADD SWAP1 DUP2 MSTORE DUP15 DUP13 MSTORE PUSH1 0x5 SWAP1 SWAP10 MSTORE SWAP10 DUP8 SWAP1 KECCAK256 SWAP5 MLOAD DUP6 SSTORE SWAP2 MLOAD DUP5 DUP7 ADD DUP1 SLOAD SWAP2 DUP5 AND PUSH1 0x1 PUSH1 0x1 PUSH1 0xA0 SHL SUB NOT SWAP3 DUP4 AND OR SWAP1 SSTORE SWAP1 MLOAD PUSH1 0x2 DUP6 ADD SSTORE SWAP8 MLOAD PUSH1 0x3 DUP5 ADD DUP1 SLOAD SWAP2 DUP4 AND SWAP2 SWAP1 SWAP10 AND OR SWAP1 SWAP8 SSTORE SWAP4 MLOAD SWAP1 DUP6 ADD SSTORE SLOAD SWAP1 MLOAD PUSH4 0x23B872DD PUSH1 0xE0 SHL DUP2 MSTORE SWAP4 AND SWAP3 PUSH4 0x23B872DD SWAP3 PUSH2 0x15FB SWAP3 SWAP2 ADDRESS SWAP2 DUP10 SWAP2 ADD PUSH2 0x21B1 JUMP JUMPDEST PUSH1 0x0 PUSH1 0x40 MLOAD DUP1 DUP4 SUB DUP2 PUSH1 0x0 DUP8 DUP1 EXTCODESIZE ISZERO DUP1 ISZERO PUSH2 0x1615 JUMPI PUSH1 0x0 DUP1 REVERT JUMPDEST POP GAS CALL ISZERO DUP1 ISZERO PUSH2 0x1629 JUMPI RETURNDATASIZE PUSH1 0x0 DUP1 RETURNDATACOPY RETURNDATASIZE PUSH1 0x0 REVERT JUMPDEST POP POP POP POP PUSH2 0x1666 DUP4 PUSH1 0x7 DUP1 SLOAD PUSH1 0x1 DUP2 ADD DUP3 SSTORE PUSH1 0x0 SWAP2 SWAP1 SWAP2 MSTORE PUSH32 0xA66CC928B5EDB82AF9BD49922954155AB7B0942694BEA4CE44661D9A8736C688 ADD SSTORE JUMP JUMPDEST PUSH1 0x1 PUSH1 0x1 PUSH1 0xA0 SHL SUB DUP2 AND PUSH2 0x16CD JUMPI PUSH1 0x40 DUP1 MLOAD CALLER DUP2 MSTORE PUSH1 0x20 DUP2 ADD DUP6 SWAP1 MSTORE PUSH1 0x1 PUSH1 0x1 PUSH1 0xA0 SHL SUB DUP4 AND SWAP2 DUP2 ADD SWAP2 SWAP1 SWAP2 MSTORE PUSH1 0x60 DUP2 ADD DUP4 SWAP1 MSTORE PUSH32 0xA4292E75F7EAFDE90821610C4CABFC298540C274B50A7EA784A529A2B8A4A6F SWAP1 PUSH1 0x80 ADD JUMPDEST PUSH1 0x40 MLOAD DUP1 SWAP2 SUB SWAP1 LOG1 POP POP POP JUMP JUMPDEST PUSH1 0x40 DUP1 MLOAD CALLER DUP2 MSTORE PUSH1 0x20 DUP2 ADD DUP6 SWAP1 MSTORE SWAP1 DUP2 ADD DUP4 SWAP1 MSTORE PUSH32 0x4524387B4311078B7531910A140A6975002B10ACA4CF12255E98DA8F1FF1B35B SWAP1 PUSH1 0x60 ADD PUSH2 0x16C0 JUMP JUMPDEST POP POP POP JUMP JUMPDEST PUSH1 0x60 PUSH2 0x171B CALLER PUSH2 0x907 JUMP JUMPDEST SWAP1 POP SWAP1 JUMP JUMPDEST PUSH2 0x1728 PUSH2 0x1B4D JUMP JUMPDEST DUP1 MLOAD PUSH2 0x173B SWAP1 PUSH1 0x6 SWAP1 PUSH1 0x20 DUP5 ADD SWAP1 PUSH2 0x1E9A JUMP JUMPDEST POP POP JUMP JUMPDEST PUSH2 0x1747 PUSH2 0x1B4D JUMP JUMPDEST PUSH1 0x8 DUP1 SLOAD PUSH1 0x1 PUSH1 0x1 PUSH1 0xA0 SHL SUB NOT AND PUSH1 0x1 PUSH1 0x1 PUSH1 0xA0 SHL SUB SWAP3 SWAP1 SWAP3 AND SWAP2 SWAP1 SWAP2 OR SWAP1 SSTORE JUMP JUMPDEST PUSH2 0x1771 PUSH2 0x1B4D JUMP JUMPDEST PUSH1 0x1 PUSH1 0x1 PUSH1 0xA0 SHL SUB DUP2 AND PUSH2 0x17D6 JUMPI PUSH1 0x40 MLOAD PUSH3 0x461BCD PUSH1 0xE5 SHL DUP2 MSTORE PUSH1 0x20 PUSH1 0x4 DUP3 ADD MSTORE PUSH1 0x26 PUSH1 0x24 DUP3 ADD MSTORE PUSH32 0x4F776E61626C653A206E6577206F776E657220697320746865207A65726F2061 PUSH1 0x44 DUP3 ADD MSTORE PUSH6 0x646472657373 PUSH1 0xD0 SHL PUSH1 0x64 DUP3 ADD MSTORE PUSH1 0x84 ADD PUSH2 0x463 JUMP JUMPDEST PUSH2 0x17DF DUP2 PUSH2 0x1BA7 JUMP JUMPDEST POP JUMP JUMPDEST PUSH2 0x17EA PUSH2 0x1B4D JUMP JUMPDEST PUSH1 0x40 MLOAD PUSH4 0x70A08231 PUSH1 0xE0 SHL DUP2 MSTORE ADDRESS PUSH1 0x4 DUP3 ADD MSTORE DUP2 SWAP1 PUSH1 0x0 SWAP1 PUSH1 0x1 PUSH1 0x1 PUSH1 0xA0 SHL SUB DUP4 AND SWAP1 PUSH4 0x70A08231 SWAP1 PUSH1 0x24 ADD PUSH1 0x20 PUSH1 0x40 MLOAD DUP1 DUP4 SUB DUP2 DUP7 GAS STATICCALL ISZERO DUP1 ISZERO PUSH2 0x1833 JUMPI RETURNDATASIZE PUSH1 0x0 DUP1 RETURNDATACOPY RETURNDATASIZE PUSH1 0x0 REVERT JUMPDEST POP POP POP POP PUSH1 0x40 MLOAD RETURNDATASIZE PUSH1 0x1F NOT PUSH1 0x1F DUP3 ADD AND DUP3 ADD DUP1 PUSH1 0x40 MSTORE POP DUP2 ADD SWAP1 PUSH2 0x1857 SWAP2 SWAP1 PUSH2 0x2198 JUMP JUMPDEST SWAP1 POP DUP2 PUSH1 0x1 PUSH1 0x1 PUSH1 0xA0 SHL SUB AND PUSH4 0xA9059CBB PUSH2 0x187A PUSH1 0x0 SLOAD PUSH1 0x1 PUSH1 0x1 PUSH1 0xA0 SHL SUB AND SWAP1 JUMP JUMPDEST PUSH1 0x40 MLOAD PUSH1 0x1 PUSH1 0x1 PUSH1 0xE0 SHL SUB NOT PUSH1 0xE0 DUP5 SWAP1 SHL AND DUP2 MSTORE PUSH1 0x1 PUSH1 0x1 PUSH1 0xA0 SHL SUB SWAP1 SWAP2 AND PUSH1 0x4 DUP3 ADD MSTORE PUSH1 0x24 DUP2 ADD DUP5 SWAP1 MSTORE PUSH1 0x44 ADD PUSH1 0x20 PUSH1 0x40 MLOAD DUP1 DUP4 SUB DUP2 PUSH1 0x0 DUP8 GAS CALL ISZERO DUP1 ISZERO PUSH2 0x18C7 JUMPI RETURNDATASIZE PUSH1 0x0 DUP1 RETURNDATACOPY RETURNDATASIZE PUSH1 0x0 REVERT JUMPDEST POP POP POP POP PUSH1 0x40 MLOAD RETURNDATASIZE PUSH1 0x1F NOT PUSH1 0x1F DUP3 ADD AND DUP3 ADD DUP1 PUSH1 0x40 MSTORE POP DUP2 ADD SWAP1 PUSH2 0x18EB SWAP2 SWAP1 PUSH2 0x225D JUMP JUMPDEST POP PUSH32 0x33C35F9541201E342D5E7467016E65A0A06182EB12A5F17103F71CEC95B6CB29 CALLER DUP5 DUP4 PUSH1 0x40 MLOAD PUSH2 0x16C0 SWAP4 SWAP3 SWAP2 SWAP1 PUSH2 0x21B1 JUMP JUMPDEST PUSH1 0x0 PUSH2 0x192B DUP3 DUP5 PUSH2 0x227F JUMP JUMPDEST SWAP4 SWAP3 POP POP POP JUMP JUMPDEST PUSH1 0x0 PUSH2 0x192B DUP3 DUP5 PUSH2 0x22A1 JUMP JUMPDEST PUSH1 0x0 PUSH2 0x192B DUP3 DUP5 PUSH2 0x222D JUMP JUMPDEST PUSH2 0x1078 DUP5 PUSH4 0x23B872DD PUSH1 0xE0 SHL DUP6 DUP6 DUP6 PUSH1 0x40 MLOAD PUSH1 0x24 ADD PUSH2 0x196B SWAP4 SWAP3 SWAP2 SWAP1 PUSH2 0x21B1 JUMP JUMPDEST PUSH1 0x40 DUP1 MLOAD PUSH1 0x1F NOT DUP2 DUP5 SUB ADD DUP2 MSTORE SWAP2 SWAP1 MSTORE PUSH1 0x20 DUP2 ADD DUP1 MLOAD PUSH1 0x1 PUSH1 0x1 PUSH1 0xE0 SHL SUB AND PUSH1 0x1 PUSH1 0x1 PUSH1 0xE0 SHL SUB NOT SWAP1 SWAP4 AND SWAP3 SWAP1 SWAP3 OR SWAP1 SWAP2 MSTORE PUSH2 0x1BF7 JUMP JUMPDEST PUSH1 0x40 DUP1 MLOAD PUSH1 0xA0 DUP2 ADD DUP3 MSTORE PUSH1 0x0 DUP1 DUP3 MSTORE PUSH1 0x20 DUP1 DUP4 ADD DUP3 DUP2 MSTORE DUP4 DUP6 ADD DUP4 DUP2 MSTORE PUSH1 0x60 DUP6 ADD DUP5 DUP2 MSTORE PUSH1 0x80 DUP7 ADD DUP6 DUP2 MSTORE SWAP8 DUP6 MSTORE PUSH1 0x5 SWAP1 SWAP4 MSTORE SWAP5 SWAP1 SWAP3 KECCAK256 SWAP3 MLOAD DUP4 SSTORE SWAP1 MLOAD PUSH1 0x1 DUP4 ADD DUP1 SLOAD PUSH1 0x1 PUSH1 0x1 PUSH1 0xA0 SHL SUB NOT SWAP1 DUP2 AND PUSH1 0x1 PUSH1 0x1 PUSH1 0xA0 SHL SUB SWAP4 DUP5 AND OR SWAP1 SWAP2 SSTORE SWAP4 MLOAD PUSH1 0x2 DUP5 ADD SSTORE SWAP1 MLOAD PUSH1 0x3 DUP4 ADD DUP1 SLOAD SWAP1 SWAP5 AND SWAP2 AND OR SWAP1 SWAP2 SSTORE SWAP1 MLOAD PUSH1 0x4 SWAP1 SWAP2 ADD SSTORE JUMP JUMPDEST PUSH1 0x7 DUP1 SLOAD DUP3 SWAP2 SWAP1 PUSH2 0x1A35 SWAP1 PUSH1 0x1 SWAP1 PUSH2 0x222D JUMP JUMPDEST DUP2 SLOAD DUP2 LT PUSH2 0x1A45 JUMPI PUSH2 0x1A45 PUSH2 0x21D5 JUMP JUMPDEST SWAP1 PUSH1 0x0 MSTORE PUSH1 0x20 PUSH1 0x0 KECCAK256 ADD SLOAD SUB PUSH2 0x1A7F JUMPI PUSH1 0x7 DUP1 SLOAD DUP1 PUSH2 0x1A66 JUMPI PUSH2 0x1A66 PUSH2 0x22B8 JUMP JUMPDEST PUSH1 0x1 SWAP1 SUB DUP2 DUP2 SWAP1 PUSH1 0x0 MSTORE PUSH1 0x20 PUSH1 0x0 KECCAK256 ADD PUSH1 0x0 SWAP1 SSTORE SWAP1 SSTORE POP JUMP JUMPDEST PUSH1 0x0 DUP1 DUP1 JUMPDEST PUSH1 0x7 SLOAD DUP2 LT ISZERO PUSH2 0x1AD0 JUMPI DUP4 PUSH1 0x7 DUP3 DUP2 SLOAD DUP2 LT PUSH2 0x1AA2 JUMPI PUSH2 0x1AA2 PUSH2 0x21D5 JUMP JUMPDEST SWAP1 PUSH1 0x0 MSTORE PUSH1 0x20 PUSH1 0x0 KECCAK256 ADD SLOAD SUB PUSH2 0x1ABE JUMPI PUSH1 0x1 SWAP3 POP DUP1 SWAP2 POP PUSH2 0x1AD0 JUMP JUMPDEST DUP1 PUSH2 0x1AC8 DUP2 PUSH2 0x2201 JUMP JUMPDEST SWAP2 POP POP PUSH2 0x1A84 JUMP JUMPDEST POP DUP2 ISZERO PUSH2 0x170B JUMPI PUSH1 0x7 DUP1 SLOAD PUSH2 0x1AE7 SWAP1 PUSH1 0x1 SWAP1 PUSH2 0x222D JUMP JUMPDEST DUP2 SLOAD DUP2 LT PUSH2 0x1AF7 JUMPI PUSH2 0x1AF7 PUSH2 0x21D5 JUMP JUMPDEST SWAP1 PUSH1 0x0 MSTORE PUSH1 0x20 PUSH1 0x0 KECCAK256 ADD SLOAD PUSH1 0x7 DUP3 DUP2 SLOAD DUP2 LT PUSH2 0x1B15 JUMPI PUSH2 0x1B15 PUSH2 0x21D5 JUMP JUMPDEST PUSH1 0x0 SWAP2 DUP3 MSTORE PUSH1 0x20 SWAP1 SWAP2 KECCAK256 ADD SSTORE PUSH1 0x7 DUP1 SLOAD DUP1 PUSH2 0x1B32 JUMPI PUSH2 0x1B32 PUSH2 0x22B8 JUMP JUMPDEST PUSH1 0x1 SWAP1 SUB DUP2 DUP2 SWAP1 PUSH1 0x0 MSTORE PUSH1 0x20 PUSH1 0x0 KECCAK256 ADD PUSH1 0x0 SWAP1 SSTORE SWAP1 SSTORE POP POP POP JUMP JUMPDEST PUSH1 0x0 SLOAD PUSH1 0x1 PUSH1 0x1 PUSH1 0xA0 SHL SUB AND CALLER EQ PUSH2 0x131B JUMPI PUSH1 0x40 MLOAD PUSH3 0x461BCD PUSH1 0xE5 SHL DUP2 MSTORE PUSH1 0x20 PUSH1 0x4 DUP3 ADD DUP2 SWAP1 MSTORE PUSH1 0x24 DUP3 ADD MSTORE PUSH32 0x4F776E61626C653A2063616C6C6572206973206E6F7420746865206F776E6572 PUSH1 0x44 DUP3 ADD MSTORE PUSH1 0x64 ADD PUSH2 0x463 JUMP JUMPDEST PUSH1 0x0 DUP1 SLOAD PUSH1 0x1 PUSH1 0x1 PUSH1 0xA0 SHL SUB DUP4 DUP2 AND PUSH1 0x1 PUSH1 0x1 PUSH1 0xA0 SHL SUB NOT DUP4 AND DUP2 OR DUP5 SSTORE PUSH1 0x40 MLOAD SWAP2 SWAP1 SWAP3 AND SWAP3 DUP4 SWAP2 PUSH32 0x8BE0079C531659141344CD1FD0A4F28419497F9722A3DAAFE3B4186F6B6457E0 SWAP2 SWAP1 LOG3 POP POP JUMP JUMPDEST PUSH1 0x0 PUSH2 0x1C4C DUP3 PUSH1 0x40 MLOAD DUP1 PUSH1 0x40 ADD PUSH1 0x40 MSTORE DUP1 PUSH1 0x20 DUP2 MSTORE PUSH1 0x20 ADD PUSH32 0x5361666545524332303A206C6F772D6C6576656C2063616C6C206661696C6564 DUP2 MSTORE POP DUP6 PUSH1 0x1 PUSH1 0x1 PUSH1 0xA0 SHL SUB AND PUSH2 0x1CC9 SWAP1 SWAP3 SWAP2 SWAP1 PUSH4 0xFFFFFFFF AND JUMP JUMPDEST DUP1 MLOAD SWAP1 SWAP2 POP ISZERO PUSH2 0x170B JUMPI DUP1 DUP1 PUSH1 0x20 ADD SWAP1 MLOAD DUP2 ADD SWAP1 PUSH2 0x1C6A SWAP2 SWAP1 PUSH2 0x225D JUMP JUMPDEST PUSH2 0x170B JUMPI PUSH1 0x40 MLOAD PUSH3 0x461BCD PUSH1 0xE5 SHL DUP2 MSTORE PUSH1 0x20 PUSH1 0x4 DUP3 ADD MSTORE PUSH1 0x2A PUSH1 0x24 DUP3 ADD MSTORE PUSH32 0x5361666545524332303A204552433230206F7065726174696F6E20646964206E PUSH1 0x44 DUP3 ADD MSTORE PUSH10 0x1BDD081CDD58D8D95959 PUSH1 0xB2 SHL PUSH1 0x64 DUP3 ADD MSTORE PUSH1 0x84 ADD PUSH2 0x463 JUMP JUMPDEST PUSH1 0x60 PUSH2 0x1CD8 DUP5 DUP5 PUSH1 0x0 DUP6 PUSH2 0x1CE0 JUMP JUMPDEST SWAP5 SWAP4 POP POP POP POP JUMP JUMPDEST PUSH1 0x60 DUP3 SELFBALANCE LT ISZERO PUSH2 0x1D41 JUMPI PUSH1 0x40 MLOAD PUSH3 0x461BCD PUSH1 0xE5 SHL DUP2 MSTORE PUSH1 0x20 PUSH1 0x4 DUP3 ADD MSTORE PUSH1 0x26 PUSH1 0x24 DUP3 ADD MSTORE PUSH32 0x416464726573733A20696E73756666696369656E742062616C616E636520666F PUSH1 0x44 DUP3 ADD MSTORE PUSH6 0x1C8818D85B1B PUSH1 0xD2 SHL PUSH1 0x64 DUP3 ADD MSTORE PUSH1 0x84 ADD PUSH2 0x463 JUMP JUMPDEST PUSH1 0x0 DUP1 DUP7 PUSH1 0x1 PUSH1 0x1 PUSH1 0xA0 SHL SUB AND DUP6 DUP8 PUSH1 0x40 MLOAD PUSH2 0x1D5D SWAP2 SWAP1 PUSH2 0x22F2 JUMP JUMPDEST PUSH1 0x0 PUSH1 0x40 MLOAD DUP1 DUP4 SUB DUP2 DUP6 DUP8 GAS CALL SWAP3 POP POP POP RETURNDATASIZE DUP1 PUSH1 0x0 DUP2 EQ PUSH2 0x1D9A JUMPI PUSH1 0x40 MLOAD SWAP2 POP PUSH1 0x1F NOT PUSH1 0x3F RETURNDATASIZE ADD AND DUP3 ADD PUSH1 0x40 MSTORE RETURNDATASIZE DUP3 MSTORE RETURNDATASIZE PUSH1 0x0 PUSH1 0x20 DUP5 ADD RETURNDATACOPY PUSH2 0x1D9F JUMP JUMPDEST PUSH1 0x60 SWAP2 POP JUMPDEST POP SWAP2 POP SWAP2 POP PUSH2 0x1DB0 DUP8 DUP4 DUP4 DUP8 PUSH2 0x1DBB JUMP JUMPDEST SWAP8 SWAP7 POP POP POP POP POP POP POP JUMP JUMPDEST PUSH1 0x60 DUP4 ISZERO PUSH2 0x1E2A JUMPI DUP3 MLOAD PUSH1 0x0 SUB PUSH2 0x1E23 JUMPI PUSH1 0x1 PUSH1 0x1 PUSH1 0xA0 SHL SUB DUP6 AND EXTCODESIZE PUSH2 0x1E23 JUMPI PUSH1 0x40 MLOAD PUSH3 0x461BCD PUSH1 0xE5 SHL DUP2 MSTORE PUSH1 0x20 PUSH1 0x4 DUP3 ADD MSTORE PUSH1 0x1D PUSH1 0x24 DUP3 ADD MSTORE PUSH32 0x416464726573733A2063616C6C20746F206E6F6E2D636F6E7472616374000000 PUSH1 0x44 DUP3 ADD MSTORE PUSH1 0x64 ADD PUSH2 0x463 JUMP JUMPDEST POP DUP2 PUSH2 0x1CD8 JUMP JUMPDEST PUSH2 0x1CD8 DUP4 DUP4 DUP2 MLOAD ISZERO PUSH2 0x1E3F JUMPI DUP2 MLOAD DUP1 DUP4 PUSH1 0x20 ADD REVERT JUMPDEST DUP1 PUSH1 0x40 MLOAD PUSH3 0x461BCD PUSH1 0xE5 SHL DUP2 MSTORE PUSH1 0x4 ADD PUSH2 0x463 SWAP2 SWAP1 PUSH2 0x230E JUMP JUMPDEST PUSH1 0x40 MLOAD DUP1 PUSH1 0xA0 ADD PUSH1 0x40 MSTORE DUP1 PUSH1 0x0 DUP2 MSTORE PUSH1 0x20 ADD PUSH1 0x0 PUSH1 0x1 PUSH1 0x1 PUSH1 0xA0 SHL SUB AND DUP2 MSTORE PUSH1 0x20 ADD PUSH1 0x0 DUP2 MSTORE PUSH1 0x20 ADD PUSH1 0x0 PUSH1 0x1 PUSH1 0x1 PUSH1 0xA0 SHL SUB AND DUP2 MSTORE PUSH1 0x20 ADD PUSH1 0x0 DUP2 MSTORE POP SWAP1 JUMP JUMPDEST DUP3 DUP1 SLOAD DUP3 DUP3 SSTORE SWAP1 PUSH1 0x0 MSTORE PUSH1 0x20 PUSH1 0x0 KECCAK256 SWAP1 DUP2 ADD SWAP3 DUP3 ISZERO PUSH2 0x1EEF JUMPI SWAP2 PUSH1 0x20 MUL DUP3 ADD JUMPDEST DUP3 DUP2 GT ISZERO PUSH2 0x1EEF JUMPI DUP3 MLOAD DUP3 SLOAD PUSH1 0x1 PUSH1 0x1 PUSH1 0xA0 SHL SUB NOT AND PUSH1 0x1 PUSH1 0x1 PUSH1 0xA0 SHL SUB SWAP1 SWAP2 AND OR DUP3 SSTORE PUSH1 0x20 SWAP1 SWAP3 ADD SWAP2 PUSH1 0x1 SWAP1 SWAP2 ADD SWAP1 PUSH2 0x1EBA JUMP JUMPDEST POP PUSH2 0x1EFB SWAP3 SWAP2 POP PUSH2 0x1EFF JUMP JUMPDEST POP SWAP1 JUMP JUMPDEST JUMPDEST DUP1 DUP3 GT ISZERO PUSH2 0x1EFB JUMPI PUSH1 0x0 DUP2 SSTORE PUSH1 0x1 ADD PUSH2 0x1F00 JUMP JUMPDEST PUSH1 0x0 PUSH1 0x20 DUP3 DUP5 SUB SLT ISZERO PUSH2 0x1F26 JUMPI PUSH1 0x0 DUP1 REVERT JUMPDEST POP CALLDATALOAD SWAP2 SWAP1 POP JUMP JUMPDEST PUSH1 0x1 PUSH1 0x1 PUSH1 0xA0 SHL SUB DUP2 AND DUP2 EQ PUSH2 0x17DF JUMPI PUSH1 0x0 DUP1 REVERT JUMPDEST DUP1 CALLDATALOAD PUSH2 0x1F4D DUP2 PUSH2 0x1F2D JUMP JUMPDEST SWAP2 SWAP1 POP JUMP JUMPDEST PUSH1 0x0 PUSH1 0x20 DUP3 DUP5 SUB SLT ISZERO PUSH2 0x1F64 JUMPI PUSH1 0x0 DUP1 REVERT JUMPDEST DUP2 CALLDATALOAD PUSH2 0x192B DUP2 PUSH2 0x1F2D JUMP JUMPDEST PUSH1 0x20 DUP1 DUP3 MSTORE DUP3 MLOAD DUP3 DUP3 ADD DUP2 SWAP1 MSTORE PUSH1 0x0 SWAP2 SWAP1 PUSH1 0x40 SWAP1 DUP2 DUP6 ADD SWAP1 DUP7 DUP5 ADD DUP6 JUMPDEST DUP3 DUP2 LT ISZERO PUSH2 0x1FDE JUMPI DUP2 MLOAD DUP1 MLOAD DUP6 MSTORE DUP7 DUP2 ADD MLOAD PUSH1 0x1 PUSH1 0x1 PUSH1 0xA0 SHL SUB SWAP1 DUP2 AND DUP9 DUP8 ADD MSTORE DUP7 DUP3 ADD MLOAD DUP8 DUP8 ADD MSTORE PUSH1 0x60 DUP1 DUP4 ADD MLOAD SWAP1 SWAP2 AND SWAP1 DUP7 ADD MSTORE PUSH1 0x80 SWAP1 DUP2 ADD MLOAD SWAP1 DUP6 ADD MSTORE PUSH1 0xA0 SWAP1 SWAP4 ADD SWAP3 SWAP1 DUP6 ADD SWAP1 PUSH1 0x1 ADD PUSH2 0x1F8C JUMP JUMPDEST POP SWAP2 SWAP8 SWAP7 POP POP POP POP POP POP POP JUMP JUMPDEST PUSH1 0x0 DUP1 PUSH1 0x40 DUP4 DUP6 SUB SLT ISZERO PUSH2 0x1FFE JUMPI PUSH1 0x0 DUP1 REVERT JUMPDEST POP POP DUP1 CALLDATALOAD SWAP3 PUSH1 0x20 SWAP1 SWAP2 ADD CALLDATALOAD SWAP2 POP JUMP JUMPDEST PUSH1 0x20 DUP1 DUP3 MSTORE DUP3 MLOAD DUP3 DUP3 ADD DUP2 SWAP1 MSTORE PUSH1 0x0 SWAP2 SWAP1 DUP5 DUP3 ADD SWAP1 PUSH1 0x40 DUP6 ADD SWAP1 DUP5 JUMPDEST DUP2 DUP2 LT ISZERO PUSH2 0x204E JUMPI DUP4 MLOAD PUSH1 0x1 PUSH1 0x1 PUSH1 0xA0 SHL SUB AND DUP4 MSTORE SWAP3 DUP5 ADD SWAP3 SWAP2 DUP5 ADD SWAP2 PUSH1 0x1 ADD PUSH2 0x2029 JUMP JUMPDEST POP SWAP1 SWAP7 SWAP6 POP POP POP POP POP POP JUMP JUMPDEST PUSH1 0x0 DUP1 PUSH1 0x0 PUSH1 0x60 DUP5 DUP7 SUB SLT ISZERO PUSH2 0x206F JUMPI PUSH1 0x0 DUP1 REVERT JUMPDEST DUP4 CALLDATALOAD SWAP3 POP PUSH1 0x20 DUP5 ADD CALLDATALOAD SWAP2 POP PUSH1 0x40 DUP5 ADD CALLDATALOAD PUSH2 0x2088 DUP2 PUSH2 0x1F2D JUMP JUMPDEST DUP1 SWAP2 POP POP SWAP3 POP SWAP3 POP SWAP3 JUMP JUMPDEST PUSH4 0x4E487B71 PUSH1 0xE0 SHL PUSH1 0x0 MSTORE PUSH1 0x41 PUSH1 0x4 MSTORE PUSH1 0x24 PUSH1 0x0 REVERT JUMPDEST PUSH1 0x0 PUSH1 0x20 DUP1 DUP4 DUP6 SUB SLT ISZERO PUSH2 0x20BC JUMPI PUSH1 0x0 DUP1 REVERT JUMPDEST DUP3 CALLDATALOAD PUSH8 0xFFFFFFFFFFFFFFFF DUP1 DUP3 GT ISZERO PUSH2 0x20D4 JUMPI PUSH1 0x0 DUP1 REVERT JUMPDEST DUP2 DUP6 ADD SWAP2 POP DUP6 PUSH1 0x1F DUP4 ADD SLT PUSH2 0x20E8 JUMPI PUSH1 0x0 DUP1 REVERT JUMPDEST DUP2 CALLDATALOAD DUP2 DUP2 GT ISZERO PUSH2 0x20FA JUMPI PUSH2 0x20FA PUSH2 0x2093 JUMP JUMPDEST DUP1 PUSH1 0x5 SHL PUSH1 0x40 MLOAD PUSH1 0x1F NOT PUSH1 0x3F DUP4 ADD AND DUP2 ADD DUP2 DUP2 LT DUP6 DUP3 GT OR ISZERO PUSH2 0x211F JUMPI PUSH2 0x211F PUSH2 0x2093 JUMP JUMPDEST PUSH1 0x40 MSTORE SWAP2 DUP3 MSTORE DUP5 DUP3 ADD SWAP3 POP DUP4 DUP2 ADD DUP6 ADD SWAP2 DUP9 DUP4 GT ISZERO PUSH2 0x213D JUMPI PUSH1 0x0 DUP1 REVERT JUMPDEST SWAP4 DUP6 ADD SWAP4 JUMPDEST DUP3 DUP6 LT ISZERO PUSH2 0x2162 JUMPI PUSH2 0x2153 DUP6 PUSH2 0x1F42 JUMP JUMPDEST DUP5 MSTORE SWAP4 DUP6 ADD SWAP4 SWAP3 DUP6 ADD SWAP3 PUSH2 0x2142 JUMP JUMPDEST SWAP9 SWAP8 POP POP POP POP POP POP POP POP JUMP JUMPDEST PUSH1 0x20 DUP1 DUP3 MSTORE PUSH1 0x10 SWAP1 DUP3 ADD MSTORE PUSH16 0x14185D5CD8589B194E881C185D5CD959 PUSH1 0x82 SHL PUSH1 0x40 DUP3 ADD MSTORE PUSH1 0x60 ADD SWAP1 JUMP JUMPDEST PUSH1 0x0 PUSH1 0x20 DUP3 DUP5 SUB SLT ISZERO PUSH2 0x21AA JUMPI PUSH1 0x0 DUP1 REVERT JUMPDEST POP MLOAD SWAP2 SWAP1 POP JUMP JUMPDEST PUSH1 0x1 PUSH1 0x1 PUSH1 0xA0 SHL SUB SWAP4 DUP5 AND DUP2 MSTORE SWAP2 SWAP1 SWAP3 AND PUSH1 0x20 DUP3 ADD MSTORE PUSH1 0x40 DUP2 ADD SWAP2 SWAP1 SWAP2 MSTORE PUSH1 0x60 ADD SWAP1 JUMP JUMPDEST PUSH4 0x4E487B71 PUSH1 0xE0 SHL PUSH1 0x0 MSTORE PUSH1 0x32 PUSH1 0x4 MSTORE PUSH1 0x24 PUSH1 0x0 REVERT JUMPDEST PUSH4 0x4E487B71 PUSH1 0xE0 SHL PUSH1 0x0 MSTORE PUSH1 0x11 PUSH1 0x4 MSTORE PUSH1 0x24 PUSH1 0x0 REVERT JUMPDEST PUSH1 0x0 PUSH1 0x1 DUP3 ADD PUSH2 0x2213 JUMPI PUSH2 0x2213 PUSH2 0x21EB JUMP JUMPDEST POP PUSH1 0x1 ADD SWAP1 JUMP JUMPDEST DUP1 DUP3 ADD DUP1 DUP3 GT ISZERO PUSH2 0x12A1 JUMPI PUSH2 0x12A1 PUSH2 0x21EB JUMP JUMPDEST DUP2 DUP2 SUB DUP2 DUP2 GT ISZERO PUSH2 0x12A1 JUMPI PUSH2 0x12A1 PUSH2 0x21EB JUMP JUMPDEST PUSH1 0x0 PUSH1 0x20 DUP3 DUP5 SUB SLT ISZERO PUSH2 0x2252 JUMPI PUSH1 0x0 DUP1 REVERT JUMPDEST DUP2 MLOAD PUSH2 0x192B DUP2 PUSH2 0x1F2D JUMP JUMPDEST PUSH1 0x0 PUSH1 0x20 DUP3 DUP5 SUB SLT ISZERO PUSH2 0x226F JUMPI PUSH1 0x0 DUP1 REVERT JUMPDEST DUP2 MLOAD DUP1 ISZERO ISZERO DUP2 EQ PUSH2 0x192B JUMPI PUSH1 0x0 DUP1 REVERT JUMPDEST PUSH1 0x0 DUP3 PUSH2 0x229C JUMPI PUSH4 0x4E487B71 PUSH1 0xE0 SHL PUSH1 0x0 MSTORE PUSH1 0x12 PUSH1 0x4 MSTORE PUSH1 0x24 PUSH1 0x0 REVERT JUMPDEST POP DIV SWAP1 JUMP JUMPDEST DUP1 DUP3 MUL DUP2 ISZERO DUP3 DUP3 DIV DUP5 EQ OR PUSH2 0x12A1 JUMPI PUSH2 0x12A1 PUSH2 0x21EB JUMP JUMPDEST PUSH4 0x4E487B71 PUSH1 0xE0 SHL PUSH1 0x0 MSTORE PUSH1 0x31 PUSH1 0x4 MSTORE PUSH1 0x24 PUSH1 0x0 REVERT JUMPDEST PUSH1 0x0 JUMPDEST DUP4 DUP2 LT ISZERO PUSH2 0x22E9 JUMPI DUP2 DUP2 ADD MLOAD DUP4 DUP3 ADD MSTORE PUSH1 0x20 ADD PUSH2 0x22D1 JUMP JUMPDEST POP POP PUSH1 0x0 SWAP2 ADD MSTORE JUMP JUMPDEST PUSH1 0x0 DUP3 MLOAD PUSH2 0x2304 DUP2 DUP5 PUSH1 0x20 DUP8 ADD PUSH2 0x22CE JUMP JUMPDEST SWAP2 SWAP1 SWAP2 ADD SWAP3 SWAP2 POP POP JUMP JUMPDEST PUSH1 0x20 DUP2 MSTORE PUSH1 0x0 DUP3 MLOAD DUP1 PUSH1 0x20 DUP5 ADD MSTORE PUSH2 0x232D DUP2 PUSH1 0x40 DUP6 ADD PUSH1 0x20 DUP8 ADD PUSH2 0x22CE JUMP JUMPDEST PUSH1 0x1F ADD PUSH1 0x1F NOT AND SWAP2 SWAP1 SWAP2 ADD PUSH1 0x40 ADD SWAP3 SWAP2 POP POP JUMP INVALID LOG2 PUSH5 0x6970667358 0x22 SLT KECCAK256 PUSH14 0x9FD803A033C9F8CE55D436F097FE SWAP5 SSTORE DUP10 STATICCALL SWAP15 0x23 0x4F 0x4E PUSH7 0x180B6795A5C3B5 CALL PUSH5 0x736F6C6343 STOP ADDMOD SLT STOP CALLER "
				},
				"gasEstimates": {
					"creation": {
						"codeDepositCost": "1815800",
						"executionCost": "infinite",
						"totalCost": "infinite"
					},
					"external": {
						"buyNFT(uint256)": "infinite",
						"buyNFTbyERC20(uint256)": "infinite",
						"deSellNFT(uint256)": "infinite",
						"getAllowedERC20()": "infinite",
						"getFeeReceiver()": "2364",
						"getMyTokensAtSale()": "infinite",
						"getTokensAtSale(uint256,uint256)": "infinite",
						"getTokensAtSaleCount()": "2314",
						"getTradeFee()": "2403",
						"getUserTokensAtSale(address)": "infinite",
						"isAllowedERC20(address)": "infinite",
						"isMarketPlaceContract()": "232",
						"marketNft()": "2372",
						"owner()": "2409",
						"paused()": "2432",
						"renounceOwnership()": "infinite",
						"sellNFT(uint256,uint256,address)": "infinite",
						"setAllowedERC20(address[])": "infinite",
						"setFeeReceiver(address)": "26817",
						"setTradeFee(uint256)": "24556",
						"transferOwnership(address)": "infinite",
						"version()": "2362",
						"withdrawERC20(address)": "infinite",
						"withdrawWei()": "infinite"
					},
					"internal": {
						"__addTokenToSale(uint256)": "infinite",
						"__delTokenForSale(uint256)": "infinite",
						"_clearSellToken(uint256)": "infinite"
					}
				},
				"methodIdentifiers": {
					"buyNFT(uint256)": "51ed8288",
					"buyNFTbyERC20(uint256)": "047a5d43",
					"deSellNFT(uint256)": "512ddcf9",
					"getAllowedERC20()": "69c57352",
					"getFeeReceiver()": "e8a35392",
					"getMyTokensAtSale()": "a096c5a2",
					"getTokensAtSale(uint256,uint256)": "5b87f0f2",
					"getTokensAtSaleCount()": "c8f77899",
					"getTradeFee()": "952977f5",
					"getUserTokensAtSale(address)": "19c8c1c5",
					"isAllowedERC20(address)": "785fa7ce",
					"isMarketPlaceContract()": "527f2902",
					"marketNft()": "08cfbc19",
					"owner()": "8da5cb5b",
					"paused()": "5c975abb",
					"renounceOwnership()": "715018a6",
					"sellNFT(uint256,uint256,address)": "7c237eea",
					"setAllowedERC20(address[])": "e9e4e160",
					"setFeeReceiver(address)": "efdcd974",
					"setTradeFee(uint256)": "10603023",
					"transferOwnership(address)": "f2fde38b",
					"version()": "54fd4d50",
					"withdrawERC20(address)": "f4f3b200",
					"withdrawWei()": "5211ac2e"
				}
			},
			"storageLayout": {
				"storage": [
					{
						"astId": 26,
						"contract": "source/Marketplace.sol:Marketplace",
						"label": "_owner",
						"offset": 0,
						"slot": "0",
						"type": "t_address"
					},
					{
						"astId": 2258,
						"contract": "source/Marketplace.sol:Marketplace",
						"label": "_paused",
						"offset": 20,
						"slot": "0",
						"type": "t_bool"
					},
					{
						"astId": 2417,
						"contract": "source/Marketplace.sol:Marketplace",
						"label": "marketNft",
						"offset": 0,
						"slot": "1",
						"type": "t_contract(IERC721)638"
					},
					{
						"astId": 2420,
						"contract": "source/Marketplace.sol:Marketplace",
						"label": "version",
						"offset": 0,
						"slot": "2",
						"type": "t_uint256"
					},
					{
						"astId": 2423,
						"contract": "source/Marketplace.sol:Marketplace",
						"label": "_tradeFee",
						"offset": 0,
						"slot": "3",
						"type": "t_uint256"
					},
					{
						"astId": 2435,
						"contract": "source/Marketplace.sol:Marketplace",
						"label": "_isTokensAtSale",
						"offset": 0,
						"slot": "4",
						"type": "t_mapping(t_uint256,t_bool)"
					},
					{
						"astId": 2440,
						"contract": "source/Marketplace.sol:Marketplace",
						"label": "_tokensAtSale",
						"offset": 0,
						"slot": "5",
						"type": "t_mapping(t_uint256,t_struct(SelledNFT)2414_storage)"
					},
					{
						"astId": 2443,
						"contract": "source/Marketplace.sol:Marketplace",
						"label": "_allowedERC20",
						"offset": 0,
						"slot": "6",
						"type": "t_array(t_address)dyn_storage"
					},
					{
						"astId": 2446,
						"contract": "source/Marketplace.sol:Marketplace",
						"label": "_tokensIdsAtSale",
						"offset": 0,
						"slot": "7",
						"type": "t_array(t_uint256)dyn_storage"
					},
					{
						"astId": 2448,
						"contract": "source/Marketplace.sol:Marketplace",
						"label": "_feeReceiver",
						"offset": 0,
						"slot": "8",
						"type": "t_address"
					}
				],
				"types": {
					"t_address": {
						"encoding": "inplace",
						"label": "address",
						"numberOfBytes": "20"
					},
					"t_array(t_address)dyn_storage": {
						"base": "t_address",
						"encoding": "dynamic_array",
						"label": "address[]",
						"numberOfBytes": "32"
					},
					"t_array(t_uint256)dyn_storage": {
						"base": "t_uint256",
						"encoding": "dynamic_array",
						"label": "uint256[]",
						"numberOfBytes": "32"
					},
					"t_bool": {
						"encoding": "inplace",
						"label": "bool",
						"numberOfBytes": "1"
					},
					"t_contract(IERC721)638": {
						"encoding": "inplace",
						"label": "contract IERC721",
						"numberOfBytes": "20"
					},
					"t_mapping(t_uint256,t_bool)": {
						"encoding": "mapping",
						"key": "t_uint256",
						"label": "mapping(uint256 => bool)",
						"numberOfBytes": "32",
						"value": "t_bool"
					},
					"t_mapping(t_uint256,t_struct(SelledNFT)2414_storage)": {
						"encoding": "mapping",
						"key": "t_uint256",
						"label": "mapping(uint256 => struct Marketplace.SelledNFT)",
						"numberOfBytes": "32",
						"value": "t_struct(SelledNFT)2414_storage"
					},
					"t_struct(SelledNFT)2414_storage": {
						"encoding": "inplace",
						"label": "struct Marketplace.SelledNFT",
						"members": [
							{
								"astId": 2405,
								"contract": "source/Marketplace.sol:Marketplace",
								"label": "tokenId",
								"offset": 0,
								"slot": "0",
								"type": "t_uint256"
							},
							{
								"astId": 2407,
								"contract": "source/Marketplace.sol:Marketplace",
								"label": "seller",
								"offset": 0,
								"slot": "1",
								"type": "t_address"
							},
							{
								"astId": 2409,
								"contract": "source/Marketplace.sol:Marketplace",
								"label": "price",
								"offset": 0,
								"slot": "2",
								"type": "t_uint256"
							},
							{
								"astId": 2411,
								"contract": "source/Marketplace.sol:Marketplace",
								"label": "erc20",
								"offset": 0,
								"slot": "3",
								"type": "t_address"
							},
							{
								"astId": 2413,
								"contract": "source/Marketplace.sol:Marketplace",
								"label": "utx",
								"offset": 0,
								"slot": "4",
								"type": "t_uint256"
							}
						],
						"numberOfBytes": "160"
					},
					"t_uint256": {
						"encoding": "inplace",
						"label": "uint256",
						"numberOfBytes": "32"
					}
				}
			},
			"userdoc": {
				"kind": "user",
				"methods": {},
				"version": 1
			}
		}
	}
}