{
	"source/ExStorage.sol": {
		"ExStorage": {
			"abi": [
				{
					"inputs": [
						{
							"internalType": "address",
							"name": "_mainStorage",
							"type": "address"
						}
					],
					"stateMutability": "nonpayable",
					"type": "constructor"
				},
				{
					"inputs": [
						{
							"internalType": "string",
							"name": "_scopeKey",
							"type": "string"
						}
					],
					"name": "clearScopeData",
					"outputs": [],
					"stateMutability": "nonpayable",
					"type": "function"
				},
				{
					"inputs": [
						{
							"internalType": "string",
							"name": "_scopeKey",
							"type": "string"
						}
					],
					"name": "getScopeData",
					"outputs": [
						{
							"components": [
								{
									"internalType": "string",
									"name": "key",
									"type": "string"
								},
								{
									"internalType": "string",
									"name": "info",
									"type": "string"
								}
							],
							"internalType": "struct ExStorage.ScopeKeyData[]",
							"name": "",
							"type": "tuple[]"
						}
					],
					"stateMutability": "view",
					"type": "function"
				},
				{
					"inputs": [
						{
							"internalType": "string",
							"name": "_scopeKey",
							"type": "string"
						},
						{
							"internalType": "string",
							"name": "_key",
							"type": "string"
						}
					],
					"name": "getScopeKeyData",
					"outputs": [
						{
							"internalType": "string",
							"name": "",
							"type": "string"
						}
					],
					"stateMutability": "view",
					"type": "function"
				},
				{
					"inputs": [],
					"name": "mainStorage",
					"outputs": [
						{
							"internalType": "contract IStorage",
							"name": "",
							"type": "address"
						}
					],
					"stateMutability": "view",
					"type": "function"
				},
				{
					"inputs": [
						{
							"internalType": "string",
							"name": "_scopeKey",
							"type": "string"
						},
						{
							"internalType": "string",
							"name": "_key",
							"type": "string"
						},
						{
							"internalType": "string",
							"name": "_data",
							"type": "string"
						}
					],
					"name": "setScopeKeyData",
					"outputs": [],
					"stateMutability": "nonpayable",
					"type": "function"
				}
			],
			"devdoc": {
				"kind": "dev",
				"methods": {},
				"version": 1
			},
			"evm": {
				"assembly": "    /* \"source/ExStorage.sol\":240:3019  contract ExStorage {... */\n  mstore(0x40, 0x80)\n    /* \"source/ExStorage.sol\":1138:1227  constructor(address _mainStorage) {... */\n  callvalue\n  dup1\n  iszero\n  tag_1\n  jumpi\n  0x00\n  dup1\n  revert\ntag_1:\n  pop\n  mload(0x40)\n  sub(codesize, bytecodeSize)\n  dup1\n  bytecodeSize\n  dup4\n  codecopy\n  dup2\n  add\n  0x40\n  dup2\n  swap1\n  mstore\n  tag_2\n  swap2\n  tag_3\n  jump\t// in\ntag_2:\n    /* \"source/ExStorage.sol\":1183:1194  mainStorage */\n  0x00\n    /* \"source/ExStorage.sol\":1183:1219  mainStorage = IStorage(_mainStorage) */\n  dup1\n  sload\n  not(sub(shl(0xa0, 0x01), 0x01))\n  and\n  sub(shl(0xa0, 0x01), 0x01)\n  swap3\n  swap1\n  swap3\n  and\n  swap2\n  swap1\n  swap2\n  or\n  swap1\n  sstore\n    /* \"source/ExStorage.sol\":240:3019  contract ExStorage {... */\n  jump(tag_7)\n    /* \"#utility.yul\":14:304   */\ntag_3:\n    /* \"#utility.yul\":84:90   */\n  0x00\n    /* \"#utility.yul\":137:139   */\n  0x20\n    /* \"#utility.yul\":125:134   */\n  dup3\n    /* \"#utility.yul\":116:123   */\n  dup5\n    /* \"#utility.yul\":112:135   */\n  sub\n    /* \"#utility.yul\":108:140   */\n  slt\n    /* \"#utility.yul\":105:157   */\n  iszero\n  tag_9\n  jumpi\n    /* \"#utility.yul\":153:154   */\n  0x00\n    /* \"#utility.yul\":150:151   */\n  dup1\n    /* \"#utility.yul\":143:155   */\n  revert\n    /* \"#utility.yul\":105:157   */\ntag_9:\n    /* \"#utility.yul\":179:195   */\n  dup2\n  mload\n  sub(shl(0xa0, 0x01), 0x01)\n    /* \"#utility.yul\":224:255   */\n  dup2\n  and\n    /* \"#utility.yul\":214:256   */\n  dup2\n  eq\n    /* \"#utility.yul\":204:274   */\n  tag_10\n  jumpi\n    /* \"#utility.yul\":270:271   */\n  0x00\n    /* \"#utility.yul\":267:268   */\n  dup1\n    /* \"#utility.yul\":260:272   */\n  revert\n    /* \"#utility.yul\":204:274   */\ntag_10:\n    /* \"#utility.yul\":293:298   */\n  swap4\n    /* \"#utility.yul\":14:304   */\n  swap3\n  pop\n  pop\n  pop\n  jump\t// out\ntag_7:\n    /* \"source/ExStorage.sol\":240:3019  contract ExStorage {... */\n  dataSize(sub_0)\n  dup1\n  dataOffset(sub_0)\n  0x00\n  codecopy\n  0x00\n  return\nstop\n\nsub_0: assembly {\n        /* \"source/ExStorage.sol\":240:3019  contract ExStorage {... */\n      mstore(0x40, 0x80)\n      callvalue\n      dup1\n      iszero\n      tag_1\n      jumpi\n      0x00\n      dup1\n      revert\n    tag_1:\n      pop\n      jumpi(tag_2, lt(calldatasize, 0x04))\n      shr(0xe0, calldataload(0x00))\n      dup1\n      0x52495b8b\n      eq\n      tag_3\n      jumpi\n      dup1\n      0xb4ce4f3c\n      eq\n      tag_4\n      jumpi\n      dup1\n      0xc9c711c9\n      eq\n      tag_5\n      jumpi\n      dup1\n      0xe19d2ac3\n      eq\n      tag_6\n      jumpi\n      dup1\n      0xfa8d9672\n      eq\n      tag_7\n      jumpi\n    tag_2:\n      0x00\n      dup1\n      revert\n        /* \"source/ExStorage.sol\":2533:3016  function setScopeKeyData(... */\n    tag_3:\n      tag_8\n      tag_9\n      calldatasize\n      0x04\n      tag_10\n      jump\t// in\n    tag_9:\n      tag_11\n      jump\t// in\n    tag_8:\n      stop\n        /* \"source/ExStorage.sol\":1686:2247  function getScopeData(string memory _scopeKey)... */\n    tag_4:\n      tag_12\n      tag_13\n      calldatasize\n      0x04\n      tag_14\n      jump\t// in\n    tag_13:\n      tag_15\n      jump\t// in\n    tag_12:\n      mload(0x40)\n      tag_16\n      swap2\n      swap1\n      tag_17\n      jump\t// in\n    tag_16:\n      mload(0x40)\n      dup1\n      swap2\n      sub\n      swap1\n      return\n        /* \"source/ExStorage.sol\":1235:1678  function clearScopeData(string memory _scopeKey)... */\n    tag_5:\n      tag_8\n      tag_19\n      calldatasize\n      0x04\n      tag_14\n      jump\t// in\n    tag_19:\n      tag_20\n      jump\t// in\n        /* \"source/ExStorage.sol\":266:293  IStorage public mainStorage */\n    tag_6:\n      sload(0x00)\n      tag_21\n      swap1\n      sub(shl(0xa0, 0x01), 0x01)\n      and\n      dup2\n      jump\n    tag_21:\n      mload(0x40)\n      sub(shl(0xa0, 0x01), 0x01)\n        /* \"#utility.yul\":4294:4326   */\n      swap1\n      swap2\n      and\n        /* \"#utility.yul\":4276:4327   */\n      dup2\n      mstore\n        /* \"#utility.yul\":4264:4266   */\n      0x20\n        /* \"#utility.yul\":4249:4267   */\n      add\n        /* \"source/ExStorage.sol\":266:293  IStorage public mainStorage */\n      tag_16\n        /* \"#utility.yul\":4115:4333   */\n      jump\n        /* \"source/ExStorage.sol\":2255:2525  function getScopeKeyData(... */\n    tag_7:\n      tag_25\n      tag_26\n      calldatasize\n      0x04\n      tag_27\n      jump\t// in\n    tag_26:\n      tag_28\n      jump\t// in\n    tag_25:\n      mload(0x40)\n      tag_16\n      swap2\n      swap1\n      tag_30\n      jump\t// in\n        /* \"source/ExStorage.sol\":2533:3016  function setScopeKeyData(... */\n    tag_11:\n        /* \"source/ExStorage.sol\":489:505  byteValue.length */\n      dup3\n      mload\n        /* \"source/ExStorage.sol\":2692:2701  _scopeKey */\n      dup4\n      swap1\n      dup2\n      swap1\n        /* \"source/ExStorage.sol\":432:454  bytes memory byteValue */\n      0x00\n        /* \"source/ExStorage.sol\":489:510  byteValue.length != 0 */\n      sub\n        /* \"source/ExStorage.sol\":481:523  require(byteValue.length != 0, 'NO_VALUE') */\n      tag_32\n      jumpi\n      mload(0x40)\n      shl(0xe5, 0x461bcd)\n      dup2\n      mstore\n      0x04\n      add\n      tag_33\n      swap1\n      tag_34\n      jump\t// in\n    tag_33:\n      mload(0x40)\n      dup1\n      swap2\n      sub\n      swap1\n      revert\n    tag_32:\n        /* \"source/ExStorage.sol\":489:505  byteValue.length */\n      dup4\n      mload\n        /* \"source/ExStorage.sol\":2721:2725  _key */\n      dup5\n      swap1\n      dup2\n      swap1\n        /* \"source/ExStorage.sol\":432:454  bytes memory byteValue */\n      0x00\n        /* \"source/ExStorage.sol\":489:510  byteValue.length != 0 */\n      sub\n        /* \"source/ExStorage.sol\":481:523  require(byteValue.length != 0, 'NO_VALUE') */\n      tag_36\n      jumpi\n      mload(0x40)\n      shl(0xe5, 0x461bcd)\n      dup2\n      mstore\n      0x04\n      add\n      tag_33\n      swap1\n      tag_34\n      jump\t// in\n    tag_36:\n        /* \"source/ExStorage.sol\":489:505  byteValue.length */\n      dup5\n      mload\n        /* \"source/ExStorage.sol\":2745:2750  _data */\n      dup6\n      swap1\n      dup2\n      swap1\n        /* \"source/ExStorage.sol\":432:454  bytes memory byteValue */\n      0x00\n        /* \"source/ExStorage.sol\":489:510  byteValue.length != 0 */\n      sub\n        /* \"source/ExStorage.sol\":481:523  require(byteValue.length != 0, 'NO_VALUE') */\n      tag_39\n      jumpi\n      mload(0x40)\n      shl(0xe5, 0x461bcd)\n      dup2\n      mstore\n      0x04\n      add\n      tag_33\n      swap1\n      tag_34\n      jump\t// in\n    tag_39:\n        /* \"source/ExStorage.sol\":611:642  IStorage.Data memory _scopeInfo */\n      0x00\n        /* \"source/ExStorage.sol\":645:656  mainStorage */\n      dup1\n      sload\n        /* \"source/ExStorage.sol\":645:675  mainStorage.getData(_scopeKey) */\n      mload(0x40)\n      shl(0xe3, 0x15cab911)\n      dup2\n      mstore\n        /* \"source/ExStorage.sol\":2776:2785  _scopeKey */\n      dup12\n      swap3\n        /* \"source/ExStorage.sol\":611:642  IStorage.Data memory _scopeInfo */\n      swap2\n      sub(shl(0xa0, 0x01), 0x01)\n        /* \"source/ExStorage.sol\":645:656  mainStorage */\n      and\n      swap1\n        /* \"source/ExStorage.sol\":645:664  mainStorage.getData */\n      0xae55c888\n      swap1\n        /* \"source/ExStorage.sol\":645:675  mainStorage.getData(_scopeKey) */\n      tag_42\n      swap1\n        /* \"source/ExStorage.sol\":2776:2785  _scopeKey */\n      dup6\n      swap1\n        /* \"source/ExStorage.sol\":645:675  mainStorage.getData(_scopeKey) */\n      0x04\n      add\n      tag_30\n      jump\t// in\n    tag_42:\n      0x00\n      mload(0x40)\n      dup1\n      dup4\n      sub\n      dup2\n      dup7\n      gas\n      staticcall\n      iszero\n      dup1\n      iszero\n      tag_44\n      jumpi\n      returndatasize\n      0x00\n      dup1\n      returndatacopy\n      revert(0x00, returndatasize)\n    tag_44:\n      pop\n      pop\n      pop\n      pop\n      mload(0x40)\n      returndatasize\n      0x00\n      dup3\n      returndatacopy\n      0x1f\n      returndatasize\n      swap1\n      dup2\n      add\n      not(0x1f)\n      and\n      dup3\n      add\n      0x40\n      mstore\n      tag_45\n      swap2\n      swap1\n      dup2\n      add\n      swap1\n      tag_46\n      jump\t// in\n    tag_45:\n        /* \"source/ExStorage.sol\":690:706  _scopeInfo.owner */\n      dup1\n      mload\n        /* \"source/ExStorage.sol\":611:675  IStorage.Data memory _scopeInfo = mainStorage.getData(_scopeKey) */\n      swap1\n      swap2\n      pop\n      sub(shl(0xa0, 0x01), 0x01)\n        /* \"source/ExStorage.sol\":690:720  _scopeInfo.owner != address(0) */\n      and\n      iszero\n        /* \"source/ExStorage.sol\":686:901  if (_scopeInfo.owner != address(0)) {... */\n      tag_47\n      jumpi\n        /* \"source/ExStorage.sol\":759:775  _scopeInfo.owner */\n      dup1\n      mload\n      sub(shl(0xa0, 0x01), 0x01)\n        /* \"source/ExStorage.sol\":745:775  msg.sender == _scopeInfo.owner */\n      and\n        /* \"source/ExStorage.sol\":745:755  msg.sender */\n      caller\n        /* \"source/ExStorage.sol\":745:775  msg.sender == _scopeInfo.owner */\n      eq\n        /* \"source/ExStorage.sol\":737:789  require(msg.sender == _scopeInfo.owner, 'FORBIDDEN') */\n      tag_48\n      jumpi\n      mload(0x40)\n      shl(0xe5, 0x461bcd)\n      dup2\n      mstore\n        /* \"#utility.yul\":6763:6765   */\n      0x20\n        /* \"source/ExStorage.sol\":737:789  require(msg.sender == _scopeInfo.owner, 'FORBIDDEN') */\n      0x04\n      dup3\n      add\n        /* \"#utility.yul\":6745:6766   */\n      mstore\n        /* \"#utility.yul\":6802:6803   */\n      0x09\n        /* \"#utility.yul\":6782:6800   */\n      0x24\n      dup3\n      add\n        /* \"#utility.yul\":6775:6804   */\n      mstore\n      shl(0xb9, 0x2327a92124a22222a7)\n        /* \"#utility.yul\":6820:6838   */\n      0x44\n      dup3\n      add\n        /* \"#utility.yul\":6813:6852   */\n      mstore\n        /* \"#utility.yul\":6869:6887   */\n      0x64\n      add\n        /* \"source/ExStorage.sol\":737:789  require(msg.sender == _scopeInfo.owner, 'FORBIDDEN') */\n      tag_33\n        /* \"#utility.yul\":6561:6893   */\n      jump\n        /* \"source/ExStorage.sol\":737:789  require(msg.sender == _scopeInfo.owner, 'FORBIDDEN') */\n    tag_48:\n        /* \"source/ExStorage.sol\":686:901  if (_scopeInfo.owner != address(0)) {... */\n      jump(tag_52)\n    tag_47:\n        /* \"source/ExStorage.sol\":830:840  msg.sender */\n      caller\n        /* \"source/ExStorage.sol\":830:854  msg.sender == address(0) */\n      iszero\n        /* \"source/ExStorage.sol\":822:889  require(msg.sender == address(0), 'NOT CONFIGURED IN MAIN STORAGE') */\n      tag_52\n      jumpi\n      mload(0x40)\n      shl(0xe5, 0x461bcd)\n      dup2\n      mstore\n        /* \"#utility.yul\":7100:7102   */\n      0x20\n        /* \"source/ExStorage.sol\":822:889  require(msg.sender == address(0), 'NOT CONFIGURED IN MAIN STORAGE') */\n      0x04\n      dup3\n      add\n        /* \"#utility.yul\":7082:7103   */\n      mstore\n        /* \"#utility.yul\":7139:7141   */\n      0x1e\n        /* \"#utility.yul\":7119:7137   */\n      0x24\n      dup3\n      add\n        /* \"#utility.yul\":7112:7142   */\n      mstore\n        /* \"#utility.yul\":7178:7210   */\n      0x4e4f5420434f4e4649475552454420494e204d41494e2053544f524147450000\n        /* \"#utility.yul\":7158:7176   */\n      0x44\n      dup3\n      add\n        /* \"#utility.yul\":7151:7211   */\n      mstore\n        /* \"#utility.yul\":7228:7246   */\n      0x64\n      add\n        /* \"source/ExStorage.sol\":822:889  require(msg.sender == address(0), 'NOT CONFIGURED IN MAIN STORAGE') */\n      tag_33\n        /* \"#utility.yul\":6898:7252   */\n      jump\n        /* \"source/ExStorage.sol\":822:889  require(msg.sender == address(0), 'NOT CONFIGURED IN MAIN STORAGE') */\n    tag_52:\n        /* \"source/ExStorage.sol\":2832:2837  _data */\n      dup9\n        /* \"source/ExStorage.sol\":2803:2812  scopeData */\n      0x01\n        /* \"source/ExStorage.sol\":2813:2822  _scopeKey */\n      dup13\n        /* \"source/ExStorage.sol\":2803:2823  scopeData[_scopeKey] */\n      mload(0x40)\n      tag_56\n      swap2\n      swap1\n      tag_57\n      jump\t// in\n    tag_56:\n      swap1\n      dup2\n      mstore\n      0x20\n      add\n      mload(0x40)\n      dup1\n      swap2\n      sub\n      swap1\n      keccak256\n        /* \"source/ExStorage.sol\":2824:2828  _key */\n      dup12\n        /* \"source/ExStorage.sol\":2803:2829  scopeData[_scopeKey][_key] */\n      mload(0x40)\n      tag_58\n      swap2\n      swap1\n      tag_57\n      jump\t// in\n    tag_58:\n      swap1\n      dup2\n      mstore\n      0x20\n      add\n      mload(0x40)\n      dup1\n      swap2\n      sub\n      swap1\n      keccak256\n        /* \"source/ExStorage.sol\":2803:2837  scopeData[_scopeKey][_key] = _data */\n      swap1\n      dup2\n      tag_59\n      swap2\n      swap1\n      tag_60\n      jump\t// in\n    tag_59:\n      pop\n        /* \"source/ExStorage.sol\":2853:2871  scopeDataKeyExists */\n      0x03\n        /* \"source/ExStorage.sol\":2872:2881  _scopeKey */\n      dup12\n        /* \"source/ExStorage.sol\":2853:2882  scopeDataKeyExists[_scopeKey] */\n      mload(0x40)\n      tag_61\n      swap2\n      swap1\n      tag_57\n      jump\t// in\n    tag_61:\n      swap1\n      dup2\n      mstore\n      0x20\n      add\n      mload(0x40)\n      dup1\n      swap2\n      sub\n      swap1\n      keccak256\n        /* \"source/ExStorage.sol\":2883:2887  _key */\n      dup11\n        /* \"source/ExStorage.sol\":2853:2888  scopeDataKeyExists[_scopeKey][_key] */\n      mload(0x40)\n      tag_62\n      swap2\n      swap1\n      tag_57\n      jump\t// in\n    tag_62:\n      swap1\n      dup2\n      mstore\n      mload(0x40)\n      swap1\n      dup2\n      swap1\n      sub\n      0x20\n      add\n      swap1\n      keccak256\n      sload\n      0xff\n      and\n        /* \"source/ExStorage.sol\":2848:3009  if (!scopeDataKeyExists[_scopeKey][_key]) {... */\n      tag_63\n      jumpi\n        /* \"source/ExStorage.sol\":2943:2947  true */\n      0x01\n        /* \"source/ExStorage.sol\":2905:2923  scopeDataKeyExists */\n      0x03\n        /* \"source/ExStorage.sol\":2924:2933  _scopeKey */\n      dup13\n        /* \"source/ExStorage.sol\":2905:2934  scopeDataKeyExists[_scopeKey] */\n      mload(0x40)\n      tag_64\n      swap2\n      swap1\n      tag_57\n      jump\t// in\n    tag_64:\n      swap1\n      dup2\n      mstore\n      0x20\n      add\n      mload(0x40)\n      dup1\n      swap2\n      sub\n      swap1\n      keccak256\n        /* \"source/ExStorage.sol\":2935:2939  _key */\n      dup12\n        /* \"source/ExStorage.sol\":2905:2940  scopeDataKeyExists[_scopeKey][_key] */\n      mload(0x40)\n      tag_65\n      swap2\n      swap1\n      tag_57\n      jump\t// in\n    tag_65:\n      swap1\n      dup2\n      mstore\n      mload(0x40)\n      swap1\n      dup2\n      swap1\n      sub\n      0x20\n      add\n      dup2\n      keccak256\n        /* \"source/ExStorage.sol\":2905:2947  scopeDataKeyExists[_scopeKey][_key] = true */\n      dup1\n      sload\n      swap3\n      iszero\n      iszero\n      not(0xff)\n      swap1\n      swap4\n      and\n      swap3\n      swap1\n      swap3\n      or\n      swap1\n      swap2\n      sstore\n        /* \"source/ExStorage.sol\":2962:2975  scopeDataKeys */\n      0x02\n      swap1\n        /* \"source/ExStorage.sol\":2962:2986  scopeDataKeys[_scopeKey] */\n      tag_66\n      swap1\n        /* \"source/ExStorage.sol\":2976:2985  _scopeKey */\n      dup14\n      swap1\n        /* \"source/ExStorage.sol\":2962:2986  scopeDataKeys[_scopeKey] */\n      tag_57\n      jump\t// in\n    tag_66:\n      swap1\n      dup2\n      mstore\n      mload(0x40)\n      0x20\n      swap2\n      dup2\n      swap1\n      sub\n      dup3\n      add\n      swap1\n      keccak256\n        /* \"source/ExStorage.sol\":2962:2997  scopeDataKeys[_scopeKey].push(_key) */\n      dup1\n      sload\n      0x01\n      dup2\n      add\n      dup3\n      sstore\n      0x00\n      swap2\n      dup3\n      mstore\n      swap2\n      swap1\n      keccak256\n      add\n      tag_68\n        /* \"source/ExStorage.sol\":2992:2996  _key */\n      dup12\n        /* \"source/ExStorage.sol\":2962:2997  scopeDataKeys[_scopeKey].push(_key) */\n      dup3\n      tag_60\n      jump\t// in\n    tag_68:\n      pop\n        /* \"source/ExStorage.sol\":2848:3009  if (!scopeDataKeyExists[_scopeKey][_key]) {... */\n    tag_63:\n        /* \"source/ExStorage.sol\":600:920  {... */\n      pop\n        /* \"source/ExStorage.sol\":534:535  _ */\n      pop\n        /* \"source/ExStorage.sol\":421:543  {... */\n      pop\n        /* \"source/ExStorage.sol\":534:535  _ */\n      pop\n        /* \"source/ExStorage.sol\":421:543  {... */\n      pop\n        /* \"source/ExStorage.sol\":534:535  _ */\n      pop\n        /* \"source/ExStorage.sol\":421:543  {... */\n      pop\n        /* \"source/ExStorage.sol\":2533:3016  function setScopeKeyData(... */\n      pop\n      pop\n      pop\n      pop\n      jump\t// out\n        /* \"source/ExStorage.sol\":1686:2247  function getScopeData(string memory _scopeKey)... */\n    tag_15:\n        /* \"source/ExStorage.sol\":1809:1830  ScopeKeyData[] memory */\n      0x60\n        /* \"source/ExStorage.sol\":1781:1790  _scopeKey */\n      dup2\n        /* \"source/ExStorage.sol\":432:454  bytes memory byteValue */\n      0x00\n        /* \"source/ExStorage.sol\":463:469  _value */\n      dup2\n        /* \"source/ExStorage.sol\":432:470  bytes memory byteValue = bytes(_value) */\n      swap1\n      pop\n        /* \"source/ExStorage.sol\":489:498  byteValue */\n      dup1\n        /* \"source/ExStorage.sol\":489:505  byteValue.length */\n      mload\n        /* \"source/ExStorage.sol\":509:510  0 */\n      0x00\n        /* \"source/ExStorage.sol\":489:510  byteValue.length != 0 */\n      sub\n        /* \"source/ExStorage.sol\":481:523  require(byteValue.length != 0, 'NO_VALUE') */\n      tag_70\n      jumpi\n      mload(0x40)\n      shl(0xe5, 0x461bcd)\n      dup2\n      mstore\n      0x04\n      add\n      tag_33\n      swap1\n      tag_34\n      jump\t// in\n    tag_70:\n        /* \"source/ExStorage.sol\":1848:1877  ScopeKeyData[] memory retData */\n      0x00\n        /* \"source/ExStorage.sol\":1899:1912  scopeDataKeys */\n      0x02\n        /* \"source/ExStorage.sol\":1913:1922  _scopeKey */\n      dup6\n        /* \"source/ExStorage.sol\":1899:1923  scopeDataKeys[_scopeKey] */\n      mload(0x40)\n      tag_73\n      swap2\n      swap1\n      tag_57\n      jump\t// in\n    tag_73:\n      swap1\n      dup2\n      mstore\n      mload(0x40)\n      swap1\n      dup2\n      swap1\n      sub\n      0x20\n      add\n      swap1\n      keccak256\n        /* \"source/ExStorage.sol\":1899:1930  scopeDataKeys[_scopeKey].length */\n      sload\n        /* \"source/ExStorage.sol\":1880:1931  new ScopeKeyData[](scopeDataKeys[_scopeKey].length) */\n      0xffffffffffffffff\n      dup2\n      gt\n      iszero\n      tag_75\n      jumpi\n      tag_75\n      tag_76\n      jump\t// in\n    tag_75:\n      mload(0x40)\n      swap1\n      dup1\n      dup3\n      mstore\n      dup1\n      0x20\n      mul\n      0x20\n      add\n      dup3\n      add\n      0x40\n      mstore\n      dup1\n      iszero\n      tag_77\n      jumpi\n      dup2\n      0x20\n      add\n    tag_78:\n      0x40\n      dup1\n      mload\n      dup1\n      dup3\n      add\n      swap1\n      swap2\n      mstore\n      0x60\n      dup1\n      dup3\n      mstore\n      0x20\n      dup3\n      add\n      mstore\n      dup2\n      mstore\n      0x20\n      add\n      swap1\n      0x01\n      swap1\n      sub\n      swap1\n      dup2\n      tag_78\n      jumpi\n      swap1\n      pop\n    tag_77:\n      pop\n        /* \"source/ExStorage.sol\":1848:1931  ScopeKeyData[] memory retData = new ScopeKeyData[](scopeDataKeys[_scopeKey].length) */\n      swap1\n      pop\n        /* \"source/ExStorage.sol\":1947:1961  uint256 kIndex */\n      0x00\n        /* \"source/ExStorage.sol\":1942:2215  for (uint256 kIndex = 0; kIndex < scopeDataKeys[_scopeKey].length; kIndex++) {... */\n    tag_81:\n        /* \"source/ExStorage.sol\":1976:1989  scopeDataKeys */\n      0x02\n        /* \"source/ExStorage.sol\":1990:1999  _scopeKey */\n      dup7\n        /* \"source/ExStorage.sol\":1976:2000  scopeDataKeys[_scopeKey] */\n      mload(0x40)\n      tag_84\n      swap2\n      swap1\n      tag_57\n      jump\t// in\n    tag_84:\n      swap1\n      dup2\n      mstore\n      mload(0x40)\n      swap1\n      dup2\n      swap1\n      sub\n      0x20\n      add\n      swap1\n      keccak256\n        /* \"source/ExStorage.sol\":1976:2007  scopeDataKeys[_scopeKey].length */\n      sload\n        /* \"source/ExStorage.sol\":1967:2007  kIndex < scopeDataKeys[_scopeKey].length */\n      dup2\n      lt\n        /* \"source/ExStorage.sol\":1942:2215  for (uint256 kIndex = 0; kIndex < scopeDataKeys[_scopeKey].length; kIndex++) {... */\n      iszero\n      tag_82\n      jumpi\n        /* \"source/ExStorage.sol\":2052:2203  ScopeKeyData(... */\n      mload(0x40)\n      dup1\n      0x40\n      add\n      0x40\n      mstore\n      dup1\n        /* \"source/ExStorage.sol\":2083:2096  scopeDataKeys */\n      0x02\n        /* \"source/ExStorage.sol\":2097:2106  _scopeKey */\n      dup9\n        /* \"source/ExStorage.sol\":2083:2107  scopeDataKeys[_scopeKey] */\n      mload(0x40)\n      tag_85\n      swap2\n      swap1\n      tag_57\n      jump\t// in\n    tag_85:\n      swap1\n      dup2\n      mstore\n      0x20\n      add\n      mload(0x40)\n      dup1\n      swap2\n      sub\n      swap1\n      keccak256\n        /* \"source/ExStorage.sol\":2108:2114  kIndex */\n      dup4\n        /* \"source/ExStorage.sol\":2083:2115  scopeDataKeys[_scopeKey][kIndex] */\n      dup2\n      sload\n      dup2\n      lt\n      tag_87\n      jumpi\n      tag_87\n      tag_88\n      jump\t// in\n    tag_87:\n      swap1\n      0x00\n      mstore\n      keccak256(0x00, 0x20)\n      add\n        /* \"source/ExStorage.sol\":2052:2203  ScopeKeyData(... */\n      dup1\n      sload\n      tag_90\n      swap1\n      tag_91\n      jump\t// in\n    tag_90:\n      dup1\n      0x1f\n      add\n      0x20\n      dup1\n      swap2\n      div\n      mul\n      0x20\n      add\n      mload(0x40)\n      swap1\n      dup2\n      add\n      0x40\n      mstore\n      dup1\n      swap3\n      swap2\n      swap1\n      dup2\n      dup2\n      mstore\n      0x20\n      add\n      dup3\n      dup1\n      sload\n      tag_92\n      swap1\n      tag_91\n      jump\t// in\n    tag_92:\n      dup1\n      iszero\n      tag_93\n      jumpi\n      dup1\n      0x1f\n      lt\n      tag_94\n      jumpi\n      0x0100\n      dup1\n      dup4\n      sload\n      div\n      mul\n      dup4\n      mstore\n      swap2\n      0x20\n      add\n      swap2\n      jump(tag_93)\n    tag_94:\n      dup3\n      add\n      swap2\n      swap1\n      0x00\n      mstore\n      keccak256(0x00, 0x20)\n      swap1\n    tag_95:\n      dup2\n      sload\n      dup2\n      mstore\n      swap1\n      0x01\n      add\n      swap1\n      0x20\n      add\n      dup1\n      dup4\n      gt\n      tag_95\n      jumpi\n      dup3\n      swap1\n      sub\n      0x1f\n      and\n      dup3\n      add\n      swap2\n    tag_93:\n      pop\n      pop\n      pop\n      pop\n      pop\n      dup2\n      mstore\n      0x20\n      add\n        /* \"source/ExStorage.sol\":2134:2143  scopeData */\n      0x01\n        /* \"source/ExStorage.sol\":2144:2153  _scopeKey */\n      dup9\n        /* \"source/ExStorage.sol\":2134:2154  scopeData[_scopeKey] */\n      mload(0x40)\n      tag_96\n      swap2\n      swap1\n      tag_57\n      jump\t// in\n    tag_96:\n      swap1\n      dup2\n      mstore\n      0x20\n      add\n      mload(0x40)\n      dup1\n      swap2\n      sub\n      swap1\n      keccak256\n        /* \"source/ExStorage.sol\":2155:2168  scopeDataKeys */\n      0x02\n        /* \"source/ExStorage.sol\":2169:2178  _scopeKey */\n      dup10\n        /* \"source/ExStorage.sol\":2155:2179  scopeDataKeys[_scopeKey] */\n      mload(0x40)\n      tag_97\n      swap2\n      swap1\n      tag_57\n      jump\t// in\n    tag_97:\n      swap1\n      dup2\n      mstore\n      0x20\n      add\n      mload(0x40)\n      dup1\n      swap2\n      sub\n      swap1\n      keccak256\n        /* \"source/ExStorage.sol\":2180:2186  kIndex */\n      dup5\n        /* \"source/ExStorage.sol\":2155:2187  scopeDataKeys[_scopeKey][kIndex] */\n      dup2\n      sload\n      dup2\n      lt\n      tag_99\n      jumpi\n      tag_99\n      tag_88\n      jump\t// in\n    tag_99:\n      swap1\n      0x00\n      mstore\n      keccak256(0x00, 0x20)\n      add\n        /* \"source/ExStorage.sol\":2134:2188  scopeData[_scopeKey][scopeDataKeys[_scopeKey][kIndex]] */\n      mload(0x40)\n      tag_101\n      swap2\n      swap1\n      tag_102\n      jump\t// in\n    tag_101:\n      swap1\n      dup2\n      mstore\n      0x20\n      add\n      mload(0x40)\n      dup1\n      swap2\n      sub\n      swap1\n      keccak256\n        /* \"source/ExStorage.sol\":2052:2203  ScopeKeyData(... */\n      dup1\n      sload\n      tag_103\n      swap1\n      tag_91\n      jump\t// in\n    tag_103:\n      dup1\n      0x1f\n      add\n      0x20\n      dup1\n      swap2\n      div\n      mul\n      0x20\n      add\n      mload(0x40)\n      swap1\n      dup2\n      add\n      0x40\n      mstore\n      dup1\n      swap3\n      swap2\n      swap1\n      dup2\n      dup2\n      mstore\n      0x20\n      add\n      dup3\n      dup1\n      sload\n      tag_104\n      swap1\n      tag_91\n      jump\t// in\n    tag_104:\n      dup1\n      iszero\n      tag_105\n      jumpi\n      dup1\n      0x1f\n      lt\n      tag_106\n      jumpi\n      0x0100\n      dup1\n      dup4\n      sload\n      div\n      mul\n      dup4\n      mstore\n      swap2\n      0x20\n      add\n      swap2\n      jump(tag_105)\n    tag_106:\n      dup3\n      add\n      swap2\n      swap1\n      0x00\n      mstore\n      keccak256(0x00, 0x20)\n      swap1\n    tag_107:\n      dup2\n      sload\n      dup2\n      mstore\n      swap1\n      0x01\n      add\n      swap1\n      0x20\n      add\n      dup1\n      dup4\n      gt\n      tag_107\n      jumpi\n      dup3\n      swap1\n      sub\n      0x1f\n      and\n      dup3\n      add\n      swap2\n    tag_105:\n      pop\n      pop\n      pop\n      pop\n      pop\n      dup2\n      mstore\n      pop\n        /* \"source/ExStorage.sol\":2034:2041  retData */\n      dup3\n        /* \"source/ExStorage.sol\":2042:2048  kIndex */\n      dup3\n        /* \"source/ExStorage.sol\":2034:2049  retData[kIndex] */\n      dup2\n      mload\n      dup2\n      lt\n      tag_109\n      jumpi\n      tag_109\n      tag_88\n      jump\t// in\n    tag_109:\n      0x20\n      mul\n      0x20\n      add\n      add\n        /* \"source/ExStorage.sol\":2034:2203  retData[kIndex] = ScopeKeyData(... */\n      dup2\n      swap1\n      mstore\n      pop\n        /* \"source/ExStorage.sol\":2009:2017  kIndex++ */\n      dup1\n      dup1\n      tag_110\n      swap1\n      tag_111\n      jump\t// in\n    tag_110:\n      swap2\n      pop\n      pop\n        /* \"source/ExStorage.sol\":1942:2215  for (uint256 kIndex = 0; kIndex < scopeDataKeys[_scopeKey].length; kIndex++) {... */\n      jump(tag_81)\n    tag_82:\n      pop\n        /* \"source/ExStorage.sol\":2232:2239  retData */\n      swap5\n        /* \"source/ExStorage.sol\":1686:2247  function getScopeData(string memory _scopeKey)... */\n      swap4\n      pop\n      pop\n      pop\n      pop\n      jump\t// out\n        /* \"source/ExStorage.sol\":1235:1678  function clearScopeData(string memory _scopeKey)... */\n    tag_20:\n        /* \"source/ExStorage.sol\":489:505  byteValue.length */\n      dup1\n      mload\n        /* \"source/ExStorage.sol\":1318:1327  _scopeKey */\n      dup2\n      swap1\n      dup2\n      swap1\n        /* \"source/ExStorage.sol\":432:454  bytes memory byteValue */\n      0x00\n        /* \"source/ExStorage.sol\":489:510  byteValue.length != 0 */\n      sub\n        /* \"source/ExStorage.sol\":481:523  require(byteValue.length != 0, 'NO_VALUE') */\n      tag_113\n      jumpi\n      mload(0x40)\n      shl(0xe5, 0x461bcd)\n      dup2\n      mstore\n      0x04\n      add\n      tag_33\n      swap1\n      tag_34\n      jump\t// in\n    tag_113:\n        /* \"source/ExStorage.sol\":611:642  IStorage.Data memory _scopeInfo */\n      0x00\n        /* \"source/ExStorage.sol\":645:656  mainStorage */\n      dup1\n      sload\n        /* \"source/ExStorage.sol\":645:675  mainStorage.getData(_scopeKey) */\n      mload(0x40)\n      shl(0xe3, 0x15cab911)\n      dup2\n      mstore\n        /* \"source/ExStorage.sol\":1353:1362  _scopeKey */\n      dup6\n      swap3\n        /* \"source/ExStorage.sol\":611:642  IStorage.Data memory _scopeInfo */\n      swap2\n      sub(shl(0xa0, 0x01), 0x01)\n        /* \"source/ExStorage.sol\":645:656  mainStorage */\n      and\n      swap1\n        /* \"source/ExStorage.sol\":645:664  mainStorage.getData */\n      0xae55c888\n      swap1\n        /* \"source/ExStorage.sol\":645:675  mainStorage.getData(_scopeKey) */\n      tag_116\n      swap1\n        /* \"source/ExStorage.sol\":1353:1362  _scopeKey */\n      dup6\n      swap1\n        /* \"source/ExStorage.sol\":645:675  mainStorage.getData(_scopeKey) */\n      0x04\n      add\n      tag_30\n      jump\t// in\n    tag_116:\n      0x00\n      mload(0x40)\n      dup1\n      dup4\n      sub\n      dup2\n      dup7\n      gas\n      staticcall\n      iszero\n      dup1\n      iszero\n      tag_118\n      jumpi\n      returndatasize\n      0x00\n      dup1\n      returndatacopy\n      revert(0x00, returndatasize)\n    tag_118:\n      pop\n      pop\n      pop\n      pop\n      mload(0x40)\n      returndatasize\n      0x00\n      dup3\n      returndatacopy\n      0x1f\n      returndatasize\n      swap1\n      dup2\n      add\n      not(0x1f)\n      and\n      dup3\n      add\n      0x40\n      mstore\n      tag_119\n      swap2\n      swap1\n      dup2\n      add\n      swap1\n      tag_46\n      jump\t// in\n    tag_119:\n        /* \"source/ExStorage.sol\":690:706  _scopeInfo.owner */\n      dup1\n      mload\n        /* \"source/ExStorage.sol\":611:675  IStorage.Data memory _scopeInfo = mainStorage.getData(_scopeKey) */\n      swap1\n      swap2\n      pop\n      sub(shl(0xa0, 0x01), 0x01)\n        /* \"source/ExStorage.sol\":690:720  _scopeInfo.owner != address(0) */\n      and\n      iszero\n        /* \"source/ExStorage.sol\":686:901  if (_scopeInfo.owner != address(0)) {... */\n      tag_120\n      jumpi\n        /* \"source/ExStorage.sol\":759:775  _scopeInfo.owner */\n      dup1\n      mload\n      sub(shl(0xa0, 0x01), 0x01)\n        /* \"source/ExStorage.sol\":745:775  msg.sender == _scopeInfo.owner */\n      and\n        /* \"source/ExStorage.sol\":745:755  msg.sender */\n      caller\n        /* \"source/ExStorage.sol\":745:775  msg.sender == _scopeInfo.owner */\n      eq\n        /* \"source/ExStorage.sol\":737:789  require(msg.sender == _scopeInfo.owner, 'FORBIDDEN') */\n      tag_121\n      jumpi\n      mload(0x40)\n      shl(0xe5, 0x461bcd)\n      dup2\n      mstore\n        /* \"#utility.yul\":6763:6765   */\n      0x20\n        /* \"source/ExStorage.sol\":737:789  require(msg.sender == _scopeInfo.owner, 'FORBIDDEN') */\n      0x04\n      dup3\n      add\n        /* \"#utility.yul\":6745:6766   */\n      mstore\n        /* \"#utility.yul\":6802:6803   */\n      0x09\n        /* \"#utility.yul\":6782:6800   */\n      0x24\n      dup3\n      add\n        /* \"#utility.yul\":6775:6804   */\n      mstore\n      shl(0xb9, 0x2327a92124a22222a7)\n        /* \"#utility.yul\":6820:6838   */\n      0x44\n      dup3\n      add\n        /* \"#utility.yul\":6813:6852   */\n      mstore\n        /* \"#utility.yul\":6869:6887   */\n      0x64\n      add\n        /* \"source/ExStorage.sol\":737:789  require(msg.sender == _scopeInfo.owner, 'FORBIDDEN') */\n      tag_33\n        /* \"#utility.yul\":6561:6893   */\n      jump\n        /* \"source/ExStorage.sol\":737:789  require(msg.sender == _scopeInfo.owner, 'FORBIDDEN') */\n    tag_121:\n        /* \"source/ExStorage.sol\":686:901  if (_scopeInfo.owner != address(0)) {... */\n      jump(tag_124)\n    tag_120:\n        /* \"source/ExStorage.sol\":830:840  msg.sender */\n      caller\n        /* \"source/ExStorage.sol\":830:854  msg.sender == address(0) */\n      iszero\n        /* \"source/ExStorage.sol\":822:889  require(msg.sender == address(0), 'NOT CONFIGURED IN MAIN STORAGE') */\n      tag_124\n      jumpi\n      mload(0x40)\n      shl(0xe5, 0x461bcd)\n      dup2\n      mstore\n        /* \"#utility.yul\":7100:7102   */\n      0x20\n        /* \"source/ExStorage.sol\":822:889  require(msg.sender == address(0), 'NOT CONFIGURED IN MAIN STORAGE') */\n      0x04\n      dup3\n      add\n        /* \"#utility.yul\":7082:7103   */\n      mstore\n        /* \"#utility.yul\":7139:7141   */\n      0x1e\n        /* \"#utility.yul\":7119:7137   */\n      0x24\n      dup3\n      add\n        /* \"#utility.yul\":7112:7142   */\n      mstore\n        /* \"#utility.yul\":7178:7210   */\n      0x4e4f5420434f4e4649475552454420494e204d41494e2053544f524147450000\n        /* \"#utility.yul\":7158:7176   */\n      0x44\n      dup3\n      add\n        /* \"#utility.yul\":7151:7211   */\n      mstore\n        /* \"#utility.yul\":7228:7246   */\n      0x64\n      add\n        /* \"source/ExStorage.sol\":822:889  require(msg.sender == address(0), 'NOT CONFIGURED IN MAIN STORAGE') */\n      tag_33\n        /* \"#utility.yul\":6898:7252   */\n      jump\n        /* \"source/ExStorage.sol\":822:889  require(msg.sender == address(0), 'NOT CONFIGURED IN MAIN STORAGE') */\n    tag_124:\n        /* \"source/ExStorage.sol\":1385:1399  uint256 kIndex */\n      0x00\n        /* \"source/ExStorage.sol\":1380:1629  for (uint256 kIndex = 0; kIndex < scopeDataKeys[_scopeKey].length; kIndex++) {... */\n    tag_127:\n        /* \"source/ExStorage.sol\":1414:1427  scopeDataKeys */\n      0x02\n        /* \"source/ExStorage.sol\":1428:1437  _scopeKey */\n      dup7\n        /* \"source/ExStorage.sol\":1414:1438  scopeDataKeys[_scopeKey] */\n      mload(0x40)\n      tag_130\n      swap2\n      swap1\n      tag_57\n      jump\t// in\n    tag_130:\n      swap1\n      dup2\n      mstore\n      mload(0x40)\n      swap1\n      dup2\n      swap1\n      sub\n      0x20\n      add\n      swap1\n      keccak256\n        /* \"source/ExStorage.sol\":1414:1445  scopeDataKeys[_scopeKey].length */\n      sload\n        /* \"source/ExStorage.sol\":1405:1445  kIndex < scopeDataKeys[_scopeKey].length */\n      dup2\n      lt\n        /* \"source/ExStorage.sol\":1380:1629  for (uint256 kIndex = 0; kIndex < scopeDataKeys[_scopeKey].length; kIndex++) {... */\n      iszero\n      tag_128\n      jumpi\n        /* \"source/ExStorage.sol\":1538:1543  false */\n      0x00\n        /* \"source/ExStorage.sol\":1472:1490  scopeDataKeyExists */\n      0x03\n        /* \"source/ExStorage.sol\":1491:1500  _scopeKey */\n      dup8\n        /* \"source/ExStorage.sol\":1472:1501  scopeDataKeyExists[_scopeKey] */\n      mload(0x40)\n      tag_131\n      swap2\n      swap1\n      tag_57\n      jump\t// in\n    tag_131:\n      swap1\n      dup2\n      mstore\n      0x20\n      add\n      mload(0x40)\n      dup1\n      swap2\n      sub\n      swap1\n      keccak256\n        /* \"source/ExStorage.sol\":1502:1515  scopeDataKeys */\n      0x02\n        /* \"source/ExStorage.sol\":1516:1525  _scopeKey */\n      dup9\n        /* \"source/ExStorage.sol\":1502:1526  scopeDataKeys[_scopeKey] */\n      mload(0x40)\n      tag_132\n      swap2\n      swap1\n      tag_57\n      jump\t// in\n    tag_132:\n      swap1\n      dup2\n      mstore\n      0x20\n      add\n      mload(0x40)\n      dup1\n      swap2\n      sub\n      swap1\n      keccak256\n        /* \"source/ExStorage.sol\":1527:1533  kIndex */\n      dup4\n        /* \"source/ExStorage.sol\":1502:1534  scopeDataKeys[_scopeKey][kIndex] */\n      dup2\n      sload\n      dup2\n      lt\n      tag_134\n      jumpi\n      tag_134\n      tag_88\n      jump\t// in\n    tag_134:\n      swap1\n      0x00\n      mstore\n      keccak256(0x00, 0x20)\n      add\n        /* \"source/ExStorage.sol\":1472:1535  scopeDataKeyExists[_scopeKey][scopeDataKeys[_scopeKey][kIndex]] */\n      mload(0x40)\n      tag_136\n      swap2\n      swap1\n      tag_102\n      jump\t// in\n    tag_136:\n      swap1\n      dup2\n      mstore\n      0x40\n      dup1\n      mload\n      0x20\n      swap3\n      dup2\n      swap1\n      sub\n      dup4\n      add\n      dup2\n      keccak256\n        /* \"source/ExStorage.sol\":1472:1543  scopeDataKeyExists[_scopeKey][scopeDataKeys[_scopeKey][kIndex]] = false */\n      dup1\n      sload\n      not(0xff)\n      and\n      swap5\n      iszero\n      iszero\n      swap5\n      swap1\n      swap5\n      or\n      swap1\n      swap4\n      sstore\n        /* \"source/ExStorage.sol\":1558:1617  scopeData[_scopeKey][scopeDataKeys[_scopeKey][kIndex]] = \"\" */\n      swap1\n      dup3\n      add\n      dup2\n      mstore\n      0x00\n      dup3\n      mstore\n        /* \"source/ExStorage.sol\":1558:1578  scopeData[_scopeKey] */\n      mload\n      0x01\n      swap1\n      tag_137\n      swap1\n        /* \"source/ExStorage.sol\":1568:1577  _scopeKey */\n      dup10\n      swap1\n        /* \"source/ExStorage.sol\":1558:1578  scopeData[_scopeKey] */\n      tag_57\n      jump\t// in\n    tag_137:\n      swap1\n      dup2\n      mstore\n      0x20\n      add\n      mload(0x40)\n      dup1\n      swap2\n      sub\n      swap1\n      keccak256\n        /* \"source/ExStorage.sol\":1579:1592  scopeDataKeys */\n      0x02\n        /* \"source/ExStorage.sol\":1593:1602  _scopeKey */\n      dup9\n        /* \"source/ExStorage.sol\":1579:1603  scopeDataKeys[_scopeKey] */\n      mload(0x40)\n      tag_138\n      swap2\n      swap1\n      tag_57\n      jump\t// in\n    tag_138:\n      swap1\n      dup2\n      mstore\n      0x20\n      add\n      mload(0x40)\n      dup1\n      swap2\n      sub\n      swap1\n      keccak256\n        /* \"source/ExStorage.sol\":1604:1610  kIndex */\n      dup4\n        /* \"source/ExStorage.sol\":1579:1611  scopeDataKeys[_scopeKey][kIndex] */\n      dup2\n      sload\n      dup2\n      lt\n      tag_140\n      jumpi\n      tag_140\n      tag_88\n      jump\t// in\n    tag_140:\n      swap1\n      0x00\n      mstore\n      keccak256(0x00, 0x20)\n      add\n        /* \"source/ExStorage.sol\":1558:1612  scopeData[_scopeKey][scopeDataKeys[_scopeKey][kIndex]] */\n      mload(0x40)\n      tag_142\n      swap2\n      swap1\n      tag_102\n      jump\t// in\n    tag_142:\n      swap1\n      dup2\n      mstore\n      0x20\n      add\n      mload(0x40)\n      dup1\n      swap2\n      sub\n      swap1\n      keccak256\n        /* \"source/ExStorage.sol\":1558:1617  scopeData[_scopeKey][scopeDataKeys[_scopeKey][kIndex]] = \"\" */\n      swap1\n      dup2\n      tag_143\n      swap2\n      swap1\n      tag_60\n      jump\t// in\n    tag_143:\n      pop\n        /* \"source/ExStorage.sol\":1447:1455  kIndex++ */\n      dup1\n      tag_144\n      dup2\n      tag_111\n      jump\t// in\n    tag_144:\n      swap2\n      pop\n      pop\n        /* \"source/ExStorage.sol\":1380:1629  for (uint256 kIndex = 0; kIndex < scopeDataKeys[_scopeKey].length; kIndex++) {... */\n      jump(tag_127)\n    tag_128:\n      pop\n        /* \"source/ExStorage.sol\":1646:1659  scopeDataKeys */\n      0x02\n        /* \"source/ExStorage.sol\":1660:1669  _scopeKey */\n      dup6\n        /* \"source/ExStorage.sol\":1646:1670  scopeDataKeys[_scopeKey] */\n      mload(0x40)\n      tag_145\n      swap2\n      swap1\n      tag_57\n      jump\t// in\n    tag_145:\n      swap1\n      dup2\n      mstore\n      0x20\n      add\n      mload(0x40)\n      dup1\n      swap2\n      sub\n      swap1\n      keccak256\n      0x00\n        /* \"source/ExStorage.sol\":1639:1670  delete scopeDataKeys[_scopeKey] */\n      tag_146\n      swap2\n      swap1\n      tag_147\n      jump\t// in\n    tag_146:\n        /* \"source/ExStorage.sol\":600:920  {... */\n      pop\n        /* \"source/ExStorage.sol\":534:535  _ */\n      pop\n        /* \"source/ExStorage.sol\":421:543  {... */\n      pop\n        /* \"source/ExStorage.sol\":1235:1678  function clearScopeData(string memory _scopeKey)... */\n      pop\n      pop\n      jump\t// out\n        /* \"source/ExStorage.sol\":2255:2525  function getScopeKeyData(... */\n    tag_28:\n        /* \"source/ExStorage.sol\":2451:2464  string memory */\n      0x60\n        /* \"source/ExStorage.sol\":2398:2407  _scopeKey */\n      dup3\n        /* \"source/ExStorage.sol\":432:454  bytes memory byteValue */\n      0x00\n        /* \"source/ExStorage.sol\":463:469  _value */\n      dup2\n        /* \"source/ExStorage.sol\":432:470  bytes memory byteValue = bytes(_value) */\n      swap1\n      pop\n        /* \"source/ExStorage.sol\":489:498  byteValue */\n      dup1\n        /* \"source/ExStorage.sol\":489:505  byteValue.length */\n      mload\n        /* \"source/ExStorage.sol\":509:510  0 */\n      0x00\n        /* \"source/ExStorage.sol\":489:510  byteValue.length != 0 */\n      sub\n        /* \"source/ExStorage.sol\":481:523  require(byteValue.length != 0, 'NO_VALUE') */\n      tag_149\n      jumpi\n      mload(0x40)\n      shl(0xe5, 0x461bcd)\n      dup2\n      mstore\n      0x04\n      add\n      tag_33\n      swap1\n      tag_34\n      jump\t// in\n    tag_149:\n        /* \"source/ExStorage.sol\":489:505  byteValue.length */\n      dup4\n      mload\n        /* \"source/ExStorage.sol\":2427:2431  _key */\n      dup5\n      swap1\n      dup2\n      swap1\n        /* \"source/ExStorage.sol\":432:454  bytes memory byteValue */\n      0x00\n        /* \"source/ExStorage.sol\":489:510  byteValue.length != 0 */\n      sub\n        /* \"source/ExStorage.sol\":481:523  require(byteValue.length != 0, 'NO_VALUE') */\n      tag_152\n      jumpi\n      mload(0x40)\n      shl(0xe5, 0x461bcd)\n      dup2\n      mstore\n      0x04\n      add\n      tag_33\n      swap1\n      tag_34\n      jump\t// in\n    tag_152:\n        /* \"source/ExStorage.sol\":2491:2500  scopeData */\n      0x01\n        /* \"source/ExStorage.sol\":2501:2510  _scopeKey */\n      dup8\n        /* \"source/ExStorage.sol\":2491:2511  scopeData[_scopeKey] */\n      mload(0x40)\n      tag_155\n      swap2\n      swap1\n      tag_57\n      jump\t// in\n    tag_155:\n      swap1\n      dup2\n      mstore\n      0x20\n      add\n      mload(0x40)\n      dup1\n      swap2\n      sub\n      swap1\n      keccak256\n        /* \"source/ExStorage.sol\":2512:2516  _key */\n      dup7\n        /* \"source/ExStorage.sol\":2491:2517  scopeData[_scopeKey][_key] */\n      mload(0x40)\n      tag_156\n      swap2\n      swap1\n      tag_57\n      jump\t// in\n    tag_156:\n      swap1\n      dup2\n      mstore\n      0x20\n      add\n      mload(0x40)\n      dup1\n      swap2\n      sub\n      swap1\n      keccak256\n        /* \"source/ExStorage.sol\":2484:2517  return scopeData[_scopeKey][_key] */\n      dup1\n      sload\n      tag_157\n      swap1\n      tag_91\n      jump\t// in\n    tag_157:\n      dup1\n      0x1f\n      add\n      0x20\n      dup1\n      swap2\n      div\n      mul\n      0x20\n      add\n      mload(0x40)\n      swap1\n      dup2\n      add\n      0x40\n      mstore\n      dup1\n      swap3\n      swap2\n      swap1\n      dup2\n      dup2\n      mstore\n      0x20\n      add\n      dup3\n      dup1\n      sload\n      tag_158\n      swap1\n      tag_91\n      jump\t// in\n    tag_158:\n      dup1\n      iszero\n      tag_159\n      jumpi\n      dup1\n      0x1f\n      lt\n      tag_160\n      jumpi\n      0x0100\n      dup1\n      dup4\n      sload\n      div\n      mul\n      dup4\n      mstore\n      swap2\n      0x20\n      add\n      swap2\n      jump(tag_159)\n    tag_160:\n      dup3\n      add\n      swap2\n      swap1\n      0x00\n      mstore\n      keccak256(0x00, 0x20)\n      swap1\n    tag_161:\n      dup2\n      sload\n      dup2\n      mstore\n      swap1\n      0x01\n      add\n      swap1\n      0x20\n      add\n      dup1\n      dup4\n      gt\n      tag_161\n      jumpi\n      dup3\n      swap1\n      sub\n      0x1f\n      and\n      dup3\n      add\n      swap2\n    tag_159:\n      pop\n      pop\n      pop\n      pop\n      pop\n      swap5\n      pop\n        /* \"source/ExStorage.sol\":421:543  {... */\n      pop\n        /* \"source/ExStorage.sol\":534:535  _ */\n      pop\n        /* \"source/ExStorage.sol\":421:543  {... */\n      pop\n        /* \"source/ExStorage.sol\":2255:2525  function getScopeKeyData(... */\n      pop\n      swap3\n      swap2\n      pop\n      pop\n      jump\t// out\n    tag_147:\n      pop\n      dup1\n      sload\n      0x00\n      dup3\n      sstore\n      swap1\n      0x00\n      mstore\n      keccak256(0x00, 0x20)\n      swap1\n      dup2\n      add\n      swap1\n      tag_163\n      swap2\n      swap1\n      tag_164\n      jump\t// in\n    tag_163:\n      pop\n      jump\t// out\n    tag_164:\n      dup1\n      dup3\n      gt\n      iszero\n      tag_166\n      jumpi\n      0x00\n      tag_167\n      dup3\n      dup3\n      tag_168\n      jump\t// in\n    tag_167:\n      pop\n      0x01\n      add\n      jump(tag_164)\n    tag_166:\n      pop\n      swap1\n      jump\t// out\n    tag_168:\n      pop\n      dup1\n      sload\n      tag_169\n      swap1\n      tag_91\n      jump\t// in\n    tag_169:\n      0x00\n      dup3\n      sstore\n      dup1\n      0x1f\n      lt\n      tag_171\n      jumpi\n      pop\n      pop\n      jump\t// out\n    tag_171:\n      0x1f\n      add\n      0x20\n      swap1\n      div\n      swap1\n      0x00\n      mstore\n      keccak256(0x00, 0x20)\n      swap1\n      dup2\n      add\n      swap1\n      tag_163\n      swap2\n      swap1\n    tag_174:\n      dup1\n      dup3\n      gt\n      iszero\n      tag_166\n      jumpi\n      0x00\n      dup2\n      sstore\n      0x01\n      add\n      jump(tag_174)\n        /* \"#utility.yul\":14:141   */\n    tag_76:\n        /* \"#utility.yul\":75:85   */\n      0x4e487b71\n        /* \"#utility.yul\":70:73   */\n      0xe0\n        /* \"#utility.yul\":66:86   */\n      shl\n        /* \"#utility.yul\":63:64   */\n      0x00\n        /* \"#utility.yul\":56:87   */\n      mstore\n        /* \"#utility.yul\":106:110   */\n      0x41\n        /* \"#utility.yul\":103:104   */\n      0x04\n        /* \"#utility.yul\":96:111   */\n      mstore\n        /* \"#utility.yul\":130:134   */\n      0x24\n        /* \"#utility.yul\":127:128   */\n      0x00\n        /* \"#utility.yul\":120:135   */\n      revert\n        /* \"#utility.yul\":146:403   */\n    tag_176:\n        /* \"#utility.yul\":218:222   */\n      0x40\n        /* \"#utility.yul\":212:223   */\n      dup1\n      mload\n      swap1\n        /* \"#utility.yul\":250:267   */\n      dup2\n      add\n        /* \"#utility.yul\":297:315   */\n      0xffffffffffffffff\n        /* \"#utility.yul\":282:316   */\n      dup2\n      gt\n        /* \"#utility.yul\":318:340   */\n      dup3\n      dup3\n      lt\n        /* \"#utility.yul\":279:341   */\n      or\n        /* \"#utility.yul\":276:364   */\n      iszero\n      tag_189\n      jumpi\n        /* \"#utility.yul\":344:362   */\n      tag_189\n      tag_76\n      jump\t// in\n    tag_189:\n        /* \"#utility.yul\":380:384   */\n      0x40\n        /* \"#utility.yul\":373:397   */\n      mstore\n        /* \"#utility.yul\":146:403   */\n      swap1\n      jump\t// out\n        /* \"#utility.yul\":408:683   */\n    tag_177:\n        /* \"#utility.yul\":479:481   */\n      0x40\n        /* \"#utility.yul\":473:482   */\n      mload\n        /* \"#utility.yul\":544:546   */\n      0x1f\n        /* \"#utility.yul\":525:538   */\n      dup3\n      add\n      not(0x1f)\n        /* \"#utility.yul\":521:548   */\n      and\n        /* \"#utility.yul\":509:549   */\n      dup2\n      add\n        /* \"#utility.yul\":579:597   */\n      0xffffffffffffffff\n        /* \"#utility.yul\":564:598   */\n      dup2\n      gt\n        /* \"#utility.yul\":600:622   */\n      dup3\n      dup3\n      lt\n        /* \"#utility.yul\":561:623   */\n      or\n        /* \"#utility.yul\":558:646   */\n      iszero\n      tag_192\n      jumpi\n        /* \"#utility.yul\":626:644   */\n      tag_192\n      tag_76\n      jump\t// in\n    tag_192:\n        /* \"#utility.yul\":662:664   */\n      0x40\n        /* \"#utility.yul\":655:677   */\n      mstore\n        /* \"#utility.yul\":408:683   */\n      swap2\n      swap1\n      pop\n      jump\t// out\n        /* \"#utility.yul\":688:875   */\n    tag_178:\n        /* \"#utility.yul\":737:741   */\n      0x00\n        /* \"#utility.yul\":770:788   */\n      0xffffffffffffffff\n        /* \"#utility.yul\":762:768   */\n      dup3\n        /* \"#utility.yul\":759:789   */\n      gt\n        /* \"#utility.yul\":756:812   */\n      iszero\n      tag_195\n      jumpi\n        /* \"#utility.yul\":792:810   */\n      tag_195\n      tag_76\n      jump\t// in\n    tag_195:\n      pop\n        /* \"#utility.yul\":858:860   */\n      0x1f\n        /* \"#utility.yul\":837:852   */\n      add\n      not(0x1f)\n        /* \"#utility.yul\":833:862   */\n      and\n        /* \"#utility.yul\":864:868   */\n      0x20\n        /* \"#utility.yul\":829:869   */\n      add\n      swap1\n        /* \"#utility.yul\":688:875   */\n      jump\t// out\n        /* \"#utility.yul\":880:1344   */\n    tag_179:\n        /* \"#utility.yul\":923:928   */\n      0x00\n        /* \"#utility.yul\":976:979   */\n      dup3\n        /* \"#utility.yul\":969:973   */\n      0x1f\n        /* \"#utility.yul\":961:967   */\n      dup4\n        /* \"#utility.yul\":957:974   */\n      add\n        /* \"#utility.yul\":953:980   */\n      slt\n        /* \"#utility.yul\":943:998   */\n      tag_197\n      jumpi\n        /* \"#utility.yul\":994:995   */\n      0x00\n        /* \"#utility.yul\":991:992   */\n      dup1\n        /* \"#utility.yul\":984:996   */\n      revert\n        /* \"#utility.yul\":943:998   */\n    tag_197:\n        /* \"#utility.yul\":1030:1036   */\n      dup2\n        /* \"#utility.yul\":1017:1037   */\n      calldataload\n        /* \"#utility.yul\":1061:1110   */\n      tag_198\n        /* \"#utility.yul\":1077:1109   */\n      tag_199\n        /* \"#utility.yul\":1106:1108   */\n      dup3\n        /* \"#utility.yul\":1077:1109   */\n      tag_178\n      jump\t// in\n    tag_199:\n        /* \"#utility.yul\":1061:1110   */\n      tag_177\n      jump\t// in\n    tag_198:\n        /* \"#utility.yul\":1135:1137   */\n      dup2\n        /* \"#utility.yul\":1126:1133   */\n      dup2\n        /* \"#utility.yul\":1119:1138   */\n      mstore\n        /* \"#utility.yul\":1181:1184   */\n      dup5\n        /* \"#utility.yul\":1174:1178   */\n      0x20\n        /* \"#utility.yul\":1169:1171   */\n      dup4\n        /* \"#utility.yul\":1161:1167   */\n      dup7\n        /* \"#utility.yul\":1157:1172   */\n      add\n        /* \"#utility.yul\":1153:1179   */\n      add\n        /* \"#utility.yul\":1150:1185   */\n      gt\n        /* \"#utility.yul\":1147:1202   */\n      iszero\n      tag_200\n      jumpi\n        /* \"#utility.yul\":1198:1199   */\n      0x00\n        /* \"#utility.yul\":1195:1196   */\n      dup1\n        /* \"#utility.yul\":1188:1200   */\n      revert\n        /* \"#utility.yul\":1147:1202   */\n    tag_200:\n        /* \"#utility.yul\":1263:1265   */\n      dup2\n        /* \"#utility.yul\":1256:1260   */\n      0x20\n        /* \"#utility.yul\":1248:1254   */\n      dup6\n        /* \"#utility.yul\":1244:1261   */\n      add\n        /* \"#utility.yul\":1237:1241   */\n      0x20\n        /* \"#utility.yul\":1228:1235   */\n      dup4\n        /* \"#utility.yul\":1224:1242   */\n      add\n        /* \"#utility.yul\":1211:1266   */\n      calldatacopy\n        /* \"#utility.yul\":1311:1312   */\n      0x00\n        /* \"#utility.yul\":1286:1302   */\n      swap2\n      dup2\n      add\n        /* \"#utility.yul\":1304:1308   */\n      0x20\n        /* \"#utility.yul\":1282:1309   */\n      add\n        /* \"#utility.yul\":1275:1313   */\n      swap2\n      swap1\n      swap2\n      mstore\n        /* \"#utility.yul\":1290:1297   */\n      swap4\n        /* \"#utility.yul\":880:1344   */\n      swap3\n      pop\n      pop\n      pop\n      jump\t// out\n        /* \"#utility.yul\":1349:2092   */\n    tag_10:\n        /* \"#utility.yul\":1456:1462   */\n      0x00\n        /* \"#utility.yul\":1464:1470   */\n      dup1\n        /* \"#utility.yul\":1472:1478   */\n      0x00\n        /* \"#utility.yul\":1525:1527   */\n      0x60\n        /* \"#utility.yul\":1513:1522   */\n      dup5\n        /* \"#utility.yul\":1504:1511   */\n      dup7\n        /* \"#utility.yul\":1500:1523   */\n      sub\n        /* \"#utility.yul\":1496:1528   */\n      slt\n        /* \"#utility.yul\":1493:1545   */\n      iszero\n      tag_202\n      jumpi\n        /* \"#utility.yul\":1541:1542   */\n      0x00\n        /* \"#utility.yul\":1538:1539   */\n      dup1\n        /* \"#utility.yul\":1531:1543   */\n      revert\n        /* \"#utility.yul\":1493:1545   */\n    tag_202:\n        /* \"#utility.yul\":1581:1590   */\n      dup4\n        /* \"#utility.yul\":1568:1591   */\n      calldataload\n        /* \"#utility.yul\":1610:1628   */\n      0xffffffffffffffff\n        /* \"#utility.yul\":1651:1653   */\n      dup1\n        /* \"#utility.yul\":1643:1649   */\n      dup3\n        /* \"#utility.yul\":1640:1654   */\n      gt\n        /* \"#utility.yul\":1637:1671   */\n      iszero\n      tag_203\n      jumpi\n        /* \"#utility.yul\":1667:1668   */\n      0x00\n        /* \"#utility.yul\":1664:1665   */\n      dup1\n        /* \"#utility.yul\":1657:1669   */\n      revert\n        /* \"#utility.yul\":1637:1671   */\n    tag_203:\n        /* \"#utility.yul\":1690:1740   */\n      tag_204\n        /* \"#utility.yul\":1732:1739   */\n      dup8\n        /* \"#utility.yul\":1723:1729   */\n      dup4\n        /* \"#utility.yul\":1712:1721   */\n      dup9\n        /* \"#utility.yul\":1708:1730   */\n      add\n        /* \"#utility.yul\":1690:1740   */\n      tag_179\n      jump\t// in\n    tag_204:\n        /* \"#utility.yul\":1680:1740   */\n      swap5\n      pop\n        /* \"#utility.yul\":1793:1795   */\n      0x20\n        /* \"#utility.yul\":1782:1791   */\n      dup7\n        /* \"#utility.yul\":1778:1796   */\n      add\n        /* \"#utility.yul\":1765:1797   */\n      calldataload\n        /* \"#utility.yul\":1749:1797   */\n      swap2\n      pop\n        /* \"#utility.yul\":1822:1824   */\n      dup1\n        /* \"#utility.yul\":1812:1820   */\n      dup3\n        /* \"#utility.yul\":1809:1825   */\n      gt\n        /* \"#utility.yul\":1806:1842   */\n      iszero\n      tag_205\n      jumpi\n        /* \"#utility.yul\":1838:1839   */\n      0x00\n        /* \"#utility.yul\":1835:1836   */\n      dup1\n        /* \"#utility.yul\":1828:1840   */\n      revert\n        /* \"#utility.yul\":1806:1842   */\n    tag_205:\n        /* \"#utility.yul\":1861:1913   */\n      tag_206\n        /* \"#utility.yul\":1905:1912   */\n      dup8\n        /* \"#utility.yul\":1894:1902   */\n      dup4\n        /* \"#utility.yul\":1883:1892   */\n      dup9\n        /* \"#utility.yul\":1879:1903   */\n      add\n        /* \"#utility.yul\":1861:1913   */\n      tag_179\n      jump\t// in\n    tag_206:\n        /* \"#utility.yul\":1851:1913   */\n      swap4\n      pop\n        /* \"#utility.yul\":1966:1968   */\n      0x40\n        /* \"#utility.yul\":1955:1964   */\n      dup7\n        /* \"#utility.yul\":1951:1969   */\n      add\n        /* \"#utility.yul\":1938:1970   */\n      calldataload\n        /* \"#utility.yul\":1922:1970   */\n      swap2\n      pop\n        /* \"#utility.yul\":1995:1997   */\n      dup1\n        /* \"#utility.yul\":1985:1993   */\n      dup3\n        /* \"#utility.yul\":1982:1998   */\n      gt\n        /* \"#utility.yul\":1979:2015   */\n      iszero\n      tag_207\n      jumpi\n        /* \"#utility.yul\":2011:2012   */\n      0x00\n        /* \"#utility.yul\":2008:2009   */\n      dup1\n        /* \"#utility.yul\":2001:2013   */\n      revert\n        /* \"#utility.yul\":1979:2015   */\n    tag_207:\n      pop\n        /* \"#utility.yul\":2034:2086   */\n      tag_208\n        /* \"#utility.yul\":2078:2085   */\n      dup7\n        /* \"#utility.yul\":2067:2075   */\n      dup3\n        /* \"#utility.yul\":2056:2065   */\n      dup8\n        /* \"#utility.yul\":2052:2076   */\n      add\n        /* \"#utility.yul\":2034:2086   */\n      tag_179\n      jump\t// in\n    tag_208:\n        /* \"#utility.yul\":2024:2086   */\n      swap2\n      pop\n      pop\n        /* \"#utility.yul\":1349:2092   */\n      swap3\n      pop\n      swap3\n      pop\n      swap3\n      jump\t// out\n        /* \"#utility.yul\":2097:2419   */\n    tag_14:\n        /* \"#utility.yul\":2166:2172   */\n      0x00\n        /* \"#utility.yul\":2219:2221   */\n      0x20\n        /* \"#utility.yul\":2207:2216   */\n      dup3\n        /* \"#utility.yul\":2198:2205   */\n      dup5\n        /* \"#utility.yul\":2194:2217   */\n      sub\n        /* \"#utility.yul\":2190:2222   */\n      slt\n        /* \"#utility.yul\":2187:2239   */\n      iszero\n      tag_210\n      jumpi\n        /* \"#utility.yul\":2235:2236   */\n      0x00\n        /* \"#utility.yul\":2232:2233   */\n      dup1\n        /* \"#utility.yul\":2225:2237   */\n      revert\n        /* \"#utility.yul\":2187:2239   */\n    tag_210:\n        /* \"#utility.yul\":2275:2284   */\n      dup2\n        /* \"#utility.yul\":2262:2285   */\n      calldataload\n        /* \"#utility.yul\":2308:2326   */\n      0xffffffffffffffff\n        /* \"#utility.yul\":2300:2306   */\n      dup2\n        /* \"#utility.yul\":2297:2327   */\n      gt\n        /* \"#utility.yul\":2294:2344   */\n      iszero\n      tag_211\n      jumpi\n        /* \"#utility.yul\":2340:2341   */\n      0x00\n        /* \"#utility.yul\":2337:2338   */\n      dup1\n        /* \"#utility.yul\":2330:2342   */\n      revert\n        /* \"#utility.yul\":2294:2344   */\n    tag_211:\n        /* \"#utility.yul\":2363:2413   */\n      tag_212\n        /* \"#utility.yul\":2405:2412   */\n      dup5\n        /* \"#utility.yul\":2396:2402   */\n      dup3\n        /* \"#utility.yul\":2385:2394   */\n      dup6\n        /* \"#utility.yul\":2381:2403   */\n      add\n        /* \"#utility.yul\":2363:2413   */\n      tag_179\n      jump\t// in\n    tag_212:\n        /* \"#utility.yul\":2353:2413   */\n      swap5\n        /* \"#utility.yul\":2097:2419   */\n      swap4\n      pop\n      pop\n      pop\n      pop\n      jump\t// out\n        /* \"#utility.yul\":2424:2674   */\n    tag_180:\n        /* \"#utility.yul\":2509:2510   */\n      0x00\n        /* \"#utility.yul\":2519:2632   */\n    tag_214:\n        /* \"#utility.yul\":2533:2539   */\n      dup4\n        /* \"#utility.yul\":2530:2531   */\n      dup2\n        /* \"#utility.yul\":2527:2540   */\n      lt\n        /* \"#utility.yul\":2519:2632   */\n      iszero\n      tag_216\n      jumpi\n        /* \"#utility.yul\":2609:2620   */\n      dup2\n      dup2\n      add\n        /* \"#utility.yul\":2603:2621   */\n      mload\n        /* \"#utility.yul\":2590:2601   */\n      dup4\n      dup3\n      add\n        /* \"#utility.yul\":2583:2622   */\n      mstore\n        /* \"#utility.yul\":2555:2557   */\n      0x20\n        /* \"#utility.yul\":2548:2558   */\n      add\n        /* \"#utility.yul\":2519:2632   */\n      jump(tag_214)\n    tag_216:\n      pop\n      pop\n        /* \"#utility.yul\":2666:2667   */\n      0x00\n        /* \"#utility.yul\":2648:2664   */\n      swap2\n      add\n        /* \"#utility.yul\":2641:2668   */\n      mstore\n        /* \"#utility.yul\":2424:2674   */\n      jump\t// out\n        /* \"#utility.yul\":2679:2950   */\n    tag_181:\n        /* \"#utility.yul\":2721:2724   */\n      0x00\n        /* \"#utility.yul\":2759:2764   */\n      dup2\n        /* \"#utility.yul\":2753:2765   */\n      mload\n        /* \"#utility.yul\":2786:2792   */\n      dup1\n        /* \"#utility.yul\":2781:2784   */\n      dup5\n        /* \"#utility.yul\":2774:2793   */\n      mstore\n        /* \"#utility.yul\":2802:2878   */\n      tag_218\n        /* \"#utility.yul\":2871:2877   */\n      dup2\n        /* \"#utility.yul\":2864:2868   */\n      0x20\n        /* \"#utility.yul\":2859:2862   */\n      dup7\n        /* \"#utility.yul\":2855:2869   */\n      add\n        /* \"#utility.yul\":2848:2852   */\n      0x20\n        /* \"#utility.yul\":2841:2846   */\n      dup7\n        /* \"#utility.yul\":2837:2853   */\n      add\n        /* \"#utility.yul\":2802:2878   */\n      tag_180\n      jump\t// in\n    tag_218:\n        /* \"#utility.yul\":2932:2934   */\n      0x1f\n        /* \"#utility.yul\":2911:2926   */\n      add\n      not(0x1f)\n        /* \"#utility.yul\":2907:2936   */\n      and\n        /* \"#utility.yul\":2898:2937   */\n      swap3\n      swap1\n      swap3\n      add\n        /* \"#utility.yul\":2939:2943   */\n      0x20\n        /* \"#utility.yul\":2894:2944   */\n      add\n      swap3\n        /* \"#utility.yul\":2679:2950   */\n      swap2\n      pop\n      pop\n      jump\t// out\n        /* \"#utility.yul\":2955:4110   */\n    tag_17:\n        /* \"#utility.yul\":3153:3157   */\n      0x00\n        /* \"#utility.yul\":3182:3184   */\n      0x20\n        /* \"#utility.yul\":3222:3224   */\n      dup1\n        /* \"#utility.yul\":3211:3220   */\n      dup4\n        /* \"#utility.yul\":3207:3225   */\n      add\n        /* \"#utility.yul\":3252:3254   */\n      dup2\n        /* \"#utility.yul\":3241:3250   */\n      dup5\n        /* \"#utility.yul\":3234:3255   */\n      mstore\n        /* \"#utility.yul\":3275:3281   */\n      dup1\n        /* \"#utility.yul\":3310:3316   */\n      dup6\n        /* \"#utility.yul\":3304:3317   */\n      mload\n        /* \"#utility.yul\":3341:3347   */\n      dup1\n        /* \"#utility.yul\":3333:3339   */\n      dup4\n        /* \"#utility.yul\":3326:3348   */\n      mstore\n        /* \"#utility.yul\":3367:3369   */\n      0x40\n        /* \"#utility.yul\":3357:3369   */\n      swap3\n      pop\n        /* \"#utility.yul\":3400:3402   */\n      dup3\n        /* \"#utility.yul\":3389:3398   */\n      dup7\n        /* \"#utility.yul\":3385:3403   */\n      add\n        /* \"#utility.yul\":3378:3403   */\n      swap2\n      pop\n        /* \"#utility.yul\":3462:3464   */\n      dup3\n        /* \"#utility.yul\":3452:3458   */\n      dup2\n        /* \"#utility.yul\":3449:3450   */\n      0x05\n        /* \"#utility.yul\":3445:3459   */\n      shl\n        /* \"#utility.yul\":3434:3443   */\n      dup8\n        /* \"#utility.yul\":3430:3460   */\n      add\n        /* \"#utility.yul\":3426:3465   */\n      add\n        /* \"#utility.yul\":3500:3502   */\n      dup5\n        /* \"#utility.yul\":3492:3498   */\n      dup9\n        /* \"#utility.yul\":3488:3503   */\n      add\n        /* \"#utility.yul\":3521:3522   */\n      0x00\n        /* \"#utility.yul\":3531:4081   */\n    tag_220:\n        /* \"#utility.yul\":3545:3551   */\n      dup4\n        /* \"#utility.yul\":3542:3543   */\n      dup2\n        /* \"#utility.yul\":3539:3552   */\n      lt\n        /* \"#utility.yul\":3531:4081   */\n      iszero\n      tag_222\n      jumpi\n        /* \"#utility.yul\":3610:3632   */\n      dup9\n      dup4\n      sub\n      not(0x3f)\n        /* \"#utility.yul\":3606:3642   */\n      add\n        /* \"#utility.yul\":3594:3643   */\n      dup6\n      mstore\n        /* \"#utility.yul\":3666:3679   */\n      dup2\n      mload\n        /* \"#utility.yul\":3712:3721   */\n      dup1\n      mload\n        /* \"#utility.yul\":3734:3752   */\n      dup8\n      dup6\n      mstore\n        /* \"#utility.yul\":3779:3827   */\n      tag_223\n        /* \"#utility.yul\":3811:3826   */\n      dup9\n      dup7\n      add\n        /* \"#utility.yul\":3712:3721   */\n      dup3\n        /* \"#utility.yul\":3779:3827   */\n      tag_181\n      jump\t// in\n    tag_223:\n        /* \"#utility.yul\":3868:3879   */\n      swap2\n      dup10\n      add\n        /* \"#utility.yul\":3862:3880   */\n      mload\n        /* \"#utility.yul\":3917:3936   */\n      dup6\n      dup4\n      sub\n        /* \"#utility.yul\":3900:3915   */\n      dup7\n      dup12\n      add\n        /* \"#utility.yul\":3893:3937   */\n      mstore\n        /* \"#utility.yul\":3862:3880   */\n      swap2\n        /* \"#utility.yul\":3765:3827   */\n      swap1\n      pop\n        /* \"#utility.yul\":3960:4001   */\n      tag_224\n        /* \"#utility.yul\":3765:3827   */\n      dup2\n        /* \"#utility.yul\":3862:3880   */\n      dup4\n        /* \"#utility.yul\":3960:4001   */\n      tag_181\n      jump\t// in\n    tag_224:\n        /* \"#utility.yul\":4059:4071   */\n      swap7\n      dup10\n      add\n      swap7\n        /* \"#utility.yul\":3950:4001   */\n      swap5\n      pop\n      pop\n      pop\n        /* \"#utility.yul\":4024:4039   */\n      swap1\n      dup7\n      add\n      swap1\n        /* \"#utility.yul\":3567:3568   */\n      0x01\n        /* \"#utility.yul\":3560:3569   */\n      add\n        /* \"#utility.yul\":3531:4081   */\n      jump(tag_220)\n    tag_222:\n      pop\n        /* \"#utility.yul\":4098:4104   */\n      swap1\n      swap9\n        /* \"#utility.yul\":2955:4110   */\n      swap8\n      pop\n      pop\n      pop\n      pop\n      pop\n      pop\n      pop\n      pop\n      jump\t// out\n        /* \"#utility.yul\":4338:4881   */\n    tag_27:\n        /* \"#utility.yul\":4426:4432   */\n      0x00\n        /* \"#utility.yul\":4434:4440   */\n      dup1\n        /* \"#utility.yul\":4487:4489   */\n      0x40\n        /* \"#utility.yul\":4475:4484   */\n      dup4\n        /* \"#utility.yul\":4466:4473   */\n      dup6\n        /* \"#utility.yul\":4462:4485   */\n      sub\n        /* \"#utility.yul\":4458:4490   */\n      slt\n        /* \"#utility.yul\":4455:4507   */\n      iszero\n      tag_227\n      jumpi\n        /* \"#utility.yul\":4503:4504   */\n      0x00\n        /* \"#utility.yul\":4500:4501   */\n      dup1\n        /* \"#utility.yul\":4493:4505   */\n      revert\n        /* \"#utility.yul\":4455:4507   */\n    tag_227:\n        /* \"#utility.yul\":4543:4552   */\n      dup3\n        /* \"#utility.yul\":4530:4553   */\n      calldataload\n        /* \"#utility.yul\":4572:4590   */\n      0xffffffffffffffff\n        /* \"#utility.yul\":4613:4615   */\n      dup1\n        /* \"#utility.yul\":4605:4611   */\n      dup3\n        /* \"#utility.yul\":4602:4616   */\n      gt\n        /* \"#utility.yul\":4599:4633   */\n      iszero\n      tag_228\n      jumpi\n        /* \"#utility.yul\":4629:4630   */\n      0x00\n        /* \"#utility.yul\":4626:4627   */\n      dup1\n        /* \"#utility.yul\":4619:4631   */\n      revert\n        /* \"#utility.yul\":4599:4633   */\n    tag_228:\n        /* \"#utility.yul\":4652:4702   */\n      tag_229\n        /* \"#utility.yul\":4694:4701   */\n      dup7\n        /* \"#utility.yul\":4685:4691   */\n      dup4\n        /* \"#utility.yul\":4674:4683   */\n      dup8\n        /* \"#utility.yul\":4670:4692   */\n      add\n        /* \"#utility.yul\":4652:4702   */\n      tag_179\n      jump\t// in\n    tag_229:\n        /* \"#utility.yul\":4642:4702   */\n      swap4\n      pop\n        /* \"#utility.yul\":4755:4757   */\n      0x20\n        /* \"#utility.yul\":4744:4753   */\n      dup6\n        /* \"#utility.yul\":4740:4758   */\n      add\n        /* \"#utility.yul\":4727:4759   */\n      calldataload\n        /* \"#utility.yul\":4711:4759   */\n      swap2\n      pop\n        /* \"#utility.yul\":4784:4786   */\n      dup1\n        /* \"#utility.yul\":4774:4782   */\n      dup3\n        /* \"#utility.yul\":4771:4787   */\n      gt\n        /* \"#utility.yul\":4768:4804   */\n      iszero\n      tag_230\n      jumpi\n        /* \"#utility.yul\":4800:4801   */\n      0x00\n        /* \"#utility.yul\":4797:4798   */\n      dup1\n        /* \"#utility.yul\":4790:4802   */\n      revert\n        /* \"#utility.yul\":4768:4804   */\n    tag_230:\n      pop\n        /* \"#utility.yul\":4823:4875   */\n      tag_231\n        /* \"#utility.yul\":4867:4874   */\n      dup6\n        /* \"#utility.yul\":4856:4864   */\n      dup3\n        /* \"#utility.yul\":4845:4854   */\n      dup7\n        /* \"#utility.yul\":4841:4865   */\n      add\n        /* \"#utility.yul\":4823:4875   */\n      tag_179\n      jump\t// in\n    tag_231:\n        /* \"#utility.yul\":4813:4875   */\n      swap2\n      pop\n      pop\n        /* \"#utility.yul\":4338:4881   */\n      swap3\n      pop\n      swap3\n      swap1\n      pop\n      jump\t// out\n        /* \"#utility.yul\":4886:5106   */\n    tag_30:\n        /* \"#utility.yul\":5035:5037   */\n      0x20\n        /* \"#utility.yul\":5024:5033   */\n      dup2\n        /* \"#utility.yul\":5017:5038   */\n      mstore\n        /* \"#utility.yul\":4998:5002   */\n      0x00\n        /* \"#utility.yul\":5055:5100   */\n      tag_233\n        /* \"#utility.yul\":5096:5098   */\n      0x20\n        /* \"#utility.yul\":5085:5094   */\n      dup4\n        /* \"#utility.yul\":5081:5099   */\n      add\n        /* \"#utility.yul\":5073:5079   */\n      dup5\n        /* \"#utility.yul\":5055:5100   */\n      tag_181\n      jump\t// in\n    tag_233:\n        /* \"#utility.yul\":5047:5100   */\n      swap4\n        /* \"#utility.yul\":4886:5106   */\n      swap3\n      pop\n      pop\n      pop\n      jump\t// out\n        /* \"#utility.yul\":5111:5442   */\n    tag_34:\n        /* \"#utility.yul\":5313:5315   */\n      0x20\n        /* \"#utility.yul\":5295:5316   */\n      dup1\n      dup3\n      mstore\n        /* \"#utility.yul\":5352:5353   */\n      0x08\n        /* \"#utility.yul\":5332:5350   */\n      swap1\n      dup3\n      add\n        /* \"#utility.yul\":5325:5354   */\n      mstore\n      shl(0xc0, 0x4e4f5f56414c5545)\n        /* \"#utility.yul\":5385:5387   */\n      0x40\n        /* \"#utility.yul\":5370:5388   */\n      dup3\n      add\n        /* \"#utility.yul\":5363:5401   */\n      mstore\n        /* \"#utility.yul\":5433:5435   */\n      0x60\n        /* \"#utility.yul\":5418:5436   */\n      add\n      swap1\n        /* \"#utility.yul\":5111:5442   */\n      jump\t// out\n        /* \"#utility.yul\":5447:6556   */\n    tag_46:\n        /* \"#utility.yul\":5536:5542   */\n      0x00\n        /* \"#utility.yul\":5567:5569   */\n      0x20\n        /* \"#utility.yul\":5610:5612   */\n      dup1\n        /* \"#utility.yul\":5598:5607   */\n      dup4\n        /* \"#utility.yul\":5589:5596   */\n      dup6\n        /* \"#utility.yul\":5585:5608   */\n      sub\n        /* \"#utility.yul\":5581:5613   */\n      slt\n        /* \"#utility.yul\":5578:5630   */\n      iszero\n      tag_236\n      jumpi\n        /* \"#utility.yul\":5626:5627   */\n      0x00\n        /* \"#utility.yul\":5623:5624   */\n      dup1\n        /* \"#utility.yul\":5616:5628   */\n      revert\n        /* \"#utility.yul\":5578:5630   */\n    tag_236:\n        /* \"#utility.yul\":5659:5668   */\n      dup3\n        /* \"#utility.yul\":5653:5669   */\n      mload\n        /* \"#utility.yul\":5688:5706   */\n      0xffffffffffffffff\n        /* \"#utility.yul\":5729:5731   */\n      dup1\n        /* \"#utility.yul\":5721:5727   */\n      dup3\n        /* \"#utility.yul\":5718:5732   */\n      gt\n        /* \"#utility.yul\":5715:5749   */\n      iszero\n      tag_237\n      jumpi\n        /* \"#utility.yul\":5745:5746   */\n      0x00\n        /* \"#utility.yul\":5742:5743   */\n      dup1\n        /* \"#utility.yul\":5735:5747   */\n      revert\n        /* \"#utility.yul\":5715:5749   */\n    tag_237:\n        /* \"#utility.yul\":5768:5790   */\n      swap1\n      dup5\n      add\n      swap1\n        /* \"#utility.yul\":5824:5828   */\n      0x40\n        /* \"#utility.yul\":5806:5822   */\n      dup3\n      dup8\n      sub\n        /* \"#utility.yul\":5802:5829   */\n      slt\n        /* \"#utility.yul\":5799:5846   */\n      iszero\n      tag_238\n      jumpi\n        /* \"#utility.yul\":5842:5843   */\n      0x00\n        /* \"#utility.yul\":5839:5840   */\n      dup1\n        /* \"#utility.yul\":5832:5844   */\n      revert\n        /* \"#utility.yul\":5799:5846   */\n    tag_238:\n        /* \"#utility.yul\":5868:5890   */\n      tag_239\n      tag_176\n      jump\t// in\n    tag_239:\n        /* \"#utility.yul\":5914:5923   */\n      dup3\n      mload\n      sub(shl(0xa0, 0x01), 0x01)\n        /* \"#utility.yul\":5954:5987   */\n      dup2\n      and\n        /* \"#utility.yul\":5942:5988   */\n      dup2\n      eq\n        /* \"#utility.yul\":5932:6006   */\n      tag_240\n      jumpi\n        /* \"#utility.yul\":6002:6003   */\n      0x00\n        /* \"#utility.yul\":5999:6000   */\n      dup1\n        /* \"#utility.yul\":5992:6004   */\n      revert\n        /* \"#utility.yul\":5932:6006   */\n    tag_240:\n        /* \"#utility.yul\":6015:6037   */\n      dup2\n      mstore\n        /* \"#utility.yul\":6068:6079   */\n      dup3\n      dup5\n      add\n        /* \"#utility.yul\":6062:6080   */\n      mload\n        /* \"#utility.yul\":6092:6108   */\n      dup3\n      dup2\n      gt\n        /* \"#utility.yul\":6089:6125   */\n      iszero\n      tag_241\n      jumpi\n        /* \"#utility.yul\":6121:6122   */\n      0x00\n        /* \"#utility.yul\":6118:6119   */\n      dup1\n        /* \"#utility.yul\":6111:6123   */\n      revert\n        /* \"#utility.yul\":6089:6125   */\n    tag_241:\n        /* \"#utility.yul\":6152:6160   */\n      dup1\n        /* \"#utility.yul\":6148:6150   */\n      dup5\n        /* \"#utility.yul\":6144:6161   */\n      add\n        /* \"#utility.yul\":6134:6161   */\n      swap4\n      pop\n      pop\n        /* \"#utility.yul\":6199:6206   */\n      dup7\n        /* \"#utility.yul\":6192:6196   */\n      0x1f\n        /* \"#utility.yul\":6188:6190   */\n      dup5\n        /* \"#utility.yul\":6184:6197   */\n      add\n        /* \"#utility.yul\":6180:6207   */\n      slt\n        /* \"#utility.yul\":6170:6225   */\n      tag_242\n      jumpi\n        /* \"#utility.yul\":6221:6222   */\n      0x00\n        /* \"#utility.yul\":6218:6219   */\n      dup1\n        /* \"#utility.yul\":6211:6223   */\n      revert\n        /* \"#utility.yul\":6170:6225   */\n    tag_242:\n        /* \"#utility.yul\":6250:6252   */\n      dup3\n        /* \"#utility.yul\":6244:6253   */\n      mload\n        /* \"#utility.yul\":6234:6253   */\n      swap2\n      pop\n        /* \"#utility.yul\":6275:6324   */\n      tag_243\n        /* \"#utility.yul\":6291:6323   */\n      tag_199\n        /* \"#utility.yul\":6320:6322   */\n      dup4\n        /* \"#utility.yul\":6291:6323   */\n      tag_178\n      jump\t// in\n        /* \"#utility.yul\":6275:6324   */\n    tag_243:\n        /* \"#utility.yul\":6347:6349   */\n      dup3\n        /* \"#utility.yul\":6340:6345   */\n      dup2\n        /* \"#utility.yul\":6333:6350   */\n      mstore\n        /* \"#utility.yul\":6387:6394   */\n      dup8\n        /* \"#utility.yul\":6382:6384   */\n      dup6\n        /* \"#utility.yul\":6377:6379   */\n      dup5\n        /* \"#utility.yul\":6373:6375   */\n      dup7\n        /* \"#utility.yul\":6369:6380   */\n      add\n        /* \"#utility.yul\":6365:6385   */\n      add\n        /* \"#utility.yul\":6362:6395   */\n      gt\n        /* \"#utility.yul\":6359:6412   */\n      iszero\n      tag_245\n      jumpi\n        /* \"#utility.yul\":6408:6409   */\n      0x00\n        /* \"#utility.yul\":6405:6406   */\n      dup1\n        /* \"#utility.yul\":6398:6410   */\n      revert\n        /* \"#utility.yul\":6359:6412   */\n    tag_245:\n        /* \"#utility.yul\":6421:6488   */\n      tag_246\n        /* \"#utility.yul\":6485:6487   */\n      dup4\n        /* \"#utility.yul\":6480:6482   */\n      dup7\n        /* \"#utility.yul\":6473:6478   */\n      dup4\n        /* \"#utility.yul\":6469:6483   */\n      add\n        /* \"#utility.yul\":6464:6466   */\n      dup8\n        /* \"#utility.yul\":6460:6462   */\n      dup8\n        /* \"#utility.yul\":6456:6467   */\n      add\n        /* \"#utility.yul\":6421:6488   */\n      tag_180\n      jump\t// in\n    tag_246:\n        /* \"#utility.yul\":6504:6518   */\n      swap4\n      dup2\n      add\n        /* \"#utility.yul\":6497:6526   */\n      swap4\n      swap1\n      swap4\n      mstore\n      pop\n        /* \"#utility.yul\":6508:6513   */\n      swap1\n      swap5\n        /* \"#utility.yul\":5447:6556   */\n      swap4\n      pop\n      pop\n      pop\n      pop\n      jump\t// out\n        /* \"#utility.yul\":7257:7546   */\n    tag_57:\n        /* \"#utility.yul\":7388:7391   */\n      0x00\n        /* \"#utility.yul\":7426:7432   */\n      dup3\n        /* \"#utility.yul\":7420:7433   */\n      mload\n        /* \"#utility.yul\":7442:7508   */\n      tag_250\n        /* \"#utility.yul\":7501:7507   */\n      dup2\n        /* \"#utility.yul\":7496:7499   */\n      dup5\n        /* \"#utility.yul\":7489:7493   */\n      0x20\n        /* \"#utility.yul\":7481:7487   */\n      dup8\n        /* \"#utility.yul\":7477:7494   */\n      add\n        /* \"#utility.yul\":7442:7508   */\n      tag_180\n      jump\t// in\n    tag_250:\n        /* \"#utility.yul\":7524:7540   */\n      swap2\n      swap1\n      swap2\n      add\n      swap3\n        /* \"#utility.yul\":7257:7546   */\n      swap2\n      pop\n      pop\n      jump\t// out\n        /* \"#utility.yul\":7551:7931   */\n    tag_91:\n        /* \"#utility.yul\":7630:7631   */\n      0x01\n        /* \"#utility.yul\":7626:7638   */\n      dup2\n      dup2\n      shr\n      swap1\n        /* \"#utility.yul\":7673:7685   */\n      dup3\n      and\n      dup1\n        /* \"#utility.yul\":7694:7755   */\n      tag_252\n      jumpi\n        /* \"#utility.yul\":7748:7752   */\n      0x7f\n        /* \"#utility.yul\":7740:7746   */\n      dup3\n        /* \"#utility.yul\":7736:7753   */\n      and\n        /* \"#utility.yul\":7726:7753   */\n      swap2\n      pop\n        /* \"#utility.yul\":7694:7755   */\n    tag_252:\n        /* \"#utility.yul\":7801:7803   */\n      0x20\n        /* \"#utility.yul\":7793:7799   */\n      dup3\n        /* \"#utility.yul\":7790:7804   */\n      lt\n        /* \"#utility.yul\":7770:7788   */\n      dup2\n        /* \"#utility.yul\":7767:7805   */\n      sub\n        /* \"#utility.yul\":7764:7925   */\n      tag_253\n      jumpi\n        /* \"#utility.yul\":7847:7857   */\n      0x4e487b71\n        /* \"#utility.yul\":7842:7845   */\n      0xe0\n        /* \"#utility.yul\":7838:7858   */\n      shl\n        /* \"#utility.yul\":7835:7836   */\n      0x00\n        /* \"#utility.yul\":7828:7859   */\n      mstore\n        /* \"#utility.yul\":7882:7886   */\n      0x22\n        /* \"#utility.yul\":7879:7880   */\n      0x04\n        /* \"#utility.yul\":7872:7887   */\n      mstore\n        /* \"#utility.yul\":7910:7914   */\n      0x24\n        /* \"#utility.yul\":7907:7908   */\n      0x00\n        /* \"#utility.yul\":7900:7915   */\n      revert\n        /* \"#utility.yul\":7764:7925   */\n    tag_253:\n      pop\n        /* \"#utility.yul\":7551:7931   */\n      swap2\n      swap1\n      pop\n      jump\t// out\n        /* \"#utility.yul\":8062:8607   */\n    tag_183:\n        /* \"#utility.yul\":8164:8166   */\n      0x1f\n        /* \"#utility.yul\":8159:8162   */\n      dup3\n        /* \"#utility.yul\":8156:8167   */\n      gt\n        /* \"#utility.yul\":8153:8601   */\n      iszero\n      tag_256\n      jumpi\n        /* \"#utility.yul\":8200:8201   */\n      0x00\n        /* \"#utility.yul\":8225:8230   */\n      dup2\n        /* \"#utility.yul\":8221:8223   */\n      dup2\n        /* \"#utility.yul\":8214:8231   */\n      mstore\n        /* \"#utility.yul\":8270:8274   */\n      0x20\n        /* \"#utility.yul\":8266:8268   */\n      dup2\n        /* \"#utility.yul\":8256:8275   */\n      keccak256\n        /* \"#utility.yul\":8340:8342   */\n      0x1f\n        /* \"#utility.yul\":8328:8338   */\n      dup6\n        /* \"#utility.yul\":8324:8343   */\n      add\n        /* \"#utility.yul\":8321:8322   */\n      0x05\n        /* \"#utility.yul\":8317:8344   */\n      shr\n        /* \"#utility.yul\":8311:8315   */\n      dup2\n        /* \"#utility.yul\":8307:8345   */\n      add\n        /* \"#utility.yul\":8376:8380   */\n      0x20\n        /* \"#utility.yul\":8364:8374   */\n      dup7\n        /* \"#utility.yul\":8361:8381   */\n      lt\n        /* \"#utility.yul\":8358:8405   */\n      iszero\n      tag_257\n      jumpi\n      pop\n        /* \"#utility.yul\":8399:8403   */\n      dup1\n        /* \"#utility.yul\":8358:8405   */\n    tag_257:\n        /* \"#utility.yul\":8454:8456   */\n      0x1f\n        /* \"#utility.yul\":8449:8452   */\n      dup6\n        /* \"#utility.yul\":8445:8457   */\n      add\n        /* \"#utility.yul\":8442:8443   */\n      0x05\n        /* \"#utility.yul\":8438:8458   */\n      shr\n        /* \"#utility.yul\":8432:8436   */\n      dup3\n        /* \"#utility.yul\":8428:8459   */\n      add\n        /* \"#utility.yul\":8418:8459   */\n      swap2\n      pop\n        /* \"#utility.yul\":8509:8591   */\n    tag_258:\n        /* \"#utility.yul\":8527:8529   */\n      dup2\n        /* \"#utility.yul\":8520:8525   */\n      dup2\n        /* \"#utility.yul\":8517:8530   */\n      lt\n        /* \"#utility.yul\":8509:8591   */\n      iszero\n      tag_260\n      jumpi\n        /* \"#utility.yul\":8572:8589   */\n      dup3\n      dup2\n      sstore\n        /* \"#utility.yul\":8553:8554   */\n      0x01\n        /* \"#utility.yul\":8542:8555   */\n      add\n        /* \"#utility.yul\":8509:8591   */\n      jump(tag_258)\n    tag_260:\n        /* \"#utility.yul\":8513:8516   */\n      pop\n      pop\n      pop\n        /* \"#utility.yul\":8153:8601   */\n    tag_256:\n        /* \"#utility.yul\":8062:8607   */\n      pop\n      pop\n      pop\n      jump\t// out\n        /* \"#utility.yul\":8783:10135   */\n    tag_60:\n        /* \"#utility.yul\":8909:8912   */\n      dup2\n        /* \"#utility.yul\":8903:8913   */\n      mload\n        /* \"#utility.yul\":8936:8954   */\n      0xffffffffffffffff\n        /* \"#utility.yul\":8928:8934   */\n      dup2\n        /* \"#utility.yul\":8925:8955   */\n      gt\n        /* \"#utility.yul\":8922:8978   */\n      iszero\n      tag_264\n      jumpi\n        /* \"#utility.yul\":8958:8976   */\n      tag_264\n      tag_76\n      jump\t// in\n    tag_264:\n        /* \"#utility.yul\":8987:9084   */\n      tag_265\n        /* \"#utility.yul\":9077:9083   */\n      dup2\n        /* \"#utility.yul\":9037:9075   */\n      tag_266\n        /* \"#utility.yul\":9069:9073   */\n      dup5\n        /* \"#utility.yul\":9063:9074   */\n      sload\n        /* \"#utility.yul\":9037:9075   */\n      tag_91\n      jump\t// in\n    tag_266:\n        /* \"#utility.yul\":9031:9035   */\n      dup5\n        /* \"#utility.yul\":8987:9084   */\n      tag_183\n      jump\t// in\n    tag_265:\n        /* \"#utility.yul\":9139:9143   */\n      0x20\n      dup1\n        /* \"#utility.yul\":9203:9205   */\n      0x1f\n        /* \"#utility.yul\":9192:9206   */\n      dup4\n      gt\n        /* \"#utility.yul\":9220:9221   */\n      0x01\n        /* \"#utility.yul\":9215:9878   */\n      dup2\n      eq\n      tag_268\n      jumpi\n        /* \"#utility.yul\":9922:9923   */\n      0x00\n        /* \"#utility.yul\":9939:9945   */\n      dup5\n        /* \"#utility.yul\":9936:10025   */\n      iszero\n      tag_269\n      jumpi\n      pop\n        /* \"#utility.yul\":9991:10010   */\n      dup6\n      dup4\n      add\n        /* \"#utility.yul\":9985:10011   */\n      mload\n        /* \"#utility.yul\":9936:10025   */\n    tag_269:\n      not(0x00)\n        /* \"#utility.yul\":8740:8741   */\n      0x03\n        /* \"#utility.yul\":8736:8747   */\n      dup7\n      swap1\n      shl\n        /* \"#utility.yul\":8732:8756   */\n      shr\n        /* \"#utility.yul\":8728:8757   */\n      not\n        /* \"#utility.yul\":8718:8758   */\n      and\n        /* \"#utility.yul\":8764:8765   */\n      0x01\n        /* \"#utility.yul\":8760:8771   */\n      dup6\n      swap1\n      shl\n        /* \"#utility.yul\":8715:8772   */\n      or\n        /* \"#utility.yul\":10038:10119   */\n      dup6\n      sstore\n        /* \"#utility.yul\":9185:10129   */\n      jump(tag_260)\n        /* \"#utility.yul\":9215:9878   */\n    tag_268:\n        /* \"#utility.yul\":8009:8010   */\n      0x00\n        /* \"#utility.yul\":8002:8016   */\n      dup6\n      dup2\n      mstore\n        /* \"#utility.yul\":8046:8050   */\n      0x20\n        /* \"#utility.yul\":8033:8051   */\n      dup2\n      keccak256\n      not(0x1f)\n        /* \"#utility.yul\":9251:9271   */\n      dup7\n      and\n      swap2\n        /* \"#utility.yul\":9369:9605   */\n    tag_272:\n        /* \"#utility.yul\":9383:9390   */\n      dup3\n        /* \"#utility.yul\":9380:9381   */\n      dup2\n        /* \"#utility.yul\":9377:9391   */\n      lt\n        /* \"#utility.yul\":9369:9605   */\n      iszero\n      tag_274\n      jumpi\n        /* \"#utility.yul\":9472:9491   */\n      dup9\n      dup7\n      add\n        /* \"#utility.yul\":9466:9492   */\n      mload\n        /* \"#utility.yul\":9451:9493   */\n      dup3\n      sstore\n        /* \"#utility.yul\":9564:9591   */\n      swap5\n      dup5\n      add\n      swap5\n        /* \"#utility.yul\":9532:9533   */\n      0x01\n        /* \"#utility.yul\":9520:9534   */\n      swap1\n      swap2\n      add\n      swap1\n        /* \"#utility.yul\":9399:9418   */\n      dup5\n      add\n        /* \"#utility.yul\":9369:9605   */\n      jump(tag_272)\n    tag_274:\n        /* \"#utility.yul\":9373:9376   */\n      pop\n        /* \"#utility.yul\":9633:9639   */\n      dup6\n        /* \"#utility.yul\":9624:9631   */\n      dup3\n        /* \"#utility.yul\":9621:9640   */\n      lt\n        /* \"#utility.yul\":9618:9819   */\n      iszero\n      tag_275\n      jumpi\n        /* \"#utility.yul\":9694:9713   */\n      dup8\n      dup6\n      add\n        /* \"#utility.yul\":9688:9714   */\n      mload\n      not(0x00)\n        /* \"#utility.yul\":9777:9778   */\n      0x03\n        /* \"#utility.yul\":9773:9787   */\n      dup9\n      swap1\n      shl\n        /* \"#utility.yul\":9789:9792   */\n      0xf8\n        /* \"#utility.yul\":9769:9793   */\n      and\n        /* \"#utility.yul\":9765:9802   */\n      shr\n        /* \"#utility.yul\":9761:9803   */\n      not\n        /* \"#utility.yul\":9746:9804   */\n      and\n        /* \"#utility.yul\":9731:9805   */\n      dup2\n      sstore\n        /* \"#utility.yul\":9618:9819   */\n    tag_275:\n      pop\n      pop\n      pop\n      pop\n      pop\n        /* \"#utility.yul\":9865:9866   */\n      0x01\n        /* \"#utility.yul\":9849:9863   */\n      swap1\n      dup2\n      shl\n        /* \"#utility.yul\":9845:9867   */\n      add\n        /* \"#utility.yul\":9832:9868   */\n      swap1\n      sstore\n      pop\n        /* \"#utility.yul\":8783:10135   */\n      jump\t// out\n        /* \"#utility.yul\":10140:10267   */\n    tag_88:\n        /* \"#utility.yul\":10201:10211   */\n      0x4e487b71\n        /* \"#utility.yul\":10196:10199   */\n      0xe0\n        /* \"#utility.yul\":10192:10212   */\n      shl\n        /* \"#utility.yul\":10189:10190   */\n      0x00\n        /* \"#utility.yul\":10182:10213   */\n      mstore\n        /* \"#utility.yul\":10232:10236   */\n      0x32\n        /* \"#utility.yul\":10229:10230   */\n      0x04\n        /* \"#utility.yul\":10222:10237   */\n      mstore\n        /* \"#utility.yul\":10256:10260   */\n      0x24\n        /* \"#utility.yul\":10253:10254   */\n      0x00\n        /* \"#utility.yul\":10246:10261   */\n      revert\n        /* \"#utility.yul\":10272:11114   */\n    tag_102:\n        /* \"#utility.yul\":10400:10403   */\n      0x00\n        /* \"#utility.yul\":10429:10430   */\n      dup1\n        /* \"#utility.yul\":10462:10468   */\n      dup4\n        /* \"#utility.yul\":10456:10469   */\n      sload\n        /* \"#utility.yul\":10492:10528   */\n      tag_278\n        /* \"#utility.yul\":10518:10527   */\n      dup2\n        /* \"#utility.yul\":10492:10528   */\n      tag_91\n      jump\t// in\n    tag_278:\n        /* \"#utility.yul\":10547:10548   */\n      0x01\n        /* \"#utility.yul\":10564:10582   */\n      dup3\n      dup2\n      and\n        /* \"#utility.yul\":10591:10724   */\n      dup1\n      iszero\n      tag_280\n      jumpi\n        /* \"#utility.yul\":10738:10739   */\n      0x01\n        /* \"#utility.yul\":10733:11089   */\n      dup2\n      eq\n      tag_281\n      jumpi\n        /* \"#utility.yul\":10557:11089   */\n      jump(tag_279)\n        /* \"#utility.yul\":10591:10724   */\n    tag_280:\n      not(0xff)\n        /* \"#utility.yul\":10624:10648   */\n      dup5\n      and\n        /* \"#utility.yul\":10612:10649   */\n      dup8\n      mstore\n        /* \"#utility.yul\":10697:10711   */\n      dup3\n      iszero\n        /* \"#utility.yul\":10690:10712   */\n      iszero\n        /* \"#utility.yul\":10678:10713   */\n      dup4\n      mul\n        /* \"#utility.yul\":10669:10714   */\n      dup8\n      add\n      swap5\n      pop\n        /* \"#utility.yul\":10591:10724   */\n      jump(tag_279)\n        /* \"#utility.yul\":10733:11089   */\n    tag_281:\n        /* \"#utility.yul\":10764:10770   */\n      dup8\n        /* \"#utility.yul\":10761:10762   */\n      0x00\n        /* \"#utility.yul\":10754:10771   */\n      mstore\n        /* \"#utility.yul\":10794:10798   */\n      0x20\n        /* \"#utility.yul\":10839:10841   */\n      dup1\n        /* \"#utility.yul\":10836:10837   */\n      0x00\n        /* \"#utility.yul\":10826:10842   */\n      keccak256\n        /* \"#utility.yul\":10864:10865   */\n      0x00\n        /* \"#utility.yul\":10878:11043   */\n    tag_282:\n        /* \"#utility.yul\":10892:10898   */\n      dup6\n        /* \"#utility.yul\":10889:10890   */\n      dup2\n        /* \"#utility.yul\":10886:10899   */\n      lt\n        /* \"#utility.yul\":10878:11043   */\n      iszero\n      tag_284\n      jumpi\n        /* \"#utility.yul\":10970:10984   */\n      dup2\n      sload\n        /* \"#utility.yul\":10957:10968   */\n      dup11\n      dup3\n      add\n        /* \"#utility.yul\":10950:10985   */\n      mstore\n        /* \"#utility.yul\":11013:11029   */\n      swap1\n      dup5\n      add\n      swap1\n        /* \"#utility.yul\":10907:10917   */\n      dup3\n      add\n        /* \"#utility.yul\":10878:11043   */\n      jump(tag_282)\n    tag_284:\n        /* \"#utility.yul\":10882:10885   */\n      pop\n      pop\n      pop\n        /* \"#utility.yul\":11072:11078   */\n      dup3\n        /* \"#utility.yul\":11067:11070   */\n      dup8\n        /* \"#utility.yul\":11063:11079   */\n      add\n        /* \"#utility.yul\":11056:11079   */\n      swap5\n      pop\n        /* \"#utility.yul\":10557:11089   */\n    tag_279:\n      pop\n        /* \"#utility.yul\":11105:11108   */\n      swap3\n      swap7\n        /* \"#utility.yul\":10272:11114   */\n      swap6\n      pop\n      pop\n      pop\n      pop\n      pop\n      pop\n      jump\t// out\n        /* \"#utility.yul\":11119:11351   */\n    tag_111:\n        /* \"#utility.yul\":11158:11161   */\n      0x00\n        /* \"#utility.yul\":11179:11196   */\n      0x01\n      dup3\n      add\n        /* \"#utility.yul\":11176:11316   */\n      tag_286\n      jumpi\n        /* \"#utility.yul\":11238:11248   */\n      0x4e487b71\n        /* \"#utility.yul\":11233:11236   */\n      0xe0\n        /* \"#utility.yul\":11229:11249   */\n      shl\n        /* \"#utility.yul\":11226:11227   */\n      0x00\n        /* \"#utility.yul\":11219:11250   */\n      mstore\n        /* \"#utility.yul\":11273:11277   */\n      0x11\n        /* \"#utility.yul\":11270:11271   */\n      0x04\n        /* \"#utility.yul\":11263:11278   */\n      mstore\n        /* \"#utility.yul\":11301:11305   */\n      0x24\n        /* \"#utility.yul\":11298:11299   */\n      0x00\n        /* \"#utility.yul\":11291:11306   */\n      revert\n        /* \"#utility.yul\":11176:11316   */\n    tag_286:\n      pop\n        /* \"#utility.yul\":11343:11344   */\n      0x01\n        /* \"#utility.yul\":11332:11345   */\n      add\n      swap1\n        /* \"#utility.yul\":11119:11351   */\n      jump\t// out\n\n    auxdata: 0xa264697066735822122053a38445cb5dad5202eaae146be37423b3cdd917cfbe2bb0381ada56bba745a264736f6c63430008120033\n}\n",
				"bytecode": {
					"linkReferences": {},
					"object": "608060405234801561001057600080fd5b506040516111d13803806111d183398101604081905261002f91610054565b600080546001600160a01b0319166001600160a01b0392909216919091179055610084565b60006020828403121561006657600080fd5b81516001600160a01b038116811461007d57600080fd5b9392505050565b61113e806100936000396000f3fe608060405234801561001057600080fd5b50600436106100575760003560e01c806352495b8b1461005c578063b4ce4f3c14610071578063c9c711c91461009a578063e19d2ac3146100ad578063fa8d9672146100d8575b600080fd5b61006f61006a366004610bec565b6100f8565b005b61008461007f366004610c74565b6103b4565b6040516100919190610d01565b60405180910390f35b61006f6100a8366004610c74565b610692565b6000546100c0906001600160a01b031681565b6040516001600160a01b039091168152602001610091565b6100eb6100e6366004610d86565b610955565b6040516100919190610dea565b8251839081906000036101265760405162461bcd60e51b815260040161011d90610e04565b60405180910390fd5b83518490819060000361014b5760405162461bcd60e51b815260040161011d90610e04565b8451859081906000036101705760405162461bcd60e51b815260040161011d90610e04565b600080546040516315cab91160e31b81528b92916001600160a01b03169063ae55c888906101a2908590600401610dea565b600060405180830381865afa1580156101bf573d6000803e3d6000fd5b505050506040513d6000823e601f3d908101601f191682016040526101e79190810190610e26565b80519091506001600160a01b0316156102445780516001600160a01b0316331461023f5760405162461bcd60e51b81526020600482015260096024820152682327a92124a22222a760b91b604482015260640161011d565b610292565b33156102925760405162461bcd60e51b815260206004820152601e60248201527f4e4f5420434f4e4649475552454420494e204d41494e2053544f524147450000604482015260640161011d565b8860018c6040516102a39190610ef0565b90815260200160405180910390208b6040516102bf9190610ef0565b908152602001604051809103902090816102d99190610f95565b5060038b6040516102ea9190610ef0565b90815260200160405180910390208a6040516103069190610ef0565b9081526040519081900360200190205460ff166103a757600160038c60405161032f9190610ef0565b90815260200160405180910390208b60405161034b9190610ef0565b908152604051908190036020018120805492151560ff199093169290921790915560029061037a908d90610ef0565b9081526040516020918190038201902080546001810182556000918252919020016103a58b82610f95565b505b5050505050505050505050565b606081600081905080516000036103dd5760405162461bcd60e51b815260040161011d90610e04565b60006002856040516103ef9190610ef0565b9081526040519081900360200190205467ffffffffffffffff81111561041757610417610afe565b60405190808252806020026020018201604052801561045c57816020015b60408051808201909152606080825260208201528152602001906001900390816104355790505b50905060005b6002866040516104729190610ef0565b908152604051908190036020019020548110156106895760405180604001604052806002886040516104a49190610ef0565b908152602001604051809103902083815481106104c3576104c3611055565b9060005260206000200180546104d890610f0c565b80601f016020809104026020016040519081016040528092919081815260200182805461050490610f0c565b80156105515780601f1061052657610100808354040283529160200191610551565b820191906000526020600020905b81548152906001019060200180831161053457829003601f168201915b5050505050815260200160018860405161056b9190610ef0565b90815260200160405180910390206002896040516105899190610ef0565b908152602001604051809103902084815481106105a8576105a8611055565b906000526020600020016040516105bf919061106b565b908152602001604051809103902080546105d890610f0c565b80601f016020809104026020016040519081016040528092919081815260200182805461060490610f0c565b80156106515780601f1061062657610100808354040283529160200191610651565b820191906000526020600020905b81548152906001019060200180831161063457829003601f168201915b505050505081525082828151811061066b5761066b611055565b60200260200101819052508080610681906110e1565b915050610462565b50949350505050565b8051819081906000036106b75760405162461bcd60e51b815260040161011d90610e04565b600080546040516315cab91160e31b81528592916001600160a01b03169063ae55c888906106e9908590600401610dea565b600060405180830381865afa158015610706573d6000803e3d6000fd5b505050506040513d6000823e601f3d908101601f1916820160405261072e9190810190610e26565b80519091506001600160a01b03161561078b5780516001600160a01b031633146107865760405162461bcd60e51b81526020600482015260096024820152682327a92124a22222a760b91b604482015260640161011d565b6107d9565b33156107d95760405162461bcd60e51b815260206004820152601e60248201527f4e4f5420434f4e4649475552454420494e204d41494e2053544f524147450000604482015260640161011d565b60005b6002866040516107ec9190610ef0565b908152604051908190036020019020548110156109235760006003876040516108159190610ef0565b90815260200160405180910390206002886040516108339190610ef0565b9081526020016040518091039020838154811061085257610852611055565b90600052602060002001604051610869919061106b565b9081526040805160209281900383018120805460ff191694151594909417909355908201815260008252516001906108a2908990610ef0565b90815260200160405180910390206002886040516108c09190610ef0565b908152602001604051809103902083815481106108df576108df611055565b906000526020600020016040516108f6919061106b565b908152602001604051809103902090816109109190610f95565b508061091b816110e1565b9150506107dc565b506002856040516109349190610ef0565b9081526020016040518091039020600061094e9190610a72565b5050505050565b6060826000819050805160000361097e5760405162461bcd60e51b815260040161011d90610e04565b8351849081906000036109a35760405162461bcd60e51b815260040161011d90610e04565b6001876040516109b39190610ef0565b9081526020016040518091039020866040516109cf9190610ef0565b908152602001604051809103902080546109e890610f0c565b80601f0160208091040260200160405190810160405280929190818152602001828054610a1490610f0c565b8015610a615780601f10610a3657610100808354040283529160200191610a61565b820191906000526020600020905b815481529060010190602001808311610a4457829003601f168201915b505050505094505050505092915050565b5080546000825590600052602060002090810190610a909190610a93565b50565b80821115610ab0576000610aa78282610ab4565b50600101610a93565b5090565b508054610ac090610f0c565b6000825580601f10610ad0575050565b601f016020900490600052602060002090810190610a9091905b80821115610ab05760008155600101610aea565b634e487b7160e01b600052604160045260246000fd5b6040805190810167ffffffffffffffff81118282101715610b3757610b37610afe565b60405290565b604051601f8201601f1916810167ffffffffffffffff81118282101715610b6657610b66610afe565b604052919050565b600067ffffffffffffffff821115610b8857610b88610afe565b50601f01601f191660200190565b600082601f830112610ba757600080fd5b8135610bba610bb582610b6e565b610b3d565b818152846020838601011115610bcf57600080fd5b816020850160208301376000918101602001919091529392505050565b600080600060608486031215610c0157600080fd5b833567ffffffffffffffff80821115610c1957600080fd5b610c2587838801610b96565b94506020860135915080821115610c3b57600080fd5b610c4787838801610b96565b93506040860135915080821115610c5d57600080fd5b50610c6a86828701610b96565b9150509250925092565b600060208284031215610c8657600080fd5b813567ffffffffffffffff811115610c9d57600080fd5b610ca984828501610b96565b949350505050565b60005b83811015610ccc578181015183820152602001610cb4565b50506000910152565b60008151808452610ced816020860160208601610cb1565b601f01601f19169290920160200192915050565b60006020808301818452808551808352604092508286019150828160051b87010184880160005b83811015610d7857888303603f1901855281518051878552610d4c88860182610cd5565b91890151858303868b0152919050610d648183610cd5565b968901969450505090860190600101610d28565b509098975050505050505050565b60008060408385031215610d9957600080fd5b823567ffffffffffffffff80821115610db157600080fd5b610dbd86838701610b96565b93506020850135915080821115610dd357600080fd5b50610de085828601610b96565b9150509250929050565b602081526000610dfd6020830184610cd5565b9392505050565b6020808252600890820152674e4f5f56414c554560c01b604082015260600190565b60006020808385031215610e3957600080fd5b825167ffffffffffffffff80821115610e5157600080fd5b9084019060408287031215610e6557600080fd5b610e6d610b14565b82516001600160a01b0381168114610e8457600080fd5b81528284015182811115610e9757600080fd5b80840193505086601f840112610eac57600080fd5b82519150610ebc610bb583610b6e565b8281528785848601011115610ed057600080fd5b610edf83868301878701610cb1565b938101939093525090949350505050565b60008251610f02818460208701610cb1565b9190910192915050565b600181811c90821680610f2057607f821691505b602082108103610f4057634e487b7160e01b600052602260045260246000fd5b50919050565b601f821115610f9057600081815260208120601f850160051c81016020861015610f6d5750805b601f850160051c820191505b81811015610f8c57828155600101610f79565b5050505b505050565b815167ffffffffffffffff811115610faf57610faf610afe565b610fc381610fbd8454610f0c565b84610f46565b602080601f831160018114610ff85760008415610fe05750858301515b600019600386901b1c1916600185901b178555610f8c565b600085815260208120601f198616915b8281101561102757888601518255948401946001909101908401611008565b50858210156110455787850151600019600388901b60f8161c191681555b5050505050600190811b01905550565b634e487b7160e01b600052603260045260246000fd5b600080835461107981610f0c565b6001828116801561109157600181146110a6576110d5565b60ff19841687528215158302870194506110d5565b8760005260208060002060005b858110156110cc5781548a8201529084019082016110b3565b50505082870194505b50929695505050505050565b60006001820161110157634e487b7160e01b600052601160045260246000fd5b506001019056fea264697066735822122053a38445cb5dad5202eaae146be37423b3cdd917cfbe2bb0381ada56bba745a264736f6c63430008120033",
					"opcodes": "PUSH1 0x80 PUSH1 0x40 MSTORE CALLVALUE DUP1 ISZERO PUSH2 0x10 JUMPI PUSH1 0x0 DUP1 REVERT JUMPDEST POP PUSH1 0x40 MLOAD PUSH2 0x11D1 CODESIZE SUB DUP1 PUSH2 0x11D1 DUP4 CODECOPY DUP2 ADD PUSH1 0x40 DUP2 SWAP1 MSTORE PUSH2 0x2F SWAP2 PUSH2 0x54 JUMP JUMPDEST PUSH1 0x0 DUP1 SLOAD PUSH1 0x1 PUSH1 0x1 PUSH1 0xA0 SHL SUB NOT AND PUSH1 0x1 PUSH1 0x1 PUSH1 0xA0 SHL SUB SWAP3 SWAP1 SWAP3 AND SWAP2 SWAP1 SWAP2 OR SWAP1 SSTORE PUSH2 0x84 JUMP JUMPDEST PUSH1 0x0 PUSH1 0x20 DUP3 DUP5 SUB SLT ISZERO PUSH2 0x66 JUMPI PUSH1 0x0 DUP1 REVERT JUMPDEST DUP2 MLOAD PUSH1 0x1 PUSH1 0x1 PUSH1 0xA0 SHL SUB DUP2 AND DUP2 EQ PUSH2 0x7D JUMPI PUSH1 0x0 DUP1 REVERT JUMPDEST SWAP4 SWAP3 POP POP POP JUMP JUMPDEST PUSH2 0x113E DUP1 PUSH2 0x93 PUSH1 0x0 CODECOPY PUSH1 0x0 RETURN INVALID PUSH1 0x80 PUSH1 0x40 MSTORE CALLVALUE DUP1 ISZERO PUSH2 0x10 JUMPI PUSH1 0x0 DUP1 REVERT JUMPDEST POP PUSH1 0x4 CALLDATASIZE LT PUSH2 0x57 JUMPI PUSH1 0x0 CALLDATALOAD PUSH1 0xE0 SHR DUP1 PUSH4 0x52495B8B EQ PUSH2 0x5C JUMPI DUP1 PUSH4 0xB4CE4F3C EQ PUSH2 0x71 JUMPI DUP1 PUSH4 0xC9C711C9 EQ PUSH2 0x9A JUMPI DUP1 PUSH4 0xE19D2AC3 EQ PUSH2 0xAD JUMPI DUP1 PUSH4 0xFA8D9672 EQ PUSH2 0xD8 JUMPI JUMPDEST PUSH1 0x0 DUP1 REVERT JUMPDEST PUSH2 0x6F PUSH2 0x6A CALLDATASIZE PUSH1 0x4 PUSH2 0xBEC JUMP JUMPDEST PUSH2 0xF8 JUMP JUMPDEST STOP JUMPDEST PUSH2 0x84 PUSH2 0x7F CALLDATASIZE PUSH1 0x4 PUSH2 0xC74 JUMP JUMPDEST PUSH2 0x3B4 JUMP JUMPDEST PUSH1 0x40 MLOAD PUSH2 0x91 SWAP2 SWAP1 PUSH2 0xD01 JUMP JUMPDEST PUSH1 0x40 MLOAD DUP1 SWAP2 SUB SWAP1 RETURN JUMPDEST PUSH2 0x6F PUSH2 0xA8 CALLDATASIZE PUSH1 0x4 PUSH2 0xC74 JUMP JUMPDEST PUSH2 0x692 JUMP JUMPDEST PUSH1 0x0 SLOAD PUSH2 0xC0 SWAP1 PUSH1 0x1 PUSH1 0x1 PUSH1 0xA0 SHL SUB AND DUP2 JUMP JUMPDEST PUSH1 0x40 MLOAD PUSH1 0x1 PUSH1 0x1 PUSH1 0xA0 SHL SUB SWAP1 SWAP2 AND DUP2 MSTORE PUSH1 0x20 ADD PUSH2 0x91 JUMP JUMPDEST PUSH2 0xEB PUSH2 0xE6 CALLDATASIZE PUSH1 0x4 PUSH2 0xD86 JUMP JUMPDEST PUSH2 0x955 JUMP JUMPDEST PUSH1 0x40 MLOAD PUSH2 0x91 SWAP2 SWAP1 PUSH2 0xDEA JUMP JUMPDEST DUP3 MLOAD DUP4 SWAP1 DUP2 SWAP1 PUSH1 0x0 SUB PUSH2 0x126 JUMPI PUSH1 0x40 MLOAD PUSH3 0x461BCD PUSH1 0xE5 SHL DUP2 MSTORE PUSH1 0x4 ADD PUSH2 0x11D SWAP1 PUSH2 0xE04 JUMP JUMPDEST PUSH1 0x40 MLOAD DUP1 SWAP2 SUB SWAP1 REVERT JUMPDEST DUP4 MLOAD DUP5 SWAP1 DUP2 SWAP1 PUSH1 0x0 SUB PUSH2 0x14B JUMPI PUSH1 0x40 MLOAD PUSH3 0x461BCD PUSH1 0xE5 SHL DUP2 MSTORE PUSH1 0x4 ADD PUSH2 0x11D SWAP1 PUSH2 0xE04 JUMP JUMPDEST DUP5 MLOAD DUP6 SWAP1 DUP2 SWAP1 PUSH1 0x0 SUB PUSH2 0x170 JUMPI PUSH1 0x40 MLOAD PUSH3 0x461BCD PUSH1 0xE5 SHL DUP2 MSTORE PUSH1 0x4 ADD PUSH2 0x11D SWAP1 PUSH2 0xE04 JUMP JUMPDEST PUSH1 0x0 DUP1 SLOAD PUSH1 0x40 MLOAD PUSH4 0x15CAB911 PUSH1 0xE3 SHL DUP2 MSTORE DUP12 SWAP3 SWAP2 PUSH1 0x1 PUSH1 0x1 PUSH1 0xA0 SHL SUB AND SWAP1 PUSH4 0xAE55C888 SWAP1 PUSH2 0x1A2 SWAP1 DUP6 SWAP1 PUSH1 0x4 ADD PUSH2 0xDEA JUMP JUMPDEST PUSH1 0x0 PUSH1 0x40 MLOAD DUP1 DUP4 SUB DUP2 DUP7 GAS STATICCALL ISZERO DUP1 ISZERO PUSH2 0x1BF JUMPI RETURNDATASIZE PUSH1 0x0 DUP1 RETURNDATACOPY RETURNDATASIZE PUSH1 0x0 REVERT JUMPDEST POP POP POP POP PUSH1 0x40 MLOAD RETURNDATASIZE PUSH1 0x0 DUP3 RETURNDATACOPY PUSH1 0x1F RETURNDATASIZE SWAP1 DUP2 ADD PUSH1 0x1F NOT AND DUP3 ADD PUSH1 0x40 MSTORE PUSH2 0x1E7 SWAP2 SWAP1 DUP2 ADD SWAP1 PUSH2 0xE26 JUMP JUMPDEST DUP1 MLOAD SWAP1 SWAP2 POP PUSH1 0x1 PUSH1 0x1 PUSH1 0xA0 SHL SUB AND ISZERO PUSH2 0x244 JUMPI DUP1 MLOAD PUSH1 0x1 PUSH1 0x1 PUSH1 0xA0 SHL SUB AND CALLER EQ PUSH2 0x23F JUMPI PUSH1 0x40 MLOAD PUSH3 0x461BCD PUSH1 0xE5 SHL DUP2 MSTORE PUSH1 0x20 PUSH1 0x4 DUP3 ADD MSTORE PUSH1 0x9 PUSH1 0x24 DUP3 ADD MSTORE PUSH9 0x2327A92124A22222A7 PUSH1 0xB9 SHL PUSH1 0x44 DUP3 ADD MSTORE PUSH1 0x64 ADD PUSH2 0x11D JUMP JUMPDEST PUSH2 0x292 JUMP JUMPDEST CALLER ISZERO PUSH2 0x292 JUMPI PUSH1 0x40 MLOAD PUSH3 0x461BCD PUSH1 0xE5 SHL DUP2 MSTORE PUSH1 0x20 PUSH1 0x4 DUP3 ADD MSTORE PUSH1 0x1E PUSH1 0x24 DUP3 ADD MSTORE PUSH32 0x4E4F5420434F4E4649475552454420494E204D41494E2053544F524147450000 PUSH1 0x44 DUP3 ADD MSTORE PUSH1 0x64 ADD PUSH2 0x11D JUMP JUMPDEST DUP9 PUSH1 0x1 DUP13 PUSH1 0x40 MLOAD PUSH2 0x2A3 SWAP2 SWAP1 PUSH2 0xEF0 JUMP JUMPDEST SWAP1 DUP2 MSTORE PUSH1 0x20 ADD PUSH1 0x40 MLOAD DUP1 SWAP2 SUB SWAP1 KECCAK256 DUP12 PUSH1 0x40 MLOAD PUSH2 0x2BF SWAP2 SWAP1 PUSH2 0xEF0 JUMP JUMPDEST SWAP1 DUP2 MSTORE PUSH1 0x20 ADD PUSH1 0x40 MLOAD DUP1 SWAP2 SUB SWAP1 KECCAK256 SWAP1 DUP2 PUSH2 0x2D9 SWAP2 SWAP1 PUSH2 0xF95 JUMP JUMPDEST POP PUSH1 0x3 DUP12 PUSH1 0x40 MLOAD PUSH2 0x2EA SWAP2 SWAP1 PUSH2 0xEF0 JUMP JUMPDEST SWAP1 DUP2 MSTORE PUSH1 0x20 ADD PUSH1 0x40 MLOAD DUP1 SWAP2 SUB SWAP1 KECCAK256 DUP11 PUSH1 0x40 MLOAD PUSH2 0x306 SWAP2 SWAP1 PUSH2 0xEF0 JUMP JUMPDEST SWAP1 DUP2 MSTORE PUSH1 0x40 MLOAD SWAP1 DUP2 SWAP1 SUB PUSH1 0x20 ADD SWAP1 KECCAK256 SLOAD PUSH1 0xFF AND PUSH2 0x3A7 JUMPI PUSH1 0x1 PUSH1 0x3 DUP13 PUSH1 0x40 MLOAD PUSH2 0x32F SWAP2 SWAP1 PUSH2 0xEF0 JUMP JUMPDEST SWAP1 DUP2 MSTORE PUSH1 0x20 ADD PUSH1 0x40 MLOAD DUP1 SWAP2 SUB SWAP1 KECCAK256 DUP12 PUSH1 0x40 MLOAD PUSH2 0x34B SWAP2 SWAP1 PUSH2 0xEF0 JUMP JUMPDEST SWAP1 DUP2 MSTORE PUSH1 0x40 MLOAD SWAP1 DUP2 SWAP1 SUB PUSH1 0x20 ADD DUP2 KECCAK256 DUP1 SLOAD SWAP3 ISZERO ISZERO PUSH1 0xFF NOT SWAP1 SWAP4 AND SWAP3 SWAP1 SWAP3 OR SWAP1 SWAP2 SSTORE PUSH1 0x2 SWAP1 PUSH2 0x37A SWAP1 DUP14 SWAP1 PUSH2 0xEF0 JUMP JUMPDEST SWAP1 DUP2 MSTORE PUSH1 0x40 MLOAD PUSH1 0x20 SWAP2 DUP2 SWAP1 SUB DUP3 ADD SWAP1 KECCAK256 DUP1 SLOAD PUSH1 0x1 DUP2 ADD DUP3 SSTORE PUSH1 0x0 SWAP2 DUP3 MSTORE SWAP2 SWAP1 KECCAK256 ADD PUSH2 0x3A5 DUP12 DUP3 PUSH2 0xF95 JUMP JUMPDEST POP JUMPDEST POP POP POP POP POP POP POP POP POP POP POP JUMP JUMPDEST PUSH1 0x60 DUP2 PUSH1 0x0 DUP2 SWAP1 POP DUP1 MLOAD PUSH1 0x0 SUB PUSH2 0x3DD JUMPI PUSH1 0x40 MLOAD PUSH3 0x461BCD PUSH1 0xE5 SHL DUP2 MSTORE PUSH1 0x4 ADD PUSH2 0x11D SWAP1 PUSH2 0xE04 JUMP JUMPDEST PUSH1 0x0 PUSH1 0x2 DUP6 PUSH1 0x40 MLOAD PUSH2 0x3EF SWAP2 SWAP1 PUSH2 0xEF0 JUMP JUMPDEST SWAP1 DUP2 MSTORE PUSH1 0x40 MLOAD SWAP1 DUP2 SWAP1 SUB PUSH1 0x20 ADD SWAP1 KECCAK256 SLOAD PUSH8 0xFFFFFFFFFFFFFFFF DUP2 GT ISZERO PUSH2 0x417 JUMPI PUSH2 0x417 PUSH2 0xAFE JUMP JUMPDEST PUSH1 0x40 MLOAD SWAP1 DUP1 DUP3 MSTORE DUP1 PUSH1 0x20 MUL PUSH1 0x20 ADD DUP3 ADD PUSH1 0x40 MSTORE DUP1 ISZERO PUSH2 0x45C JUMPI DUP2 PUSH1 0x20 ADD JUMPDEST PUSH1 0x40 DUP1 MLOAD DUP1 DUP3 ADD SWAP1 SWAP2 MSTORE PUSH1 0x60 DUP1 DUP3 MSTORE PUSH1 0x20 DUP3 ADD MSTORE DUP2 MSTORE PUSH1 0x20 ADD SWAP1 PUSH1 0x1 SWAP1 SUB SWAP1 DUP2 PUSH2 0x435 JUMPI SWAP1 POP JUMPDEST POP SWAP1 POP PUSH1 0x0 JUMPDEST PUSH1 0x2 DUP7 PUSH1 0x40 MLOAD PUSH2 0x472 SWAP2 SWAP1 PUSH2 0xEF0 JUMP JUMPDEST SWAP1 DUP2 MSTORE PUSH1 0x40 MLOAD SWAP1 DUP2 SWAP1 SUB PUSH1 0x20 ADD SWAP1 KECCAK256 SLOAD DUP2 LT ISZERO PUSH2 0x689 JUMPI PUSH1 0x40 MLOAD DUP1 PUSH1 0x40 ADD PUSH1 0x40 MSTORE DUP1 PUSH1 0x2 DUP9 PUSH1 0x40 MLOAD PUSH2 0x4A4 SWAP2 SWAP1 PUSH2 0xEF0 JUMP JUMPDEST SWAP1 DUP2 MSTORE PUSH1 0x20 ADD PUSH1 0x40 MLOAD DUP1 SWAP2 SUB SWAP1 KECCAK256 DUP4 DUP2 SLOAD DUP2 LT PUSH2 0x4C3 JUMPI PUSH2 0x4C3 PUSH2 0x1055 JUMP JUMPDEST SWAP1 PUSH1 0x0 MSTORE PUSH1 0x20 PUSH1 0x0 KECCAK256 ADD DUP1 SLOAD PUSH2 0x4D8 SWAP1 PUSH2 0xF0C JUMP JUMPDEST DUP1 PUSH1 0x1F ADD PUSH1 0x20 DUP1 SWAP2 DIV MUL PUSH1 0x20 ADD PUSH1 0x40 MLOAD SWAP1 DUP2 ADD PUSH1 0x40 MSTORE DUP1 SWAP3 SWAP2 SWAP1 DUP2 DUP2 MSTORE PUSH1 0x20 ADD DUP3 DUP1 SLOAD PUSH2 0x504 SWAP1 PUSH2 0xF0C JUMP JUMPDEST DUP1 ISZERO PUSH2 0x551 JUMPI DUP1 PUSH1 0x1F LT PUSH2 0x526 JUMPI PUSH2 0x100 DUP1 DUP4 SLOAD DIV MUL DUP4 MSTORE SWAP2 PUSH1 0x20 ADD SWAP2 PUSH2 0x551 JUMP JUMPDEST DUP3 ADD SWAP2 SWAP1 PUSH1 0x0 MSTORE PUSH1 0x20 PUSH1 0x0 KECCAK256 SWAP1 JUMPDEST DUP2 SLOAD DUP2 MSTORE SWAP1 PUSH1 0x1 ADD SWAP1 PUSH1 0x20 ADD DUP1 DUP4 GT PUSH2 0x534 JUMPI DUP3 SWAP1 SUB PUSH1 0x1F AND DUP3 ADD SWAP2 JUMPDEST POP POP POP POP POP DUP2 MSTORE PUSH1 0x20 ADD PUSH1 0x1 DUP9 PUSH1 0x40 MLOAD PUSH2 0x56B SWAP2 SWAP1 PUSH2 0xEF0 JUMP JUMPDEST SWAP1 DUP2 MSTORE PUSH1 0x20 ADD PUSH1 0x40 MLOAD DUP1 SWAP2 SUB SWAP1 KECCAK256 PUSH1 0x2 DUP10 PUSH1 0x40 MLOAD PUSH2 0x589 SWAP2 SWAP1 PUSH2 0xEF0 JUMP JUMPDEST SWAP1 DUP2 MSTORE PUSH1 0x20 ADD PUSH1 0x40 MLOAD DUP1 SWAP2 SUB SWAP1 KECCAK256 DUP5 DUP2 SLOAD DUP2 LT PUSH2 0x5A8 JUMPI PUSH2 0x5A8 PUSH2 0x1055 JUMP JUMPDEST SWAP1 PUSH1 0x0 MSTORE PUSH1 0x20 PUSH1 0x0 KECCAK256 ADD PUSH1 0x40 MLOAD PUSH2 0x5BF SWAP2 SWAP1 PUSH2 0x106B JUMP JUMPDEST SWAP1 DUP2 MSTORE PUSH1 0x20 ADD PUSH1 0x40 MLOAD DUP1 SWAP2 SUB SWAP1 KECCAK256 DUP1 SLOAD PUSH2 0x5D8 SWAP1 PUSH2 0xF0C JUMP JUMPDEST DUP1 PUSH1 0x1F ADD PUSH1 0x20 DUP1 SWAP2 DIV MUL PUSH1 0x20 ADD PUSH1 0x40 MLOAD SWAP1 DUP2 ADD PUSH1 0x40 MSTORE DUP1 SWAP3 SWAP2 SWAP1 DUP2 DUP2 MSTORE PUSH1 0x20 ADD DUP3 DUP1 SLOAD PUSH2 0x604 SWAP1 PUSH2 0xF0C JUMP JUMPDEST DUP1 ISZERO PUSH2 0x651 JUMPI DUP1 PUSH1 0x1F LT PUSH2 0x626 JUMPI PUSH2 0x100 DUP1 DUP4 SLOAD DIV MUL DUP4 MSTORE SWAP2 PUSH1 0x20 ADD SWAP2 PUSH2 0x651 JUMP JUMPDEST DUP3 ADD SWAP2 SWAP1 PUSH1 0x0 MSTORE PUSH1 0x20 PUSH1 0x0 KECCAK256 SWAP1 JUMPDEST DUP2 SLOAD DUP2 MSTORE SWAP1 PUSH1 0x1 ADD SWAP1 PUSH1 0x20 ADD DUP1 DUP4 GT PUSH2 0x634 JUMPI DUP3 SWAP1 SUB PUSH1 0x1F AND DUP3 ADD SWAP2 JUMPDEST POP POP POP POP POP DUP2 MSTORE POP DUP3 DUP3 DUP2 MLOAD DUP2 LT PUSH2 0x66B JUMPI PUSH2 0x66B PUSH2 0x1055 JUMP JUMPDEST PUSH1 0x20 MUL PUSH1 0x20 ADD ADD DUP2 SWAP1 MSTORE POP DUP1 DUP1 PUSH2 0x681 SWAP1 PUSH2 0x10E1 JUMP JUMPDEST SWAP2 POP POP PUSH2 0x462 JUMP JUMPDEST POP SWAP5 SWAP4 POP POP POP POP JUMP JUMPDEST DUP1 MLOAD DUP2 SWAP1 DUP2 SWAP1 PUSH1 0x0 SUB PUSH2 0x6B7 JUMPI PUSH1 0x40 MLOAD PUSH3 0x461BCD PUSH1 0xE5 SHL DUP2 MSTORE PUSH1 0x4 ADD PUSH2 0x11D SWAP1 PUSH2 0xE04 JUMP JUMPDEST PUSH1 0x0 DUP1 SLOAD PUSH1 0x40 MLOAD PUSH4 0x15CAB911 PUSH1 0xE3 SHL DUP2 MSTORE DUP6 SWAP3 SWAP2 PUSH1 0x1 PUSH1 0x1 PUSH1 0xA0 SHL SUB AND SWAP1 PUSH4 0xAE55C888 SWAP1 PUSH2 0x6E9 SWAP1 DUP6 SWAP1 PUSH1 0x4 ADD PUSH2 0xDEA JUMP JUMPDEST PUSH1 0x0 PUSH1 0x40 MLOAD DUP1 DUP4 SUB DUP2 DUP7 GAS STATICCALL ISZERO DUP1 ISZERO PUSH2 0x706 JUMPI RETURNDATASIZE PUSH1 0x0 DUP1 RETURNDATACOPY RETURNDATASIZE PUSH1 0x0 REVERT JUMPDEST POP POP POP POP PUSH1 0x40 MLOAD RETURNDATASIZE PUSH1 0x0 DUP3 RETURNDATACOPY PUSH1 0x1F RETURNDATASIZE SWAP1 DUP2 ADD PUSH1 0x1F NOT AND DUP3 ADD PUSH1 0x40 MSTORE PUSH2 0x72E SWAP2 SWAP1 DUP2 ADD SWAP1 PUSH2 0xE26 JUMP JUMPDEST DUP1 MLOAD SWAP1 SWAP2 POP PUSH1 0x1 PUSH1 0x1 PUSH1 0xA0 SHL SUB AND ISZERO PUSH2 0x78B JUMPI DUP1 MLOAD PUSH1 0x1 PUSH1 0x1 PUSH1 0xA0 SHL SUB AND CALLER EQ PUSH2 0x786 JUMPI PUSH1 0x40 MLOAD PUSH3 0x461BCD PUSH1 0xE5 SHL DUP2 MSTORE PUSH1 0x20 PUSH1 0x4 DUP3 ADD MSTORE PUSH1 0x9 PUSH1 0x24 DUP3 ADD MSTORE PUSH9 0x2327A92124A22222A7 PUSH1 0xB9 SHL PUSH1 0x44 DUP3 ADD MSTORE PUSH1 0x64 ADD PUSH2 0x11D JUMP JUMPDEST PUSH2 0x7D9 JUMP JUMPDEST CALLER ISZERO PUSH2 0x7D9 JUMPI PUSH1 0x40 MLOAD PUSH3 0x461BCD PUSH1 0xE5 SHL DUP2 MSTORE PUSH1 0x20 PUSH1 0x4 DUP3 ADD MSTORE PUSH1 0x1E PUSH1 0x24 DUP3 ADD MSTORE PUSH32 0x4E4F5420434F4E4649475552454420494E204D41494E2053544F524147450000 PUSH1 0x44 DUP3 ADD MSTORE PUSH1 0x64 ADD PUSH2 0x11D JUMP JUMPDEST PUSH1 0x0 JUMPDEST PUSH1 0x2 DUP7 PUSH1 0x40 MLOAD PUSH2 0x7EC SWAP2 SWAP1 PUSH2 0xEF0 JUMP JUMPDEST SWAP1 DUP2 MSTORE PUSH1 0x40 MLOAD SWAP1 DUP2 SWAP1 SUB PUSH1 0x20 ADD SWAP1 KECCAK256 SLOAD DUP2 LT ISZERO PUSH2 0x923 JUMPI PUSH1 0x0 PUSH1 0x3 DUP8 PUSH1 0x40 MLOAD PUSH2 0x815 SWAP2 SWAP1 PUSH2 0xEF0 JUMP JUMPDEST SWAP1 DUP2 MSTORE PUSH1 0x20 ADD PUSH1 0x40 MLOAD DUP1 SWAP2 SUB SWAP1 KECCAK256 PUSH1 0x2 DUP9 PUSH1 0x40 MLOAD PUSH2 0x833 SWAP2 SWAP1 PUSH2 0xEF0 JUMP JUMPDEST SWAP1 DUP2 MSTORE PUSH1 0x20 ADD PUSH1 0x40 MLOAD DUP1 SWAP2 SUB SWAP1 KECCAK256 DUP4 DUP2 SLOAD DUP2 LT PUSH2 0x852 JUMPI PUSH2 0x852 PUSH2 0x1055 JUMP JUMPDEST SWAP1 PUSH1 0x0 MSTORE PUSH1 0x20 PUSH1 0x0 KECCAK256 ADD PUSH1 0x40 MLOAD PUSH2 0x869 SWAP2 SWAP1 PUSH2 0x106B JUMP JUMPDEST SWAP1 DUP2 MSTORE PUSH1 0x40 DUP1 MLOAD PUSH1 0x20 SWAP3 DUP2 SWAP1 SUB DUP4 ADD DUP2 KECCAK256 DUP1 SLOAD PUSH1 0xFF NOT AND SWAP5 ISZERO ISZERO SWAP5 SWAP1 SWAP5 OR SWAP1 SWAP4 SSTORE SWAP1 DUP3 ADD DUP2 MSTORE PUSH1 0x0 DUP3 MSTORE MLOAD PUSH1 0x1 SWAP1 PUSH2 0x8A2 SWAP1 DUP10 SWAP1 PUSH2 0xEF0 JUMP JUMPDEST SWAP1 DUP2 MSTORE PUSH1 0x20 ADD PUSH1 0x40 MLOAD DUP1 SWAP2 SUB SWAP1 KECCAK256 PUSH1 0x2 DUP9 PUSH1 0x40 MLOAD PUSH2 0x8C0 SWAP2 SWAP1 PUSH2 0xEF0 JUMP JUMPDEST SWAP1 DUP2 MSTORE PUSH1 0x20 ADD PUSH1 0x40 MLOAD DUP1 SWAP2 SUB SWAP1 KECCAK256 DUP4 DUP2 SLOAD DUP2 LT PUSH2 0x8DF JUMPI PUSH2 0x8DF PUSH2 0x1055 JUMP JUMPDEST SWAP1 PUSH1 0x0 MSTORE PUSH1 0x20 PUSH1 0x0 KECCAK256 ADD PUSH1 0x40 MLOAD PUSH2 0x8F6 SWAP2 SWAP1 PUSH2 0x106B JUMP JUMPDEST SWAP1 DUP2 MSTORE PUSH1 0x20 ADD PUSH1 0x40 MLOAD DUP1 SWAP2 SUB SWAP1 KECCAK256 SWAP1 DUP2 PUSH2 0x910 SWAP2 SWAP1 PUSH2 0xF95 JUMP JUMPDEST POP DUP1 PUSH2 0x91B DUP2 PUSH2 0x10E1 JUMP JUMPDEST SWAP2 POP POP PUSH2 0x7DC JUMP JUMPDEST POP PUSH1 0x2 DUP6 PUSH1 0x40 MLOAD PUSH2 0x934 SWAP2 SWAP1 PUSH2 0xEF0 JUMP JUMPDEST SWAP1 DUP2 MSTORE PUSH1 0x20 ADD PUSH1 0x40 MLOAD DUP1 SWAP2 SUB SWAP1 KECCAK256 PUSH1 0x0 PUSH2 0x94E SWAP2 SWAP1 PUSH2 0xA72 JUMP JUMPDEST POP POP POP POP POP JUMP JUMPDEST PUSH1 0x60 DUP3 PUSH1 0x0 DUP2 SWAP1 POP DUP1 MLOAD PUSH1 0x0 SUB PUSH2 0x97E JUMPI PUSH1 0x40 MLOAD PUSH3 0x461BCD PUSH1 0xE5 SHL DUP2 MSTORE PUSH1 0x4 ADD PUSH2 0x11D SWAP1 PUSH2 0xE04 JUMP JUMPDEST DUP4 MLOAD DUP5 SWAP1 DUP2 SWAP1 PUSH1 0x0 SUB PUSH2 0x9A3 JUMPI PUSH1 0x40 MLOAD PUSH3 0x461BCD PUSH1 0xE5 SHL DUP2 MSTORE PUSH1 0x4 ADD PUSH2 0x11D SWAP1 PUSH2 0xE04 JUMP JUMPDEST PUSH1 0x1 DUP8 PUSH1 0x40 MLOAD PUSH2 0x9B3 SWAP2 SWAP1 PUSH2 0xEF0 JUMP JUMPDEST SWAP1 DUP2 MSTORE PUSH1 0x20 ADD PUSH1 0x40 MLOAD DUP1 SWAP2 SUB SWAP1 KECCAK256 DUP7 PUSH1 0x40 MLOAD PUSH2 0x9CF SWAP2 SWAP1 PUSH2 0xEF0 JUMP JUMPDEST SWAP1 DUP2 MSTORE PUSH1 0x20 ADD PUSH1 0x40 MLOAD DUP1 SWAP2 SUB SWAP1 KECCAK256 DUP1 SLOAD PUSH2 0x9E8 SWAP1 PUSH2 0xF0C JUMP JUMPDEST DUP1 PUSH1 0x1F ADD PUSH1 0x20 DUP1 SWAP2 DIV MUL PUSH1 0x20 ADD PUSH1 0x40 MLOAD SWAP1 DUP2 ADD PUSH1 0x40 MSTORE DUP1 SWAP3 SWAP2 SWAP1 DUP2 DUP2 MSTORE PUSH1 0x20 ADD DUP3 DUP1 SLOAD PUSH2 0xA14 SWAP1 PUSH2 0xF0C JUMP JUMPDEST DUP1 ISZERO PUSH2 0xA61 JUMPI DUP1 PUSH1 0x1F LT PUSH2 0xA36 JUMPI PUSH2 0x100 DUP1 DUP4 SLOAD DIV MUL DUP4 MSTORE SWAP2 PUSH1 0x20 ADD SWAP2 PUSH2 0xA61 JUMP JUMPDEST DUP3 ADD SWAP2 SWAP1 PUSH1 0x0 MSTORE PUSH1 0x20 PUSH1 0x0 KECCAK256 SWAP1 JUMPDEST DUP2 SLOAD DUP2 MSTORE SWAP1 PUSH1 0x1 ADD SWAP1 PUSH1 0x20 ADD DUP1 DUP4 GT PUSH2 0xA44 JUMPI DUP3 SWAP1 SUB PUSH1 0x1F AND DUP3 ADD SWAP2 JUMPDEST POP POP POP POP POP SWAP5 POP POP POP POP POP SWAP3 SWAP2 POP POP JUMP JUMPDEST POP DUP1 SLOAD PUSH1 0x0 DUP3 SSTORE SWAP1 PUSH1 0x0 MSTORE PUSH1 0x20 PUSH1 0x0 KECCAK256 SWAP1 DUP2 ADD SWAP1 PUSH2 0xA90 SWAP2 SWAP1 PUSH2 0xA93 JUMP JUMPDEST POP JUMP JUMPDEST DUP1 DUP3 GT ISZERO PUSH2 0xAB0 JUMPI PUSH1 0x0 PUSH2 0xAA7 DUP3 DUP3 PUSH2 0xAB4 JUMP JUMPDEST POP PUSH1 0x1 ADD PUSH2 0xA93 JUMP JUMPDEST POP SWAP1 JUMP JUMPDEST POP DUP1 SLOAD PUSH2 0xAC0 SWAP1 PUSH2 0xF0C JUMP JUMPDEST PUSH1 0x0 DUP3 SSTORE DUP1 PUSH1 0x1F LT PUSH2 0xAD0 JUMPI POP POP JUMP JUMPDEST PUSH1 0x1F ADD PUSH1 0x20 SWAP1 DIV SWAP1 PUSH1 0x0 MSTORE PUSH1 0x20 PUSH1 0x0 KECCAK256 SWAP1 DUP2 ADD SWAP1 PUSH2 0xA90 SWAP2 SWAP1 JUMPDEST DUP1 DUP3 GT ISZERO PUSH2 0xAB0 JUMPI PUSH1 0x0 DUP2 SSTORE PUSH1 0x1 ADD PUSH2 0xAEA JUMP JUMPDEST PUSH4 0x4E487B71 PUSH1 0xE0 SHL PUSH1 0x0 MSTORE PUSH1 0x41 PUSH1 0x4 MSTORE PUSH1 0x24 PUSH1 0x0 REVERT JUMPDEST PUSH1 0x40 DUP1 MLOAD SWAP1 DUP2 ADD PUSH8 0xFFFFFFFFFFFFFFFF DUP2 GT DUP3 DUP3 LT OR ISZERO PUSH2 0xB37 JUMPI PUSH2 0xB37 PUSH2 0xAFE JUMP JUMPDEST PUSH1 0x40 MSTORE SWAP1 JUMP JUMPDEST PUSH1 0x40 MLOAD PUSH1 0x1F DUP3 ADD PUSH1 0x1F NOT AND DUP2 ADD PUSH8 0xFFFFFFFFFFFFFFFF DUP2 GT DUP3 DUP3 LT OR ISZERO PUSH2 0xB66 JUMPI PUSH2 0xB66 PUSH2 0xAFE JUMP JUMPDEST PUSH1 0x40 MSTORE SWAP2 SWAP1 POP JUMP JUMPDEST PUSH1 0x0 PUSH8 0xFFFFFFFFFFFFFFFF DUP3 GT ISZERO PUSH2 0xB88 JUMPI PUSH2 0xB88 PUSH2 0xAFE JUMP JUMPDEST POP PUSH1 0x1F ADD PUSH1 0x1F NOT AND PUSH1 0x20 ADD SWAP1 JUMP JUMPDEST PUSH1 0x0 DUP3 PUSH1 0x1F DUP4 ADD SLT PUSH2 0xBA7 JUMPI PUSH1 0x0 DUP1 REVERT JUMPDEST DUP2 CALLDATALOAD PUSH2 0xBBA PUSH2 0xBB5 DUP3 PUSH2 0xB6E JUMP JUMPDEST PUSH2 0xB3D JUMP JUMPDEST DUP2 DUP2 MSTORE DUP5 PUSH1 0x20 DUP4 DUP7 ADD ADD GT ISZERO PUSH2 0xBCF JUMPI PUSH1 0x0 DUP1 REVERT JUMPDEST DUP2 PUSH1 0x20 DUP6 ADD PUSH1 0x20 DUP4 ADD CALLDATACOPY PUSH1 0x0 SWAP2 DUP2 ADD PUSH1 0x20 ADD SWAP2 SWAP1 SWAP2 MSTORE SWAP4 SWAP3 POP POP POP JUMP JUMPDEST PUSH1 0x0 DUP1 PUSH1 0x0 PUSH1 0x60 DUP5 DUP7 SUB SLT ISZERO PUSH2 0xC01 JUMPI PUSH1 0x0 DUP1 REVERT JUMPDEST DUP4 CALLDATALOAD PUSH8 0xFFFFFFFFFFFFFFFF DUP1 DUP3 GT ISZERO PUSH2 0xC19 JUMPI PUSH1 0x0 DUP1 REVERT JUMPDEST PUSH2 0xC25 DUP8 DUP4 DUP9 ADD PUSH2 0xB96 JUMP JUMPDEST SWAP5 POP PUSH1 0x20 DUP7 ADD CALLDATALOAD SWAP2 POP DUP1 DUP3 GT ISZERO PUSH2 0xC3B JUMPI PUSH1 0x0 DUP1 REVERT JUMPDEST PUSH2 0xC47 DUP8 DUP4 DUP9 ADD PUSH2 0xB96 JUMP JUMPDEST SWAP4 POP PUSH1 0x40 DUP7 ADD CALLDATALOAD SWAP2 POP DUP1 DUP3 GT ISZERO PUSH2 0xC5D JUMPI PUSH1 0x0 DUP1 REVERT JUMPDEST POP PUSH2 0xC6A DUP7 DUP3 DUP8 ADD PUSH2 0xB96 JUMP JUMPDEST SWAP2 POP POP SWAP3 POP SWAP3 POP SWAP3 JUMP JUMPDEST PUSH1 0x0 PUSH1 0x20 DUP3 DUP5 SUB SLT ISZERO PUSH2 0xC86 JUMPI PUSH1 0x0 DUP1 REVERT JUMPDEST DUP2 CALLDATALOAD PUSH8 0xFFFFFFFFFFFFFFFF DUP2 GT ISZERO PUSH2 0xC9D JUMPI PUSH1 0x0 DUP1 REVERT JUMPDEST PUSH2 0xCA9 DUP5 DUP3 DUP6 ADD PUSH2 0xB96 JUMP JUMPDEST SWAP5 SWAP4 POP POP POP POP JUMP JUMPDEST PUSH1 0x0 JUMPDEST DUP4 DUP2 LT ISZERO PUSH2 0xCCC JUMPI DUP2 DUP2 ADD MLOAD DUP4 DUP3 ADD MSTORE PUSH1 0x20 ADD PUSH2 0xCB4 JUMP JUMPDEST POP POP PUSH1 0x0 SWAP2 ADD MSTORE JUMP JUMPDEST PUSH1 0x0 DUP2 MLOAD DUP1 DUP5 MSTORE PUSH2 0xCED DUP2 PUSH1 0x20 DUP7 ADD PUSH1 0x20 DUP7 ADD PUSH2 0xCB1 JUMP JUMPDEST PUSH1 0x1F ADD PUSH1 0x1F NOT AND SWAP3 SWAP1 SWAP3 ADD PUSH1 0x20 ADD SWAP3 SWAP2 POP POP JUMP JUMPDEST PUSH1 0x0 PUSH1 0x20 DUP1 DUP4 ADD DUP2 DUP5 MSTORE DUP1 DUP6 MLOAD DUP1 DUP4 MSTORE PUSH1 0x40 SWAP3 POP DUP3 DUP7 ADD SWAP2 POP DUP3 DUP2 PUSH1 0x5 SHL DUP8 ADD ADD DUP5 DUP9 ADD PUSH1 0x0 JUMPDEST DUP4 DUP2 LT ISZERO PUSH2 0xD78 JUMPI DUP9 DUP4 SUB PUSH1 0x3F NOT ADD DUP6 MSTORE DUP2 MLOAD DUP1 MLOAD DUP8 DUP6 MSTORE PUSH2 0xD4C DUP9 DUP7 ADD DUP3 PUSH2 0xCD5 JUMP JUMPDEST SWAP2 DUP10 ADD MLOAD DUP6 DUP4 SUB DUP7 DUP12 ADD MSTORE SWAP2 SWAP1 POP PUSH2 0xD64 DUP2 DUP4 PUSH2 0xCD5 JUMP JUMPDEST SWAP7 DUP10 ADD SWAP7 SWAP5 POP POP POP SWAP1 DUP7 ADD SWAP1 PUSH1 0x1 ADD PUSH2 0xD28 JUMP JUMPDEST POP SWAP1 SWAP9 SWAP8 POP POP POP POP POP POP POP POP JUMP JUMPDEST PUSH1 0x0 DUP1 PUSH1 0x40 DUP4 DUP6 SUB SLT ISZERO PUSH2 0xD99 JUMPI PUSH1 0x0 DUP1 REVERT JUMPDEST DUP3 CALLDATALOAD PUSH8 0xFFFFFFFFFFFFFFFF DUP1 DUP3 GT ISZERO PUSH2 0xDB1 JUMPI PUSH1 0x0 DUP1 REVERT JUMPDEST PUSH2 0xDBD DUP7 DUP4 DUP8 ADD PUSH2 0xB96 JUMP JUMPDEST SWAP4 POP PUSH1 0x20 DUP6 ADD CALLDATALOAD SWAP2 POP DUP1 DUP3 GT ISZERO PUSH2 0xDD3 JUMPI PUSH1 0x0 DUP1 REVERT JUMPDEST POP PUSH2 0xDE0 DUP6 DUP3 DUP7 ADD PUSH2 0xB96 JUMP JUMPDEST SWAP2 POP POP SWAP3 POP SWAP3 SWAP1 POP JUMP JUMPDEST PUSH1 0x20 DUP2 MSTORE PUSH1 0x0 PUSH2 0xDFD PUSH1 0x20 DUP4 ADD DUP5 PUSH2 0xCD5 JUMP JUMPDEST SWAP4 SWAP3 POP POP POP JUMP JUMPDEST PUSH1 0x20 DUP1 DUP3 MSTORE PUSH1 0x8 SWAP1 DUP3 ADD MSTORE PUSH8 0x4E4F5F56414C5545 PUSH1 0xC0 SHL PUSH1 0x40 DUP3 ADD MSTORE PUSH1 0x60 ADD SWAP1 JUMP JUMPDEST PUSH1 0x0 PUSH1 0x20 DUP1 DUP4 DUP6 SUB SLT ISZERO PUSH2 0xE39 JUMPI PUSH1 0x0 DUP1 REVERT JUMPDEST DUP3 MLOAD PUSH8 0xFFFFFFFFFFFFFFFF DUP1 DUP3 GT ISZERO PUSH2 0xE51 JUMPI PUSH1 0x0 DUP1 REVERT JUMPDEST SWAP1 DUP5 ADD SWAP1 PUSH1 0x40 DUP3 DUP8 SUB SLT ISZERO PUSH2 0xE65 JUMPI PUSH1 0x0 DUP1 REVERT JUMPDEST PUSH2 0xE6D PUSH2 0xB14 JUMP JUMPDEST DUP3 MLOAD PUSH1 0x1 PUSH1 0x1 PUSH1 0xA0 SHL SUB DUP2 AND DUP2 EQ PUSH2 0xE84 JUMPI PUSH1 0x0 DUP1 REVERT JUMPDEST DUP2 MSTORE DUP3 DUP5 ADD MLOAD DUP3 DUP2 GT ISZERO PUSH2 0xE97 JUMPI PUSH1 0x0 DUP1 REVERT JUMPDEST DUP1 DUP5 ADD SWAP4 POP POP DUP7 PUSH1 0x1F DUP5 ADD SLT PUSH2 0xEAC JUMPI PUSH1 0x0 DUP1 REVERT JUMPDEST DUP3 MLOAD SWAP2 POP PUSH2 0xEBC PUSH2 0xBB5 DUP4 PUSH2 0xB6E JUMP JUMPDEST DUP3 DUP2 MSTORE DUP8 DUP6 DUP5 DUP7 ADD ADD GT ISZERO PUSH2 0xED0 JUMPI PUSH1 0x0 DUP1 REVERT JUMPDEST PUSH2 0xEDF DUP4 DUP7 DUP4 ADD DUP8 DUP8 ADD PUSH2 0xCB1 JUMP JUMPDEST SWAP4 DUP2 ADD SWAP4 SWAP1 SWAP4 MSTORE POP SWAP1 SWAP5 SWAP4 POP POP POP POP JUMP JUMPDEST PUSH1 0x0 DUP3 MLOAD PUSH2 0xF02 DUP2 DUP5 PUSH1 0x20 DUP8 ADD PUSH2 0xCB1 JUMP JUMPDEST SWAP2 SWAP1 SWAP2 ADD SWAP3 SWAP2 POP POP JUMP JUMPDEST PUSH1 0x1 DUP2 DUP2 SHR SWAP1 DUP3 AND DUP1 PUSH2 0xF20 JUMPI PUSH1 0x7F DUP3 AND SWAP2 POP JUMPDEST PUSH1 0x20 DUP3 LT DUP2 SUB PUSH2 0xF40 JUMPI PUSH4 0x4E487B71 PUSH1 0xE0 SHL PUSH1 0x0 MSTORE PUSH1 0x22 PUSH1 0x4 MSTORE PUSH1 0x24 PUSH1 0x0 REVERT JUMPDEST POP SWAP2 SWAP1 POP JUMP JUMPDEST PUSH1 0x1F DUP3 GT ISZERO PUSH2 0xF90 JUMPI PUSH1 0x0 DUP2 DUP2 MSTORE PUSH1 0x20 DUP2 KECCAK256 PUSH1 0x1F DUP6 ADD PUSH1 0x5 SHR DUP2 ADD PUSH1 0x20 DUP7 LT ISZERO PUSH2 0xF6D JUMPI POP DUP1 JUMPDEST PUSH1 0x1F DUP6 ADD PUSH1 0x5 SHR DUP3 ADD SWAP2 POP JUMPDEST DUP2 DUP2 LT ISZERO PUSH2 0xF8C JUMPI DUP3 DUP2 SSTORE PUSH1 0x1 ADD PUSH2 0xF79 JUMP JUMPDEST POP POP POP JUMPDEST POP POP POP JUMP JUMPDEST DUP2 MLOAD PUSH8 0xFFFFFFFFFFFFFFFF DUP2 GT ISZERO PUSH2 0xFAF JUMPI PUSH2 0xFAF PUSH2 0xAFE JUMP JUMPDEST PUSH2 0xFC3 DUP2 PUSH2 0xFBD DUP5 SLOAD PUSH2 0xF0C JUMP JUMPDEST DUP5 PUSH2 0xF46 JUMP JUMPDEST PUSH1 0x20 DUP1 PUSH1 0x1F DUP4 GT PUSH1 0x1 DUP2 EQ PUSH2 0xFF8 JUMPI PUSH1 0x0 DUP5 ISZERO PUSH2 0xFE0 JUMPI POP DUP6 DUP4 ADD MLOAD JUMPDEST PUSH1 0x0 NOT PUSH1 0x3 DUP7 SWAP1 SHL SHR NOT AND PUSH1 0x1 DUP6 SWAP1 SHL OR DUP6 SSTORE PUSH2 0xF8C JUMP JUMPDEST PUSH1 0x0 DUP6 DUP2 MSTORE PUSH1 0x20 DUP2 KECCAK256 PUSH1 0x1F NOT DUP7 AND SWAP2 JUMPDEST DUP3 DUP2 LT ISZERO PUSH2 0x1027 JUMPI DUP9 DUP7 ADD MLOAD DUP3 SSTORE SWAP5 DUP5 ADD SWAP5 PUSH1 0x1 SWAP1 SWAP2 ADD SWAP1 DUP5 ADD PUSH2 0x1008 JUMP JUMPDEST POP DUP6 DUP3 LT ISZERO PUSH2 0x1045 JUMPI DUP8 DUP6 ADD MLOAD PUSH1 0x0 NOT PUSH1 0x3 DUP9 SWAP1 SHL PUSH1 0xF8 AND SHR NOT AND DUP2 SSTORE JUMPDEST POP POP POP POP POP PUSH1 0x1 SWAP1 DUP2 SHL ADD SWAP1 SSTORE POP JUMP JUMPDEST PUSH4 0x4E487B71 PUSH1 0xE0 SHL PUSH1 0x0 MSTORE PUSH1 0x32 PUSH1 0x4 MSTORE PUSH1 0x24 PUSH1 0x0 REVERT JUMPDEST PUSH1 0x0 DUP1 DUP4 SLOAD PUSH2 0x1079 DUP2 PUSH2 0xF0C JUMP JUMPDEST PUSH1 0x1 DUP3 DUP2 AND DUP1 ISZERO PUSH2 0x1091 JUMPI PUSH1 0x1 DUP2 EQ PUSH2 0x10A6 JUMPI PUSH2 0x10D5 JUMP JUMPDEST PUSH1 0xFF NOT DUP5 AND DUP8 MSTORE DUP3 ISZERO ISZERO DUP4 MUL DUP8 ADD SWAP5 POP PUSH2 0x10D5 JUMP JUMPDEST DUP8 PUSH1 0x0 MSTORE PUSH1 0x20 DUP1 PUSH1 0x0 KECCAK256 PUSH1 0x0 JUMPDEST DUP6 DUP2 LT ISZERO PUSH2 0x10CC JUMPI DUP2 SLOAD DUP11 DUP3 ADD MSTORE SWAP1 DUP5 ADD SWAP1 DUP3 ADD PUSH2 0x10B3 JUMP JUMPDEST POP POP POP DUP3 DUP8 ADD SWAP5 POP JUMPDEST POP SWAP3 SWAP7 SWAP6 POP POP POP POP POP POP JUMP JUMPDEST PUSH1 0x0 PUSH1 0x1 DUP3 ADD PUSH2 0x1101 JUMPI PUSH4 0x4E487B71 PUSH1 0xE0 SHL PUSH1 0x0 MSTORE PUSH1 0x11 PUSH1 0x4 MSTORE PUSH1 0x24 PUSH1 0x0 REVERT JUMPDEST POP PUSH1 0x1 ADD SWAP1 JUMP INVALID LOG2 PUSH5 0x6970667358 0x22 SLT KECCAK256 MSTORE8 LOG3 DUP5 GASLIMIT 0xCB 0x5D 0xAD MSTORE MUL 0xEA 0xAE EQ PUSH12 0xE37423B3CDD917CFBE2BB038 BYTE 0xDA JUMP 0xBB 0xA7 GASLIMIT LOG2 PUSH5 0x736F6C6343 STOP ADDMOD SLT STOP CALLER "
				},
				"gasEstimates": {
					"creation": {
						"codeDepositCost": "882800",
						"executionCost": "infinite",
						"totalCost": "infinite"
					},
					"external": {
						"clearScopeData(string)": "infinite",
						"getScopeData(string)": "infinite",
						"getScopeKeyData(string,string)": "infinite",
						"mainStorage()": "2381",
						"setScopeKeyData(string,string,string)": "infinite"
					}
				},
				"methodIdentifiers": {
					"clearScopeData(string)": "c9c711c9",
					"getScopeData(string)": "b4ce4f3c",
					"getScopeKeyData(string,string)": "fa8d9672",
					"mainStorage()": "e19d2ac3",
					"setScopeKeyData(string,string,string)": "52495b8b"
				}
			},
			"storageLayout": {
				"storage": [
					{
						"astId": 18,
						"contract": "source/ExStorage.sol:ExStorage",
						"label": "mainStorage",
						"offset": 0,
						"slot": "0",
						"type": "t_contract(IStorage)15"
					},
					{
						"astId": 96,
						"contract": "source/ExStorage.sol:ExStorage",
						"label": "scopeData",
						"offset": 0,
						"slot": "1",
						"type": "t_mapping(t_string_memory_ptr,t_mapping(t_string_memory_ptr,t_string_storage))"
					},
					{
						"astId": 101,
						"contract": "source/ExStorage.sol:ExStorage",
						"label": "scopeDataKeys",
						"offset": 0,
						"slot": "2",
						"type": "t_mapping(t_string_memory_ptr,t_array(t_string_storage)dyn_storage)"
					},
					{
						"astId": 107,
						"contract": "source/ExStorage.sol:ExStorage",
						"label": "scopeDataKeyExists",
						"offset": 0,
						"slot": "3",
						"type": "t_mapping(t_string_memory_ptr,t_mapping(t_string_memory_ptr,t_bool))"
					}
				],
				"types": {
					"t_array(t_string_storage)dyn_storage": {
						"base": "t_string_storage",
						"encoding": "dynamic_array",
						"label": "string[]",
						"numberOfBytes": "32"
					},
					"t_bool": {
						"encoding": "inplace",
						"label": "bool",
						"numberOfBytes": "1"
					},
					"t_contract(IStorage)15": {
						"encoding": "inplace",
						"label": "contract IStorage",
						"numberOfBytes": "20"
					},
					"t_mapping(t_string_memory_ptr,t_array(t_string_storage)dyn_storage)": {
						"encoding": "mapping",
						"key": "t_string_memory_ptr",
						"label": "mapping(string => string[])",
						"numberOfBytes": "32",
						"value": "t_array(t_string_storage)dyn_storage"
					},
					"t_mapping(t_string_memory_ptr,t_bool)": {
						"encoding": "mapping",
						"key": "t_string_memory_ptr",
						"label": "mapping(string => bool)",
						"numberOfBytes": "32",
						"value": "t_bool"
					},
					"t_mapping(t_string_memory_ptr,t_mapping(t_string_memory_ptr,t_bool))": {
						"encoding": "mapping",
						"key": "t_string_memory_ptr",
						"label": "mapping(string => mapping(string => bool))",
						"numberOfBytes": "32",
						"value": "t_mapping(t_string_memory_ptr,t_bool)"
					},
					"t_mapping(t_string_memory_ptr,t_mapping(t_string_memory_ptr,t_string_storage))": {
						"encoding": "mapping",
						"key": "t_string_memory_ptr",
						"label": "mapping(string => mapping(string => string))",
						"numberOfBytes": "32",
						"value": "t_mapping(t_string_memory_ptr,t_string_storage)"
					},
					"t_mapping(t_string_memory_ptr,t_string_storage)": {
						"encoding": "mapping",
						"key": "t_string_memory_ptr",
						"label": "mapping(string => string)",
						"numberOfBytes": "32",
						"value": "t_string_storage"
					},
					"t_string_memory_ptr": {
						"encoding": "bytes",
						"label": "string",
						"numberOfBytes": "32"
					},
					"t_string_storage": {
						"encoding": "bytes",
						"label": "string",
						"numberOfBytes": "32"
					}
				}
			},
			"userdoc": {
				"kind": "user",
				"methods": {},
				"version": 1
			}
		}
	}
}