{
	"source/Marketplace.sol": {
		"Marketplace": {
			"abi": [
				{
					"inputs": [
						{
							"internalType": "address",
							"name": "_nft",
							"type": "address"
						},
						{
							"internalType": "uint256",
							"name": "__tradeFee",
							"type": "uint256"
						},
						{
							"internalType": "address[]",
							"name": "__allowedERC20",
							"type": "address[]"
						}
					],
					"stateMutability": "nonpayable",
					"type": "constructor"
				},
				{
					"anonymous": false,
					"inputs": [
						{
							"indexed": false,
							"internalType": "address",
							"name": "owner",
							"type": "address"
						},
						{
							"indexed": false,
							"internalType": "address",
							"name": "buyer",
							"type": "address"
						},
						{
							"indexed": false,
							"internalType": "uint256",
							"name": "tokenId",
							"type": "uint256"
						},
						{
							"indexed": false,
							"internalType": "uint256",
							"name": "price",
							"type": "uint256"
						}
					],
					"name": "Buy",
					"type": "event"
				},
				{
					"anonymous": false,
					"inputs": [
						{
							"indexed": false,
							"internalType": "address",
							"name": "owner",
							"type": "address"
						},
						{
							"indexed": false,
							"internalType": "address",
							"name": "buyer",
							"type": "address"
						},
						{
							"indexed": false,
							"internalType": "uint256",
							"name": "tokenId",
							"type": "uint256"
						},
						{
							"indexed": false,
							"internalType": "address",
							"name": "erc20",
							"type": "address"
						},
						{
							"indexed": false,
							"internalType": "uint256",
							"name": "price",
							"type": "uint256"
						}
					],
					"name": "BuyWithERC20",
					"type": "event"
				},
				{
					"anonymous": false,
					"inputs": [
						{
							"indexed": true,
							"internalType": "address",
							"name": "previousOwner",
							"type": "address"
						},
						{
							"indexed": true,
							"internalType": "address",
							"name": "newOwner",
							"type": "address"
						}
					],
					"name": "OwnershipTransferred",
					"type": "event"
				},
				{
					"anonymous": false,
					"inputs": [
						{
							"indexed": false,
							"internalType": "address",
							"name": "owner",
							"type": "address"
						},
						{
							"indexed": false,
							"internalType": "uint256",
							"name": "tokenId",
							"type": "uint256"
						},
						{
							"indexed": false,
							"internalType": "uint256",
							"name": "price",
							"type": "uint256"
						}
					],
					"name": "PutUpForSale",
					"type": "event"
				},
				{
					"anonymous": false,
					"inputs": [
						{
							"indexed": false,
							"internalType": "address",
							"name": "owner",
							"type": "address"
						},
						{
							"indexed": false,
							"internalType": "uint256",
							"name": "tokenId",
							"type": "uint256"
						},
						{
							"indexed": false,
							"internalType": "address",
							"name": "erc20",
							"type": "address"
						},
						{
							"indexed": false,
							"internalType": "uint256",
							"name": "price",
							"type": "uint256"
						}
					],
					"name": "PutUpForSaleWithERC20",
					"type": "event"
				},
				{
					"anonymous": false,
					"inputs": [
						{
							"indexed": false,
							"internalType": "address",
							"name": "to",
							"type": "address"
						},
						{
							"indexed": false,
							"internalType": "uint256",
							"name": "amount",
							"type": "uint256"
						}
					],
					"name": "WithdrawBank",
					"type": "event"
				},
				{
					"anonymous": false,
					"inputs": [
						{
							"indexed": false,
							"internalType": "address",
							"name": "owner",
							"type": "address"
						},
						{
							"indexed": false,
							"internalType": "uint256",
							"name": "tokenId",
							"type": "uint256"
						}
					],
					"name": "WithdrawFromSale",
					"type": "event"
				},
				{
					"inputs": [
						{
							"internalType": "address",
							"name": "user",
							"type": "address"
						}
					],
					"name": "addBlackList",
					"outputs": [],
					"stateMutability": "nonpayable",
					"type": "function"
				},
				{
					"inputs": [],
					"name": "bankAmount",
					"outputs": [
						{
							"internalType": "uint256",
							"name": "",
							"type": "uint256"
						}
					],
					"stateMutability": "view",
					"type": "function"
				},
				{
					"inputs": [
						{
							"internalType": "address",
							"name": "erc20",
							"type": "address"
						}
					],
					"name": "bankAmountERC20",
					"outputs": [
						{
							"internalType": "uint256",
							"name": "",
							"type": "uint256"
						}
					],
					"stateMutability": "view",
					"type": "function"
				},
				{
					"inputs": [
						{
							"internalType": "uint256",
							"name": "_tokenId",
							"type": "uint256"
						}
					],
					"name": "buyNFT",
					"outputs": [],
					"stateMutability": "payable",
					"type": "function"
				},
				{
					"inputs": [
						{
							"internalType": "uint256",
							"name": "_tokenId",
							"type": "uint256"
						}
					],
					"name": "buyNFTbyERC20",
					"outputs": [],
					"stateMutability": "nonpayable",
					"type": "function"
				},
				{
					"inputs": [
						{
							"internalType": "uint256",
							"name": "_tokenId",
							"type": "uint256"
						}
					],
					"name": "deSellNFT",
					"outputs": [],
					"stateMutability": "nonpayable",
					"type": "function"
				},
				{
					"inputs": [],
					"name": "getAllowedERC20",
					"outputs": [
						{
							"internalType": "address[]",
							"name": "",
							"type": "address[]"
						}
					],
					"stateMutability": "view",
					"type": "function"
				},
				{
					"inputs": [],
					"name": "getMyTokensAtSale",
					"outputs": [
						{
							"components": [
								{
									"internalType": "uint256",
									"name": "tokenId",
									"type": "uint256"
								},
								{
									"internalType": "address",
									"name": "seller",
									"type": "address"
								},
								{
									"internalType": "uint256",
									"name": "price",
									"type": "uint256"
								},
								{
									"internalType": "address",
									"name": "erc20",
									"type": "address"
								}
							],
							"internalType": "struct Marketplace.SelledNFT[]",
							"name": "ret",
							"type": "tuple[]"
						}
					],
					"stateMutability": "view",
					"type": "function"
				},
				{
					"inputs": [],
					"name": "getTokensAtSale",
					"outputs": [
						{
							"components": [
								{
									"internalType": "uint256",
									"name": "tokenId",
									"type": "uint256"
								},
								{
									"internalType": "address",
									"name": "seller",
									"type": "address"
								},
								{
									"internalType": "uint256",
									"name": "price",
									"type": "uint256"
								},
								{
									"internalType": "address",
									"name": "erc20",
									"type": "address"
								}
							],
							"internalType": "struct Marketplace.SelledNFT[]",
							"name": "ret",
							"type": "tuple[]"
						}
					],
					"stateMutability": "view",
					"type": "function"
				},
				{
					"inputs": [],
					"name": "getTradeFee",
					"outputs": [
						{
							"internalType": "uint256",
							"name": "",
							"type": "uint256"
						}
					],
					"stateMutability": "view",
					"type": "function"
				},
				{
					"inputs": [
						{
							"internalType": "address",
							"name": "seller",
							"type": "address"
						}
					],
					"name": "getUserTokensAtSale",
					"outputs": [
						{
							"components": [
								{
									"internalType": "uint256",
									"name": "tokenId",
									"type": "uint256"
								},
								{
									"internalType": "address",
									"name": "seller",
									"type": "address"
								},
								{
									"internalType": "uint256",
									"name": "price",
									"type": "uint256"
								},
								{
									"internalType": "address",
									"name": "erc20",
									"type": "address"
								}
							],
							"internalType": "struct Marketplace.SelledNFT[]",
							"name": "ret",
							"type": "tuple[]"
						}
					],
					"stateMutability": "view",
					"type": "function"
				},
				{
					"inputs": [
						{
							"internalType": "address",
							"name": "erc20",
							"type": "address"
						}
					],
					"name": "isAllowedERC20",
					"outputs": [
						{
							"internalType": "bool",
							"name": "",
							"type": "bool"
						}
					],
					"stateMutability": "view",
					"type": "function"
				},
				{
					"inputs": [
						{
							"internalType": "address",
							"name": "user",
							"type": "address"
						}
					],
					"name": "isBlacklisted",
					"outputs": [
						{
							"internalType": "bool",
							"name": "",
							"type": "bool"
						}
					],
					"stateMutability": "view",
					"type": "function"
				},
				{
					"inputs": [],
					"name": "marketNft",
					"outputs": [
						{
							"internalType": "contract IERC721",
							"name": "",
							"type": "address"
						}
					],
					"stateMutability": "view",
					"type": "function"
				},
				{
					"inputs": [],
					"name": "owner",
					"outputs": [
						{
							"internalType": "address",
							"name": "",
							"type": "address"
						}
					],
					"stateMutability": "view",
					"type": "function"
				},
				{
					"inputs": [
						{
							"internalType": "address",
							"name": "user",
							"type": "address"
						}
					],
					"name": "removeBlackList",
					"outputs": [],
					"stateMutability": "nonpayable",
					"type": "function"
				},
				{
					"inputs": [],
					"name": "renounceOwnership",
					"outputs": [],
					"stateMutability": "nonpayable",
					"type": "function"
				},
				{
					"inputs": [
						{
							"internalType": "uint256",
							"name": "_tokenId",
							"type": "uint256"
						},
						{
							"internalType": "uint256",
							"name": "price",
							"type": "uint256"
						},
						{
							"internalType": "address",
							"name": "_erc20",
							"type": "address"
						}
					],
					"name": "sellNFT",
					"outputs": [],
					"stateMutability": "nonpayable",
					"type": "function"
				},
				{
					"inputs": [
						{
							"internalType": "address[]",
							"name": "newAllowedERC20",
							"type": "address[]"
						}
					],
					"name": "setAllowedERC20",
					"outputs": [],
					"stateMutability": "nonpayable",
					"type": "function"
				},
				{
					"inputs": [
						{
							"internalType": "uint256",
							"name": "_newTradeFee",
							"type": "uint256"
						}
					],
					"name": "setTradeFee",
					"outputs": [],
					"stateMutability": "nonpayable",
					"type": "function"
				},
				{
					"inputs": [
						{
							"internalType": "address",
							"name": "newOwner",
							"type": "address"
						}
					],
					"name": "transferOwnership",
					"outputs": [],
					"stateMutability": "nonpayable",
					"type": "function"
				},
				{
					"inputs": [],
					"name": "version",
					"outputs": [
						{
							"internalType": "uint256",
							"name": "",
							"type": "uint256"
						}
					],
					"stateMutability": "view",
					"type": "function"
				},
				{
					"inputs": [],
					"name": "withdrawBank",
					"outputs": [],
					"stateMutability": "nonpayable",
					"type": "function"
				},
				{
					"inputs": [
						{
							"internalType": "address",
							"name": "erc20",
							"type": "address"
						}
					],
					"name": "withdrawBankERC20",
					"outputs": [],
					"stateMutability": "nonpayable",
					"type": "function"
				}
			],
			"devdoc": {
				"kind": "dev",
				"methods": {
					"owner()": {
						"details": "Returns the address of the current owner."
					},
					"renounceOwnership()": {
						"details": "Leaves the contract without owner. It will not be possible to call `onlyOwner` functions anymore. Can only be called by the current owner. NOTE: Renouncing ownership will leave the contract without an owner, thereby removing any functionality that is only available to the owner."
					},
					"transferOwnership(address)": {
						"details": "Transfers ownership of the contract to a new account (`newOwner`). Can only be called by the current owner."
					}
				},
				"version": 1
			},
			"evm": {
				"assembly": "    /* \"source/Marketplace.sol\":48220:59162  contract Marketplace is Ownable {... */\n  mstore(0x40, 0x80)\n    /* \"source/Marketplace.sol\":49052:49053  1 */\n  0x01\n    /* \"source/Marketplace.sol\":49030:49053  uint public version = 1 */\n  0x02\n  sstore\n    /* \"source/Marketplace.sol\":49087:49088  0 */\n  0x00\n    /* \"source/Marketplace.sol\":49062:49088  uint private _tradeFee = 0 */\n  0x03\n  sstore\n    /* \"source/Marketplace.sol\":50123:50351  constructor(... */\n  callvalue\n  dup1\n  iszero\n  tag_1\n  jumpi\n  0x00\n  dup1\n  revert\ntag_1:\n  pop\n  mload(0x40)\n  sub(codesize, bytecodeSize)\n  dup1\n  bytecodeSize\n  dup4\n  codecopy\n  dup2\n  add\n  0x40\n  dup2\n  swap1\n  mstore\n  tag_2\n  swap2\n  tag_3\n  jump\t// in\ntag_2:\n    /* \"source/Marketplace.sol\":1740:1772  _transferOwnership(_msgSender()) */\n  tag_7\n    /* \"source/Marketplace.sol\":736:746  msg.sender */\n  caller\n    /* \"source/Marketplace.sol\":1740:1758  _transferOwnership */\n  tag_10\n    /* \"source/Marketplace.sol\":1740:1772  _transferOwnership(_msgSender()) */\n  jump\t// in\ntag_7:\n    /* \"source/Marketplace.sol\":50244:50253  marketNft */\n  0x01\n    /* \"source/Marketplace.sol\":50244:50269  marketNft = IERC721(_nft) */\n  dup1\n  sload\n  not(sub(shl(0xa0, 0x01), 0x01))\n  and\n  sub(shl(0xa0, 0x01), 0x01)\n  dup6\n  and\n  or\n  swap1\n  sstore\n    /* \"source/Marketplace.sol\":50280:50289  _tradeFee */\n  0x03\n    /* \"source/Marketplace.sol\":50280:50302  _tradeFee = __tradeFee */\n  dup3\n  swap1\n  sstore\n    /* \"source/Marketplace.sol\":50313:50343  _allowedERC20 = __allowedERC20 */\n  dup1\n  mload\n  tag_12\n  swap1\n    /* \"source/Marketplace.sol\":50313:50326  _allowedERC20 */\n  0x07\n  swap1\n    /* \"source/Marketplace.sol\":50313:50343  _allowedERC20 = __allowedERC20 */\n  0x20\n  dup5\n  add\n  swap1\n  tag_13\n  jump\t// in\ntag_12:\n  pop\n    /* \"source/Marketplace.sol\":50123:50351  constructor(... */\n  pop\n  pop\n  pop\n    /* \"source/Marketplace.sol\":48220:59162  contract Marketplace is Ownable {... */\n  jump(tag_26)\n    /* \"source/Marketplace.sol\":3286:3477  function _transferOwnership(address newOwner) internal virtual {... */\ntag_10:\n    /* \"source/Marketplace.sol\":3360:3376  address oldOwner */\n  0x00\n    /* \"source/Marketplace.sol\":3379:3385  _owner */\n  dup1\n  sload\n  sub(shl(0xa0, 0x01), 0x01)\n    /* \"source/Marketplace.sol\":3396:3413  _owner = newOwner */\n  dup4\n  dup2\n  and\n  not(sub(shl(0xa0, 0x01), 0x01))\n  dup4\n  and\n  dup2\n  or\n  dup5\n  sstore\n    /* \"source/Marketplace.sol\":3429:3469  OwnershipTransferred(oldOwner, newOwner) */\n  mload(0x40)\n    /* \"source/Marketplace.sol\":3379:3385  _owner */\n  swap2\n  swap1\n  swap3\n  and\n  swap3\n  dup4\n  swap2\n    /* \"source/Marketplace.sol\":3429:3469  OwnershipTransferred(oldOwner, newOwner) */\n  0x8be0079c531659141344cd1fd0a4f28419497f9722a3daafe3b4186f6b6457e0\n  swap2\n    /* \"source/Marketplace.sol\":3360:3376  address oldOwner */\n  swap1\n    /* \"source/Marketplace.sol\":3429:3469  OwnershipTransferred(oldOwner, newOwner) */\n  log3\n    /* \"source/Marketplace.sol\":3349:3477  {... */\n  pop\n    /* \"source/Marketplace.sol\":3286:3477  function _transferOwnership(address newOwner) internal virtual {... */\n  pop\n  jump\t// out\n    /* \"source/Marketplace.sol\":48220:59162  contract Marketplace is Ownable {... */\ntag_13:\n  dup3\n  dup1\n  sload\n  dup3\n  dup3\n  sstore\n  swap1\n  0x00\n  mstore\n  keccak256(0x00, 0x20)\n  swap1\n  dup2\n  add\n  swap3\n  dup3\n  iszero\n  tag_19\n  jumpi\n  swap2\n  0x20\n  mul\n  dup3\n  add\ntag_18:\n  dup3\n  dup2\n  gt\n  iszero\n  tag_19\n  jumpi\n  dup3\n  mload\n  dup3\n  sload\n  not(sub(shl(0xa0, 0x01), 0x01))\n  and\n  sub(shl(0xa0, 0x01), 0x01)\n  swap1\n  swap2\n  and\n  or\n  dup3\n  sstore\n  0x20\n  swap1\n  swap3\n  add\n  swap2\n  0x01\n  swap1\n  swap2\n  add\n  swap1\n  jump(tag_18)\ntag_19:\n  pop\n  tag_20\n  swap3\n  swap2\n  pop\n  tag_21\n  jump\t// in\ntag_20:\n  pop\n  swap1\n  jump\t// out\ntag_21:\ntag_22:\n  dup1\n  dup3\n  gt\n  iszero\n  tag_20\n  jumpi\n  0x00\n  dup2\n  sstore\n  0x01\n  add\n  jump(tag_22)\n    /* \"#utility.yul\":14:191   */\ntag_24:\n    /* \"#utility.yul\":93:106   */\n  dup1\n  mload\n  sub(shl(0xa0, 0x01), 0x01)\n    /* \"#utility.yul\":135:166   */\n  dup2\n  and\n    /* \"#utility.yul\":125:167   */\n  dup2\n  eq\n    /* \"#utility.yul\":115:185   */\n  tag_28\n  jumpi\n    /* \"#utility.yul\":181:182   */\n  0x00\n    /* \"#utility.yul\":178:179   */\n  dup1\n    /* \"#utility.yul\":171:183   */\n  revert\n    /* \"#utility.yul\":115:185   */\ntag_28:\n    /* \"#utility.yul\":14:191   */\n  swap2\n  swap1\n  pop\n  jump\t// out\n    /* \"#utility.yul\":196:323   */\ntag_25:\n    /* \"#utility.yul\":257:267   */\n  0x4e487b71\n    /* \"#utility.yul\":252:255   */\n  0xe0\n    /* \"#utility.yul\":248:268   */\n  shl\n    /* \"#utility.yul\":245:246   */\n  0x00\n    /* \"#utility.yul\":238:269   */\n  mstore\n    /* \"#utility.yul\":288:292   */\n  0x41\n    /* \"#utility.yul\":285:286   */\n  0x04\n    /* \"#utility.yul\":278:293   */\n  mstore\n    /* \"#utility.yul\":312:316   */\n  0x24\n    /* \"#utility.yul\":309:310   */\n  0x00\n    /* \"#utility.yul\":302:317   */\n  revert\n    /* \"#utility.yul\":328:1603   */\ntag_3:\n    /* \"#utility.yul\":441:447   */\n  0x00\n    /* \"#utility.yul\":449:455   */\n  dup1\n    /* \"#utility.yul\":457:463   */\n  0x00\n    /* \"#utility.yul\":510:512   */\n  0x60\n    /* \"#utility.yul\":498:507   */\n  dup5\n    /* \"#utility.yul\":489:496   */\n  dup7\n    /* \"#utility.yul\":485:508   */\n  sub\n    /* \"#utility.yul\":481:513   */\n  slt\n    /* \"#utility.yul\":478:530   */\n  iszero\n  tag_31\n  jumpi\n    /* \"#utility.yul\":526:527   */\n  0x00\n    /* \"#utility.yul\":523:524   */\n  dup1\n    /* \"#utility.yul\":516:528   */\n  revert\n    /* \"#utility.yul\":478:530   */\ntag_31:\n    /* \"#utility.yul\":549:589   */\n  tag_32\n    /* \"#utility.yul\":579:588   */\n  dup5\n    /* \"#utility.yul\":549:589   */\n  tag_24\n  jump\t// in\ntag_32:\n    /* \"#utility.yul\":608:610   */\n  0x20\n    /* \"#utility.yul\":635:653   */\n  dup6\n  dup2\n  add\n    /* \"#utility.yul\":629:654   */\n  mload\n    /* \"#utility.yul\":698:700   */\n  0x40\n    /* \"#utility.yul\":683:701   */\n  dup8\n  add\n    /* \"#utility.yul\":677:702   */\n  mload\n    /* \"#utility.yul\":539:589   */\n  swap3\n  swap6\n  pop\n    /* \"#utility.yul\":629:654   */\n  swap4\n  pop\n    /* \"#utility.yul\":608:610   */\n  swap1\n  sub(shl(0x40, 0x01), 0x01)\n    /* \"#utility.yul\":751:765   */\n  dup1\n  dup3\n  gt\n    /* \"#utility.yul\":748:782   */\n  iszero\n  tag_33\n  jumpi\n    /* \"#utility.yul\":778:779   */\n  0x00\n    /* \"#utility.yul\":775:776   */\n  dup1\n    /* \"#utility.yul\":768:780   */\n  revert\n    /* \"#utility.yul\":748:782   */\ntag_33:\n    /* \"#utility.yul\":816:822   */\n  dup2\n    /* \"#utility.yul\":805:814   */\n  dup8\n    /* \"#utility.yul\":801:823   */\n  add\n    /* \"#utility.yul\":791:823   */\n  swap2\n  pop\n    /* \"#utility.yul\":861:868   */\n  dup8\n    /* \"#utility.yul\":854:858   */\n  0x1f\n    /* \"#utility.yul\":850:852   */\n  dup4\n    /* \"#utility.yul\":846:859   */\n  add\n    /* \"#utility.yul\":842:869   */\n  slt\n    /* \"#utility.yul\":832:887   */\n  tag_34\n  jumpi\n    /* \"#utility.yul\":883:884   */\n  0x00\n    /* \"#utility.yul\":880:881   */\n  dup1\n    /* \"#utility.yul\":873:885   */\n  revert\n    /* \"#utility.yul\":832:887   */\ntag_34:\n    /* \"#utility.yul\":912:914   */\n  dup2\n    /* \"#utility.yul\":906:915   */\n  mload\n    /* \"#utility.yul\":934:936   */\n  dup2\n    /* \"#utility.yul\":930:932   */\n  dup2\n    /* \"#utility.yul\":927:937   */\n  gt\n    /* \"#utility.yul\":924:960   */\n  iszero\n  tag_36\n  jumpi\n    /* \"#utility.yul\":940:958   */\n  tag_36\n  tag_25\n  jump\t// in\ntag_36:\n    /* \"#utility.yul\":986:988   */\n  dup1\n    /* \"#utility.yul\":983:984   */\n  0x05\n    /* \"#utility.yul\":979:989   */\n  shl\n    /* \"#utility.yul\":1018:1020   */\n  0x40\n    /* \"#utility.yul\":1012:1021   */\n  mload\n    /* \"#utility.yul\":1081:1083   */\n  0x1f\n    /* \"#utility.yul\":1077:1084   */\n  not\n    /* \"#utility.yul\":1072:1074   */\n  0x3f\n    /* \"#utility.yul\":1068:1070   */\n  dup4\n    /* \"#utility.yul\":1064:1075   */\n  add\n    /* \"#utility.yul\":1060:1085   */\n  and\n    /* \"#utility.yul\":1052:1058   */\n  dup2\n    /* \"#utility.yul\":1048:1086   */\n  add\n    /* \"#utility.yul\":1136:1142   */\n  dup2\n    /* \"#utility.yul\":1124:1134   */\n  dup2\n    /* \"#utility.yul\":1121:1143   */\n  lt\n    /* \"#utility.yul\":1116:1118   */\n  dup6\n    /* \"#utility.yul\":1104:1114   */\n  dup3\n    /* \"#utility.yul\":1101:1119   */\n  gt\n    /* \"#utility.yul\":1098:1144   */\n  or\n    /* \"#utility.yul\":1095:1167   */\n  iszero\n  tag_38\n  jumpi\n    /* \"#utility.yul\":1147:1165   */\n  tag_38\n  tag_25\n  jump\t// in\ntag_38:\n    /* \"#utility.yul\":1183:1185   */\n  0x40\n    /* \"#utility.yul\":1176:1198   */\n  mstore\n    /* \"#utility.yul\":1233:1251   */\n  swap2\n  dup3\n  mstore\n    /* \"#utility.yul\":1267:1282   */\n  dup5\n  dup3\n  add\n  swap3\n  pop\n    /* \"#utility.yul\":1309:1320   */\n  dup4\n  dup2\n  add\n    /* \"#utility.yul\":1305:1325   */\n  dup6\n  add\n  swap2\n    /* \"#utility.yul\":1337:1356   */\n  dup11\n  dup4\n  gt\n    /* \"#utility.yul\":1334:1373   */\n  iszero\n  tag_39\n  jumpi\n    /* \"#utility.yul\":1369:1370   */\n  0x00\n    /* \"#utility.yul\":1366:1367   */\n  dup1\n    /* \"#utility.yul\":1359:1371   */\n  revert\n    /* \"#utility.yul\":1334:1373   */\ntag_39:\n    /* \"#utility.yul\":1393:1404   */\n  swap4\n  dup6\n  add\n  swap4\n    /* \"#utility.yul\":1413:1572   */\ntag_40:\n    /* \"#utility.yul\":1429:1435   */\n  dup3\n    /* \"#utility.yul\":1424:1427   */\n  dup6\n    /* \"#utility.yul\":1421:1436   */\n  lt\n    /* \"#utility.yul\":1413:1572   */\n  iszero\n  tag_42\n  jumpi\n    /* \"#utility.yul\":1495:1529   */\n  tag_43\n    /* \"#utility.yul\":1525:1528   */\n  dup6\n    /* \"#utility.yul\":1495:1529   */\n  tag_24\n  jump\t// in\ntag_43:\n    /* \"#utility.yul\":1483:1530   */\n  dup5\n  mstore\n    /* \"#utility.yul\":1446:1458   */\n  swap4\n  dup6\n  add\n  swap4\n    /* \"#utility.yul\":1550:1562   */\n  swap3\n  dup6\n  add\n  swap3\n    /* \"#utility.yul\":1413:1572   */\n  jump(tag_40)\ntag_42:\n    /* \"#utility.yul\":1591:1597   */\n  dup1\n    /* \"#utility.yul\":1581:1597   */\n  swap7\n  pop\n  pop\n  pop\n  pop\n  pop\n  pop\n  pop\n    /* \"#utility.yul\":328:1603   */\n  swap3\n  pop\n  swap3\n  pop\n  swap3\n  jump\t// out\ntag_26:\n    /* \"source/Marketplace.sol\":48220:59162  contract Marketplace is Ownable {... */\n  dataSize(sub_0)\n  dup1\n  dataOffset(sub_0)\n  0x00\n  codecopy\n  0x00\n  return\nstop\n\nsub_0: assembly {\n        /* \"source/Marketplace.sol\":48220:59162  contract Marketplace is Ownable {... */\n      mstore(0x40, 0x80)\n      jumpi(tag_1, lt(calldatasize, 0x04))\n      shr(0xe0, calldataload(0x00))\n      dup1\n      0x7c237eea\n      gt\n      tag_26\n      jumpi\n      dup1\n      0xe4997dc5\n      gt\n      tag_27\n      jumpi\n      dup1\n      0xe4997dc5\n      eq\n      tag_20\n      jumpi\n      dup1\n      0xe9e4e160\n      eq\n      tag_21\n      jumpi\n      dup1\n      0xf2fde38b\n      eq\n      tag_22\n      jumpi\n      dup1\n      0xfcf984a9\n      eq\n      tag_23\n      jumpi\n      dup1\n      0xfe575a87\n      eq\n      tag_24\n      jumpi\n      dup1\n      0xff7f0cf9\n      eq\n      tag_25\n      jumpi\n      0x00\n      dup1\n      revert\n    tag_27:\n      dup1\n      0x7c237eea\n      eq\n      tag_14\n      jumpi\n      dup1\n      0x8da5cb5b\n      eq\n      tag_15\n      jumpi\n      dup1\n      0x952977f5\n      eq\n      tag_16\n      jumpi\n      dup1\n      0xa096c5a2\n      eq\n      tag_17\n      jumpi\n      dup1\n      0xb42a275e\n      eq\n      tag_18\n      jumpi\n      dup1\n      0xd55a34e4\n      eq\n      tag_19\n      jumpi\n      0x00\n      dup1\n      revert\n    tag_26:\n      dup1\n      0x512ddcf9\n      gt\n      tag_28\n      jumpi\n      dup1\n      0x512ddcf9\n      eq\n      tag_8\n      jumpi\n      dup1\n      0x51ed8288\n      eq\n      tag_9\n      jumpi\n      dup1\n      0x54fd4d50\n      eq\n      tag_10\n      jumpi\n      dup1\n      0x69c57352\n      eq\n      tag_11\n      jumpi\n      dup1\n      0x715018a6\n      eq\n      tag_12\n      jumpi\n      dup1\n      0x785fa7ce\n      eq\n      tag_13\n      jumpi\n      0x00\n      dup1\n      revert\n    tag_28:\n      dup1\n      0x047a5d43\n      eq\n      tag_2\n      jumpi\n      dup1\n      0x08cfbc19\n      eq\n      tag_3\n      jumpi\n      dup1\n      0x0ecb93c0\n      eq\n      tag_4\n      jumpi\n      dup1\n      0x10603023\n      eq\n      tag_5\n      jumpi\n      dup1\n      0x19c8c1c5\n      eq\n      tag_6\n      jumpi\n      dup1\n      0x476caa70\n      eq\n      tag_7\n      jumpi\n    tag_1:\n      0x00\n      dup1\n      revert\n        /* \"source/Marketplace.sol\":54926:56581  function buyNFTbyERC20(uint _tokenId)... */\n    tag_2:\n      callvalue\n      dup1\n      iszero\n      tag_29\n      jumpi\n      0x00\n      dup1\n      revert\n    tag_29:\n      pop\n      tag_30\n      tag_31\n      calldatasize\n      0x04\n      tag_32\n      jump\t// in\n    tag_31:\n      tag_33\n      jump\t// in\n    tag_30:\n      stop\n        /* \"source/Marketplace.sol\":48997:49021  IERC721 public marketNft */\n    tag_3:\n      callvalue\n      dup1\n      iszero\n      tag_34\n      jumpi\n      0x00\n      dup1\n      revert\n    tag_34:\n      pop\n      sload(0x01)\n      tag_35\n      swap1\n      sub(shl(0xa0, 0x01), 0x01)\n      and\n      dup2\n      jump\n    tag_35:\n      mload(0x40)\n      sub(shl(0xa0, 0x01), 0x01)\n        /* \"#utility.yul\":378:410   */\n      swap1\n      swap2\n      and\n        /* \"#utility.yul\":360:411   */\n      dup2\n      mstore\n        /* \"#utility.yul\":348:350   */\n      0x20\n        /* \"#utility.yul\":333:351   */\n      add\n        /* \"source/Marketplace.sol\":48997:49021  IERC721 public marketNft */\n    tag_37:\n      mload(0x40)\n      dup1\n      swap2\n      sub\n      swap1\n      return\n        /* \"source/Marketplace.sol\":50359:50454  function addBlackList(address user) public onlyOwner {... */\n    tag_4:\n      callvalue\n      dup1\n      iszero\n      tag_39\n      jumpi\n      0x00\n      dup1\n      revert\n    tag_39:\n      pop\n      tag_30\n      tag_41\n      calldatasize\n      0x04\n      tag_42\n      jump\t// in\n    tag_41:\n      tag_43\n      jump\t// in\n        /* \"source/Marketplace.sol\":51930:52030  function setTradeFee(uint _newTradeFee) public onlyOwner {... */\n    tag_5:\n      callvalue\n      dup1\n      iszero\n      tag_44\n      jumpi\n      0x00\n      dup1\n      revert\n    tag_44:\n      pop\n      tag_30\n      tag_46\n      calldatasize\n      0x04\n      tag_32\n      jump\t// in\n    tag_46:\n      tag_47\n      jump\t// in\n        /* \"source/Marketplace.sol\":52324:53416  function getUserTokensAtSale(address seller)... */\n    tag_6:\n      callvalue\n      dup1\n      iszero\n      tag_48\n      jumpi\n      0x00\n      dup1\n      revert\n    tag_48:\n      pop\n      tag_49\n      tag_50\n      calldatasize\n      0x04\n      tag_42\n      jump\t// in\n    tag_50:\n      pop\n        /* \"source/Marketplace.sol\":52408:52430  SelledNFT[] memory ret */\n      0x60\n      swap1\n        /* \"source/Marketplace.sol\":52324:53416  function getUserTokensAtSale(address seller)... */\n      jump\n    tag_49:\n      mload(0x40)\n      tag_37\n      swap2\n      swap1\n      tag_53\n      jump\t// in\n        /* \"source/Marketplace.sol\":51453:51617  function bankAmountERC20(address erc20) public view returns(uint256) {... */\n    tag_7:\n      callvalue\n      dup1\n      iszero\n      tag_54\n      jumpi\n      0x00\n      dup1\n      revert\n    tag_54:\n      pop\n      tag_55\n      tag_56\n      calldatasize\n      0x04\n      tag_42\n      jump\t// in\n    tag_56:\n      tag_57\n      jump\t// in\n    tag_55:\n      mload(0x40)\n        /* \"#utility.yul\":2132:2157   */\n      swap1\n      dup2\n      mstore\n        /* \"#utility.yul\":2120:2122   */\n      0x20\n        /* \"#utility.yul\":2105:2123   */\n      add\n        /* \"source/Marketplace.sol\":51453:51617  function bankAmountERC20(address erc20) public view returns(uint256) {... */\n      tag_37\n        /* \"#utility.yul\":1986:2163   */\n      jump\n        /* \"source/Marketplace.sol\":58741:59159  function deSellNFT(uint256 _tokenId) public {... */\n    tag_8:\n      callvalue\n      dup1\n      iszero\n      tag_60\n      jumpi\n      0x00\n      dup1\n      revert\n    tag_60:\n      pop\n      tag_30\n      tag_62\n      calldatasize\n      0x04\n      tag_32\n      jump\t// in\n    tag_62:\n      tag_63\n      jump\t// in\n        /* \"source/Marketplace.sol\":56591:57757  function buyNFT(uint256 _tokenId)... */\n    tag_9:\n      tag_30\n      tag_65\n      calldatasize\n      0x04\n      tag_32\n      jump\t// in\n    tag_65:\n      tag_66\n      jump\t// in\n        /* \"source/Marketplace.sol\":49030:49053  uint public version = 1 */\n    tag_10:\n      callvalue\n      dup1\n      iszero\n      tag_67\n      jumpi\n      0x00\n      dup1\n      revert\n    tag_67:\n      pop\n      tag_55\n      sload(0x02)\n      dup2\n      jump\n        /* \"source/Marketplace.sol\":50810:50914  function getAllowedERC20() public view returns(address[] memory) {... */\n    tag_11:\n      callvalue\n      dup1\n      iszero\n      tag_71\n      jumpi\n      0x00\n      dup1\n      revert\n    tag_71:\n      pop\n      tag_72\n      tag_73\n      jump\t// in\n    tag_72:\n      mload(0x40)\n      tag_37\n      swap2\n      swap1\n      tag_75\n      jump\t// in\n        /* \"source/Marketplace.sol\":2667:2770  function renounceOwnership() public virtual onlyOwner {... */\n    tag_12:\n      callvalue\n      dup1\n      iszero\n      tag_76\n      jumpi\n      0x00\n      dup1\n      revert\n    tag_76:\n      pop\n      tag_30\n      tag_78\n      jump\t// in\n        /* \"source/Marketplace.sol\":50920:51138  function isAllowedERC20(address erc20) public view returns (bool) {... */\n    tag_13:\n      callvalue\n      dup1\n      iszero\n      tag_79\n      jumpi\n      0x00\n      dup1\n      revert\n    tag_79:\n      pop\n      tag_80\n      tag_81\n      calldatasize\n      0x04\n      tag_42\n      jump\t// in\n    tag_81:\n      tag_82\n      jump\t// in\n    tag_80:\n      mload(0x40)\n        /* \"#utility.yul\":2996:3010   */\n      swap1\n      iszero\n        /* \"#utility.yul\":2989:3011   */\n      iszero\n        /* \"#utility.yul\":2971:3012   */\n      dup2\n      mstore\n        /* \"#utility.yul\":2959:2961   */\n      0x20\n        /* \"#utility.yul\":2944:2962   */\n      add\n        /* \"source/Marketplace.sol\":50920:51138  function isAllowedERC20(address erc20) public view returns (bool) {... */\n      tag_37\n        /* \"#utility.yul\":2831:3018   */\n      jump\n        /* \"source/Marketplace.sol\":57765:58733  function sellNFT(... */\n    tag_14:\n      callvalue\n      dup1\n      iszero\n      tag_85\n      jumpi\n      0x00\n      dup1\n      revert\n    tag_85:\n      pop\n      tag_30\n      tag_87\n      calldatasize\n      0x04\n      tag_88\n      jump\t// in\n    tag_87:\n      tag_89\n      jump\t// in\n        /* \"source/Marketplace.sol\":2019:2106  function owner() public view virtual returns (address) {... */\n    tag_15:\n      callvalue\n      dup1\n      iszero\n      tag_90\n      jumpi\n      0x00\n      dup1\n      revert\n    tag_90:\n      pop\n        /* \"source/Marketplace.sol\":2065:2072  address */\n      0x00\n        /* \"source/Marketplace.sol\":2092:2098  _owner */\n      sload\n      sub(shl(0xa0, 0x01), 0x01)\n      and\n        /* \"source/Marketplace.sol\":2019:2106  function owner() public view virtual returns (address) {... */\n      jump(tag_35)\n        /* \"source/Marketplace.sol\":51839:51924  function getTradeFee() public view returns (uint) {... */\n    tag_16:\n      callvalue\n      dup1\n      iszero\n      tag_95\n      jumpi\n      0x00\n      dup1\n      revert\n    tag_95:\n      pop\n        /* \"source/Marketplace.sol\":51907:51916  _tradeFee */\n      sload(0x03)\n        /* \"source/Marketplace.sol\":51839:51924  function getTradeFee() public view returns (uint) {... */\n      jump(tag_55)\n        /* \"source/Marketplace.sol\":52183:52316  function getMyTokensAtSale() external view returns (SelledNFT[] memory ret) {... */\n    tag_17:\n      callvalue\n      dup1\n      iszero\n      tag_99\n      jumpi\n      0x00\n      dup1\n      revert\n    tag_99:\n      pop\n        /* \"source/Marketplace.sol\":52235:52257  SelledNFT[] memory ret */\n      0x60\n        /* \"source/Marketplace.sol\":52183:52316  function getMyTokensAtSale() external view returns (SelledNFT[] memory ret) {... */\n      jump(tag_49)\n        /* \"source/Marketplace.sol\":51146:51244  function bankAmount() public view returns(uint256) {... */\n    tag_18:\n      callvalue\n      dup1\n      iszero\n      tag_103\n      jumpi\n      0x00\n      dup1\n      revert\n    tag_103:\n      pop\n        /* \"source/Marketplace.sol\":51215:51236  address(this).balance */\n      selfbalance\n        /* \"source/Marketplace.sol\":51146:51244  function bankAmount() public view returns(uint256) {... */\n      jump(tag_55)\n        /* \"source/Marketplace.sol\":53424:54918  function getTokensAtSale()... */\n    tag_19:\n      callvalue\n      dup1\n      iszero\n      tag_107\n      jumpi\n      0x00\n      dup1\n      revert\n    tag_107:\n      pop\n      tag_49\n      tag_109\n      jump\t// in\n        /* \"source/Marketplace.sol\":50460:50559  function removeBlackList(address user) public onlyOwner {... */\n    tag_20:\n      callvalue\n      dup1\n      iszero\n      tag_111\n      jumpi\n      0x00\n      dup1\n      revert\n    tag_111:\n      pop\n      tag_30\n      tag_113\n      calldatasize\n      0x04\n      tag_42\n      jump\t// in\n    tag_113:\n      tag_114\n      jump\t// in\n        /* \"source/Marketplace.sol\":50678:50804  function setAllowedERC20(address[] memory newAllowedERC20) public onlyOwner {... */\n    tag_21:\n      callvalue\n      dup1\n      iszero\n      tag_115\n      jumpi\n      0x00\n      dup1\n      revert\n    tag_115:\n      pop\n      tag_30\n      tag_117\n      calldatasize\n      0x04\n      tag_118\n      jump\t// in\n    tag_117:\n      tag_119\n      jump\t// in\n        /* \"source/Marketplace.sol\":2925:3126  function transferOwnership(address newOwner) public virtual onlyOwner {... */\n    tag_22:\n      callvalue\n      dup1\n      iszero\n      tag_120\n      jumpi\n      0x00\n      dup1\n      revert\n    tag_120:\n      pop\n      tag_30\n      tag_122\n      calldatasize\n      0x04\n      tag_42\n      jump\t// in\n    tag_122:\n      tag_123\n      jump\t// in\n        /* \"source/Marketplace.sol\":51623:51831  function withdrawBankERC20(address erc20) public onlyOwner {... */\n    tag_23:\n      callvalue\n      dup1\n      iszero\n      tag_124\n      jumpi\n      0x00\n      dup1\n      revert\n    tag_124:\n      pop\n      tag_30\n      tag_126\n      calldatasize\n      0x04\n      tag_42\n      jump\t// in\n    tag_126:\n      tag_127\n      jump\t// in\n        /* \"source/Marketplace.sol\":50565:50670  function isBlacklisted(address user) public view returns(bool) {... */\n    tag_24:\n      callvalue\n      dup1\n      iszero\n      tag_128\n      jumpi\n      0x00\n      dup1\n      revert\n    tag_128:\n      pop\n      tag_80\n      tag_130\n      calldatasize\n      0x04\n      tag_42\n      jump\t// in\n    tag_130:\n      sub(shl(0xa0, 0x01), 0x01)\n        /* \"source/Marketplace.sol\":50646:50662  _blackList[user] */\n      and\n        /* \"source/Marketplace.sol\":50622:50626  bool */\n      0x00\n        /* \"source/Marketplace.sol\":50646:50662  _blackList[user] */\n      swap1\n      dup2\n      mstore\n        /* \"source/Marketplace.sol\":50646:50656  _blackList */\n      0x06\n        /* \"source/Marketplace.sol\":50646:50662  _blackList[user] */\n      0x20\n      mstore\n      0x40\n      swap1\n      keccak256\n      sload\n      0xff\n      and\n      swap1\n        /* \"source/Marketplace.sol\":50565:50670  function isBlacklisted(address user) public view returns(bool) {... */\n      jump\n        /* \"source/Marketplace.sol\":51252:51445  function withdrawBank() public onlyOwner {... */\n    tag_25:\n      callvalue\n      dup1\n      iszero\n      tag_133\n      jumpi\n      0x00\n      dup1\n      revert\n    tag_133:\n      pop\n      tag_30\n      tag_135\n      jump\t// in\n        /* \"source/Marketplace.sol\":54926:56581  function buyNFTbyERC20(uint _tokenId)... */\n    tag_33:\n        /* \"source/Marketplace.sol\":55004:55029  _isTokensAtSale[_tokenId] */\n      0x00\n      dup2\n      dup2\n      mstore\n        /* \"source/Marketplace.sol\":55004:55019  _isTokensAtSale */\n      0x04\n        /* \"source/Marketplace.sol\":55004:55029  _isTokensAtSale[_tokenId] */\n      0x20\n      mstore\n      0x40\n      swap1\n      keccak256\n      sload\n      0xff\n      and\n        /* \"source/Marketplace.sol\":55004:55037  _isTokensAtSale[_tokenId] == true */\n      iszero\n      iszero\n        /* \"source/Marketplace.sol\":55004:55029  _isTokensAtSale[_tokenId] */\n      0x01\n        /* \"source/Marketplace.sol\":55004:55037  _isTokensAtSale[_tokenId] == true */\n      eq\n        /* \"source/Marketplace.sol\":54996:55066  require(_isTokensAtSale[_tokenId] == true, \"This NFT is not for sale\") */\n      tag_137\n      jumpi\n      mload(0x40)\n      shl(0xe5, 0x461bcd)\n      dup2\n      mstore\n        /* \"#utility.yul\":5079:5081   */\n      0x20\n        /* \"source/Marketplace.sol\":54996:55066  require(_isTokensAtSale[_tokenId] == true, \"This NFT is not for sale\") */\n      0x04\n      dup3\n      add\n        /* \"#utility.yul\":5061:5082   */\n      mstore\n        /* \"#utility.yul\":5118:5120   */\n      0x18\n        /* \"#utility.yul\":5098:5116   */\n      0x24\n      dup3\n      add\n        /* \"#utility.yul\":5091:5121   */\n      mstore\n      shl(0x40, 0x54686973204e4654206973206e6f7420666f722073616c65)\n        /* \"#utility.yul\":5137:5155   */\n      0x44\n      dup3\n      add\n        /* \"#utility.yul\":5130:5184   */\n      mstore\n        /* \"#utility.yul\":5201:5219   */\n      0x64\n      add\n        /* \"source/Marketplace.sol\":54996:55066  require(_isTokensAtSale[_tokenId] == true, \"This NFT is not for sale\") */\n    tag_138:\n      mload(0x40)\n      dup1\n      swap2\n      sub\n      swap1\n      revert\n    tag_137:\n        /* \"source/Marketplace.sol\":55126:55127  0 */\n      0x00\n        /* \"source/Marketplace.sol\":55085:55108  _tokensAtSale[_tokenId] */\n      dup2\n      dup2\n      mstore\n        /* \"source/Marketplace.sol\":55085:55098  _tokensAtSale */\n      0x05\n        /* \"source/Marketplace.sol\":55085:55108  _tokensAtSale[_tokenId] */\n      0x20\n      mstore\n      0x40\n      swap1\n      keccak256\n        /* \"source/Marketplace.sol\":55085:55114  _tokensAtSale[_tokenId].erc20 */\n      0x03\n      add\n      sload\n      sub(shl(0xa0, 0x01), 0x01)\n      and\n        /* \"source/Marketplace.sol\":55077:55165  require(_tokensAtSale[_tokenId].erc20 != address(0), \"This token selled by Native coin\") */\n      tag_140\n      jumpi\n      mload(0x40)\n      shl(0xe5, 0x461bcd)\n      dup2\n      mstore\n        /* \"#utility.yul\":5432:5434   */\n      0x20\n        /* \"source/Marketplace.sol\":55077:55165  require(_tokensAtSale[_tokenId].erc20 != address(0), \"This token selled by Native coin\") */\n      0x04\n      dup3\n      add\n        /* \"#utility.yul\":5414:5435   */\n      dup2\n      swap1\n      mstore\n        /* \"#utility.yul\":5451:5469   */\n      0x24\n      dup3\n      add\n        /* \"#utility.yul\":5444:5474   */\n      mstore\n        /* \"#utility.yul\":5510:5544   */\n      0x5468697320746f6b656e2073656c6c6564206279204e617469766520636f696e\n        /* \"#utility.yul\":5490:5508   */\n      0x44\n      dup3\n      add\n        /* \"#utility.yul\":5483:5545   */\n      mstore\n        /* \"#utility.yul\":5562:5580   */\n      0x64\n      add\n        /* \"source/Marketplace.sol\":55077:55165  require(_tokensAtSale[_tokenId].erc20 != address(0), \"This token selled by Native coin\") */\n      tag_138\n        /* \"#utility.yul\":5230:5586   */\n      jump\n        /* \"source/Marketplace.sol\":55077:55165  require(_tokensAtSale[_tokenId].erc20 != address(0), \"This token selled by Native coin\") */\n    tag_140:\n        /* \"source/Marketplace.sol\":55178:55193  IERC20 payToken */\n      0x00\n        /* \"source/Marketplace.sol\":55203:55226  _tokensAtSale[_tokenId] */\n      dup2\n      dup2\n      mstore\n        /* \"source/Marketplace.sol\":55203:55216  _tokensAtSale */\n      0x05\n        /* \"source/Marketplace.sol\":55203:55226  _tokensAtSale[_tokenId] */\n      0x20\n      mstore\n      0x40\n      dup1\n      dup3\n      keccak256\n        /* \"source/Marketplace.sol\":55203:55232  _tokensAtSale[_tokenId].erc20 */\n      0x03\n      add\n      sload\n        /* \"source/Marketplace.sol\":55267:55297  payToken.balanceOf(msg.sender) */\n      swap1\n      mload\n      shl(0xe0, 0x70a08231)\n      dup2\n      mstore\n        /* \"source/Marketplace.sol\":55286:55296  msg.sender */\n      caller\n        /* \"source/Marketplace.sol\":55267:55297  payToken.balanceOf(msg.sender) */\n      0x04\n      dup3\n      add\n        /* \"#utility.yul\":360:411   */\n      mstore\n      sub(shl(0xa0, 0x01), 0x01)\n        /* \"source/Marketplace.sol\":55203:55232  _tokensAtSale[_tokenId].erc20 */\n      swap1\n      swap2\n      and\n      swap2\n        /* \"source/Marketplace.sol\":55178:55193  IERC20 payToken */\n      swap1\n        /* \"source/Marketplace.sol\":55203:55232  _tokensAtSale[_tokenId].erc20 */\n      dup3\n      swap1\n        /* \"source/Marketplace.sol\":55267:55285  payToken.balanceOf */\n      0x70a08231\n      swap1\n        /* \"#utility.yul\":333:351   */\n      0x24\n      add\n        /* \"source/Marketplace.sol\":55267:55297  payToken.balanceOf(msg.sender) */\n      0x20\n      mload(0x40)\n      dup1\n      dup4\n      sub\n      dup2\n      dup7\n      gas\n      staticcall\n      iszero\n      dup1\n      iszero\n      tag_145\n      jumpi\n      returndatasize\n      0x00\n      dup1\n      returndatacopy\n      revert(0x00, returndatasize)\n    tag_145:\n      pop\n      pop\n      pop\n      pop\n      mload(0x40)\n      returndatasize\n      not(0x1f)\n      0x1f\n      dup3\n      add\n      and\n      dup3\n      add\n      dup1\n      0x40\n      mstore\n      pop\n      dup2\n      add\n      swap1\n      tag_146\n      swap2\n      swap1\n      tag_147\n      jump\t// in\n    tag_146:\n        /* \"source/Marketplace.sol\":55332:55355  _tokensAtSale[_tokenId] */\n      0x00\n      dup5\n      dup2\n      mstore\n        /* \"source/Marketplace.sol\":55332:55345  _tokensAtSale */\n      0x05\n        /* \"source/Marketplace.sol\":55332:55355  _tokensAtSale[_tokenId] */\n      0x20\n      mstore\n      0x40\n      swap1\n      keccak256\n        /* \"source/Marketplace.sol\":55332:55361  _tokensAtSale[_tokenId].price */\n      0x02\n      add\n      sload\n        /* \"source/Marketplace.sol\":55244:55297  uint256 buyerBalance = payToken.balanceOf(msg.sender) */\n      swap1\n      swap2\n      pop\n        /* \"source/Marketplace.sol\":55316:55361  buyerBalance >= _tokensAtSale[_tokenId].price */\n      dup2\n      lt\n      iszero\n        /* \"source/Marketplace.sol\":55308:55418  require(buyerBalance >= _tokensAtSale[_tokenId].price, \"You do not have enough tokens on your balance to pay\") */\n      tag_148\n      jumpi\n      mload(0x40)\n      shl(0xe5, 0x461bcd)\n      dup2\n      mstore\n        /* \"#utility.yul\":5982:5984   */\n      0x20\n        /* \"source/Marketplace.sol\":55308:55418  require(buyerBalance >= _tokensAtSale[_tokenId].price, \"You do not have enough tokens on your balance to pay\") */\n      0x04\n      dup3\n      add\n        /* \"#utility.yul\":5964:5985   */\n      mstore\n        /* \"#utility.yul\":6021:6023   */\n      0x34\n        /* \"#utility.yul\":6001:6019   */\n      0x24\n      dup3\n      add\n        /* \"#utility.yul\":5994:6024   */\n      mstore\n        /* \"#utility.yul\":6060:6094   */\n      0x596f7520646f206e6f74206861766520656e6f75676820746f6b656e73206f6e\n        /* \"#utility.yul\":6040:6058   */\n      0x44\n      dup3\n      add\n        /* \"#utility.yul\":6033:6095   */\n      mstore\n      shl(0x60, 0x20796f75722062616c616e636520746f20706179)\n        /* \"#utility.yul\":6111:6129   */\n      0x64\n      dup3\n      add\n        /* \"#utility.yul\":6104:6154   */\n      mstore\n        /* \"#utility.yul\":6171:6190   */\n      0x84\n      add\n        /* \"source/Marketplace.sol\":55308:55418  require(buyerBalance >= _tokensAtSale[_tokenId].price, \"You do not have enough tokens on your balance to pay\") */\n      tag_138\n        /* \"#utility.yul\":5780:6196   */\n      jump\n        /* \"source/Marketplace.sol\":55308:55418  require(buyerBalance >= _tokensAtSale[_tokenId].price, \"You do not have enough tokens on your balance to pay\") */\n    tag_148:\n        /* \"source/Marketplace.sol\":55454:55499  payToken.allowance(msg.sender, address(this)) */\n      mload(0x40)\n      shl(0xe1, 0x6eb1769f)\n      dup2\n      mstore\n        /* \"source/Marketplace.sol\":55473:55483  msg.sender */\n      caller\n        /* \"source/Marketplace.sol\":55454:55499  payToken.allowance(msg.sender, address(this)) */\n      0x04\n      dup3\n      add\n        /* \"#utility.yul\":6413:6447   */\n      mstore\n        /* \"source/Marketplace.sol\":55493:55497  this */\n      address\n        /* \"#utility.yul\":6463:6481   */\n      0x24\n      dup3\n      add\n        /* \"#utility.yul\":6456:6499   */\n      mstore\n        /* \"source/Marketplace.sol\":55429:55451  uint256 buyerAllowance */\n      0x00\n      swap1\n      sub(shl(0xa0, 0x01), 0x01)\n        /* \"source/Marketplace.sol\":55454:55472  payToken.allowance */\n      dup5\n      and\n      swap1\n      0xdd62ed3e\n      swap1\n        /* \"#utility.yul\":6348:6366   */\n      0x44\n      add\n        /* \"source/Marketplace.sol\":55454:55499  payToken.allowance(msg.sender, address(this)) */\n      0x20\n      mload(0x40)\n      dup1\n      dup4\n      sub\n      dup2\n      dup7\n      gas\n      staticcall\n      iszero\n      dup1\n      iszero\n      tag_154\n      jumpi\n      returndatasize\n      0x00\n      dup1\n      returndatacopy\n      revert(0x00, returndatasize)\n    tag_154:\n      pop\n      pop\n      pop\n      pop\n      mload(0x40)\n      returndatasize\n      not(0x1f)\n      0x1f\n      dup3\n      add\n      and\n      dup3\n      add\n      dup1\n      0x40\n      mstore\n      pop\n      dup2\n      add\n      swap1\n      tag_155\n      swap2\n      swap1\n      tag_147\n      jump\t// in\n    tag_155:\n        /* \"source/Marketplace.sol\":55536:55559  _tokensAtSale[_tokenId] */\n      0x00\n      dup6\n      dup2\n      mstore\n        /* \"source/Marketplace.sol\":55536:55549  _tokensAtSale */\n      0x05\n        /* \"source/Marketplace.sol\":55536:55559  _tokensAtSale[_tokenId] */\n      0x20\n      mstore\n      0x40\n      swap1\n      keccak256\n        /* \"source/Marketplace.sol\":55536:55565  _tokensAtSale[_tokenId].price */\n      0x02\n      add\n      sload\n        /* \"source/Marketplace.sol\":55429:55499  uint256 buyerAllowance = payToken.allowance(msg.sender, address(this)) */\n      swap1\n      swap2\n      pop\n        /* \"source/Marketplace.sol\":55518:55565  buyerAllowance >= _tokensAtSale[_tokenId].price */\n      dup2\n      lt\n      iszero\n        /* \"source/Marketplace.sol\":55510:55628  require(buyerAllowance >= _tokensAtSale[_tokenId].price, \"You did not allow the contract to send the purchase amount\") */\n      tag_156\n      jumpi\n      mload(0x40)\n      shl(0xe5, 0x461bcd)\n      dup2\n      mstore\n        /* \"#utility.yul\":6712:6714   */\n      0x20\n        /* \"source/Marketplace.sol\":55510:55628  require(buyerAllowance >= _tokensAtSale[_tokenId].price, \"You did not allow the contract to send the purchase amount\") */\n      0x04\n      dup3\n      add\n        /* \"#utility.yul\":6694:6715   */\n      mstore\n        /* \"#utility.yul\":6751:6753   */\n      0x3a\n        /* \"#utility.yul\":6731:6749   */\n      0x24\n      dup3\n      add\n        /* \"#utility.yul\":6724:6754   */\n      mstore\n        /* \"#utility.yul\":6790:6824   */\n      0x596f7520646964206e6f7420616c6c6f772074686520636f6e74726163742074\n        /* \"#utility.yul\":6770:6788   */\n      0x44\n      dup3\n      add\n        /* \"#utility.yul\":6763:6825   */\n      mstore\n        /* \"#utility.yul\":6861:6889   */\n      0x6f2073656e642074686520707572636861736520616d6f756e74000000000000\n        /* \"#utility.yul\":6841:6859   */\n      0x64\n      dup3\n      add\n        /* \"#utility.yul\":6834:6890   */\n      mstore\n        /* \"#utility.yul\":6907:6926   */\n      0x84\n      add\n        /* \"source/Marketplace.sol\":55510:55628  require(buyerAllowance >= _tokensAtSale[_tokenId].price, \"You did not allow the contract to send the purchase amount\") */\n      tag_138\n        /* \"#utility.yul\":6510:6932   */\n      jump\n        /* \"source/Marketplace.sol\":55510:55628  require(buyerAllowance >= _tokensAtSale[_tokenId].price, \"You did not allow the contract to send the purchase amount\") */\n    tag_156:\n        /* \"source/Marketplace.sol\":55651:55665  uint256 amount */\n      0x00\n        /* \"source/Marketplace.sol\":55668:55691  _tokensAtSale[_tokenId] */\n      dup5\n      dup2\n      mstore\n        /* \"source/Marketplace.sol\":55668:55681  _tokensAtSale */\n      0x05\n        /* \"source/Marketplace.sol\":55668:55691  _tokensAtSale[_tokenId] */\n      0x20\n      mstore\n      0x40\n      dup2\n      keccak256\n        /* \"source/Marketplace.sol\":55668:55697  _tokensAtSale[_tokenId].price */\n      0x02\n      add\n      sload\n      swap1\n        /* \"source/Marketplace.sol\":55728:55778  SafeMath.mul(SafeMath.div(amount, 100), _tradeFee) */\n      tag_159\n        /* \"source/Marketplace.sol\":55741:55766  SafeMath.div(amount, 100) */\n      tag_160\n        /* \"source/Marketplace.sol\":55668:55697  _tokensAtSale[_tokenId].price */\n      dup4\n        /* \"source/Marketplace.sol\":55762:55765  100 */\n      0x64\n        /* \"source/Marketplace.sol\":55741:55753  SafeMath.div */\n      tag_161\n        /* \"source/Marketplace.sol\":55741:55766  SafeMath.div(amount, 100) */\n      jump\t// in\n    tag_160:\n        /* \"source/Marketplace.sol\":55768:55777  _tradeFee */\n      sload(0x03)\n        /* \"source/Marketplace.sol\":55728:55740  SafeMath.mul */\n      tag_162\n        /* \"source/Marketplace.sol\":55728:55778  SafeMath.mul(SafeMath.div(amount, 100), _tradeFee) */\n      jump\t// in\n    tag_159:\n        /* \"source/Marketplace.sol\":55708:55778  uint256 feeAmount = SafeMath.mul(SafeMath.div(amount, 100), _tradeFee) */\n      swap1\n      pop\n        /* \"source/Marketplace.sol\":55827:55834  owner() */\n      tag_163\n        /* \"source/Marketplace.sol\":2065:2072  address */\n      0x00\n        /* \"source/Marketplace.sol\":2092:2098  _owner */\n      sload\n      sub(shl(0xa0, 0x01), 0x01)\n      and\n      swap1\n        /* \"source/Marketplace.sol\":2019:2106  function owner() public view virtual returns (address) {... */\n      jump\n        /* \"source/Marketplace.sol\":55827:55834  owner() */\n    tag_163:\n        /* \"source/Marketplace.sol\":55793:55816  _tokensAtSale[_tokenId] */\n      0x00\n      dup8\n      dup2\n      mstore\n        /* \"source/Marketplace.sol\":55793:55806  _tokensAtSale */\n      0x05\n        /* \"source/Marketplace.sol\":55793:55816  _tokensAtSale[_tokenId] */\n      0x20\n      mstore\n      0x40\n      swap1\n      keccak256\n        /* \"source/Marketplace.sol\":55793:55823  _tokensAtSale[_tokenId].seller */\n      0x01\n      add\n      sload\n      sub(shl(0xa0, 0x01), 0x01)\n        /* \"source/Marketplace.sol\":55793:55834  _tokensAtSale[_tokenId].seller == owner() */\n      swap2\n      dup3\n      and\n        /* \"source/Marketplace.sol\":55793:55823  _tokensAtSale[_tokenId].seller */\n      swap2\n      and\n        /* \"source/Marketplace.sol\":55793:55834  _tokensAtSale[_tokenId].seller == owner() */\n      sub\n        /* \"source/Marketplace.sol\":55789:55849  if (_tokensAtSale[_tokenId].seller == owner()) feeAmount = 0 */\n      tag_164\n      jumpi\n      pop\n        /* \"source/Marketplace.sol\":55848:55849  0 */\n      0x00\n        /* \"source/Marketplace.sol\":55789:55849  if (_tokensAtSale[_tokenId].seller == owner()) feeAmount = 0 */\n    tag_164:\n        /* \"source/Marketplace.sol\":55860:55881  uint256 amountWithFee */\n      0x00\n        /* \"source/Marketplace.sol\":55884:55915  SafeMath.sub(amount, feeAmount) */\n      tag_165\n        /* \"source/Marketplace.sol\":55897:55903  amount */\n      dup4\n        /* \"source/Marketplace.sol\":55905:55914  feeAmount */\n      dup4\n        /* \"source/Marketplace.sol\":55884:55896  SafeMath.sub */\n      tag_166\n        /* \"source/Marketplace.sol\":55884:55915  SafeMath.sub(amount, feeAmount) */\n      jump\t// in\n    tag_165:\n        /* \"source/Marketplace.sol\":56010:56033  _tokensAtSale[_tokenId] */\n      0x00\n      dup9\n      dup2\n      mstore\n        /* \"source/Marketplace.sol\":56010:56023  _tokensAtSale */\n      0x05\n        /* \"source/Marketplace.sol\":56010:56033  _tokensAtSale[_tokenId] */\n      0x20\n      mstore\n      0x40\n      swap1\n      keccak256\n        /* \"source/Marketplace.sol\":56010:56040  _tokensAtSale[_tokenId].seller */\n      0x01\n      add\n      sload\n        /* \"source/Marketplace.sol\":55860:55915  uint256 amountWithFee = SafeMath.sub(amount, feeAmount) */\n      swap1\n      swap2\n      pop\n        /* \"source/Marketplace.sol\":55928:56080  payToken.safeTransferFrom(... */\n      tag_167\n      swap1\n      sub(shl(0xa0, 0x01), 0x01)\n        /* \"source/Marketplace.sol\":55928:55953  payToken.safeTransferFrom */\n      dup9\n      dup2\n      and\n      swap2\n        /* \"source/Marketplace.sol\":55976:55986  msg.sender */\n      caller\n      swap2\n        /* \"source/Marketplace.sol\":56010:56040  _tokensAtSale[_tokenId].seller */\n      and\n        /* \"source/Marketplace.sol\":55860:55915  uint256 amountWithFee = SafeMath.sub(amount, feeAmount) */\n      dup5\n        /* \"source/Marketplace.sol\":55928:55953  payToken.safeTransferFrom */\n      tag_168\n        /* \"source/Marketplace.sol\":55928:56080  payToken.safeTransferFrom(... */\n      jump\t// in\n    tag_167:\n        /* \"source/Marketplace.sol\":56095:56108  feeAmount > 0 */\n      dup2\n      iszero\n        /* \"source/Marketplace.sol\":56091:56278  if (feeAmount > 0) {... */\n      tag_170\n      jumpi\n        /* \"source/Marketplace.sol\":56125:56266  payToken.safeTransferFrom(... */\n      tag_170\n        /* \"source/Marketplace.sol\":56177:56187  msg.sender */\n      caller\n        /* \"source/Marketplace.sol\":56215:56222  owner() */\n      tag_171\n        /* \"source/Marketplace.sol\":2065:2072  address */\n      0x00\n        /* \"source/Marketplace.sol\":2092:2098  _owner */\n      sload\n      sub(shl(0xa0, 0x01), 0x01)\n      and\n      swap1\n        /* \"source/Marketplace.sol\":2019:2106  function owner() public view virtual returns (address) {... */\n      jump\n        /* \"source/Marketplace.sol\":56215:56222  owner() */\n    tag_171:\n      sub(shl(0xa0, 0x01), 0x01)\n        /* \"source/Marketplace.sol\":56125:56150  payToken.safeTransferFrom */\n      dup10\n      and\n      swap2\n        /* \"source/Marketplace.sol\":56125:56266  payToken.safeTransferFrom(... */\n      swap1\n        /* \"source/Marketplace.sol\":56242:56251  feeAmount */\n      dup6\n        /* \"source/Marketplace.sol\":56125:56150  payToken.safeTransferFrom */\n      tag_168\n        /* \"source/Marketplace.sol\":56125:56266  payToken.safeTransferFrom(... */\n      jump\t// in\n    tag_170:\n        /* \"source/Marketplace.sol\":56288:56297  marketNft */\n      sload(0x01)\n        /* \"source/Marketplace.sol\":56288:56347  marketNft.transferFrom(address(this), msg.sender, _tokenId) */\n      mload(0x40)\n      shl(0xe0, 0x23b872dd)\n      dup2\n      mstore\n      sub(shl(0xa0, 0x01), 0x01)\n        /* \"source/Marketplace.sol\":56288:56297  marketNft */\n      swap1\n      swap2\n      and\n      swap1\n        /* \"source/Marketplace.sol\":56288:56310  marketNft.transferFrom */\n      0x23b872dd\n      swap1\n        /* \"source/Marketplace.sol\":56288:56347  marketNft.transferFrom(address(this), msg.sender, _tokenId) */\n      tag_172\n      swap1\n        /* \"source/Marketplace.sol\":56319:56323  this */\n      address\n      swap1\n        /* \"source/Marketplace.sol\":56326:56336  msg.sender */\n      caller\n      swap1\n        /* \"source/Marketplace.sol\":56338:56346  _tokenId */\n      dup13\n      swap1\n        /* \"source/Marketplace.sol\":56288:56347  marketNft.transferFrom(address(this), msg.sender, _tokenId) */\n      0x04\n      add\n      tag_173\n      jump\t// in\n    tag_172:\n      0x00\n      mload(0x40)\n      dup1\n      dup4\n      sub\n      dup2\n      0x00\n      dup8\n      dup1\n      extcodesize\n      iszero\n      dup1\n      iszero\n      tag_174\n      jumpi\n      0x00\n      dup1\n      revert\n    tag_174:\n      pop\n      gas\n      call\n      iszero\n      dup1\n      iszero\n      tag_176\n      jumpi\n      returndatasize\n      0x00\n      dup1\n      returndatacopy\n      revert(0x00, returndatasize)\n    tag_176:\n      pop\n      pop\n      pop\n        /* \"source/Marketplace.sol\":56386:56391  false */\n      0x00\n        /* \"source/Marketplace.sol\":56358:56383  _isTokensAtSale[_tokenId] */\n      dup9\n      dup2\n      mstore\n        /* \"source/Marketplace.sol\":56358:56373  _isTokensAtSale */\n      0x04\n        /* \"source/Marketplace.sol\":56358:56383  _isTokensAtSale[_tokenId] */\n      0x20\n      mstore\n      0x40\n      swap1\n      keccak256\n        /* \"source/Marketplace.sol\":56358:56391  _isTokensAtSale[_tokenId] = false */\n      dup1\n      sload\n      not(0xff)\n      and\n      swap1\n      sstore\n      pop\n        /* \"source/Marketplace.sol\":56402:56427  _clearSellToken(_tokenId) */\n      tag_177\n        /* \"source/Marketplace.sol\":56374:56382  _tokenId */\n      dup8\n        /* \"source/Marketplace.sol\":56402:56417  _clearSellToken */\n      tag_178\n        /* \"source/Marketplace.sol\":56402:56427  _clearSellToken(_tokenId) */\n      jump\t// in\n    tag_177:\n        /* \"source/Marketplace.sol\":56458:56481  _tokensAtSale[_tokenId] */\n      0x00\n      dup8\n      dup2\n      mstore\n        /* \"source/Marketplace.sol\":56458:56471  _tokensAtSale */\n      0x05\n        /* \"source/Marketplace.sol\":56458:56481  _tokensAtSale[_tokenId] */\n      0x20\n      swap1\n      dup2\n      mstore\n      0x40\n      swap2\n      dup3\n      swap1\n      keccak256\n        /* \"source/Marketplace.sol\":56458:56488  _tokensAtSale[_tokenId].seller */\n      0x01\n      dup2\n      add\n      sload\n        /* \"source/Marketplace.sol\":56512:56541  _tokensAtSale[_tokenId].erc20 */\n      0x03\n      dup3\n      add\n      sload\n        /* \"source/Marketplace.sol\":56543:56572  _tokensAtSale[_tokenId].price */\n      0x02\n      swap1\n      swap3\n      add\n      sload\n        /* \"source/Marketplace.sol\":56445:56573  BuyWithERC20(_tokensAtSale[_tokenId].seller, msg.sender, _tokenId, _tokensAtSale[_tokenId].erc20, _tokensAtSale[_tokenId].price) */\n      dup5\n      mload\n      sub(shl(0xa0, 0x01), 0x01)\n        /* \"source/Marketplace.sol\":56458:56488  _tokensAtSale[_tokenId].seller */\n      swap3\n      dup4\n      and\n        /* \"#utility.yul\":7614:7648   */\n      dup2\n      mstore\n        /* \"source/Marketplace.sol\":56490:56500  msg.sender */\n      caller\n        /* \"#utility.yul\":7664:7682   */\n      swap5\n      dup2\n      add\n        /* \"#utility.yul\":7657:7700   */\n      swap5\n      swap1\n      swap5\n      mstore\n        /* \"#utility.yul\":7716:7734   */\n      dup4\n      dup6\n      add\n        /* \"#utility.yul\":7709:7743   */\n      dup13\n      swap1\n      mstore\n        /* \"source/Marketplace.sol\":56512:56541  _tokensAtSale[_tokenId].erc20 */\n      swap2\n      and\n        /* \"#utility.yul\":7774:7776   */\n      0x60\n        /* \"#utility.yul\":7759:7777   */\n      dup4\n      add\n        /* \"#utility.yul\":7752:7795   */\n      mstore\n        /* \"#utility.yul\":7826:7829   */\n      0x80\n        /* \"#utility.yul\":7811:7830   */\n      dup3\n      add\n        /* \"#utility.yul\":7804:7839   */\n      mstore\n        /* \"source/Marketplace.sol\":56445:56573  BuyWithERC20(_tokensAtSale[_tokenId].seller, msg.sender, _tokenId, _tokensAtSale[_tokenId].erc20, _tokensAtSale[_tokenId].price) */\n      swap1\n      mload\n      0xd369fdcfeb128f60117661ebd8f220b7265c0a04fee0e9905eb8c6ab2767b9e5\n      swap2\n      dup2\n      swap1\n      sub\n        /* \"#utility.yul\":7563:7566   */\n      0xa0\n        /* \"source/Marketplace.sol\":56445:56573  BuyWithERC20(_tokensAtSale[_tokenId].seller, msg.sender, _tokenId, _tokensAtSale[_tokenId].erc20, _tokensAtSale[_tokenId].price) */\n      add\n      swap1\n      log1\n        /* \"source/Marketplace.sol\":54985:56581  {... */\n      pop\n      pop\n      pop\n      pop\n      pop\n      pop\n        /* \"source/Marketplace.sol\":54926:56581  function buyNFTbyERC20(uint _tokenId)... */\n      pop\n      jump\t// out\n        /* \"source/Marketplace.sol\":50359:50454  function addBlackList(address user) public onlyOwner {... */\n    tag_43:\n        /* \"source/Marketplace.sol\":1905:1918  _checkOwner() */\n      tag_182\n        /* \"source/Marketplace.sol\":1905:1916  _checkOwner */\n      tag_183\n        /* \"source/Marketplace.sol\":1905:1918  _checkOwner() */\n      jump\t// in\n    tag_182:\n      sub(shl(0xa0, 0x01), 0x01)\n        /* \"source/Marketplace.sol\":50423:50439  _blackList[user] */\n      and\n      0x00\n      swap1\n      dup2\n      mstore\n        /* \"source/Marketplace.sol\":50423:50433  _blackList */\n      0x06\n        /* \"source/Marketplace.sol\":50423:50439  _blackList[user] */\n      0x20\n      mstore\n      0x40\n      swap1\n      keccak256\n        /* \"source/Marketplace.sol\":50423:50446  _blackList[user] = true */\n      dup1\n      sload\n      not(0xff)\n      and\n        /* \"source/Marketplace.sol\":50442:50446  true */\n      0x01\n        /* \"source/Marketplace.sol\":50423:50446  _blackList[user] = true */\n      or\n      swap1\n      sstore\n        /* \"source/Marketplace.sol\":50359:50454  function addBlackList(address user) public onlyOwner {... */\n      jump\t// out\n        /* \"source/Marketplace.sol\":51930:52030  function setTradeFee(uint _newTradeFee) public onlyOwner {... */\n    tag_47:\n        /* \"source/Marketplace.sol\":1905:1918  _checkOwner() */\n      tag_186\n        /* \"source/Marketplace.sol\":1905:1916  _checkOwner */\n      tag_183\n        /* \"source/Marketplace.sol\":1905:1918  _checkOwner() */\n      jump\t// in\n    tag_186:\n        /* \"source/Marketplace.sol\":51998:52007  _tradeFee */\n      0x03\n        /* \"source/Marketplace.sol\":51998:52022  _tradeFee = _newTradeFee */\n      sstore\n        /* \"source/Marketplace.sol\":51930:52030  function setTradeFee(uint _newTradeFee) public onlyOwner {... */\n      jump\t// out\n        /* \"source/Marketplace.sol\":51453:51617  function bankAmountERC20(address erc20) public view returns(uint256) {... */\n    tag_57:\n        /* \"source/Marketplace.sol\":51579:51609  token.balanceOf(address(this)) */\n      mload(0x40)\n      shl(0xe0, 0x70a08231)\n      dup2\n      mstore\n        /* \"source/Marketplace.sol\":51603:51607  this */\n      address\n        /* \"source/Marketplace.sol\":51579:51609  token.balanceOf(address(this)) */\n      0x04\n      dup3\n      add\n        /* \"#utility.yul\":360:411   */\n      mstore\n        /* \"source/Marketplace.sol\":51513:51520  uint256 */\n      0x00\n      swap1\n        /* \"source/Marketplace.sol\":51555:51560  erc20 */\n      dup3\n      swap1\n      sub(shl(0xa0, 0x01), 0x01)\n        /* \"source/Marketplace.sol\":51579:51594  token.balanceOf */\n      dup3\n      and\n      swap1\n      0x70a08231\n      swap1\n        /* \"#utility.yul\":333:351   */\n      0x24\n      add\n        /* \"source/Marketplace.sol\":51579:51609  token.balanceOf(address(this)) */\n      0x20\n      mload(0x40)\n      dup1\n      dup4\n      sub\n      dup2\n      dup7\n      gas\n      staticcall\n      iszero\n      dup1\n      iszero\n      tag_192\n      jumpi\n      returndatasize\n      0x00\n      dup1\n      returndatacopy\n      revert(0x00, returndatasize)\n    tag_192:\n      pop\n      pop\n      pop\n      pop\n      mload(0x40)\n      returndatasize\n      not(0x1f)\n      0x1f\n      dup3\n      add\n      and\n      dup3\n      add\n      dup1\n      0x40\n      mstore\n      pop\n      dup2\n      add\n      swap1\n      tag_193\n      swap2\n      swap1\n      tag_147\n      jump\t// in\n    tag_193:\n        /* \"source/Marketplace.sol\":51572:51609  return token.balanceOf(address(this)) */\n      swap4\n        /* \"source/Marketplace.sol\":51453:51617  function bankAmountERC20(address erc20) public view returns(uint256) {... */\n      swap3\n      pop\n      pop\n      pop\n      jump\t// out\n        /* \"source/Marketplace.sol\":58741:59159  function deSellNFT(uint256 _tokenId) public {... */\n    tag_63:\n        /* \"source/Marketplace.sol\":2065:2072  address */\n      0x00\n        /* \"source/Marketplace.sol\":2092:2098  _owner */\n      sload\n      sub(shl(0xa0, 0x01), 0x01)\n      and\n        /* \"source/Marketplace.sol\":58799:58809  msg.sender */\n      caller\n        /* \"source/Marketplace.sol\":58799:58820  msg.sender != owner() */\n      eq\n        /* \"source/Marketplace.sol\":58796:58926  if(msg.sender != owner()) {... */\n      tag_197\n      jumpi\n        /* \"source/Marketplace.sol\":58859:58882  _tokensAtSale[_tokenId] */\n      0x00\n      dup2\n      dup2\n      mstore\n        /* \"source/Marketplace.sol\":58859:58872  _tokensAtSale */\n      0x05\n        /* \"source/Marketplace.sol\":58859:58882  _tokensAtSale[_tokenId] */\n      0x20\n      mstore\n      0x40\n      swap1\n      keccak256\n        /* \"source/Marketplace.sol\":58859:58889  _tokensAtSale[_tokenId].seller */\n      0x01\n      add\n      sload\n      sub(shl(0xa0, 0x01), 0x01)\n      and\n        /* \"source/Marketplace.sol\":58845:58855  msg.sender */\n      caller\n        /* \"source/Marketplace.sol\":58845:58889  msg.sender == _tokensAtSale[_tokenId].seller */\n      eq\n        /* \"source/Marketplace.sol\":58837:58914  require(msg.sender == _tokensAtSale[_tokenId].seller, \"This is not your NFT\") */\n      tag_197\n      jumpi\n      mload(0x40)\n      shl(0xe5, 0x461bcd)\n      dup2\n      mstore\n        /* \"#utility.yul\":8052:8054   */\n      0x20\n        /* \"source/Marketplace.sol\":58837:58914  require(msg.sender == _tokensAtSale[_tokenId].seller, \"This is not your NFT\") */\n      0x04\n      dup3\n      add\n        /* \"#utility.yul\":8034:8055   */\n      mstore\n        /* \"#utility.yul\":8091:8093   */\n      0x14\n        /* \"#utility.yul\":8071:8089   */\n      0x24\n      dup3\n      add\n        /* \"#utility.yul\":8064:8094   */\n      mstore\n      shl(0x62, 0x151a1a5cc81a5cc81b9bdd081e5bdd5c88139195)\n        /* \"#utility.yul\":8110:8128   */\n      0x44\n      dup3\n      add\n        /* \"#utility.yul\":8103:8153   */\n      mstore\n        /* \"#utility.yul\":8170:8188   */\n      0x64\n      add\n        /* \"source/Marketplace.sol\":58837:58914  require(msg.sender == _tokensAtSale[_tokenId].seller, \"This is not your NFT\") */\n      tag_138\n        /* \"#utility.yul\":7850:8194   */\n      jump\n        /* \"source/Marketplace.sol\":58837:58914  require(msg.sender == _tokensAtSale[_tokenId].seller, \"This is not your NFT\") */\n    tag_197:\n        /* \"source/Marketplace.sol\":58938:58947  marketNft */\n      sload(0x01)\n        /* \"source/Marketplace.sol\":58938:58997  marketNft.transferFrom(address(this), msg.sender, _tokenId) */\n      mload(0x40)\n      shl(0xe0, 0x23b872dd)\n      dup2\n      mstore\n      sub(shl(0xa0, 0x01), 0x01)\n        /* \"source/Marketplace.sol\":58938:58947  marketNft */\n      swap1\n      swap2\n      and\n      swap1\n        /* \"source/Marketplace.sol\":58938:58960  marketNft.transferFrom */\n      0x23b872dd\n      swap1\n        /* \"source/Marketplace.sol\":58938:58997  marketNft.transferFrom(address(this), msg.sender, _tokenId) */\n      tag_200\n      swap1\n        /* \"source/Marketplace.sol\":58969:58973  this */\n      address\n      swap1\n        /* \"source/Marketplace.sol\":58976:58986  msg.sender */\n      caller\n      swap1\n        /* \"source/Marketplace.sol\":58988:58996  _tokenId */\n      dup7\n      swap1\n        /* \"source/Marketplace.sol\":58938:58997  marketNft.transferFrom(address(this), msg.sender, _tokenId) */\n      0x04\n      add\n      tag_173\n      jump\t// in\n    tag_200:\n      0x00\n      mload(0x40)\n      dup1\n      dup4\n      sub\n      dup2\n      0x00\n      dup8\n      dup1\n      extcodesize\n      iszero\n      dup1\n      iszero\n      tag_201\n      jumpi\n      0x00\n      dup1\n      revert\n    tag_201:\n      pop\n      gas\n      call\n      iszero\n      dup1\n      iszero\n      tag_203\n      jumpi\n      returndatasize\n      0x00\n      dup1\n      returndatacopy\n      revert(0x00, returndatasize)\n    tag_203:\n      pop\n      pop\n      pop\n        /* \"source/Marketplace.sol\":59038:59043  false */\n      0x00\n        /* \"source/Marketplace.sol\":59010:59035  _isTokensAtSale[_tokenId] */\n      dup3\n      dup2\n      mstore\n        /* \"source/Marketplace.sol\":59010:59025  _isTokensAtSale */\n      0x04\n        /* \"source/Marketplace.sol\":59010:59035  _isTokensAtSale[_tokenId] */\n      0x20\n      mstore\n      0x40\n      swap1\n      keccak256\n        /* \"source/Marketplace.sol\":59010:59043  _isTokensAtSale[_tokenId] = false */\n      dup1\n      sload\n      not(0xff)\n      and\n      swap1\n      sstore\n      pop\n        /* \"source/Marketplace.sol\":59062:59087  _clearSellToken(_tokenId) */\n      tag_204\n        /* \"source/Marketplace.sol\":59026:59034  _tokenId */\n      dup2\n        /* \"source/Marketplace.sol\":59062:59077  _clearSellToken */\n      tag_178\n        /* \"source/Marketplace.sol\":59062:59087  _clearSellToken(_tokenId) */\n      jump\t// in\n    tag_204:\n        /* \"source/Marketplace.sol\":59113:59151  WithdrawFromSale(msg.sender, _tokenId) */\n      0x40\n      dup1\n      mload\n        /* \"source/Marketplace.sol\":59130:59140  msg.sender */\n      caller\n        /* \"#utility.yul\":8373:8424   */\n      dup2\n      mstore\n        /* \"#utility.yul\":8455:8457   */\n      0x20\n        /* \"#utility.yul\":8440:8458   */\n      dup2\n      add\n        /* \"#utility.yul\":8433:8467   */\n      dup4\n      swap1\n      mstore\n        /* \"source/Marketplace.sol\":59113:59151  WithdrawFromSale(msg.sender, _tokenId) */\n      0x8bf8e8f2f9d065b620f4e940d87122b03dd779d0ffd6a1590572e1e6d0416bef\n      swap2\n        /* \"#utility.yul\":8346:8364   */\n      add\n        /* \"source/Marketplace.sol\":59113:59151  WithdrawFromSale(msg.sender, _tokenId) */\n    tag_205:\n      mload(0x40)\n      dup1\n      swap2\n      sub\n      swap1\n      log1\n        /* \"source/Marketplace.sol\":58741:59159  function deSellNFT(uint256 _tokenId) public {... */\n      pop\n      jump\t// out\n        /* \"source/Marketplace.sol\":56591:57757  function buyNFT(uint256 _tokenId)... */\n    tag_66:\n        /* \"source/Marketplace.sol\":56719:56744  _isTokensAtSale[_tokenId] */\n      0x00\n      dup2\n      dup2\n      mstore\n        /* \"source/Marketplace.sol\":56719:56734  _isTokensAtSale */\n      0x04\n        /* \"source/Marketplace.sol\":56719:56744  _isTokensAtSale[_tokenId] */\n      0x20\n      mstore\n      0x40\n      swap1\n      keccak256\n      sload\n      0xff\n      and\n        /* \"source/Marketplace.sol\":56719:56752  _isTokensAtSale[_tokenId] == true */\n      iszero\n      iszero\n        /* \"source/Marketplace.sol\":56719:56744  _isTokensAtSale[_tokenId] */\n      0x01\n        /* \"source/Marketplace.sol\":56719:56752  _isTokensAtSale[_tokenId] == true */\n      eq\n        /* \"source/Marketplace.sol\":56711:56781  require(_isTokensAtSale[_tokenId] == true, \"This NFT is not for sale\") */\n      tag_208\n      jumpi\n      mload(0x40)\n      shl(0xe5, 0x461bcd)\n      dup2\n      mstore\n        /* \"#utility.yul\":5079:5081   */\n      0x20\n        /* \"source/Marketplace.sol\":56711:56781  require(_isTokensAtSale[_tokenId] == true, \"This NFT is not for sale\") */\n      0x04\n      dup3\n      add\n        /* \"#utility.yul\":5061:5082   */\n      mstore\n        /* \"#utility.yul\":5118:5120   */\n      0x18\n        /* \"#utility.yul\":5098:5116   */\n      0x24\n      dup3\n      add\n        /* \"#utility.yul\":5091:5121   */\n      mstore\n      shl(0x40, 0x54686973204e4654206973206e6f7420666f722073616c65)\n        /* \"#utility.yul\":5137:5155   */\n      0x44\n      dup3\n      add\n        /* \"#utility.yul\":5130:5184   */\n      mstore\n        /* \"#utility.yul\":5201:5219   */\n      0x64\n      add\n        /* \"source/Marketplace.sol\":56711:56781  require(_isTokensAtSale[_tokenId] == true, \"This NFT is not for sale\") */\n      tag_138\n        /* \"#utility.yul\":4877:5225   */\n      jump\n        /* \"source/Marketplace.sol\":56711:56781  require(_isTokensAtSale[_tokenId] == true, \"This NFT is not for sale\") */\n    tag_208:\n        /* \"source/Marketplace.sol\":56839:56862  _tokensAtSale[_tokenId] */\n      0x00\n      dup2\n      dup2\n      mstore\n        /* \"source/Marketplace.sol\":56839:56852  _tokensAtSale */\n      0x05\n        /* \"source/Marketplace.sol\":56839:56862  _tokensAtSale[_tokenId] */\n      0x20\n      mstore\n      0x40\n      swap1\n      keccak256\n        /* \"source/Marketplace.sol\":56839:56868  _tokensAtSale[_tokenId].price */\n      0x02\n      add\n      sload\n        /* \"source/Marketplace.sol\":56826:56835  msg.value */\n      callvalue\n        /* \"source/Marketplace.sol\":56826:56868  msg.value >= _tokensAtSale[_tokenId].price */\n      lt\n      iszero\n        /* \"source/Marketplace.sol\":56818:56911  require(msg.value >= _tokensAtSale[_tokenId].price, \"You have not paid enough for this item\") */\n      tag_210\n      jumpi\n      mload(0x40)\n      shl(0xe5, 0x461bcd)\n      dup2\n      mstore\n        /* \"#utility.yul\":8680:8682   */\n      0x20\n        /* \"source/Marketplace.sol\":56818:56911  require(msg.value >= _tokensAtSale[_tokenId].price, \"You have not paid enough for this item\") */\n      0x04\n      dup3\n      add\n        /* \"#utility.yul\":8662:8683   */\n      mstore\n        /* \"#utility.yul\":8719:8721   */\n      0x26\n        /* \"#utility.yul\":8699:8717   */\n      0x24\n      dup3\n      add\n        /* \"#utility.yul\":8692:8722   */\n      mstore\n        /* \"#utility.yul\":8758:8792   */\n      0x596f752068617665206e6f74207061696420656e6f75676820666f7220746869\n        /* \"#utility.yul\":8738:8756   */\n      0x44\n      dup3\n      add\n        /* \"#utility.yul\":8731:8793   */\n      mstore\n      shl(0xd0, 0x73206974656d)\n        /* \"#utility.yul\":8809:8827   */\n      0x64\n      dup3\n      add\n        /* \"#utility.yul\":8802:8838   */\n      mstore\n        /* \"#utility.yul\":8855:8874   */\n      0x84\n      add\n        /* \"source/Marketplace.sol\":56818:56911  require(msg.value >= _tokensAtSale[_tokenId].price, \"You have not paid enough for this item\") */\n      tag_138\n        /* \"#utility.yul\":8478:8880   */\n      jump\n        /* \"source/Marketplace.sol\":56818:56911  require(msg.value >= _tokensAtSale[_tokenId].price, \"You have not paid enough for this item\") */\n    tag_210:\n        /* \"source/Marketplace.sol\":57015:57016  0 */\n      0x00\n        /* \"source/Marketplace.sol\":56974:56997  _tokensAtSale[_tokenId] */\n      dup2\n      dup2\n      mstore\n        /* \"source/Marketplace.sol\":56974:56987  _tokensAtSale */\n      0x05\n        /* \"source/Marketplace.sol\":56974:56997  _tokensAtSale[_tokenId] */\n      0x20\n      mstore\n      0x40\n      swap1\n      keccak256\n        /* \"source/Marketplace.sol\":56974:57003  _tokensAtSale[_tokenId].erc20 */\n      0x03\n      add\n      sload\n      sub(shl(0xa0, 0x01), 0x01)\n      and\n        /* \"source/Marketplace.sol\":56974:57017  _tokensAtSale[_tokenId].erc20 == address(0) */\n      iszero\n        /* \"source/Marketplace.sol\":56966:57048  require(_tokensAtSale[_tokenId].erc20 == address(0), \"This token selled by ERC20\") */\n      tag_213\n      jumpi\n      mload(0x40)\n      shl(0xe5, 0x461bcd)\n      dup2\n      mstore\n        /* \"#utility.yul\":9087:9089   */\n      0x20\n        /* \"source/Marketplace.sol\":56966:57048  require(_tokensAtSale[_tokenId].erc20 == address(0), \"This token selled by ERC20\") */\n      0x04\n      dup3\n      add\n        /* \"#utility.yul\":9069:9090   */\n      mstore\n        /* \"#utility.yul\":9126:9128   */\n      0x1a\n        /* \"#utility.yul\":9106:9124   */\n      0x24\n      dup3\n      add\n        /* \"#utility.yul\":9099:9129   */\n      mstore\n        /* \"#utility.yul\":9165:9193   */\n      0x5468697320746f6b656e2073656c6c6564206279204552433230000000000000\n        /* \"#utility.yul\":9145:9163   */\n      0x44\n      dup3\n      add\n        /* \"#utility.yul\":9138:9194   */\n      mstore\n        /* \"#utility.yul\":9211:9229   */\n      0x64\n      add\n        /* \"source/Marketplace.sol\":56966:57048  require(_tokensAtSale[_tokenId].erc20 == address(0), \"This token selled by ERC20\") */\n      tag_138\n        /* \"#utility.yul\":8885:9235   */\n      jump\n        /* \"source/Marketplace.sol\":56966:57048  require(_tokensAtSale[_tokenId].erc20 == address(0), \"This token selled by ERC20\") */\n    tag_213:\n        /* \"source/Marketplace.sol\":57086:57095  msg.value */\n      callvalue\n        /* \"source/Marketplace.sol\":57069:57083  uint256 amount */\n      0x00\n        /* \"source/Marketplace.sol\":57126:57176  SafeMath.mul(SafeMath.div(amount, 100), _tradeFee) */\n      tag_216\n        /* \"source/Marketplace.sol\":57139:57164  SafeMath.div(amount, 100) */\n      tag_160\n        /* \"source/Marketplace.sol\":57086:57095  msg.value */\n      dup4\n        /* \"source/Marketplace.sol\":57160:57163  100 */\n      0x64\n        /* \"source/Marketplace.sol\":57139:57151  SafeMath.div */\n      tag_161\n        /* \"source/Marketplace.sol\":57139:57164  SafeMath.div(amount, 100) */\n      jump\t// in\n        /* \"source/Marketplace.sol\":57126:57176  SafeMath.mul(SafeMath.div(amount, 100), _tradeFee) */\n    tag_216:\n        /* \"source/Marketplace.sol\":57106:57176  uint256 feeAmount = SafeMath.mul(SafeMath.div(amount, 100), _tradeFee) */\n      swap1\n      pop\n        /* \"source/Marketplace.sol\":57225:57232  owner() */\n      tag_218\n        /* \"source/Marketplace.sol\":2065:2072  address */\n      0x00\n        /* \"source/Marketplace.sol\":2092:2098  _owner */\n      sload\n      sub(shl(0xa0, 0x01), 0x01)\n      and\n      swap1\n        /* \"source/Marketplace.sol\":2019:2106  function owner() public view virtual returns (address) {... */\n      jump\n        /* \"source/Marketplace.sol\":57225:57232  owner() */\n    tag_218:\n        /* \"source/Marketplace.sol\":57191:57214  _tokensAtSale[_tokenId] */\n      0x00\n      dup5\n      dup2\n      mstore\n        /* \"source/Marketplace.sol\":57191:57204  _tokensAtSale */\n      0x05\n        /* \"source/Marketplace.sol\":57191:57214  _tokensAtSale[_tokenId] */\n      0x20\n      mstore\n      0x40\n      swap1\n      keccak256\n        /* \"source/Marketplace.sol\":57191:57221  _tokensAtSale[_tokenId].seller */\n      0x01\n      add\n      sload\n      sub(shl(0xa0, 0x01), 0x01)\n        /* \"source/Marketplace.sol\":57191:57232  _tokensAtSale[_tokenId].seller == owner() */\n      swap2\n      dup3\n      and\n        /* \"source/Marketplace.sol\":57191:57221  _tokensAtSale[_tokenId].seller */\n      swap2\n      and\n        /* \"source/Marketplace.sol\":57191:57232  _tokensAtSale[_tokenId].seller == owner() */\n      sub\n        /* \"source/Marketplace.sol\":57187:57247  if (_tokensAtSale[_tokenId].seller == owner()) feeAmount = 0 */\n      tag_219\n      jumpi\n      pop\n        /* \"source/Marketplace.sol\":57246:57247  0 */\n      0x00\n        /* \"source/Marketplace.sol\":57187:57247  if (_tokensAtSale[_tokenId].seller == owner()) feeAmount = 0 */\n    tag_219:\n        /* \"source/Marketplace.sol\":57258:57279  uint256 amountWithFee */\n      0x00\n        /* \"source/Marketplace.sol\":57282:57313  SafeMath.sub(amount, feeAmount) */\n      tag_220\n        /* \"source/Marketplace.sol\":57295:57301  amount */\n      dup4\n        /* \"source/Marketplace.sol\":57303:57312  feeAmount */\n      dup4\n        /* \"source/Marketplace.sol\":57282:57294  SafeMath.sub */\n      tag_166\n        /* \"source/Marketplace.sol\":57282:57313  SafeMath.sub(amount, feeAmount) */\n      jump\t// in\n    tag_220:\n        /* \"source/Marketplace.sol\":57334:57357  _tokensAtSale[_tokenId] */\n      0x00\n      dup6\n      dup2\n      mstore\n        /* \"source/Marketplace.sol\":57334:57347  _tokensAtSale */\n      0x05\n        /* \"source/Marketplace.sol\":57334:57357  _tokensAtSale[_tokenId] */\n      0x20\n      mstore\n      0x40\n      dup1\n      dup3\n      keccak256\n        /* \"source/Marketplace.sol\":57334:57364  _tokensAtSale[_tokenId].seller */\n      0x01\n      add\n      sload\n        /* \"source/Marketplace.sol\":57326:57389  payable(_tokensAtSale[_tokenId].seller).transfer(amountWithFee) */\n      swap1\n      mload\n        /* \"source/Marketplace.sol\":57258:57313  uint256 amountWithFee = SafeMath.sub(amount, feeAmount) */\n      swap3\n      swap4\n      pop\n      sub(shl(0xa0, 0x01), 0x01)\n        /* \"source/Marketplace.sol\":57334:57364  _tokensAtSale[_tokenId].seller */\n      and\n      swap2\n        /* \"source/Marketplace.sol\":57326:57389  payable(_tokensAtSale[_tokenId].seller).transfer(amountWithFee) */\n      dup4\n      iszero\n      0x08fc\n      mul\n      swap2\n        /* \"source/Marketplace.sol\":57258:57313  uint256 amountWithFee = SafeMath.sub(amount, feeAmount) */\n      dup5\n      swap2\n        /* \"source/Marketplace.sol\":57326:57389  payable(_tokensAtSale[_tokenId].seller).transfer(amountWithFee) */\n      swap1\n      dup2\n        /* \"source/Marketplace.sol\":57334:57357  _tokensAtSale[_tokenId] */\n      dup2\n        /* \"source/Marketplace.sol\":57326:57389  payable(_tokensAtSale[_tokenId].seller).transfer(amountWithFee) */\n      dup2\n        /* \"source/Marketplace.sol\":57258:57313  uint256 amountWithFee = SafeMath.sub(amount, feeAmount) */\n      dup6\n        /* \"source/Marketplace.sol\":57334:57364  _tokensAtSale[_tokenId].seller */\n      dup9\n        /* \"source/Marketplace.sol\":57326:57389  payable(_tokensAtSale[_tokenId].seller).transfer(amountWithFee) */\n      dup9\n      call\n      swap4\n      pop\n      pop\n      pop\n      pop\n      iszero\n      dup1\n      iszero\n      tag_222\n      jumpi\n      returndatasize\n      0x00\n      dup1\n      returndatacopy\n      revert(0x00, returndatasize)\n    tag_222:\n      pop\n        /* \"source/Marketplace.sol\":57404:57417  feeAmount > 0 */\n      dup2\n      iszero\n        /* \"source/Marketplace.sol\":57400:57482  if (feeAmount > 0) {... */\n      tag_223\n      jumpi\n        /* \"source/Marketplace.sol\":2065:2072  address */\n      0x00\n        /* \"source/Marketplace.sol\":2092:2098  _owner */\n      dup1\n      sload\n        /* \"source/Marketplace.sol\":57434:57470  payable(owner()).transfer(feeAmount) */\n      mload(0x40)\n      sub(shl(0xa0, 0x01), 0x01)\n        /* \"source/Marketplace.sol\":2092:2098  _owner */\n      swap1\n      swap2\n      and\n      swap2\n        /* \"source/Marketplace.sol\":57434:57470  payable(owner()).transfer(feeAmount) */\n      dup5\n      iszero\n      0x08fc\n      mul\n      swap2\n        /* \"source/Marketplace.sol\":57460:57469  feeAmount */\n      dup6\n      swap2\n        /* \"source/Marketplace.sol\":57434:57470  payable(owner()).transfer(feeAmount) */\n      dup2\n        /* \"source/Marketplace.sol\":2065:2072  address */\n      dup2\n        /* \"source/Marketplace.sol\":57434:57470  payable(owner()).transfer(feeAmount) */\n      dup2\n        /* \"source/Marketplace.sol\":57460:57469  feeAmount */\n      dup6\n        /* \"source/Marketplace.sol\":2092:2098  _owner */\n      dup9\n        /* \"source/Marketplace.sol\":57434:57470  payable(owner()).transfer(feeAmount) */\n      dup9\n      call\n      swap4\n      pop\n      pop\n      pop\n      pop\n      iszero\n      dup1\n      iszero\n      tag_226\n      jumpi\n      returndatasize\n      0x00\n      dup1\n      returndatacopy\n      revert(0x00, returndatasize)\n    tag_226:\n      pop\n        /* \"source/Marketplace.sol\":57400:57482  if (feeAmount > 0) {... */\n    tag_223:\n        /* \"source/Marketplace.sol\":57502:57511  marketNft */\n      sload(0x01)\n        /* \"source/Marketplace.sol\":57502:57561  marketNft.transferFrom(address(this), msg.sender, _tokenId) */\n      mload(0x40)\n      shl(0xe0, 0x23b872dd)\n      dup2\n      mstore\n      sub(shl(0xa0, 0x01), 0x01)\n        /* \"source/Marketplace.sol\":57502:57511  marketNft */\n      swap1\n      swap2\n      and\n      swap1\n        /* \"source/Marketplace.sol\":57502:57524  marketNft.transferFrom */\n      0x23b872dd\n      swap1\n        /* \"source/Marketplace.sol\":57502:57561  marketNft.transferFrom(address(this), msg.sender, _tokenId) */\n      tag_227\n      swap1\n        /* \"source/Marketplace.sol\":57533:57537  this */\n      address\n      swap1\n        /* \"source/Marketplace.sol\":57540:57550  msg.sender */\n      caller\n      swap1\n        /* \"source/Marketplace.sol\":57552:57560  _tokenId */\n      dup10\n      swap1\n        /* \"source/Marketplace.sol\":57502:57561  marketNft.transferFrom(address(this), msg.sender, _tokenId) */\n      0x04\n      add\n      tag_173\n      jump\t// in\n    tag_227:\n      0x00\n      mload(0x40)\n      dup1\n      dup4\n      sub\n      dup2\n      0x00\n      dup8\n      dup1\n      extcodesize\n      iszero\n      dup1\n      iszero\n      tag_228\n      jumpi\n      0x00\n      dup1\n      revert\n    tag_228:\n      pop\n      gas\n      call\n      iszero\n      dup1\n      iszero\n      tag_230\n      jumpi\n      returndatasize\n      0x00\n      dup1\n      returndatacopy\n      revert(0x00, returndatasize)\n    tag_230:\n      pop\n      pop\n      pop\n        /* \"source/Marketplace.sol\":57600:57605  false */\n      0x00\n        /* \"source/Marketplace.sol\":57572:57597  _isTokensAtSale[_tokenId] */\n      dup6\n      dup2\n      mstore\n        /* \"source/Marketplace.sol\":57572:57587  _isTokensAtSale */\n      0x04\n        /* \"source/Marketplace.sol\":57572:57597  _isTokensAtSale[_tokenId] */\n      0x20\n      swap1\n      dup2\n      mstore\n      0x40\n      dup1\n      dup4\n      keccak256\n        /* \"source/Marketplace.sol\":57572:57605  _isTokensAtSale[_tokenId] = false */\n      dup1\n      sload\n      not(0xff)\n      and\n      swap1\n      sstore\n        /* \"source/Marketplace.sol\":57627:57640  _tokensAtSale */\n      0x05\n        /* \"source/Marketplace.sol\":57627:57650  _tokensAtSale[_tokenId] */\n      dup3\n      mstore\n      swap2\n      dup3\n      swap1\n      keccak256\n      0x01\n        /* \"source/Marketplace.sol\":57627:57657  _tokensAtSale[_tokenId].seller */\n      dup2\n      add\n      sload\n        /* \"source/Marketplace.sol\":57681:57710  _tokensAtSale[_tokenId].price */\n      0x02\n      swap1\n      swap2\n      add\n      sload\n        /* \"source/Marketplace.sol\":57623:57711  Buy(_tokensAtSale[_tokenId].seller, msg.sender, _tokenId, _tokensAtSale[_tokenId].price) */\n      dup4\n      mload\n      sub(shl(0xa0, 0x01), 0x01)\n        /* \"source/Marketplace.sol\":57627:57657  _tokensAtSale[_tokenId].seller */\n      swap1\n      swap3\n      and\n        /* \"#utility.yul\":9509:9543   */\n      dup3\n      mstore\n        /* \"source/Marketplace.sol\":57659:57669  msg.sender */\n      caller\n        /* \"#utility.yul\":9559:9577   */\n      swap3\n      dup3\n      add\n        /* \"#utility.yul\":9552:9595   */\n      swap3\n      swap1\n      swap3\n      mstore\n        /* \"#utility.yul\":9611:9629   */\n      swap2\n      dup3\n      add\n        /* \"#utility.yul\":9604:9638   */\n      dup8\n      swap1\n      mstore\n        /* \"#utility.yul\":9669:9671   */\n      0x60\n        /* \"#utility.yul\":9654:9672   */\n      dup3\n      add\n        /* \"#utility.yul\":9647:9681   */\n      mstore\n        /* \"source/Marketplace.sol\":57623:57711  Buy(_tokensAtSale[_tokenId].seller, msg.sender, _tokenId, _tokensAtSale[_tokenId].price) */\n      0x89f5adc174562e07c9c9b1cae7109bbecb21cf9d1b2847e550042b8653c54a0e\n      swap2\n      pop\n        /* \"#utility.yul\":9458:9461   */\n      0x80\n        /* \"#utility.yul\":9443:9462   */\n      add\n        /* \"source/Marketplace.sol\":57623:57711  Buy(_tokensAtSale[_tokenId].seller, msg.sender, _tokenId, _tokensAtSale[_tokenId].price) */\n      mload(0x40)\n      dup1\n      swap2\n      sub\n      swap1\n      log1\n        /* \"source/Marketplace.sol\":57724:57749  _clearSellToken(_tokenId) */\n      tag_233\n        /* \"source/Marketplace.sol\":57740:57748  _tokenId */\n      dup5\n        /* \"source/Marketplace.sol\":57724:57739  _clearSellToken */\n      tag_178\n        /* \"source/Marketplace.sol\":57724:57749  _clearSellToken(_tokenId) */\n      jump\t// in\n    tag_233:\n        /* \"source/Marketplace.sol\":56663:57757  {... */\n      pop\n      pop\n      pop\n        /* \"source/Marketplace.sol\":56591:57757  function buyNFT(uint256 _tokenId)... */\n      pop\n      jump\t// out\n        /* \"source/Marketplace.sol\":50810:50914  function getAllowedERC20() public view returns(address[] memory) {... */\n    tag_73:\n        /* \"source/Marketplace.sol\":50857:50873  address[] memory */\n      0x60\n        /* \"source/Marketplace.sol\":50893:50906  _allowedERC20 */\n      0x07\n        /* \"source/Marketplace.sol\":50886:50906  return _allowedERC20 */\n      dup1\n      sload\n      dup1\n      0x20\n      mul\n      0x20\n      add\n      mload(0x40)\n      swap1\n      dup2\n      add\n      0x40\n      mstore\n      dup1\n      swap3\n      swap2\n      swap1\n      dup2\n      dup2\n      mstore\n      0x20\n      add\n      dup3\n      dup1\n      sload\n      dup1\n      iszero\n      tag_235\n      jumpi\n      0x20\n      mul\n      dup3\n      add\n      swap2\n      swap1\n      0x00\n      mstore\n      keccak256(0x00, 0x20)\n      swap1\n    tag_236:\n      dup2\n      sload\n      sub(shl(0xa0, 0x01), 0x01)\n      and\n      dup2\n      mstore\n      0x01\n      swap1\n      swap2\n      add\n      swap1\n      0x20\n      add\n      dup1\n      dup4\n      gt\n      tag_236\n      jumpi\n    tag_235:\n      pop\n      pop\n      pop\n      pop\n      pop\n      swap1\n      pop\n        /* \"source/Marketplace.sol\":50810:50914  function getAllowedERC20() public view returns(address[] memory) {... */\n      swap1\n      jump\t// out\n        /* \"source/Marketplace.sol\":2667:2770  function renounceOwnership() public virtual onlyOwner {... */\n    tag_78:\n        /* \"source/Marketplace.sol\":1905:1918  _checkOwner() */\n      tag_238\n        /* \"source/Marketplace.sol\":1905:1916  _checkOwner */\n      tag_183\n        /* \"source/Marketplace.sol\":1905:1918  _checkOwner() */\n      jump\t// in\n    tag_238:\n        /* \"source/Marketplace.sol\":2732:2762  _transferOwnership(address(0)) */\n      tag_240\n        /* \"source/Marketplace.sol\":2759:2760  0 */\n      0x00\n        /* \"source/Marketplace.sol\":2732:2750  _transferOwnership */\n      tag_241\n        /* \"source/Marketplace.sol\":2732:2762  _transferOwnership(address(0)) */\n      jump\t// in\n    tag_240:\n        /* \"source/Marketplace.sol\":2667:2770  function renounceOwnership() public virtual onlyOwner {... */\n      jump\t// out\n        /* \"source/Marketplace.sol\":50920:51138  function isAllowedERC20(address erc20) public view returns (bool) {... */\n    tag_82:\n        /* \"source/Marketplace.sol\":50980:50984  bool */\n      0x00\n      dup1\n        /* \"source/Marketplace.sol\":50997:51108  for(uint i=0; i<_allowedERC20.length;i++) {... */\n    tag_243:\n        /* \"source/Marketplace.sol\":51013:51026  _allowedERC20 */\n      0x07\n        /* \"source/Marketplace.sol\":51013:51033  _allowedERC20.length */\n      sload\n        /* \"source/Marketplace.sol\":51011:51033  i<_allowedERC20.length */\n      dup2\n      lt\n        /* \"source/Marketplace.sol\":50997:51108  for(uint i=0; i<_allowedERC20.length;i++) {... */\n      iszero\n      tag_244\n      jumpi\n        /* \"source/Marketplace.sol\":51067:51080  _allowedERC20 */\n      0x07\n        /* \"source/Marketplace.sol\":51081:51082  i */\n      dup2\n        /* \"source/Marketplace.sol\":51067:51083  _allowedERC20[i] */\n      dup2\n      sload\n      dup2\n      lt\n      tag_247\n      jumpi\n      tag_247\n      tag_248\n      jump\t// in\n    tag_247:\n      0x00\n      swap2\n      dup3\n      mstore\n      0x20\n      swap1\n      swap2\n      keccak256\n      add\n      sload\n      sub(shl(0xa0, 0x01), 0x01)\n      swap1\n      dup2\n      and\n        /* \"source/Marketplace.sol\":51058:51083  erc20 == _allowedERC20[i] */\n      swap1\n      dup5\n      and\n      sub\n        /* \"source/Marketplace.sol\":51054:51096  if (erc20 == _allowedERC20[i]) return true */\n      tag_250\n      jumpi\n      pop\n        /* \"source/Marketplace.sol\":51092:51096  true */\n      0x01\n      swap3\n        /* \"source/Marketplace.sol\":50920:51138  function isAllowedERC20(address erc20) public view returns (bool) {... */\n      swap2\n      pop\n      pop\n      jump\t// out\n        /* \"source/Marketplace.sol\":51054:51096  if (erc20 == _allowedERC20[i]) return true */\n    tag_250:\n        /* \"source/Marketplace.sol\":51034:51037  i++ */\n      dup1\n      tag_251\n      dup2\n      tag_252\n      jump\t// in\n    tag_251:\n      swap2\n      pop\n      pop\n        /* \"source/Marketplace.sol\":50997:51108  for(uint i=0; i<_allowedERC20.length;i++) {... */\n      jump(tag_243)\n    tag_244:\n      pop\n        /* \"source/Marketplace.sol\":51125:51130  false */\n      0x00\n      swap3\n        /* \"source/Marketplace.sol\":50920:51138  function isAllowedERC20(address erc20) public view returns (bool) {... */\n      swap2\n      pop\n      pop\n      jump\t// out\n        /* \"source/Marketplace.sol\":57765:58733  function sellNFT(... */\n    tag_89:\n        /* \"source/Marketplace.sol\":57919:57928  marketNft */\n      sload(0x01)\n        /* \"source/Marketplace.sol\":57919:57946  marketNft.ownerOf(_tokenId) */\n      mload(0x40)\n      shl(0xe1, 0x31a9108f)\n      dup2\n      mstore\n      0x04\n      dup2\n      add\n        /* \"#utility.yul\":2132:2157   */\n      dup6\n      swap1\n      mstore\n        /* \"source/Marketplace.sol\":57950:57960  msg.sender */\n      caller\n      swap2\n      sub(shl(0xa0, 0x01), 0x01)\n        /* \"source/Marketplace.sol\":57919:57928  marketNft */\n      and\n      swap1\n        /* \"source/Marketplace.sol\":57919:57936  marketNft.ownerOf */\n      0x6352211e\n      swap1\n        /* \"#utility.yul\":2105:2123   */\n      0x24\n      add\n        /* \"source/Marketplace.sol\":57919:57946  marketNft.ownerOf(_tokenId) */\n      0x20\n      mload(0x40)\n      dup1\n      dup4\n      sub\n      dup2\n      dup7\n      gas\n      staticcall\n      iszero\n      dup1\n      iszero\n      tag_256\n      jumpi\n      returndatasize\n      0x00\n      dup1\n      returndatacopy\n      revert(0x00, returndatasize)\n    tag_256:\n      pop\n      pop\n      pop\n      pop\n      mload(0x40)\n      returndatasize\n      not(0x1f)\n      0x1f\n      dup3\n      add\n      and\n      dup3\n      add\n      dup1\n      0x40\n      mstore\n      pop\n      dup2\n      add\n      swap1\n      tag_257\n      swap2\n      swap1\n      tag_258\n      jump\t// in\n    tag_257:\n      sub(shl(0xa0, 0x01), 0x01)\n        /* \"source/Marketplace.sol\":57919:57960  marketNft.ownerOf(_tokenId) == msg.sender */\n      and\n      eq\n        /* \"source/Marketplace.sol\":57897:58013  require(... */\n      tag_259\n      jumpi\n      mload(0x40)\n      shl(0xe5, 0x461bcd)\n      dup2\n      mstore\n        /* \"#utility.yul\":10554:10556   */\n      0x20\n        /* \"source/Marketplace.sol\":57897:58013  require(... */\n      0x04\n      dup3\n      add\n        /* \"#utility.yul\":10536:10557   */\n      mstore\n        /* \"#utility.yul\":10593:10595   */\n      0x19\n        /* \"#utility.yul\":10573:10591   */\n      0x24\n      dup3\n      add\n        /* \"#utility.yul\":10566:10596   */\n      mstore\n        /* \"#utility.yul\":10632:10659   */\n      0x596f7520646f6e2774206f776e207468697320746f6b656e2100000000000000\n        /* \"#utility.yul\":10612:10630   */\n      0x44\n      dup3\n      add\n        /* \"#utility.yul\":10605:10660   */\n      mstore\n        /* \"#utility.yul\":10677:10695   */\n      0x64\n      add\n        /* \"source/Marketplace.sol\":57897:58013  require(... */\n      tag_138\n        /* \"#utility.yul\":10352:10701   */\n      jump\n        /* \"source/Marketplace.sol\":57897:58013  require(... */\n    tag_259:\n        /* \"source/Marketplace.sol\":58040:58041  0 */\n      0x00\n        /* \"source/Marketplace.sol\":58032:58037  price */\n      dup3\n        /* \"source/Marketplace.sol\":58032:58041  price > 0 */\n      gt\n        /* \"source/Marketplace.sol\":58024:58077  require(price > 0, \"Price must be greater than zero\") */\n      tag_262\n      jumpi\n      mload(0x40)\n      shl(0xe5, 0x461bcd)\n      dup2\n      mstore\n        /* \"#utility.yul\":10908:10910   */\n      0x20\n        /* \"source/Marketplace.sol\":58024:58077  require(price > 0, \"Price must be greater than zero\") */\n      0x04\n      dup3\n      add\n        /* \"#utility.yul\":10890:10911   */\n      mstore\n        /* \"#utility.yul\":10947:10949   */\n      0x1f\n        /* \"#utility.yul\":10927:10945   */\n      0x24\n      dup3\n      add\n        /* \"#utility.yul\":10920:10950   */\n      mstore\n        /* \"#utility.yul\":10986:11019   */\n      0x5072696365206d7573742062652067726561746572207468616e207a65726f00\n        /* \"#utility.yul\":10966:10984   */\n      0x44\n      dup3\n      add\n        /* \"#utility.yul\":10959:11020   */\n      mstore\n        /* \"#utility.yul\":11037:11055   */\n      0x64\n      add\n        /* \"source/Marketplace.sol\":58024:58077  require(price > 0, \"Price must be greater than zero\") */\n      tag_138\n        /* \"#utility.yul\":10706:11061   */\n      jump\n        /* \"source/Marketplace.sol\":58024:58077  require(price > 0, \"Price must be greater than zero\") */\n    tag_262:\n      sub(shl(0xa0, 0x01), 0x01)\n        /* \"source/Marketplace.sol\":58092:58112  _erc20 != address(0) */\n      dup2\n      and\n      iszero\n        /* \"source/Marketplace.sol\":58088:58260  if (_erc20 != address(0)) {... */\n      tag_267\n      jumpi\n        /* \"source/Marketplace.sol\":58169:58191  isAllowedERC20(_erc20) */\n      tag_266\n        /* \"source/Marketplace.sol\":58184:58190  _erc20 */\n      dup2\n        /* \"source/Marketplace.sol\":58169:58183  isAllowedERC20 */\n      tag_82\n        /* \"source/Marketplace.sol\":58169:58191  isAllowedERC20(_erc20) */\n      jump\t// in\n    tag_266:\n        /* \"source/Marketplace.sol\":58169:58199  isAllowedERC20(_erc20) == true */\n      iszero\n      iszero\n        /* \"source/Marketplace.sol\":58195:58199  true */\n      0x01\n        /* \"source/Marketplace.sol\":58169:58199  isAllowedERC20(_erc20) == true */\n      eq\n        /* \"source/Marketplace.sol\":58161:58248  require(isAllowedERC20(_erc20) == true, \"This ERC20 not allowed as a trading currency\") */\n      tag_267\n      jumpi\n      mload(0x40)\n      shl(0xe5, 0x461bcd)\n      dup2\n      mstore\n        /* \"#utility.yul\":11268:11270   */\n      0x20\n        /* \"source/Marketplace.sol\":58161:58248  require(isAllowedERC20(_erc20) == true, \"This ERC20 not allowed as a trading currency\") */\n      0x04\n      dup3\n      add\n        /* \"#utility.yul\":11250:11271   */\n      mstore\n        /* \"#utility.yul\":11307:11309   */\n      0x2c\n        /* \"#utility.yul\":11287:11305   */\n      0x24\n      dup3\n      add\n        /* \"#utility.yul\":11280:11310   */\n      mstore\n        /* \"#utility.yul\":11346:11380   */\n      0x54686973204552433230206e6f7420616c6c6f77656420617320612074726164\n        /* \"#utility.yul\":11326:11344   */\n      0x44\n      dup3\n      add\n        /* \"#utility.yul\":11319:11381   */\n      mstore\n      shl(0xa0, 0x696e672063757272656e6379)\n        /* \"#utility.yul\":11397:11415   */\n      0x64\n      dup3\n      add\n        /* \"#utility.yul\":11390:11432   */\n      mstore\n        /* \"#utility.yul\":11449:11468   */\n      0x84\n      add\n        /* \"source/Marketplace.sol\":58161:58248  require(isAllowedERC20(_erc20) == true, \"This ERC20 not allowed as a trading currency\") */\n      tag_138\n        /* \"#utility.yul\":11066:11474   */\n      jump\n        /* \"source/Marketplace.sol\":58161:58248  require(isAllowedERC20(_erc20) == true, \"This ERC20 not allowed as a trading currency\") */\n    tag_267:\n        /* \"source/Marketplace.sol\":58272:58297  _isTokensAtSale[_tokenId] */\n      0x00\n      dup4\n      dup2\n      mstore\n        /* \"source/Marketplace.sol\":58272:58287  _isTokensAtSale */\n      0x04\n        /* \"source/Marketplace.sol\":58272:58297  _isTokensAtSale[_tokenId] */\n      0x20\n      dup2\n      dup2\n      mstore\n      0x40\n      dup1\n      dup5\n      keccak256\n        /* \"source/Marketplace.sol\":58272:58304  _isTokensAtSale[_tokenId] = true */\n      dup1\n      sload\n      not(0xff)\n      and\n        /* \"source/Marketplace.sol\":58300:58304  true */\n      0x01\n        /* \"source/Marketplace.sol\":58272:58304  _isTokensAtSale[_tokenId] = true */\n      swap1\n      dup2\n      or\n      swap1\n      swap2\n      sstore\n        /* \"source/Marketplace.sol\":58341:58450  SelledNFT(... */\n      dup2\n      mload\n      0x80\n      dup2\n      add\n      dup4\n      mstore\n      dup9\n      dup2\n      mstore\n        /* \"source/Marketplace.sol\":58388:58398  msg.sender */\n      caller\n        /* \"source/Marketplace.sol\":58341:58450  SelledNFT(... */\n      dup2\n      dup6\n      add\n      dup2\n      dup2\n      mstore\n      dup3\n      dup6\n      add\n      dup11\n      dup2\n      mstore\n      sub(shl(0xa0, 0x01), 0x01)\n      dup11\n      dup2\n      and\n      0x60\n      dup7\n      add\n      swap1\n      dup2\n      mstore\n        /* \"source/Marketplace.sol\":58315:58338  _tokensAtSale[_tokenId] */\n      dup14\n      dup12\n      mstore\n        /* \"source/Marketplace.sol\":58315:58328  _tokensAtSale */\n      0x05\n        /* \"source/Marketplace.sol\":58315:58338  _tokensAtSale[_tokenId] */\n      swap1\n      swap9\n      mstore\n      swap9\n      dup7\n      swap1\n      keccak256\n        /* \"source/Marketplace.sol\":58315:58450  _tokensAtSale[_tokenId] = SelledNFT(... */\n      swap4\n      mload\n      dup5\n      sstore\n      swap1\n      mload\n      dup4\n      dup6\n      add\n      dup1\n      sload\n      swap2\n      dup11\n      and\n      not(sub(shl(0xa0, 0x01), 0x01))\n      swap3\n      dup4\n      and\n      or\n      swap1\n      sstore\n      swap1\n      mload\n      0x02\n      dup5\n      add\n      sstore\n      swap5\n      mload\n      0x03\n      swap1\n      swap3\n      add\n      dup1\n      sload\n      swap3\n      dup9\n      and\n      swap3\n      swap1\n      swap6\n      and\n      swap2\n      swap1\n      swap2\n      or\n      swap1\n      swap4\n      sstore\n        /* \"source/Marketplace.sol\":58461:58470  marketNft */\n      sload\n        /* \"source/Marketplace.sol\":58461:58520  marketNft.transferFrom(msg.sender, address(this), _tokenId) */\n      swap1\n      mload\n      shl(0xe0, 0x23b872dd)\n      dup2\n      mstore\n        /* \"source/Marketplace.sol\":58461:58470  marketNft */\n      swap4\n      and\n      swap3\n        /* \"source/Marketplace.sol\":58461:58483  marketNft.transferFrom */\n      0x23b872dd\n      swap3\n        /* \"source/Marketplace.sol\":58461:58520  marketNft.transferFrom(msg.sender, address(this), _tokenId) */\n      tag_270\n      swap3\n        /* \"source/Marketplace.sol\":58388:58398  msg.sender */\n      swap2\n        /* \"source/Marketplace.sol\":58504:58508  this */\n      address\n      swap2\n        /* \"source/Marketplace.sol\":58288:58296  _tokenId */\n      dup10\n      swap2\n        /* \"source/Marketplace.sol\":58461:58520  marketNft.transferFrom(msg.sender, address(this), _tokenId) */\n      add\n      tag_173\n      jump\t// in\n    tag_270:\n      0x00\n      mload(0x40)\n      dup1\n      dup4\n      sub\n      dup2\n      0x00\n      dup8\n      dup1\n      extcodesize\n      iszero\n      dup1\n      iszero\n      tag_271\n      jumpi\n      0x00\n      dup1\n      revert\n    tag_271:\n      pop\n      gas\n      call\n      iszero\n      dup1\n      iszero\n      tag_273\n      jumpi\n      returndatasize\n      0x00\n      dup1\n      returndatacopy\n      revert(0x00, returndatasize)\n    tag_273:\n      pop\n      pop\n      pop\n      sub(shl(0xa0, 0x01), 0x01)\n        /* \"source/Marketplace.sol\":58535:58555  _erc20 == address(0) */\n      dup3\n      and\n      swap1\n      pop\n        /* \"source/Marketplace.sol\":58531:58726  if (_erc20 == address(0)) {... */\n      tag_274\n      jumpi\n        /* \"source/Marketplace.sol\":58577:58635  PutUpForSaleWithERC20(msg.sender, _tokenId, _erc20, price) */\n      0x40\n      dup1\n      mload\n        /* \"source/Marketplace.sol\":58599:58609  msg.sender */\n      caller\n        /* \"#utility.yul\":11748:11782   */\n      dup2\n      mstore\n        /* \"#utility.yul\":11813:11815   */\n      0x20\n        /* \"#utility.yul\":11798:11816   */\n      dup2\n      add\n        /* \"#utility.yul\":11791:11825   */\n      dup6\n      swap1\n      mstore\n      sub(shl(0xa0, 0x01), 0x01)\n        /* \"#utility.yul\":11861:11876   */\n      dup4\n      and\n        /* \"#utility.yul\":11841:11859   */\n      swap2\n      dup2\n      add\n        /* \"#utility.yul\":11834:11877   */\n      swap2\n      swap1\n      swap2\n      mstore\n        /* \"#utility.yul\":11908:11910   */\n      0x60\n        /* \"#utility.yul\":11893:11911   */\n      dup2\n      add\n        /* \"#utility.yul\":11886:11920   */\n      dup4\n      swap1\n      mstore\n        /* \"source/Marketplace.sol\":58577:58635  PutUpForSaleWithERC20(msg.sender, _tokenId, _erc20, price) */\n      0x0a4292e75f7eafde90821610c4cabfc298540c274b50a7ea784a529a2b8a4a6f\n      swap1\n        /* \"#utility.yul\":11697:11700   */\n      0x80\n        /* \"#utility.yul\":11682:11701   */\n      add\n        /* \"source/Marketplace.sol\":58577:58635  PutUpForSaleWithERC20(msg.sender, _tokenId, _erc20, price) */\n    tag_275:\n      mload(0x40)\n      dup1\n      swap2\n      sub\n      swap1\n      log1\n        /* \"source/Marketplace.sol\":57765:58733  function sellNFT(... */\n      pop\n      pop\n      pop\n      jump\t// out\n        /* \"source/Marketplace.sol\":58531:58726  if (_erc20 == address(0)) {... */\n    tag_274:\n        /* \"source/Marketplace.sol\":58673:58714  PutUpForSale(msg.sender, _tokenId, price) */\n      0x40\n      dup1\n      mload\n        /* \"source/Marketplace.sol\":58686:58696  msg.sender */\n      caller\n        /* \"#utility.yul\":12133:12184   */\n      dup2\n      mstore\n        /* \"#utility.yul\":12215:12217   */\n      0x20\n        /* \"#utility.yul\":12200:12218   */\n      dup2\n      add\n        /* \"#utility.yul\":12193:12227   */\n      dup6\n      swap1\n      mstore\n        /* \"#utility.yul\":12243:12261   */\n      swap1\n      dup2\n      add\n        /* \"#utility.yul\":12236:12270   */\n      dup4\n      swap1\n      mstore\n        /* \"source/Marketplace.sol\":58673:58714  PutUpForSale(msg.sender, _tokenId, price) */\n      0x4524387b4311078b7531910a140a6975002b10aca4cf12255e98da8f1ff1b35b\n      swap1\n        /* \"#utility.yul\":12121:12123   */\n      0x60\n        /* \"#utility.yul\":12106:12124   */\n      add\n        /* \"source/Marketplace.sol\":58673:58714  PutUpForSale(msg.sender, _tokenId, price) */\n      tag_275\n        /* \"#utility.yul\":11931:12276   */\n      jump\n        /* \"source/Marketplace.sol\":58531:58726  if (_erc20 == address(0)) {... */\n    tag_277:\n        /* \"source/Marketplace.sol\":57765:58733  function sellNFT(... */\n      pop\n      pop\n      pop\n      jump\t// out\n        /* \"source/Marketplace.sol\":53424:54918  function getTokensAtSale()... */\n    tag_109:\n        /* \"source/Marketplace.sol\":53574:53590  _tokensIdsAtSale */\n      0x08\n        /* \"source/Marketplace.sol\":53574:53597  _tokensIdsAtSale.length */\n      sload\n        /* \"source/Marketplace.sol\":53492:53514  SelledNFT[] memory ret */\n      0x60\n      swap1\n        /* \"source/Marketplace.sol\":53532:53555  SelledNFT[] memory _ret */\n      0x00\n      swap1\n        /* \"source/Marketplace.sol\":53558:53598  new SelledNFT[](_tokensIdsAtSale.length) */\n      0xffffffffffffffff\n      dup2\n      gt\n      iszero\n      tag_287\n      jumpi\n      tag_287\n      tag_288\n      jump\t// in\n    tag_287:\n      mload(0x40)\n      swap1\n      dup1\n      dup3\n      mstore\n      dup1\n      0x20\n      mul\n      0x20\n      add\n      dup3\n      add\n      0x40\n      mstore\n      dup1\n      iszero\n      tag_289\n      jumpi\n      dup2\n      0x20\n      add\n    tag_290:\n      0x40\n      dup1\n      mload\n      0x80\n      dup2\n      add\n      dup3\n      mstore\n      0x00\n      dup1\n      dup3\n      mstore\n      0x20\n      dup1\n      dup4\n      add\n      dup3\n      swap1\n      mstore\n      swap3\n      dup3\n      add\n      dup2\n      swap1\n      mstore\n      0x60\n      dup3\n      add\n      mstore\n      dup3\n      mstore\n      not(0x00)\n      swap1\n      swap3\n      add\n      swap2\n      add\n      dup2\n      tag_290\n      jumpi\n      swap1\n      pop\n    tag_289:\n      pop\n        /* \"source/Marketplace.sol\":53532:53598  SelledNFT[] memory _ret = new SelledNFT[](_tokensIdsAtSale.length) */\n      swap1\n      pop\n        /* \"source/Marketplace.sol\":53614:53623  uint256 i */\n      0x00\n        /* \"source/Marketplace.sol\":53609:54002  for (uint256 i = 0; i < _tokensIdsAtSale.length; i++) {... */\n    tag_293:\n        /* \"source/Marketplace.sol\":53633:53649  _tokensIdsAtSale */\n      0x08\n        /* \"source/Marketplace.sol\":53633:53656  _tokensIdsAtSale.length */\n      sload\n        /* \"source/Marketplace.sol\":53629:53656  i < _tokensIdsAtSale.length */\n      dup2\n      lt\n        /* \"source/Marketplace.sol\":53609:54002  for (uint256 i = 0; i < _tokensIdsAtSale.length; i++) {... */\n      iszero\n      tag_294\n      jumpi\n        /* \"source/Marketplace.sol\":53678:53694  uint256 _tokenId */\n      0x00\n        /* \"source/Marketplace.sol\":53697:53713  _tokensIdsAtSale */\n      0x08\n        /* \"source/Marketplace.sol\":53714:53715  i */\n      dup3\n        /* \"source/Marketplace.sol\":53697:53716  _tokensIdsAtSale[i] */\n      dup2\n      sload\n      dup2\n      lt\n      tag_297\n      jumpi\n      tag_297\n      tag_248\n      jump\t// in\n    tag_297:\n      0x00\n      swap2\n      dup3\n      mstore\n      0x20\n      dup1\n      dup4\n      keccak256\n      swap1\n      swap2\n      add\n      sload\n        /* \"source/Marketplace.sol\":53760:53956  SelledNFT(... */\n      0x40\n      dup1\n      mload\n      0x80\n      dup2\n      add\n      dup3\n      mstore\n      dup3\n      dup2\n      mstore\n        /* \"source/Marketplace.sol\":53815:53838  _tokensAtSale[_tokenId] */\n      dup3\n      dup6\n      mstore\n        /* \"source/Marketplace.sol\":53815:53828  _tokensAtSale */\n      0x05\n        /* \"source/Marketplace.sol\":53815:53838  _tokensAtSale[_tokenId] */\n      dup1\n      dup6\n      mstore\n      dup3\n      dup7\n      keccak256\n        /* \"source/Marketplace.sol\":53815:53845  _tokensAtSale[_tokenId].seller */\n      0x01\n      dup2\n      add\n      sload\n      sub(shl(0xa0, 0x01), 0x01)\n      swap1\n      dup2\n      and\n        /* \"source/Marketplace.sol\":53760:53956  SelledNFT(... */\n      dup5\n      dup9\n      add\n      mstore\n        /* \"source/Marketplace.sol\":53864:53893  _tokensAtSale[_tokenId].price */\n      0x02\n      dup3\n      add\n      sload\n        /* \"source/Marketplace.sol\":53760:53956  SelledNFT(... */\n      swap5\n      dup5\n      add\n      swap5\n      swap1\n      swap5\n      mstore\n        /* \"source/Marketplace.sol\":53912:53935  _tokensAtSale[_tokenId] */\n      swap6\n      dup5\n      swap1\n      mstore\n      swap1\n      swap4\n      mstore\n        /* \"source/Marketplace.sol\":53912:53941  _tokensAtSale[_tokenId].erc20 */\n      0x03\n      swap1\n      swap4\n      add\n      sload\n      swap1\n      swap3\n      and\n        /* \"source/Marketplace.sol\":53760:53956  SelledNFT(... */\n      0x60\n      dup3\n      add\n      mstore\n        /* \"source/Marketplace.sol\":53971:53978  _ret[i] */\n      dup5\n      mload\n        /* \"source/Marketplace.sol\":53697:53716  _tokensIdsAtSale[i] */\n      swap2\n      swap3\n      pop\n        /* \"source/Marketplace.sol\":53760:53956  SelledNFT(... */\n      swap1\n      dup2\n      swap1\n        /* \"source/Marketplace.sol\":53971:53975  _ret */\n      dup6\n      swap1\n        /* \"source/Marketplace.sol\":53976:53977  i */\n      dup6\n      swap1\n        /* \"source/Marketplace.sol\":53971:53978  _ret[i] */\n      dup2\n      lt\n      tag_300\n      jumpi\n      tag_300\n      tag_248\n      jump\t// in\n    tag_300:\n      0x20\n      mul\n      0x20\n      add\n      add\n        /* \"source/Marketplace.sol\":53971:53990  _ret[i] = _pushItem */\n      dup2\n      swap1\n      mstore\n      pop\n        /* \"source/Marketplace.sol\":53663:54002  {... */\n      pop\n      pop\n        /* \"source/Marketplace.sol\":53658:53661  i++ */\n      dup1\n      dup1\n      tag_301\n      swap1\n      tag_252\n      jump\t// in\n    tag_301:\n      swap2\n      pop\n      pop\n        /* \"source/Marketplace.sol\":53609:54002  for (uint256 i = 0; i < _tokensIdsAtSale.length; i++) {... */\n      jump(tag_293)\n    tag_294:\n      pop\n        /* \"source/Marketplace.sol\":54019:54023  _ret */\n      swap2\n        /* \"source/Marketplace.sol\":53424:54918  function getTokensAtSale()... */\n      swap1\n      pop\n      jump\t// out\n        /* \"source/Marketplace.sol\":50460:50559  function removeBlackList(address user) public onlyOwner {... */\n    tag_114:\n        /* \"source/Marketplace.sol\":1905:1918  _checkOwner() */\n      tag_303\n        /* \"source/Marketplace.sol\":1905:1916  _checkOwner */\n      tag_183\n        /* \"source/Marketplace.sol\":1905:1918  _checkOwner() */\n      jump\t// in\n    tag_303:\n      sub(shl(0xa0, 0x01), 0x01)\n        /* \"source/Marketplace.sol\":50527:50543  _blackList[user] */\n      and\n        /* \"source/Marketplace.sol\":50546:50551  false */\n      0x00\n        /* \"source/Marketplace.sol\":50527:50543  _blackList[user] */\n      swap1\n      dup2\n      mstore\n        /* \"source/Marketplace.sol\":50527:50537  _blackList */\n      0x06\n        /* \"source/Marketplace.sol\":50527:50543  _blackList[user] */\n      0x20\n      mstore\n      0x40\n      swap1\n      keccak256\n        /* \"source/Marketplace.sol\":50527:50551  _blackList[user] = false */\n      dup1\n      sload\n      not(0xff)\n      and\n      swap1\n      sstore\n        /* \"source/Marketplace.sol\":50460:50559  function removeBlackList(address user) public onlyOwner {... */\n      jump\t// out\n        /* \"source/Marketplace.sol\":50678:50804  function setAllowedERC20(address[] memory newAllowedERC20) public onlyOwner {... */\n    tag_119:\n        /* \"source/Marketplace.sol\":1905:1918  _checkOwner() */\n      tag_306\n        /* \"source/Marketplace.sol\":1905:1916  _checkOwner */\n      tag_183\n        /* \"source/Marketplace.sol\":1905:1918  _checkOwner() */\n      jump\t// in\n    tag_306:\n        /* \"source/Marketplace.sol\":50765:50796  _allowedERC20 = newAllowedERC20 */\n      dup1\n      mload\n      tag_308\n      swap1\n        /* \"source/Marketplace.sol\":50765:50778  _allowedERC20 */\n      0x07\n      swap1\n        /* \"source/Marketplace.sol\":50765:50796  _allowedERC20 = newAllowedERC20 */\n      0x20\n      dup5\n      add\n      swap1\n      tag_309\n      jump\t// in\n    tag_308:\n      pop\n        /* \"source/Marketplace.sol\":50678:50804  function setAllowedERC20(address[] memory newAllowedERC20) public onlyOwner {... */\n      pop\n      jump\t// out\n        /* \"source/Marketplace.sol\":2925:3126  function transferOwnership(address newOwner) public virtual onlyOwner {... */\n    tag_123:\n        /* \"source/Marketplace.sol\":1905:1918  _checkOwner() */\n      tag_311\n        /* \"source/Marketplace.sol\":1905:1916  _checkOwner */\n      tag_183\n        /* \"source/Marketplace.sol\":1905:1918  _checkOwner() */\n      jump\t// in\n    tag_311:\n      sub(shl(0xa0, 0x01), 0x01)\n        /* \"source/Marketplace.sol\":3014:3036  newOwner != address(0) */\n      dup2\n      and\n        /* \"source/Marketplace.sol\":3006:3079  require(newOwner != address(0), \"Ownable: new owner is the zero address\") */\n      tag_313\n      jumpi\n      mload(0x40)\n      shl(0xe5, 0x461bcd)\n      dup2\n      mstore\n        /* \"#utility.yul\":12483:12485   */\n      0x20\n        /* \"source/Marketplace.sol\":3006:3079  require(newOwner != address(0), \"Ownable: new owner is the zero address\") */\n      0x04\n      dup3\n      add\n        /* \"#utility.yul\":12465:12486   */\n      mstore\n        /* \"#utility.yul\":12522:12524   */\n      0x26\n        /* \"#utility.yul\":12502:12520   */\n      0x24\n      dup3\n      add\n        /* \"#utility.yul\":12495:12525   */\n      mstore\n        /* \"#utility.yul\":12561:12595   */\n      0x4f776e61626c653a206e6577206f776e657220697320746865207a65726f2061\n        /* \"#utility.yul\":12541:12559   */\n      0x44\n      dup3\n      add\n        /* \"#utility.yul\":12534:12596   */\n      mstore\n      shl(0xd0, 0x646472657373)\n        /* \"#utility.yul\":12612:12630   */\n      0x64\n      dup3\n      add\n        /* \"#utility.yul\":12605:12641   */\n      mstore\n        /* \"#utility.yul\":12658:12677   */\n      0x84\n      add\n        /* \"source/Marketplace.sol\":3006:3079  require(newOwner != address(0), \"Ownable: new owner is the zero address\") */\n      tag_138\n        /* \"#utility.yul\":12281:12683   */\n      jump\n        /* \"source/Marketplace.sol\":3006:3079  require(newOwner != address(0), \"Ownable: new owner is the zero address\") */\n    tag_313:\n        /* \"source/Marketplace.sol\":3090:3118  _transferOwnership(newOwner) */\n      tag_316\n        /* \"source/Marketplace.sol\":3109:3117  newOwner */\n      dup2\n        /* \"source/Marketplace.sol\":3090:3108  _transferOwnership */\n      tag_241\n        /* \"source/Marketplace.sol\":3090:3118  _transferOwnership(newOwner) */\n      jump\t// in\n    tag_316:\n        /* \"source/Marketplace.sol\":2925:3126  function transferOwnership(address newOwner) public virtual onlyOwner {... */\n      pop\n      jump\t// out\n        /* \"source/Marketplace.sol\":51623:51831  function withdrawBankERC20(address erc20) public onlyOwner {... */\n    tag_127:\n        /* \"source/Marketplace.sol\":1905:1918  _checkOwner() */\n      tag_318\n        /* \"source/Marketplace.sol\":1905:1916  _checkOwner */\n      tag_183\n        /* \"source/Marketplace.sol\":1905:1918  _checkOwner() */\n      jump\t// in\n    tag_318:\n        /* \"source/Marketplace.sol\":51750:51780  token.balanceOf(address(this)) */\n      mload(0x40)\n      shl(0xe0, 0x70a08231)\n      dup2\n      mstore\n        /* \"source/Marketplace.sol\":51774:51778  this */\n      address\n        /* \"source/Marketplace.sol\":51750:51780  token.balanceOf(address(this)) */\n      0x04\n      dup3\n      add\n        /* \"#utility.yul\":360:411   */\n      mstore\n        /* \"source/Marketplace.sol\":51715:51720  erc20 */\n      dup2\n      swap1\n        /* \"source/Marketplace.sol\":51693:51705  IERC20 token */\n      0x00\n      swap1\n      sub(shl(0xa0, 0x01), 0x01)\n        /* \"source/Marketplace.sol\":51750:51765  token.balanceOf */\n      dup4\n      and\n      swap1\n      0x70a08231\n      swap1\n        /* \"#utility.yul\":333:351   */\n      0x24\n      add\n        /* \"source/Marketplace.sol\":51750:51780  token.balanceOf(address(this)) */\n      0x20\n      mload(0x40)\n      dup1\n      dup4\n      sub\n      dup2\n      dup7\n      gas\n      staticcall\n      iszero\n      dup1\n      iszero\n      tag_322\n      jumpi\n      returndatasize\n      0x00\n      dup1\n      returndatacopy\n      revert(0x00, returndatasize)\n    tag_322:\n      pop\n      pop\n      pop\n      pop\n      mload(0x40)\n      returndatasize\n      not(0x1f)\n      0x1f\n      dup3\n      add\n      and\n      dup3\n      add\n      dup1\n      0x40\n      mstore\n      pop\n      dup2\n      add\n      swap1\n      tag_323\n      swap2\n      swap1\n      tag_147\n      jump\t// in\n    tag_323:\n        /* \"source/Marketplace.sol\":51732:51780  uint256 balance = token.balanceOf(address(this)) */\n      swap1\n      pop\n        /* \"source/Marketplace.sol\":51791:51796  token */\n      dup2\n      sub(shl(0xa0, 0x01), 0x01)\n        /* \"source/Marketplace.sol\":51791:51805  token.transfer */\n      and\n      0xa9059cbb\n        /* \"source/Marketplace.sol\":51806:51813  owner() */\n      tag_324\n        /* \"source/Marketplace.sol\":2065:2072  address */\n      0x00\n        /* \"source/Marketplace.sol\":2092:2098  _owner */\n      sload\n      sub(shl(0xa0, 0x01), 0x01)\n      and\n      swap1\n        /* \"source/Marketplace.sol\":2019:2106  function owner() public view virtual returns (address) {... */\n      jump\n        /* \"source/Marketplace.sol\":51806:51813  owner() */\n    tag_324:\n        /* \"source/Marketplace.sol\":51791:51823  token.transfer(owner(), balance) */\n      mload(0x40)\n      not(sub(shl(0xe0, 0x01), 0x01))\n      0xe0\n      dup5\n      swap1\n      shl\n      and\n      dup2\n      mstore\n      sub(shl(0xa0, 0x01), 0x01)\n        /* \"#utility.yul\":8391:8423   */\n      swap1\n      swap2\n      and\n        /* \"source/Marketplace.sol\":51791:51823  token.transfer(owner(), balance) */\n      0x04\n      dup3\n      add\n        /* \"#utility.yul\":8373:8424   */\n      mstore\n        /* \"#utility.yul\":8440:8458   */\n      0x24\n      dup2\n      add\n        /* \"#utility.yul\":8433:8467   */\n      dup5\n      swap1\n      mstore\n        /* \"#utility.yul\":8346:8364   */\n      0x44\n      add\n        /* \"source/Marketplace.sol\":51791:51823  token.transfer(owner(), balance) */\n      0x20\n      mload(0x40)\n      dup1\n      dup4\n      sub\n      dup2\n      0x00\n      dup8\n      gas\n      call\n      iszero\n      dup1\n      iszero\n      tag_327\n      jumpi\n      returndatasize\n      0x00\n      dup1\n      returndatacopy\n      revert(0x00, returndatasize)\n    tag_327:\n      pop\n      pop\n      pop\n      pop\n      mload(0x40)\n      returndatasize\n      not(0x1f)\n      0x1f\n      dup3\n      add\n      and\n      dup3\n      add\n      dup1\n      0x40\n      mstore\n      pop\n      dup2\n      add\n      swap1\n      tag_233\n      swap2\n      swap1\n      tag_329\n      jump\t// in\n        /* \"source/Marketplace.sol\":51252:51445  function withdrawBank() public onlyOwner {... */\n    tag_135:\n        /* \"source/Marketplace.sol\":1905:1918  _checkOwner() */\n      tag_332\n        /* \"source/Marketplace.sol\":1905:1916  _checkOwner */\n      tag_183\n        /* \"source/Marketplace.sol\":1905:1918  _checkOwner() */\n      jump\t// in\n    tag_332:\n        /* \"source/Marketplace.sol\":51353:51389  payable(msg.sender).transfer(amount) */\n      mload(0x40)\n        /* \"source/Marketplace.sol\":51321:51342  address(this).balance */\n      selfbalance\n      swap1\n        /* \"source/Marketplace.sol\":51361:51371  msg.sender */\n      caller\n      swap1\n        /* \"source/Marketplace.sol\":51353:51389  payable(msg.sender).transfer(amount) */\n      dup3\n      iszero\n      0x08fc\n      mul\n      swap1\n        /* \"source/Marketplace.sol\":51321:51342  address(this).balance */\n      dup4\n      swap1\n        /* \"source/Marketplace.sol\":51304:51318  uint256 amount */\n      0x00\n        /* \"source/Marketplace.sol\":51353:51389  payable(msg.sender).transfer(amount) */\n      dup2\n        /* \"source/Marketplace.sol\":51304:51318  uint256 amount */\n      dup2\n        /* \"source/Marketplace.sol\":51353:51389  payable(msg.sender).transfer(amount) */\n      dup2\n        /* \"source/Marketplace.sol\":51321:51342  address(this).balance */\n      dup6\n        /* \"source/Marketplace.sol\":51361:51371  msg.sender */\n      dup9\n        /* \"source/Marketplace.sol\":51353:51389  payable(msg.sender).transfer(amount) */\n      dup9\n      call\n      swap4\n      pop\n      pop\n      pop\n      pop\n      iszero\n      dup1\n      iszero\n      tag_335\n      jumpi\n      returndatasize\n      0x00\n      dup1\n      returndatacopy\n      revert(0x00, returndatasize)\n    tag_335:\n      pop\n        /* \"source/Marketplace.sol\":51405:51437  WithdrawBank(msg.sender, amount) */\n      0x40\n      dup1\n      mload\n        /* \"source/Marketplace.sol\":51418:51428  msg.sender */\n      caller\n        /* \"#utility.yul\":8373:8424   */\n      dup2\n      mstore\n        /* \"#utility.yul\":8455:8457   */\n      0x20\n        /* \"#utility.yul\":8440:8458   */\n      dup2\n      add\n        /* \"#utility.yul\":8433:8467   */\n      dup4\n      swap1\n      mstore\n        /* \"source/Marketplace.sol\":51405:51437  WithdrawBank(msg.sender, amount) */\n      0xd59f809f461fb2e2ca77f931dc43a9aaaa4295b0ed3c8e6adc04d0aab43eeb47\n      swap2\n        /* \"#utility.yul\":8346:8364   */\n      add\n        /* \"source/Marketplace.sol\":51405:51437  WithdrawBank(msg.sender, amount) */\n      tag_205\n        /* \"#utility.yul\":8199:8473   */\n      jump\n        /* \"source/Marketplace.sol\":35741:35839  function div(uint256 a, uint256 b) internal pure returns (uint256) {... */\n    tag_161:\n        /* \"source/Marketplace.sol\":35799:35806  uint256 */\n      0x00\n        /* \"source/Marketplace.sol\":35826:35831  a / b */\n      tag_338\n        /* \"source/Marketplace.sol\":35830:35831  b */\n      dup3\n        /* \"source/Marketplace.sol\":35826:35827  a */\n      dup5\n        /* \"source/Marketplace.sol\":35826:35831  a / b */\n      tag_339\n      jump\t// in\n    tag_338:\n        /* \"source/Marketplace.sol\":35819:35831  return a / b */\n      swap1\n      pop\n        /* \"source/Marketplace.sol\":35741:35839  function div(uint256 a, uint256 b) internal pure returns (uint256) {... */\n    tag_337:\n      swap3\n      swap2\n      pop\n      pop\n      jump\t// out\n        /* \"source/Marketplace.sol\":35342:35440  function mul(uint256 a, uint256 b) internal pure returns (uint256) {... */\n    tag_162:\n        /* \"source/Marketplace.sol\":35400:35407  uint256 */\n      0x00\n        /* \"source/Marketplace.sol\":35427:35432  a * b */\n      tag_338\n        /* \"source/Marketplace.sol\":35431:35432  b */\n      dup3\n        /* \"source/Marketplace.sol\":35427:35428  a */\n      dup5\n        /* \"source/Marketplace.sol\":35427:35432  a * b */\n      tag_342\n      jump\t// in\n        /* \"source/Marketplace.sol\":34985:35083  function sub(uint256 a, uint256 b) internal pure returns (uint256) {... */\n    tag_166:\n        /* \"source/Marketplace.sol\":35043:35050  uint256 */\n      0x00\n        /* \"source/Marketplace.sol\":35070:35075  a - b */\n      tag_338\n        /* \"source/Marketplace.sol\":35074:35075  b */\n      dup3\n        /* \"source/Marketplace.sol\":35070:35071  a */\n      dup5\n        /* \"source/Marketplace.sol\":35070:35075  a - b */\n      tag_345\n      jump\t// in\n        /* \"source/Marketplace.sol\":6528:6733  function safeTransferFrom(IERC20 token, address from, address to, uint256 value) internal {... */\n    tag_168:\n        /* \"source/Marketplace.sol\":6629:6725  _callOptionalReturn(token, abi.encodeWithSelector(token.transferFrom.selector, from, to, value)) */\n      tag_233\n        /* \"source/Marketplace.sol\":6649:6654  token */\n      dup5\n        /* \"source/Marketplace.sol\":6679:6706  token.transferFrom.selector */\n      shl(0xe0, 0x23b872dd)\n        /* \"source/Marketplace.sol\":6708:6712  from */\n      dup6\n        /* \"source/Marketplace.sol\":6714:6716  to */\n      dup6\n        /* \"source/Marketplace.sol\":6718:6723  value */\n      dup6\n        /* \"source/Marketplace.sol\":6656:6724  abi.encodeWithSelector(token.transferFrom.selector, from, to, value) */\n      add(0x24, mload(0x40))\n      tag_348\n      swap4\n      swap3\n      swap2\n      swap1\n      tag_173\n      jump\t// in\n    tag_348:\n      0x40\n      dup1\n      mload\n      not(0x1f)\n      dup2\n      dup5\n      sub\n      add\n      dup2\n      mstore\n      swap2\n      swap1\n      mstore\n      0x20\n      dup2\n      add\n      dup1\n      mload\n      sub(shl(0xe0, 0x01), 0x01)\n      and\n      not(sub(shl(0xe0, 0x01), 0x01))\n      swap1\n      swap4\n      and\n      swap3\n      swap1\n      swap3\n      or\n      swap1\n      swap2\n      mstore\n        /* \"source/Marketplace.sol\":6629:6648  _callOptionalReturn */\n      tag_349\n        /* \"source/Marketplace.sol\":6629:6725  _callOptionalReturn(token, abi.encodeWithSelector(token.transferFrom.selector, from, to, value)) */\n      jump\t// in\n        /* \"source/Marketplace.sol\":52040:52175  function _clearSellToken(uint256 _tokenId) private {... */\n    tag_178:\n        /* \"source/Marketplace.sol\":52128:52167  SelledNFT(0, address(0), 0, address(0)) */\n      0x40\n      dup1\n      mload\n      0x80\n      dup2\n      add\n      dup3\n      mstore\n      0x00\n      dup1\n      dup3\n      mstore\n      0x20\n      dup1\n      dup4\n      add\n      dup3\n      dup2\n      mstore\n      dup4\n      dup6\n      add\n      dup4\n      dup2\n      mstore\n      0x60\n      dup6\n      add\n      dup5\n      dup2\n      mstore\n        /* \"source/Marketplace.sol\":52102:52125  _tokensAtSale[_tokenId] */\n      swap7\n      dup5\n      mstore\n        /* \"source/Marketplace.sol\":52102:52115  _tokensAtSale */\n      0x05\n        /* \"source/Marketplace.sol\":52102:52125  _tokensAtSale[_tokenId] */\n      swap1\n      swap3\n      mstore\n      swap4\n      swap1\n      swap2\n      keccak256\n        /* \"source/Marketplace.sol\":52102:52167  _tokensAtSale[_tokenId] = SelledNFT(0, address(0), 0, address(0)) */\n      swap2\n      mload\n      dup3\n      sstore\n      swap2\n      mload\n      0x01\n      dup3\n      add\n      dup1\n      sload\n      sub(shl(0xa0, 0x01), 0x01)\n      swap3\n      dup4\n      and\n      not(sub(shl(0xa0, 0x01), 0x01))\n      swap2\n      dup3\n      and\n      or\n      swap1\n      swap2\n      sstore\n      swap3\n      mload\n      0x02\n      dup4\n      add\n      sstore\n      swap3\n      mload\n      0x03\n      swap1\n      swap2\n      add\n      dup1\n      sload\n      swap2\n      swap1\n      swap4\n      and\n      swap2\n      and\n      or\n      swap1\n      sstore\n        /* \"source/Marketplace.sol\":52040:52175  function _clearSellToken(uint256 _tokenId) private {... */\n      jump\t// out\n        /* \"source/Marketplace.sol\":2184:2316  function _checkOwner() internal view virtual {... */\n    tag_183:\n        /* \"source/Marketplace.sol\":2065:2072  address */\n      0x00\n        /* \"source/Marketplace.sol\":2092:2098  _owner */\n      sload\n      sub(shl(0xa0, 0x01), 0x01)\n      and\n        /* \"source/Marketplace.sol\":736:746  msg.sender */\n      caller\n        /* \"source/Marketplace.sol\":2248:2271  owner() == _msgSender() */\n      eq\n        /* \"source/Marketplace.sol\":2240:2308  require(owner() == _msgSender(), \"Ownable: caller is not the owner\") */\n      tag_240\n      jumpi\n      mload(0x40)\n      shl(0xe5, 0x461bcd)\n      dup2\n      mstore\n        /* \"#utility.yul\":13700:13702   */\n      0x20\n        /* \"source/Marketplace.sol\":2240:2308  require(owner() == _msgSender(), \"Ownable: caller is not the owner\") */\n      0x04\n      dup3\n      add\n        /* \"#utility.yul\":13682:13703   */\n      dup2\n      swap1\n      mstore\n        /* \"#utility.yul\":13719:13737   */\n      0x24\n      dup3\n      add\n        /* \"#utility.yul\":13712:13742   */\n      mstore\n        /* \"#utility.yul\":13778:13812   */\n      0x4f776e61626c653a2063616c6c6572206973206e6f7420746865206f776e6572\n        /* \"#utility.yul\":13758:13776   */\n      0x44\n      dup3\n      add\n        /* \"#utility.yul\":13751:13813   */\n      mstore\n        /* \"#utility.yul\":13830:13848   */\n      0x64\n      add\n        /* \"source/Marketplace.sol\":2240:2308  require(owner() == _msgSender(), \"Ownable: caller is not the owner\") */\n      tag_138\n        /* \"#utility.yul\":13498:13854   */\n      jump\n        /* \"source/Marketplace.sol\":3286:3477  function _transferOwnership(address newOwner) internal virtual {... */\n    tag_241:\n        /* \"source/Marketplace.sol\":3360:3376  address oldOwner */\n      0x00\n        /* \"source/Marketplace.sol\":3379:3385  _owner */\n      dup1\n      sload\n      sub(shl(0xa0, 0x01), 0x01)\n        /* \"source/Marketplace.sol\":3396:3413  _owner = newOwner */\n      dup4\n      dup2\n      and\n      not(sub(shl(0xa0, 0x01), 0x01))\n      dup4\n      and\n      dup2\n      or\n      dup5\n      sstore\n        /* \"source/Marketplace.sol\":3429:3469  OwnershipTransferred(oldOwner, newOwner) */\n      mload(0x40)\n        /* \"source/Marketplace.sol\":3379:3385  _owner */\n      swap2\n      swap1\n      swap3\n      and\n      swap3\n      dup4\n      swap2\n        /* \"source/Marketplace.sol\":3429:3469  OwnershipTransferred(oldOwner, newOwner) */\n      0x8be0079c531659141344cd1fd0a4f28419497f9722a3daafe3b4186f6b6457e0\n      swap2\n        /* \"source/Marketplace.sol\":3360:3376  address oldOwner */\n      swap1\n        /* \"source/Marketplace.sol\":3429:3469  OwnershipTransferred(oldOwner, newOwner) */\n      log3\n        /* \"source/Marketplace.sol\":3349:3477  {... */\n      pop\n        /* \"source/Marketplace.sol\":3286:3477  function _transferOwnership(address newOwner) internal virtual {... */\n      pop\n      jump\t// out\n        /* \"source/Marketplace.sol\":9231:9947  function _callOptionalReturn(IERC20 token, bytes memory data) private {... */\n    tag_349:\n        /* \"source/Marketplace.sol\":9655:9678  bytes memory returndata */\n      0x00\n        /* \"source/Marketplace.sol\":9681:9750  address(token).functionCall(data, \"SafeERC20: low-level call failed\") */\n      tag_360\n        /* \"source/Marketplace.sol\":9709:9713  data */\n      dup3\n        /* \"source/Marketplace.sol\":9681:9750  address(token).functionCall(data, \"SafeERC20: low-level call failed\") */\n      mload(0x40)\n      dup1\n      0x40\n      add\n      0x40\n      mstore\n      dup1\n      0x20\n      dup2\n      mstore\n      0x20\n      add\n      0x5361666545524332303a206c6f772d6c6576656c2063616c6c206661696c6564\n      dup2\n      mstore\n      pop\n        /* \"source/Marketplace.sol\":9689:9694  token */\n      dup6\n      sub(shl(0xa0, 0x01), 0x01)\n        /* \"source/Marketplace.sol\":9681:9708  address(token).functionCall */\n      and\n      tag_361\n      swap1\n        /* \"source/Marketplace.sol\":9681:9750  address(token).functionCall(data, \"SafeERC20: low-level call failed\") */\n      swap3\n      swap2\n      swap1\n      0xffffffff\n      and\n      jump\t// in\n    tag_360:\n        /* \"source/Marketplace.sol\":9765:9782  returndata.length */\n      dup1\n      mload\n        /* \"source/Marketplace.sol\":9655:9750  bytes memory returndata = address(token).functionCall(data, \"SafeERC20: low-level call failed\") */\n      swap1\n      swap2\n      pop\n        /* \"source/Marketplace.sol\":9765:9786  returndata.length > 0 */\n      iszero\n        /* \"source/Marketplace.sol\":9761:9940  if (returndata.length > 0) {... */\n      tag_277\n      jumpi\n        /* \"source/Marketplace.sol\":9862:9872  returndata */\n      dup1\n        /* \"source/Marketplace.sol\":9851:9881  abi.decode(returndata, (bool)) */\n      dup1\n      0x20\n      add\n      swap1\n      mload\n      dup2\n      add\n      swap1\n      tag_363\n      swap2\n      swap1\n      tag_329\n      jump\t// in\n    tag_363:\n        /* \"source/Marketplace.sol\":9843:9928  require(abi.decode(returndata, (bool)), \"SafeERC20: ERC20 operation did not succeed\") */\n      tag_277\n      jumpi\n      mload(0x40)\n      shl(0xe5, 0x461bcd)\n      dup2\n      mstore\n        /* \"#utility.yul\":14061:14063   */\n      0x20\n        /* \"source/Marketplace.sol\":9843:9928  require(abi.decode(returndata, (bool)), \"SafeERC20: ERC20 operation did not succeed\") */\n      0x04\n      dup3\n      add\n        /* \"#utility.yul\":14043:14064   */\n      mstore\n        /* \"#utility.yul\":14100:14102   */\n      0x2a\n        /* \"#utility.yul\":14080:14098   */\n      0x24\n      dup3\n      add\n        /* \"#utility.yul\":14073:14103   */\n      mstore\n        /* \"#utility.yul\":14139:14173   */\n      0x5361666545524332303a204552433230206f7065726174696f6e20646964206e\n        /* \"#utility.yul\":14119:14137   */\n      0x44\n      dup3\n      add\n        /* \"#utility.yul\":14112:14174   */\n      mstore\n      shl(0xb2, 0x1bdd081cdd58d8d95959)\n        /* \"#utility.yul\":14190:14208   */\n      0x64\n      dup3\n      add\n        /* \"#utility.yul\":14183:14223   */\n      mstore\n        /* \"#utility.yul\":14240:14259   */\n      0x84\n      add\n        /* \"source/Marketplace.sol\":9843:9928  require(abi.decode(returndata, (bool)), \"SafeERC20: ERC20 operation did not succeed\") */\n      tag_138\n        /* \"#utility.yul\":13859:14265   */\n      jump\n        /* \"source/Marketplace.sol\":42812:43041  function functionCall(... */\n    tag_361:\n        /* \"source/Marketplace.sol\":42949:42961  bytes memory */\n      0x60\n        /* \"source/Marketplace.sol\":42981:43033  functionCallWithValue(target, data, 0, errorMessage) */\n      tag_369\n        /* \"source/Marketplace.sol\":43003:43009  target */\n      dup5\n        /* \"source/Marketplace.sol\":43011:43015  data */\n      dup5\n        /* \"source/Marketplace.sol\":43017:43018  0 */\n      0x00\n        /* \"source/Marketplace.sol\":43020:43032  errorMessage */\n      dup6\n        /* \"source/Marketplace.sol\":42981:43002  functionCallWithValue */\n      tag_370\n        /* \"source/Marketplace.sol\":42981:43033  functionCallWithValue(target, data, 0, errorMessage) */\n      jump\t// in\n    tag_369:\n        /* \"source/Marketplace.sol\":42974:43033  return functionCallWithValue(target, data, 0, errorMessage) */\n      swap5\n        /* \"source/Marketplace.sol\":42812:43041  function functionCall(... */\n      swap4\n      pop\n      pop\n      pop\n      pop\n      jump\t// out\n        /* \"source/Marketplace.sol\":43898:44353  function functionCallWithValue(... */\n    tag_370:\n        /* \"source/Marketplace.sol\":44068:44080  bytes memory */\n      0x60\n        /* \"source/Marketplace.sol\":44126:44131  value */\n      dup3\n        /* \"source/Marketplace.sol\":44101:44122  address(this).balance */\n      selfbalance\n        /* \"source/Marketplace.sol\":44101:44131  address(this).balance >= value */\n      lt\n      iszero\n        /* \"source/Marketplace.sol\":44093:44174  require(address(this).balance >= value, \"Address: insufficient balance for call\") */\n      tag_372\n      jumpi\n      mload(0x40)\n      shl(0xe5, 0x461bcd)\n      dup2\n      mstore\n        /* \"#utility.yul\":14472:14474   */\n      0x20\n        /* \"source/Marketplace.sol\":44093:44174  require(address(this).balance >= value, \"Address: insufficient balance for call\") */\n      0x04\n      dup3\n      add\n        /* \"#utility.yul\":14454:14475   */\n      mstore\n        /* \"#utility.yul\":14511:14513   */\n      0x26\n        /* \"#utility.yul\":14491:14509   */\n      0x24\n      dup3\n      add\n        /* \"#utility.yul\":14484:14514   */\n      mstore\n        /* \"#utility.yul\":14550:14584   */\n      0x416464726573733a20696e73756666696369656e742062616c616e636520666f\n        /* \"#utility.yul\":14530:14548   */\n      0x44\n      dup3\n      add\n        /* \"#utility.yul\":14523:14585   */\n      mstore\n      shl(0xd2, 0x1c8818d85b1b)\n        /* \"#utility.yul\":14601:14619   */\n      0x64\n      dup3\n      add\n        /* \"#utility.yul\":14594:14630   */\n      mstore\n        /* \"#utility.yul\":14647:14666   */\n      0x84\n      add\n        /* \"source/Marketplace.sol\":44093:44174  require(address(this).balance >= value, \"Address: insufficient balance for call\") */\n      tag_138\n        /* \"#utility.yul\":14270:14672   */\n      jump\n        /* \"source/Marketplace.sol\":44093:44174  require(address(this).balance >= value, \"Address: insufficient balance for call\") */\n    tag_372:\n        /* \"source/Marketplace.sol\":44186:44198  bool success */\n      0x00\n        /* \"source/Marketplace.sol\":44200:44223  bytes memory returndata */\n      dup1\n        /* \"source/Marketplace.sol\":44227:44233  target */\n      dup7\n      sub(shl(0xa0, 0x01), 0x01)\n        /* \"source/Marketplace.sol\":44227:44238  target.call */\n      and\n        /* \"source/Marketplace.sol\":44246:44251  value */\n      dup6\n        /* \"source/Marketplace.sol\":44253:44257  data */\n      dup8\n        /* \"source/Marketplace.sol\":44227:44258  target.call{value: value}(data) */\n      mload(0x40)\n      tag_375\n      swap2\n      swap1\n      tag_376\n      jump\t// in\n    tag_375:\n      0x00\n      mload(0x40)\n      dup1\n      dup4\n      sub\n      dup2\n      dup6\n      dup8\n      gas\n      call\n      swap3\n      pop\n      pop\n      pop\n      returndatasize\n      dup1\n      0x00\n      dup2\n      eq\n      tag_379\n      jumpi\n      mload(0x40)\n      swap2\n      pop\n      and(add(returndatasize, 0x3f), not(0x1f))\n      dup3\n      add\n      0x40\n      mstore\n      returndatasize\n      dup3\n      mstore\n      returndatasize\n      0x00\n      0x20\n      dup5\n      add\n      returndatacopy\n      jump(tag_378)\n    tag_379:\n      0x60\n      swap2\n      pop\n    tag_378:\n      pop\n        /* \"source/Marketplace.sol\":44185:44258  (bool success, bytes memory returndata) = target.call{value: value}(data) */\n      swap2\n      pop\n      swap2\n      pop\n        /* \"source/Marketplace.sol\":44276:44345  verifyCallResultFromTarget(target, success, returndata, errorMessage) */\n      tag_380\n        /* \"source/Marketplace.sol\":44303:44309  target */\n      dup8\n        /* \"source/Marketplace.sol\":44311:44318  success */\n      dup4\n        /* \"source/Marketplace.sol\":44320:44330  returndata */\n      dup4\n        /* \"source/Marketplace.sol\":44332:44344  errorMessage */\n      dup8\n        /* \"source/Marketplace.sol\":44276:44302  verifyCallResultFromTarget */\n      tag_381\n        /* \"source/Marketplace.sol\":44276:44345  verifyCallResultFromTarget(target, success, returndata, errorMessage) */\n      jump\t// in\n    tag_380:\n        /* \"source/Marketplace.sol\":44269:44345  return verifyCallResultFromTarget(target, success, returndata, errorMessage) */\n      swap8\n        /* \"source/Marketplace.sol\":43898:44353  function functionCallWithValue(... */\n      swap7\n      pop\n      pop\n      pop\n      pop\n      pop\n      pop\n      pop\n      jump\t// out\n        /* \"source/Marketplace.sol\":46471:47115  function verifyCallResultFromTarget(... */\n    tag_381:\n        /* \"source/Marketplace.sol\":46656:46668  bytes memory */\n      0x60\n        /* \"source/Marketplace.sol\":46685:46692  success */\n      dup4\n        /* \"source/Marketplace.sol\":46681:47108  if (success) {... */\n      iszero\n      tag_383\n      jumpi\n        /* \"source/Marketplace.sol\":46713:46723  returndata */\n      dup3\n        /* \"source/Marketplace.sol\":46713:46730  returndata.length */\n      mload\n        /* \"source/Marketplace.sol\":46734:46735  0 */\n      0x00\n        /* \"source/Marketplace.sol\":46713:46735  returndata.length == 0 */\n      sub\n        /* \"source/Marketplace.sol\":46709:46999  if (returndata.length == 0) {... */\n      tag_387\n      jumpi\n      sub(shl(0xa0, 0x01), 0x01)\n        /* \"source/Marketplace.sol\":40351:40370  account.code.length */\n      dup6\n      and\n      extcodesize\n        /* \"source/Marketplace.sol\":46923:46983  require(isContract(target), \"Address: call to non-contract\") */\n      tag_387\n      jumpi\n      mload(0x40)\n      shl(0xe5, 0x461bcd)\n      dup2\n      mstore\n        /* \"#utility.yul\":15426:15428   */\n      0x20\n        /* \"source/Marketplace.sol\":46923:46983  require(isContract(target), \"Address: call to non-contract\") */\n      0x04\n      dup3\n      add\n        /* \"#utility.yul\":15408:15429   */\n      mstore\n        /* \"#utility.yul\":15465:15467   */\n      0x1d\n        /* \"#utility.yul\":15445:15463   */\n      0x24\n      dup3\n      add\n        /* \"#utility.yul\":15438:15468   */\n      mstore\n        /* \"#utility.yul\":15504:15535   */\n      0x416464726573733a2063616c6c20746f206e6f6e2d636f6e7472616374000000\n        /* \"#utility.yul\":15484:15502   */\n      0x44\n      dup3\n      add\n        /* \"#utility.yul\":15477:15536   */\n      mstore\n        /* \"#utility.yul\":15553:15571   */\n      0x64\n      add\n        /* \"source/Marketplace.sol\":46923:46983  require(isContract(target), \"Address: call to non-contract\") */\n      tag_138\n        /* \"#utility.yul\":15224:15577   */\n      jump\n        /* \"source/Marketplace.sol\":46923:46983  require(isContract(target), \"Address: call to non-contract\") */\n    tag_387:\n      pop\n        /* \"source/Marketplace.sol\":47020:47030  returndata */\n      dup2\n        /* \"source/Marketplace.sol\":47013:47030  return returndata */\n      jump(tag_369)\n        /* \"source/Marketplace.sol\":46681:47108  if (success) {... */\n    tag_383:\n        /* \"source/Marketplace.sol\":47063:47096  _revert(returndata, errorMessage) */\n      tag_369\n        /* \"source/Marketplace.sol\":47071:47081  returndata */\n      dup4\n        /* \"source/Marketplace.sol\":47083:47095  errorMessage */\n      dup4\n        /* \"source/Marketplace.sol\":47818:47835  returndata.length */\n      dup2\n      mload\n        /* \"source/Marketplace.sol\":47818:47839  returndata.length > 0 */\n      iszero\n        /* \"source/Marketplace.sol\":47814:48202  if (returndata.length > 0) {... */\n      tag_395\n      jumpi\n        /* \"source/Marketplace.sol\":48050:48060  returndata */\n      dup2\n        /* \"source/Marketplace.sol\":48044:48061  mload(returndata) */\n      mload\n        /* \"source/Marketplace.sol\":48107:48122  returndata_size */\n      dup1\n        /* \"source/Marketplace.sol\":48094:48104  returndata */\n      dup4\n        /* \"source/Marketplace.sol\":48090:48092  32 */\n      0x20\n        /* \"source/Marketplace.sol\":48086:48105  add(32, returndata) */\n      add\n        /* \"source/Marketplace.sol\":48079:48123  revert(add(32, returndata), returndata_size) */\n      revert\n        /* \"source/Marketplace.sol\":47814:48202  if (returndata.length > 0) {... */\n    tag_395:\n        /* \"source/Marketplace.sol\":48177:48189  errorMessage */\n      dup1\n        /* \"source/Marketplace.sol\":48170:48190  revert(errorMessage) */\n      mload(0x40)\n      shl(0xe5, 0x461bcd)\n      dup2\n      mstore\n      0x04\n      add\n      tag_138\n      swap2\n      swap1\n      tag_398\n      jump\t// in\n    tag_309:\n      dup3\n      dup1\n      sload\n      dup3\n      dup3\n      sstore\n      swap1\n      0x00\n      mstore\n      keccak256(0x00, 0x20)\n      swap1\n      dup2\n      add\n      swap3\n      dup3\n      iszero\n      tag_401\n      jumpi\n      swap2\n      0x20\n      mul\n      dup3\n      add\n    tag_400:\n      dup3\n      dup2\n      gt\n      iszero\n      tag_401\n      jumpi\n      dup3\n      mload\n      dup3\n      sload\n      not(sub(shl(0xa0, 0x01), 0x01))\n      and\n      sub(shl(0xa0, 0x01), 0x01)\n      swap1\n      swap2\n      and\n      or\n      dup3\n      sstore\n      0x20\n      swap1\n      swap3\n      add\n      swap2\n      0x01\n      swap1\n      swap2\n      add\n      swap1\n      jump(tag_400)\n    tag_401:\n      pop\n      tag_402\n      swap3\n      swap2\n      pop\n      tag_403\n      jump\t// in\n    tag_402:\n      pop\n      swap1\n      jump\t// out\n    tag_403:\n    tag_404:\n      dup1\n      dup3\n      gt\n      iszero\n      tag_402\n      jumpi\n      0x00\n      dup2\n      sstore\n      0x01\n      add\n      jump(tag_404)\n        /* \"#utility.yul\":14:194   */\n    tag_32:\n        /* \"#utility.yul\":73:79   */\n      0x00\n        /* \"#utility.yul\":126:128   */\n      0x20\n        /* \"#utility.yul\":114:123   */\n      dup3\n        /* \"#utility.yul\":105:112   */\n      dup5\n        /* \"#utility.yul\":101:124   */\n      sub\n        /* \"#utility.yul\":97:129   */\n      slt\n        /* \"#utility.yul\":94:146   */\n      iszero\n      tag_412\n      jumpi\n        /* \"#utility.yul\":142:143   */\n      0x00\n        /* \"#utility.yul\":139:140   */\n      dup1\n        /* \"#utility.yul\":132:144   */\n      revert\n        /* \"#utility.yul\":94:146   */\n    tag_412:\n      pop\n        /* \"#utility.yul\":165:188   */\n      calldataload\n      swap2\n        /* \"#utility.yul\":14:194   */\n      swap1\n      pop\n      jump\t// out\n        /* \"#utility.yul\":422:553   */\n    tag_406:\n      sub(shl(0xa0, 0x01), 0x01)\n        /* \"#utility.yul\":497:528   */\n      dup2\n      and\n        /* \"#utility.yul\":487:529   */\n      dup2\n      eq\n        /* \"#utility.yul\":477:547   */\n      tag_316\n      jumpi\n        /* \"#utility.yul\":543:544   */\n      0x00\n        /* \"#utility.yul\":540:541   */\n      dup1\n        /* \"#utility.yul\":533:545   */\n      revert\n        /* \"#utility.yul\":558:692   */\n    tag_407:\n        /* \"#utility.yul\":626:646   */\n      dup1\n      calldataload\n        /* \"#utility.yul\":655:686   */\n      tag_417\n        /* \"#utility.yul\":626:646   */\n      dup2\n        /* \"#utility.yul\":655:686   */\n      tag_406\n      jump\t// in\n    tag_417:\n        /* \"#utility.yul\":558:692   */\n      swap2\n      swap1\n      pop\n      jump\t// out\n        /* \"#utility.yul\":697:944   */\n    tag_42:\n        /* \"#utility.yul\":756:762   */\n      0x00\n        /* \"#utility.yul\":809:811   */\n      0x20\n        /* \"#utility.yul\":797:806   */\n      dup3\n        /* \"#utility.yul\":788:795   */\n      dup5\n        /* \"#utility.yul\":784:807   */\n      sub\n        /* \"#utility.yul\":780:812   */\n      slt\n        /* \"#utility.yul\":777:829   */\n      iszero\n      tag_419\n      jumpi\n        /* \"#utility.yul\":825:826   */\n      0x00\n        /* \"#utility.yul\":822:823   */\n      dup1\n        /* \"#utility.yul\":815:827   */\n      revert\n        /* \"#utility.yul\":777:829   */\n    tag_419:\n        /* \"#utility.yul\":864:873   */\n      dup2\n        /* \"#utility.yul\":851:874   */\n      calldataload\n        /* \"#utility.yul\":883:914   */\n      tag_193\n        /* \"#utility.yul\":908:913   */\n      dup2\n        /* \"#utility.yul\":883:914   */\n      tag_406\n      jump\t// in\n        /* \"#utility.yul\":949:1981   */\n    tag_53:\n        /* \"#utility.yul\":1174:1176   */\n      0x20\n        /* \"#utility.yul\":1226:1247   */\n      dup1\n      dup3\n      mstore\n        /* \"#utility.yul\":1296:1309   */\n      dup3\n      mload\n        /* \"#utility.yul\":1199:1217   */\n      dup3\n      dup3\n      add\n        /* \"#utility.yul\":1318:1340   */\n      dup2\n      swap1\n      mstore\n        /* \"#utility.yul\":1145:1149   */\n      0x00\n      swap2\n        /* \"#utility.yul\":1174:1176   */\n      swap1\n        /* \"#utility.yul\":1359:1361   */\n      0x40\n      swap1\n        /* \"#utility.yul\":1377:1395   */\n      dup2\n      dup6\n      add\n      swap1\n        /* \"#utility.yul\":1418:1433   */\n      dup7\n      dup5\n      add\n        /* \"#utility.yul\":1145:1149   */\n      dup6\n        /* \"#utility.yul\":1461:1955   */\n    tag_422:\n        /* \"#utility.yul\":1475:1481   */\n      dup3\n        /* \"#utility.yul\":1472:1473   */\n      dup2\n        /* \"#utility.yul\":1469:1482   */\n      lt\n        /* \"#utility.yul\":1461:1955   */\n      iszero\n      tag_424\n      jumpi\n        /* \"#utility.yul\":1534:1547   */\n      dup2\n      mload\n        /* \"#utility.yul\":1572:1581   */\n      dup1\n      mload\n        /* \"#utility.yul\":1560:1582   */\n      dup6\n      mstore\n        /* \"#utility.yul\":1621:1632   */\n      dup7\n      dup2\n      add\n        /* \"#utility.yul\":1615:1633   */\n      mload\n      sub(shl(0xa0, 0x01), 0x01)\n        /* \"#utility.yul\":1709:1730   */\n      swap1\n      dup2\n      and\n        /* \"#utility.yul\":1695:1707   */\n      dup9\n      dup8\n      add\n        /* \"#utility.yul\":1688:1731   */\n      mstore\n        /* \"#utility.yul\":1771:1782   */\n      dup7\n      dup3\n      add\n        /* \"#utility.yul\":1765:1783   */\n      mload\n        /* \"#utility.yul\":1751:1763   */\n      dup8\n      dup8\n      add\n        /* \"#utility.yul\":1744:1784   */\n      mstore\n        /* \"#utility.yul\":1807:1811   */\n      0x60\n        /* \"#utility.yul\":1855:1866   */\n      swap2\n      dup3\n      add\n        /* \"#utility.yul\":1849:1867   */\n      mload\n        /* \"#utility.yul\":1845:1872   */\n      and\n        /* \"#utility.yul\":1831:1843   */\n      swap1\n      dup6\n      add\n        /* \"#utility.yul\":1824:1873   */\n      mstore\n        /* \"#utility.yul\":1902:1906   */\n      0x80\n        /* \"#utility.yul\":1893:1907   */\n      swap1\n      swap4\n      add\n      swap3\n        /* \"#utility.yul\":1930:1945   */\n      swap1\n      dup6\n      add\n      swap1\n        /* \"#utility.yul\":1673:1674   */\n      0x01\n        /* \"#utility.yul\":1490:1499   */\n      add\n        /* \"#utility.yul\":1461:1955   */\n      jump(tag_422)\n    tag_424:\n      pop\n        /* \"#utility.yul\":1972:1975   */\n      swap2\n      swap8\n        /* \"#utility.yul\":949:1981   */\n      swap7\n      pop\n      pop\n      pop\n      pop\n      pop\n      pop\n      pop\n      jump\t// out\n        /* \"#utility.yul\":2168:2826   */\n    tag_75:\n        /* \"#utility.yul\":2339:2341   */\n      0x20\n        /* \"#utility.yul\":2391:2412   */\n      dup1\n      dup3\n      mstore\n        /* \"#utility.yul\":2461:2474   */\n      dup3\n      mload\n        /* \"#utility.yul\":2364:2382   */\n      dup3\n      dup3\n      add\n        /* \"#utility.yul\":2483:2505   */\n      dup2\n      swap1\n      mstore\n        /* \"#utility.yul\":2310:2314   */\n      0x00\n      swap2\n        /* \"#utility.yul\":2339:2341   */\n      swap1\n        /* \"#utility.yul\":2562:2577   */\n      dup5\n      dup3\n      add\n      swap1\n        /* \"#utility.yul\":2536:2538   */\n      0x40\n        /* \"#utility.yul\":2521:2539   */\n      dup6\n      add\n      swap1\n        /* \"#utility.yul\":2310:2314   */\n      dup5\n        /* \"#utility.yul\":2605:2800   */\n    tag_427:\n        /* \"#utility.yul\":2619:2625   */\n      dup2\n        /* \"#utility.yul\":2616:2617   */\n      dup2\n        /* \"#utility.yul\":2613:2626   */\n      lt\n        /* \"#utility.yul\":2605:2800   */\n      iszero\n      tag_429\n      jumpi\n        /* \"#utility.yul\":2684:2697   */\n      dup4\n      mload\n      sub(shl(0xa0, 0x01), 0x01)\n        /* \"#utility.yul\":2680:2719   */\n      and\n        /* \"#utility.yul\":2668:2720   */\n      dup4\n      mstore\n        /* \"#utility.yul\":2775:2790   */\n      swap3\n      dup5\n      add\n      swap3\n        /* \"#utility.yul\":2740:2752   */\n      swap2\n      dup5\n      add\n      swap2\n        /* \"#utility.yul\":2716:2717   */\n      0x01\n        /* \"#utility.yul\":2634:2643   */\n      add\n        /* \"#utility.yul\":2605:2800   */\n      jump(tag_427)\n    tag_429:\n      pop\n        /* \"#utility.yul\":2817:2820   */\n      swap1\n      swap7\n        /* \"#utility.yul\":2168:2826   */\n      swap6\n      pop\n      pop\n      pop\n      pop\n      pop\n      pop\n      jump\t// out\n        /* \"#utility.yul\":3023:3406   */\n    tag_88:\n        /* \"#utility.yul\":3100:3106   */\n      0x00\n        /* \"#utility.yul\":3108:3114   */\n      dup1\n        /* \"#utility.yul\":3116:3122   */\n      0x00\n        /* \"#utility.yul\":3169:3171   */\n      0x60\n        /* \"#utility.yul\":3157:3166   */\n      dup5\n        /* \"#utility.yul\":3148:3155   */\n      dup7\n        /* \"#utility.yul\":3144:3167   */\n      sub\n        /* \"#utility.yul\":3140:3172   */\n      slt\n        /* \"#utility.yul\":3137:3189   */\n      iszero\n      tag_432\n      jumpi\n        /* \"#utility.yul\":3185:3186   */\n      0x00\n        /* \"#utility.yul\":3182:3183   */\n      dup1\n        /* \"#utility.yul\":3175:3187   */\n      revert\n        /* \"#utility.yul\":3137:3189   */\n    tag_432:\n        /* \"#utility.yul\":3221:3230   */\n      dup4\n        /* \"#utility.yul\":3208:3231   */\n      calldataload\n        /* \"#utility.yul\":3198:3231   */\n      swap3\n      pop\n        /* \"#utility.yul\":3278:3280   */\n      0x20\n        /* \"#utility.yul\":3267:3276   */\n      dup5\n        /* \"#utility.yul\":3263:3281   */\n      add\n        /* \"#utility.yul\":3250:3282   */\n      calldataload\n        /* \"#utility.yul\":3240:3282   */\n      swap2\n      pop\n        /* \"#utility.yul\":3332:3334   */\n      0x40\n        /* \"#utility.yul\":3321:3330   */\n      dup5\n        /* \"#utility.yul\":3317:3335   */\n      add\n        /* \"#utility.yul\":3304:3336   */\n      calldataload\n        /* \"#utility.yul\":3345:3376   */\n      tag_433\n        /* \"#utility.yul\":3370:3375   */\n      dup2\n        /* \"#utility.yul\":3345:3376   */\n      tag_406\n      jump\t// in\n    tag_433:\n        /* \"#utility.yul\":3395:3400   */\n      dup1\n        /* \"#utility.yul\":3385:3400   */\n      swap2\n      pop\n      pop\n        /* \"#utility.yul\":3023:3406   */\n      swap3\n      pop\n      swap3\n      pop\n      swap3\n      jump\t// out\n        /* \"#utility.yul\":3619:3746   */\n    tag_288:\n        /* \"#utility.yul\":3680:3690   */\n      0x4e487b71\n        /* \"#utility.yul\":3675:3678   */\n      0xe0\n        /* \"#utility.yul\":3671:3691   */\n      shl\n        /* \"#utility.yul\":3668:3669   */\n      0x00\n        /* \"#utility.yul\":3661:3692   */\n      mstore\n        /* \"#utility.yul\":3711:3715   */\n      0x41\n        /* \"#utility.yul\":3708:3709   */\n      0x04\n        /* \"#utility.yul\":3701:3716   */\n      mstore\n        /* \"#utility.yul\":3735:3739   */\n      0x24\n        /* \"#utility.yul\":3732:3733   */\n      0x00\n        /* \"#utility.yul\":3725:3740   */\n      revert\n        /* \"#utility.yul\":3751:4872   */\n    tag_118:\n        /* \"#utility.yul\":3835:3841   */\n      0x00\n        /* \"#utility.yul\":3866:3868   */\n      0x20\n        /* \"#utility.yul\":3909:3911   */\n      dup1\n        /* \"#utility.yul\":3897:3906   */\n      dup4\n        /* \"#utility.yul\":3888:3895   */\n      dup6\n        /* \"#utility.yul\":3884:3907   */\n      sub\n        /* \"#utility.yul\":3880:3912   */\n      slt\n        /* \"#utility.yul\":3877:3929   */\n      iszero\n      tag_437\n      jumpi\n        /* \"#utility.yul\":3925:3926   */\n      0x00\n        /* \"#utility.yul\":3922:3923   */\n      dup1\n        /* \"#utility.yul\":3915:3927   */\n      revert\n        /* \"#utility.yul\":3877:3929   */\n    tag_437:\n        /* \"#utility.yul\":3965:3974   */\n      dup3\n        /* \"#utility.yul\":3952:3975   */\n      calldataload\n        /* \"#utility.yul\":3994:4012   */\n      0xffffffffffffffff\n        /* \"#utility.yul\":4035:4037   */\n      dup1\n        /* \"#utility.yul\":4027:4033   */\n      dup3\n        /* \"#utility.yul\":4024:4038   */\n      gt\n        /* \"#utility.yul\":4021:4055   */\n      iszero\n      tag_438\n      jumpi\n        /* \"#utility.yul\":4051:4052   */\n      0x00\n        /* \"#utility.yul\":4048:4049   */\n      dup1\n        /* \"#utility.yul\":4041:4053   */\n      revert\n        /* \"#utility.yul\":4021:4055   */\n    tag_438:\n        /* \"#utility.yul\":4089:4095   */\n      dup2\n        /* \"#utility.yul\":4078:4087   */\n      dup6\n        /* \"#utility.yul\":4074:4096   */\n      add\n        /* \"#utility.yul\":4064:4096   */\n      swap2\n      pop\n        /* \"#utility.yul\":4134:4141   */\n      dup6\n        /* \"#utility.yul\":4127:4131   */\n      0x1f\n        /* \"#utility.yul\":4123:4125   */\n      dup4\n        /* \"#utility.yul\":4119:4132   */\n      add\n        /* \"#utility.yul\":4115:4142   */\n      slt\n        /* \"#utility.yul\":4105:4160   */\n      tag_439\n      jumpi\n        /* \"#utility.yul\":4156:4157   */\n      0x00\n        /* \"#utility.yul\":4153:4154   */\n      dup1\n        /* \"#utility.yul\":4146:4158   */\n      revert\n        /* \"#utility.yul\":4105:4160   */\n    tag_439:\n        /* \"#utility.yul\":4192:4194   */\n      dup2\n        /* \"#utility.yul\":4179:4195   */\n      calldataload\n        /* \"#utility.yul\":4214:4216   */\n      dup2\n        /* \"#utility.yul\":4210:4212   */\n      dup2\n        /* \"#utility.yul\":4207:4217   */\n      gt\n        /* \"#utility.yul\":4204:4240   */\n      iszero\n      tag_441\n      jumpi\n        /* \"#utility.yul\":4220:4238   */\n      tag_441\n      tag_288\n      jump\t// in\n    tag_441:\n        /* \"#utility.yul\":4266:4268   */\n      dup1\n        /* \"#utility.yul\":4263:4264   */\n      0x05\n        /* \"#utility.yul\":4259:4269   */\n      shl\n        /* \"#utility.yul\":4298:4300   */\n      0x40\n        /* \"#utility.yul\":4292:4301   */\n      mload\n        /* \"#utility.yul\":4361:4363   */\n      0x1f\n        /* \"#utility.yul\":4357:4364   */\n      not\n        /* \"#utility.yul\":4352:4354   */\n      0x3f\n        /* \"#utility.yul\":4348:4350   */\n      dup4\n        /* \"#utility.yul\":4344:4355   */\n      add\n        /* \"#utility.yul\":4340:4365   */\n      and\n        /* \"#utility.yul\":4332:4338   */\n      dup2\n        /* \"#utility.yul\":4328:4366   */\n      add\n        /* \"#utility.yul\":4416:4422   */\n      dup2\n        /* \"#utility.yul\":4404:4414   */\n      dup2\n        /* \"#utility.yul\":4401:4423   */\n      lt\n        /* \"#utility.yul\":4396:4398   */\n      dup6\n        /* \"#utility.yul\":4384:4394   */\n      dup3\n        /* \"#utility.yul\":4381:4399   */\n      gt\n        /* \"#utility.yul\":4378:4424   */\n      or\n        /* \"#utility.yul\":4375:4447   */\n      iszero\n      tag_443\n      jumpi\n        /* \"#utility.yul\":4427:4445   */\n      tag_443\n      tag_288\n      jump\t// in\n    tag_443:\n        /* \"#utility.yul\":4463:4465   */\n      0x40\n        /* \"#utility.yul\":4456:4478   */\n      mstore\n        /* \"#utility.yul\":4513:4531   */\n      swap2\n      dup3\n      mstore\n        /* \"#utility.yul\":4547:4562   */\n      dup5\n      dup3\n      add\n      swap3\n      pop\n        /* \"#utility.yul\":4589:4600   */\n      dup4\n      dup2\n      add\n        /* \"#utility.yul\":4585:4605   */\n      dup6\n      add\n      swap2\n        /* \"#utility.yul\":4617:4636   */\n      dup9\n      dup4\n      gt\n        /* \"#utility.yul\":4614:4653   */\n      iszero\n      tag_444\n      jumpi\n        /* \"#utility.yul\":4649:4650   */\n      0x00\n        /* \"#utility.yul\":4646:4647   */\n      dup1\n        /* \"#utility.yul\":4639:4651   */\n      revert\n        /* \"#utility.yul\":4614:4653   */\n    tag_444:\n        /* \"#utility.yul\":4673:4684   */\n      swap4\n      dup6\n      add\n      swap4\n        /* \"#utility.yul\":4693:4841   */\n    tag_445:\n        /* \"#utility.yul\":4709:4715   */\n      dup3\n        /* \"#utility.yul\":4704:4707   */\n      dup6\n        /* \"#utility.yul\":4701:4716   */\n      lt\n        /* \"#utility.yul\":4693:4841   */\n      iszero\n      tag_447\n      jumpi\n        /* \"#utility.yul\":4775:4798   */\n      tag_448\n        /* \"#utility.yul\":4794:4797   */\n      dup6\n        /* \"#utility.yul\":4775:4798   */\n      tag_407\n      jump\t// in\n    tag_448:\n        /* \"#utility.yul\":4763:4799   */\n      dup5\n      mstore\n        /* \"#utility.yul\":4726:4738   */\n      swap4\n      dup6\n      add\n      swap4\n        /* \"#utility.yul\":4819:4831   */\n      swap3\n      dup6\n      add\n      swap3\n        /* \"#utility.yul\":4693:4841   */\n      jump(tag_445)\n    tag_447:\n        /* \"#utility.yul\":4860:4866   */\n      swap9\n        /* \"#utility.yul\":3751:4872   */\n      swap8\n      pop\n      pop\n      pop\n      pop\n      pop\n      pop\n      pop\n      pop\n      jump\t// out\n        /* \"#utility.yul\":5591:5775   */\n    tag_147:\n        /* \"#utility.yul\":5661:5667   */\n      0x00\n        /* \"#utility.yul\":5714:5716   */\n      0x20\n        /* \"#utility.yul\":5702:5711   */\n      dup3\n        /* \"#utility.yul\":5693:5700   */\n      dup5\n        /* \"#utility.yul\":5689:5712   */\n      sub\n        /* \"#utility.yul\":5685:5717   */\n      slt\n        /* \"#utility.yul\":5682:5734   */\n      iszero\n      tag_452\n      jumpi\n        /* \"#utility.yul\":5730:5731   */\n      0x00\n        /* \"#utility.yul\":5727:5728   */\n      dup1\n        /* \"#utility.yul\":5720:5732   */\n      revert\n        /* \"#utility.yul\":5682:5734   */\n    tag_452:\n      pop\n        /* \"#utility.yul\":5753:5769   */\n      mload\n      swap2\n        /* \"#utility.yul\":5591:5775   */\n      swap1\n      pop\n      jump\t// out\n        /* \"#utility.yul\":6937:7312   */\n    tag_173:\n      sub(shl(0xa0, 0x01), 0x01)\n        /* \"#utility.yul\":7195:7210   */\n      swap4\n      dup5\n      and\n        /* \"#utility.yul\":7177:7211   */\n      dup2\n      mstore\n        /* \"#utility.yul\":7247:7262   */\n      swap2\n      swap1\n      swap3\n      and\n        /* \"#utility.yul\":7242:7244   */\n      0x20\n        /* \"#utility.yul\":7227:7245   */\n      dup3\n      add\n        /* \"#utility.yul\":7220:7263   */\n      mstore\n        /* \"#utility.yul\":7294:7296   */\n      0x40\n        /* \"#utility.yul\":7279:7297   */\n      dup2\n      add\n        /* \"#utility.yul\":7272:7306   */\n      swap2\n      swap1\n      swap2\n      mstore\n        /* \"#utility.yul\":7127:7129   */\n      0x60\n        /* \"#utility.yul\":7112:7130   */\n      add\n      swap1\n        /* \"#utility.yul\":6937:7312   */\n      jump\t// out\n        /* \"#utility.yul\":9692:9819   */\n    tag_248:\n        /* \"#utility.yul\":9753:9763   */\n      0x4e487b71\n        /* \"#utility.yul\":9748:9751   */\n      0xe0\n        /* \"#utility.yul\":9744:9764   */\n      shl\n        /* \"#utility.yul\":9741:9742   */\n      0x00\n        /* \"#utility.yul\":9734:9765   */\n      mstore\n        /* \"#utility.yul\":9784:9788   */\n      0x32\n        /* \"#utility.yul\":9781:9782   */\n      0x04\n        /* \"#utility.yul\":9774:9789   */\n      mstore\n        /* \"#utility.yul\":9808:9812   */\n      0x24\n        /* \"#utility.yul\":9805:9806   */\n      0x00\n        /* \"#utility.yul\":9798:9813   */\n      revert\n        /* \"#utility.yul\":9824:9951   */\n    tag_408:\n        /* \"#utility.yul\":9885:9895   */\n      0x4e487b71\n        /* \"#utility.yul\":9880:9883   */\n      0xe0\n        /* \"#utility.yul\":9876:9896   */\n      shl\n        /* \"#utility.yul\":9873:9874   */\n      0x00\n        /* \"#utility.yul\":9866:9897   */\n      mstore\n        /* \"#utility.yul\":9916:9920   */\n      0x11\n        /* \"#utility.yul\":9913:9914   */\n      0x04\n        /* \"#utility.yul\":9906:9921   */\n      mstore\n        /* \"#utility.yul\":9940:9944   */\n      0x24\n        /* \"#utility.yul\":9937:9938   */\n      0x00\n        /* \"#utility.yul\":9930:9945   */\n      revert\n        /* \"#utility.yul\":9956:10091   */\n    tag_252:\n        /* \"#utility.yul\":9995:9998   */\n      0x00\n        /* \"#utility.yul\":10016:10033   */\n      0x01\n      dup3\n      add\n        /* \"#utility.yul\":10013:10056   */\n      tag_467\n      jumpi\n        /* \"#utility.yul\":10036:10054   */\n      tag_467\n      tag_408\n      jump\t// in\n    tag_467:\n      pop\n        /* \"#utility.yul\":10083:10084   */\n      0x01\n        /* \"#utility.yul\":10072:10085   */\n      add\n      swap1\n        /* \"#utility.yul\":9956:10091   */\n      jump\t// out\n        /* \"#utility.yul\":10096:10347   */\n    tag_258:\n        /* \"#utility.yul\":10166:10172   */\n      0x00\n        /* \"#utility.yul\":10219:10221   */\n      0x20\n        /* \"#utility.yul\":10207:10216   */\n      dup3\n        /* \"#utility.yul\":10198:10205   */\n      dup5\n        /* \"#utility.yul\":10194:10217   */\n      sub\n        /* \"#utility.yul\":10190:10222   */\n      slt\n        /* \"#utility.yul\":10187:10239   */\n      iszero\n      tag_469\n      jumpi\n        /* \"#utility.yul\":10235:10236   */\n      0x00\n        /* \"#utility.yul\":10232:10233   */\n      dup1\n        /* \"#utility.yul\":10225:10237   */\n      revert\n        /* \"#utility.yul\":10187:10239   */\n    tag_469:\n        /* \"#utility.yul\":10267:10276   */\n      dup2\n        /* \"#utility.yul\":10261:10277   */\n      mload\n        /* \"#utility.yul\":10286:10317   */\n      tag_193\n        /* \"#utility.yul\":10311:10316   */\n      dup2\n        /* \"#utility.yul\":10286:10317   */\n      tag_406\n      jump\t// in\n        /* \"#utility.yul\":12688:12965   */\n    tag_329:\n        /* \"#utility.yul\":12755:12761   */\n      0x00\n        /* \"#utility.yul\":12808:12810   */\n      0x20\n        /* \"#utility.yul\":12796:12805   */\n      dup3\n        /* \"#utility.yul\":12787:12794   */\n      dup5\n        /* \"#utility.yul\":12783:12806   */\n      sub\n        /* \"#utility.yul\":12779:12811   */\n      slt\n        /* \"#utility.yul\":12776:12828   */\n      iszero\n      tag_478\n      jumpi\n        /* \"#utility.yul\":12824:12825   */\n      0x00\n        /* \"#utility.yul\":12821:12822   */\n      dup1\n        /* \"#utility.yul\":12814:12826   */\n      revert\n        /* \"#utility.yul\":12776:12828   */\n    tag_478:\n        /* \"#utility.yul\":12856:12865   */\n      dup2\n        /* \"#utility.yul\":12850:12866   */\n      mload\n        /* \"#utility.yul\":12909:12914   */\n      dup1\n        /* \"#utility.yul\":12902:12915   */\n      iszero\n        /* \"#utility.yul\":12895:12916   */\n      iszero\n        /* \"#utility.yul\":12888:12893   */\n      dup2\n        /* \"#utility.yul\":12885:12917   */\n      eq\n        /* \"#utility.yul\":12875:12935   */\n      tag_193\n      jumpi\n        /* \"#utility.yul\":12931:12932   */\n      0x00\n        /* \"#utility.yul\":12928:12929   */\n      dup1\n        /* \"#utility.yul\":12921:12933   */\n      revert\n        /* \"#utility.yul\":12970:13187   */\n    tag_339:\n        /* \"#utility.yul\":13010:13011   */\n      0x00\n        /* \"#utility.yul\":13036:13037   */\n      dup3\n        /* \"#utility.yul\":13026:13158   */\n      tag_481\n      jumpi\n        /* \"#utility.yul\":13080:13090   */\n      0x4e487b71\n        /* \"#utility.yul\":13075:13078   */\n      0xe0\n        /* \"#utility.yul\":13071:13091   */\n      shl\n        /* \"#utility.yul\":13068:13069   */\n      0x00\n        /* \"#utility.yul\":13061:13092   */\n      mstore\n        /* \"#utility.yul\":13115:13119   */\n      0x12\n        /* \"#utility.yul\":13112:13113   */\n      0x04\n        /* \"#utility.yul\":13105:13120   */\n      mstore\n        /* \"#utility.yul\":13143:13147   */\n      0x24\n        /* \"#utility.yul\":13140:13141   */\n      0x00\n        /* \"#utility.yul\":13133:13148   */\n      revert\n        /* \"#utility.yul\":13026:13158   */\n    tag_481:\n      pop\n        /* \"#utility.yul\":13172:13181   */\n      div\n      swap1\n        /* \"#utility.yul\":12970:13187   */\n      jump\t// out\n        /* \"#utility.yul\":13192:13360   */\n    tag_342:\n        /* \"#utility.yul\":13265:13274   */\n      dup1\n      dup3\n      mul\n        /* \"#utility.yul\":13296:13305   */\n      dup2\n      iszero\n        /* \"#utility.yul\":13313:13328   */\n      dup3\n      dup3\n      div\n        /* \"#utility.yul\":13307:13329   */\n      dup5\n      eq\n        /* \"#utility.yul\":13293:13330   */\n      or\n        /* \"#utility.yul\":13283:13354   */\n      tag_337\n      jumpi\n        /* \"#utility.yul\":13334:13352   */\n      tag_337\n      tag_408\n      jump\t// in\n        /* \"#utility.yul\":13365:13493   */\n    tag_345:\n        /* \"#utility.yul\":13432:13441   */\n      dup2\n      dup2\n      sub\n        /* \"#utility.yul\":13453:13464   */\n      dup2\n      dup2\n      gt\n        /* \"#utility.yul\":13450:13487   */\n      iszero\n      tag_337\n      jumpi\n        /* \"#utility.yul\":13467:13485   */\n      tag_337\n      tag_408\n      jump\t// in\n        /* \"#utility.yul\":14677:14927   */\n    tag_409:\n        /* \"#utility.yul\":14762:14763   */\n      0x00\n        /* \"#utility.yul\":14772:14885   */\n    tag_492:\n        /* \"#utility.yul\":14786:14792   */\n      dup4\n        /* \"#utility.yul\":14783:14784   */\n      dup2\n        /* \"#utility.yul\":14780:14793   */\n      lt\n        /* \"#utility.yul\":14772:14885   */\n      iszero\n      tag_494\n      jumpi\n        /* \"#utility.yul\":14862:14873   */\n      dup2\n      dup2\n      add\n        /* \"#utility.yul\":14856:14874   */\n      mload\n        /* \"#utility.yul\":14843:14854   */\n      dup4\n      dup3\n      add\n        /* \"#utility.yul\":14836:14875   */\n      mstore\n        /* \"#utility.yul\":14808:14810   */\n      0x20\n        /* \"#utility.yul\":14801:14811   */\n      add\n        /* \"#utility.yul\":14772:14885   */\n      jump(tag_492)\n    tag_494:\n      pop\n      pop\n        /* \"#utility.yul\":14919:14920   */\n      0x00\n        /* \"#utility.yul\":14901:14917   */\n      swap2\n      add\n        /* \"#utility.yul\":14894:14921   */\n      mstore\n        /* \"#utility.yul\":14677:14927   */\n      jump\t// out\n        /* \"#utility.yul\":14932:15219   */\n    tag_376:\n        /* \"#utility.yul\":15061:15064   */\n      0x00\n        /* \"#utility.yul\":15099:15105   */\n      dup3\n        /* \"#utility.yul\":15093:15106   */\n      mload\n        /* \"#utility.yul\":15115:15181   */\n      tag_496\n        /* \"#utility.yul\":15174:15180   */\n      dup2\n        /* \"#utility.yul\":15169:15172   */\n      dup5\n        /* \"#utility.yul\":15162:15166   */\n      0x20\n        /* \"#utility.yul\":15154:15160   */\n      dup8\n        /* \"#utility.yul\":15150:15167   */\n      add\n        /* \"#utility.yul\":15115:15181   */\n      tag_409\n      jump\t// in\n    tag_496:\n        /* \"#utility.yul\":15197:15213   */\n      swap2\n      swap1\n      swap2\n      add\n      swap3\n        /* \"#utility.yul\":14932:15219   */\n      swap2\n      pop\n      pop\n      jump\t// out\n        /* \"#utility.yul\":15582:15978   */\n    tag_398:\n        /* \"#utility.yul\":15731:15733   */\n      0x20\n        /* \"#utility.yul\":15720:15729   */\n      dup2\n        /* \"#utility.yul\":15713:15734   */\n      mstore\n        /* \"#utility.yul\":15694:15698   */\n      0x00\n        /* \"#utility.yul\":15763:15769   */\n      dup3\n        /* \"#utility.yul\":15757:15770   */\n      mload\n        /* \"#utility.yul\":15806:15812   */\n      dup1\n        /* \"#utility.yul\":15801:15803   */\n      0x20\n        /* \"#utility.yul\":15790:15799   */\n      dup5\n        /* \"#utility.yul\":15786:15804   */\n      add\n        /* \"#utility.yul\":15779:15813   */\n      mstore\n        /* \"#utility.yul\":15822:15901   */\n      tag_499\n        /* \"#utility.yul\":15894:15900   */\n      dup2\n        /* \"#utility.yul\":15889:15891   */\n      0x40\n        /* \"#utility.yul\":15878:15887   */\n      dup6\n        /* \"#utility.yul\":15874:15892   */\n      add\n        /* \"#utility.yul\":15869:15871   */\n      0x20\n        /* \"#utility.yul\":15861:15867   */\n      dup8\n        /* \"#utility.yul\":15857:15872   */\n      add\n        /* \"#utility.yul\":15822:15901   */\n      tag_409\n      jump\t// in\n    tag_499:\n        /* \"#utility.yul\":15962:15964   */\n      0x1f\n        /* \"#utility.yul\":15941:15956   */\n      add\n      not(0x1f)\n        /* \"#utility.yul\":15937:15966   */\n      and\n        /* \"#utility.yul\":15922:15967   */\n      swap2\n      swap1\n      swap2\n      add\n        /* \"#utility.yul\":15969:15971   */\n      0x40\n        /* \"#utility.yul\":15918:15972   */\n      add\n      swap3\n        /* \"#utility.yul\":15582:15978   */\n      swap2\n      pop\n      pop\n      jump\t// out\n\n    auxdata: 0xa26469706673582212209dba4f57c07520b17944beb38c6ba8148df32ee9e47df738d03d4e993a9cfb6664736f6c63430008120033\n}\n",
				"bytecode": {
					"linkReferences": {},
					"object": "6080604052600160025560006003553480156200001b57600080fd5b506040516200202e3803806200202e8339810160408190526200003e916200018c565b620000493362000088565b600180546001600160a01b0319166001600160a01b038516179055600382905580516200007e906007906020840190620000d8565b505050506200027e565b600080546001600160a01b038381166001600160a01b0319831681178455604051919092169283917f8be0079c531659141344cd1fd0a4f28419497f9722a3daafe3b4186f6b6457e09190a35050565b82805482825590600052602060002090810192821562000130579160200282015b828111156200013057825182546001600160a01b0319166001600160a01b03909116178255602090920191600190910190620000f9565b506200013e92915062000142565b5090565b5b808211156200013e576000815560010162000143565b80516001600160a01b03811681146200017157600080fd5b919050565b634e487b7160e01b600052604160045260246000fd5b600080600060608486031215620001a257600080fd5b620001ad8462000159565b60208581015160408701519295509350906001600160401b0380821115620001d457600080fd5b818701915087601f830112620001e957600080fd5b815181811115620001fe57620001fe62000176565b8060051b604051601f19603f8301168101818110858211171562000226576200022662000176565b60405291825284820192508381018501918a8311156200024557600080fd5b938501935b828510156200026e576200025e8562000159565b845293850193928501926200024a565b8096505050505050509250925092565b611da0806200028e6000396000f3fe60806040526004361061014b5760003560e01c80637c237eea116100b6578063e4997dc51161006f578063e4997dc51461038a578063e9e4e160146103aa578063f2fde38b146103ca578063fcf984a9146103ea578063fe575a871461040a578063ff7f0cf91461044357600080fd5b80637c237eea146102fb5780638da5cb5b1461031b578063952977f514610339578063a096c5a21461034e578063b42a275e14610362578063d55a34e41461037557600080fd5b8063512ddcf911610108578063512ddcf91461024b57806351ed82881461026b57806354fd4d501461027e57806369c5735214610294578063715018a6146102b6578063785fa7ce146102cb57600080fd5b8063047a5d431461015057806308cfbc19146101725780630ecb93c0146101af57806310603023146101cf57806319c8c1c5146101ef578063476caa701461021d575b600080fd5b34801561015c57600080fd5b5061017061016b3660046119be565b610458565b005b34801561017e57600080fd5b50600154610192906001600160a01b031681565b6040516001600160a01b0390911681526020015b60405180910390f35b3480156101bb57600080fd5b506101706101ca3660046119fc565b6108ee565b3480156101db57600080fd5b506101706101ea3660046119be565b61091a565b3480156101fb57600080fd5b5061021061020a3660046119fc565b50606090565b6040516101a69190611a19565b34801561022957600080fd5b5061023d6102383660046119fc565b610927565b6040519081526020016101a6565b34801561025757600080fd5b506101706102663660046119be565b61099b565b6101706102793660046119be565b610acf565b34801561028a57600080fd5b5061023d60025481565b3480156102a057600080fd5b506102a9610dd9565b6040516101a69190611a89565b3480156102c257600080fd5b50610170610e3b565b3480156102d757600080fd5b506102eb6102e63660046119fc565b610e4f565b60405190151581526020016101a6565b34801561030757600080fd5b50610170610316366004611ad6565b610eb3565b34801561032757600080fd5b506000546001600160a01b0316610192565b34801561034557600080fd5b5060035461023d565b34801561035a57600080fd5b506060610210565b34801561036e57600080fd5b504761023d565b34801561038157600080fd5b506102106111d6565b34801561039657600080fd5b506101706103a53660046119fc565b611309565b3480156103b657600080fd5b506101706103c5366004611b25565b611332565b3480156103d657600080fd5b506101706103e53660046119fc565b611351565b3480156103f657600080fd5b506101706104053660046119fc565b6113ca565b34801561041657600080fd5b506102eb6104253660046119fc565b6001600160a01b031660009081526006602052604090205460ff1690565b34801561044f57600080fd5b506101706114d3565b60008181526004602052604090205460ff1615156001146104bb5760405162461bcd60e51b815260206004820152601860248201527754686973204e4654206973206e6f7420666f722073616c6560401b60448201526064015b60405180910390fd5b6000818152600560205260409020600301546001600160a01b03166105225760405162461bcd60e51b815260206004820181905260248201527f5468697320746f6b656e2073656c6c6564206279204e617469766520636f696e60448201526064016104b2565b6000818152600560205260408082206003015490516370a0823160e01b81523360048201526001600160a01b03909116919082906370a0823190602401602060405180830381865afa15801561057c573d6000803e3d6000fd5b505050506040513d601f19601f820116820180604052508101906105a09190611bea565b6000848152600560205260409020600201549091508110156106215760405162461bcd60e51b815260206004820152603460248201527f596f7520646f206e6f74206861766520656e6f75676820746f6b656e73206f6e60448201527320796f75722062616c616e636520746f2070617960601b60648201526084016104b2565b604051636eb1769f60e11b81523360048201523060248201526000906001600160a01b0384169063dd62ed3e90604401602060405180830381865afa15801561066e573d6000803e3d6000fd5b505050506040513d601f19601f820116820180604052508101906106929190611bea565b60008581526005602052604090206002015490915081101561071c5760405162461bcd60e51b815260206004820152603a60248201527f596f7520646964206e6f7420616c6c6f772074686520636f6e7472616374207460448201527f6f2073656e642074686520707572636861736520616d6f756e7400000000000060648201526084016104b2565b6000848152600560205260408120600201549061074561073d836064611541565b600354611556565b90506107596000546001600160a01b031690565b6000878152600560205260409020600101546001600160a01b03918216911603610781575060005b600061078d8383611562565b6000888152600560205260409020600101549091506107bb906001600160a01b03888116913391168461156e565b81156107e9576107e9336107d76000546001600160a01b031690565b6001600160a01b03891691908561156e565b6001546040516323b872dd60e01b81526001600160a01b03909116906323b872dd9061081d90309033908c90600401611c03565b600060405180830381600087803b15801561083757600080fd5b505af115801561084b573d6000803e3d6000fd5b5050506000888152600460205260409020805460ff191690555061086e876115c6565b6000878152600560209081526040918290206001810154600382015460029092015484516001600160a01b03928316815233948101949094528385018c905291166060830152608082015290517fd369fdcfeb128f60117661ebd8f220b7265c0a04fee0e9905eb8c6ab2767b9e59181900360a00190a150505050505050565b6108f6611638565b6001600160a01b03166000908152600660205260409020805460ff19166001179055565b610922611638565b600355565b6040516370a0823160e01b815230600482015260009082906001600160a01b038216906370a0823190602401602060405180830381865afa158015610970573d6000803e3d6000fd5b505050506040513d601f19601f820116820180604052508101906109949190611bea565b9392505050565b6000546001600160a01b03163314610a0d576000818152600560205260409020600101546001600160a01b03163314610a0d5760405162461bcd60e51b8152602060048201526014602482015273151a1a5cc81a5cc81b9bdd081e5bdd5c8813919560621b60448201526064016104b2565b6001546040516323b872dd60e01b81526001600160a01b03909116906323b872dd90610a4190309033908690600401611c03565b600060405180830381600087803b158015610a5b57600080fd5b505af1158015610a6f573d6000803e3d6000fd5b5050506000828152600460205260409020805460ff1916905550610a92816115c6565b60408051338152602081018390527f8bf8e8f2f9d065b620f4e940d87122b03dd779d0ffd6a1590572e1e6d0416bef91015b60405180910390a150565b60008181526004602052604090205460ff161515600114610b2d5760405162461bcd60e51b815260206004820152601860248201527754686973204e4654206973206e6f7420666f722073616c6560401b60448201526064016104b2565b600081815260056020526040902060020154341015610b9d5760405162461bcd60e51b815260206004820152602660248201527f596f752068617665206e6f74207061696420656e6f75676820666f722074686960448201526573206974656d60d01b60648201526084016104b2565b6000818152600560205260409020600301546001600160a01b031615610c055760405162461bcd60e51b815260206004820152601a60248201527f5468697320746f6b656e2073656c6c656420627920455243323000000000000060448201526064016104b2565b346000610c1661073d836064611541565b9050610c2a6000546001600160a01b031690565b6000848152600560205260409020600101546001600160a01b03918216911603610c52575060005b6000610c5e8383611562565b6000858152600560205260408082206001015490519293506001600160a01b03169183156108fc0291849190818181858888f19350505050158015610ca7573d6000803e3d6000fd5b508115610ce957600080546040516001600160a01b039091169184156108fc02918591818181858888f19350505050158015610ce7573d6000803e3d6000fd5b505b6001546040516323b872dd60e01b81526001600160a01b03909116906323b872dd90610d1d90309033908990600401611c03565b600060405180830381600087803b158015610d3757600080fd5b505af1158015610d4b573d6000803e3d6000fd5b5050506000858152600460209081526040808320805460ff191690556005825291829020600181015460029091015483516001600160a01b039092168252339282019290925291820187905260608201527f89f5adc174562e07c9c9b1cae7109bbecb21cf9d1b2847e550042b8653c54a0e915060800160405180910390a1610dd3846115c6565b50505050565b60606007805480602002602001604051908101604052809291908181526020018280548015610e3157602002820191906000526020600020905b81546001600160a01b03168152600190910190602001808311610e13575b5050505050905090565b610e43611638565b610e4d6000611692565b565b6000805b600754811015610eaa5760078181548110610e7057610e70611c27565b6000918252602090912001546001600160a01b0390811690841603610e985750600192915050565b80610ea281611c53565b915050610e53565b50600092915050565b6001546040516331a9108f60e11b81526004810185905233916001600160a01b031690636352211e90602401602060405180830381865afa158015610efc573d6000803e3d6000fd5b505050506040513d601f19601f82011682018060405250810190610f209190611c6c565b6001600160a01b031614610f765760405162461bcd60e51b815260206004820152601960248201527f596f7520646f6e2774206f776e207468697320746f6b656e210000000000000060448201526064016104b2565b60008211610fc65760405162461bcd60e51b815260206004820152601f60248201527f5072696365206d7573742062652067726561746572207468616e207a65726f0060448201526064016104b2565b6001600160a01b0381161561104457610fde81610e4f565b15156001146110445760405162461bcd60e51b815260206004820152602c60248201527f54686973204552433230206e6f7420616c6c6f7765642061732061207472616460448201526b696e672063757272656e637960a01b60648201526084016104b2565b6000838152600460208181526040808420805460ff191660019081179091558151608081018352888152338185018181528285018a81526001600160a01b038a8116606086019081528d8b526005909852988690209351845590518385018054918a166001600160a01b03199283161790559051600284015594516003909201805492881692909516919091179093555490516323b872dd60e01b81529316926323b872dd926110f992913091899101611c03565b600060405180830381600087803b15801561111357600080fd5b505af1158015611127573d6000803e3d6000fd5b5050506001600160a01b03821690506111935760408051338152602081018590526001600160a01b03831691810191909152606081018390527f0a4292e75f7eafde90821610c4cabfc298540c274b50a7ea784a529a2b8a4a6f906080015b60405180910390a1505050565b60408051338152602081018590529081018390527f4524387b4311078b7531910a140a6975002b10aca4cf12255e98da8f1ff1b35b90606001611186565b505050565b60085460609060009067ffffffffffffffff8111156111f7576111f7611b0f565b60405190808252806020026020018201604052801561124957816020015b6040805160808101825260008082526020808301829052928201819052606082015282526000199092019101816112155790505b50905060005b6008548110156113035760006008828154811061126e5761126e611c27565b600091825260208083209091015460408051608081018252828152828552600580855282862060018101546001600160a01b039081168488015260028201549484019490945295849052909352600390930154909216606082015284519192509081908590859081106112e3576112e3611c27565b6020026020010181905250505080806112fb90611c53565b91505061124f565b50919050565b611311611638565b6001600160a01b03166000908152600660205260409020805460ff19169055565b61133a611638565b805161134d906007906020840190611944565b5050565b611359611638565b6001600160a01b0381166113be5760405162461bcd60e51b815260206004820152602660248201527f4f776e61626c653a206e6577206f776e657220697320746865207a65726f206160448201526564647265737360d01b60648201526084016104b2565b6113c781611692565b50565b6113d2611638565b6040516370a0823160e01b815230600482015281906000906001600160a01b038316906370a0823190602401602060405180830381865afa15801561141b573d6000803e3d6000fd5b505050506040513d601f19601f8201168201806040525081019061143f9190611bea565b9050816001600160a01b031663a9059cbb6114626000546001600160a01b031690565b6040516001600160e01b031960e084901b1681526001600160a01b039091166004820152602481018490526044016020604051808303816000875af11580156114af573d6000803e3d6000fd5b505050506040513d601f19601f82011682018060405250810190610dd39190611c89565b6114db611638565b6040514790339082156108fc029083906000818181858888f1935050505015801561150a573d6000803e3d6000fd5b5060408051338152602081018390527fd59f809f461fb2e2ca77f931dc43a9aaaa4295b0ed3c8e6adc04d0aab43eeb479101610ac4565b600061154d8284611cab565b90505b92915050565b600061154d8284611ccd565b600061154d8284611ce4565b610dd3846323b872dd60e01b85858560405160240161158f93929190611c03565b60408051601f198184030181529190526020810180516001600160e01b03166001600160e01b0319909316929092179091526116e2565b6040805160808101825260008082526020808301828152838501838152606085018481529684526005909252939091209151825591516001820180546001600160a01b039283166001600160a01b03199182161790915592516002830155925160039091018054919093169116179055565b6000546001600160a01b03163314610e4d5760405162461bcd60e51b815260206004820181905260248201527f4f776e61626c653a2063616c6c6572206973206e6f7420746865206f776e657260448201526064016104b2565b600080546001600160a01b038381166001600160a01b0319831681178455604051919092169283917f8be0079c531659141344cd1fd0a4f28419497f9722a3daafe3b4186f6b6457e09190a35050565b6000611737826040518060400160405280602081526020017f5361666545524332303a206c6f772d6c6576656c2063616c6c206661696c6564815250856001600160a01b03166117b49092919063ffffffff16565b8051909150156111d157808060200190518101906117559190611c89565b6111d15760405162461bcd60e51b815260206004820152602a60248201527f5361666545524332303a204552433230206f7065726174696f6e20646964206e6044820152691bdd081cdd58d8d9595960b21b60648201526084016104b2565b60606117c384846000856117cb565b949350505050565b60608247101561182c5760405162461bcd60e51b815260206004820152602660248201527f416464726573733a20696e73756666696369656e742062616c616e636520666f6044820152651c8818d85b1b60d21b60648201526084016104b2565b600080866001600160a01b031685876040516118489190611d1b565b60006040518083038185875af1925050503d8060008114611885576040519150601f19603f3d011682016040523d82523d6000602084013e61188a565b606091505b509150915061189b878383876118a6565b979650505050505050565b6060831561191557825160000361190e576001600160a01b0385163b61190e5760405162461bcd60e51b815260206004820152601d60248201527f416464726573733a2063616c6c20746f206e6f6e2d636f6e747261637400000060448201526064016104b2565b50816117c3565b6117c3838381511561192a5781518083602001fd5b8060405162461bcd60e51b81526004016104b29190611d37565b828054828255906000526020600020908101928215611999579160200282015b8281111561199957825182546001600160a01b0319166001600160a01b03909116178255602090920191600190910190611964565b506119a59291506119a9565b5090565b5b808211156119a557600081556001016119aa565b6000602082840312156119d057600080fd5b5035919050565b6001600160a01b03811681146113c757600080fd5b80356119f7816119d7565b919050565b600060208284031215611a0e57600080fd5b8135610994816119d7565b602080825282518282018190526000919060409081850190868401855b82811015611a7c57815180518552868101516001600160a01b03908116888701528682015187870152606091820151169085015260809093019290850190600101611a36565b5091979650505050505050565b6020808252825182820181905260009190848201906040850190845b81811015611aca5783516001600160a01b031683529284019291840191600101611aa5565b50909695505050505050565b600080600060608486031215611aeb57600080fd5b83359250602084013591506040840135611b04816119d7565b809150509250925092565b634e487b7160e01b600052604160045260246000fd5b60006020808385031215611b3857600080fd5b823567ffffffffffffffff80821115611b5057600080fd5b818501915085601f830112611b6457600080fd5b813581811115611b7657611b76611b0f565b8060051b604051601f19603f83011681018181108582111715611b9b57611b9b611b0f565b604052918252848201925083810185019188831115611bb957600080fd5b938501935b82851015611bde57611bcf856119ec565b84529385019392850192611bbe565b98975050505050505050565b600060208284031215611bfc57600080fd5b5051919050565b6001600160a01b039384168152919092166020820152604081019190915260600190565b634e487b7160e01b600052603260045260246000fd5b634e487b7160e01b600052601160045260246000fd5b600060018201611c6557611c65611c3d565b5060010190565b600060208284031215611c7e57600080fd5b8151610994816119d7565b600060208284031215611c9b57600080fd5b8151801515811461099457600080fd5b600082611cc857634e487b7160e01b600052601260045260246000fd5b500490565b808202811582820484141761155057611550611c3d565b8181038181111561155057611550611c3d565b60005b83811015611d12578181015183820152602001611cfa565b50506000910152565b60008251611d2d818460208701611cf7565b9190910192915050565b6020815260008251806020840152611d56816040850160208701611cf7565b601f01601f1916919091016040019291505056fea26469706673582212209dba4f57c07520b17944beb38c6ba8148df32ee9e47df738d03d4e993a9cfb6664736f6c63430008120033",
					"opcodes": "PUSH1 0x80 PUSH1 0x40 MSTORE PUSH1 0x1 PUSH1 0x2 SSTORE PUSH1 0x0 PUSH1 0x3 SSTORE CALLVALUE DUP1 ISZERO PUSH3 0x1B JUMPI PUSH1 0x0 DUP1 REVERT JUMPDEST POP PUSH1 0x40 MLOAD PUSH3 0x202E CODESIZE SUB DUP1 PUSH3 0x202E DUP4 CODECOPY DUP2 ADD PUSH1 0x40 DUP2 SWAP1 MSTORE PUSH3 0x3E SWAP2 PUSH3 0x18C JUMP JUMPDEST PUSH3 0x49 CALLER PUSH3 0x88 JUMP JUMPDEST PUSH1 0x1 DUP1 SLOAD PUSH1 0x1 PUSH1 0x1 PUSH1 0xA0 SHL SUB NOT AND PUSH1 0x1 PUSH1 0x1 PUSH1 0xA0 SHL SUB DUP6 AND OR SWAP1 SSTORE PUSH1 0x3 DUP3 SWAP1 SSTORE DUP1 MLOAD PUSH3 0x7E SWAP1 PUSH1 0x7 SWAP1 PUSH1 0x20 DUP5 ADD SWAP1 PUSH3 0xD8 JUMP JUMPDEST POP POP POP POP PUSH3 0x27E JUMP JUMPDEST PUSH1 0x0 DUP1 SLOAD PUSH1 0x1 PUSH1 0x1 PUSH1 0xA0 SHL SUB DUP4 DUP2 AND PUSH1 0x1 PUSH1 0x1 PUSH1 0xA0 SHL SUB NOT DUP4 AND DUP2 OR DUP5 SSTORE PUSH1 0x40 MLOAD SWAP2 SWAP1 SWAP3 AND SWAP3 DUP4 SWAP2 PUSH32 0x8BE0079C531659141344CD1FD0A4F28419497F9722A3DAAFE3B4186F6B6457E0 SWAP2 SWAP1 LOG3 POP POP JUMP JUMPDEST DUP3 DUP1 SLOAD DUP3 DUP3 SSTORE SWAP1 PUSH1 0x0 MSTORE PUSH1 0x20 PUSH1 0x0 KECCAK256 SWAP1 DUP2 ADD SWAP3 DUP3 ISZERO PUSH3 0x130 JUMPI SWAP2 PUSH1 0x20 MUL DUP3 ADD JUMPDEST DUP3 DUP2 GT ISZERO PUSH3 0x130 JUMPI DUP3 MLOAD DUP3 SLOAD PUSH1 0x1 PUSH1 0x1 PUSH1 0xA0 SHL SUB NOT AND PUSH1 0x1 PUSH1 0x1 PUSH1 0xA0 SHL SUB SWAP1 SWAP2 AND OR DUP3 SSTORE PUSH1 0x20 SWAP1 SWAP3 ADD SWAP2 PUSH1 0x1 SWAP1 SWAP2 ADD SWAP1 PUSH3 0xF9 JUMP JUMPDEST POP PUSH3 0x13E SWAP3 SWAP2 POP PUSH3 0x142 JUMP JUMPDEST POP SWAP1 JUMP JUMPDEST JUMPDEST DUP1 DUP3 GT ISZERO PUSH3 0x13E JUMPI PUSH1 0x0 DUP2 SSTORE PUSH1 0x1 ADD PUSH3 0x143 JUMP JUMPDEST DUP1 MLOAD PUSH1 0x1 PUSH1 0x1 PUSH1 0xA0 SHL SUB DUP2 AND DUP2 EQ PUSH3 0x171 JUMPI PUSH1 0x0 DUP1 REVERT JUMPDEST SWAP2 SWAP1 POP JUMP JUMPDEST PUSH4 0x4E487B71 PUSH1 0xE0 SHL PUSH1 0x0 MSTORE PUSH1 0x41 PUSH1 0x4 MSTORE PUSH1 0x24 PUSH1 0x0 REVERT JUMPDEST PUSH1 0x0 DUP1 PUSH1 0x0 PUSH1 0x60 DUP5 DUP7 SUB SLT ISZERO PUSH3 0x1A2 JUMPI PUSH1 0x0 DUP1 REVERT JUMPDEST PUSH3 0x1AD DUP5 PUSH3 0x159 JUMP JUMPDEST PUSH1 0x20 DUP6 DUP2 ADD MLOAD PUSH1 0x40 DUP8 ADD MLOAD SWAP3 SWAP6 POP SWAP4 POP SWAP1 PUSH1 0x1 PUSH1 0x1 PUSH1 0x40 SHL SUB DUP1 DUP3 GT ISZERO PUSH3 0x1D4 JUMPI PUSH1 0x0 DUP1 REVERT JUMPDEST DUP2 DUP8 ADD SWAP2 POP DUP8 PUSH1 0x1F DUP4 ADD SLT PUSH3 0x1E9 JUMPI PUSH1 0x0 DUP1 REVERT JUMPDEST DUP2 MLOAD DUP2 DUP2 GT ISZERO PUSH3 0x1FE JUMPI PUSH3 0x1FE PUSH3 0x176 JUMP JUMPDEST DUP1 PUSH1 0x5 SHL PUSH1 0x40 MLOAD PUSH1 0x1F NOT PUSH1 0x3F DUP4 ADD AND DUP2 ADD DUP2 DUP2 LT DUP6 DUP3 GT OR ISZERO PUSH3 0x226 JUMPI PUSH3 0x226 PUSH3 0x176 JUMP JUMPDEST PUSH1 0x40 MSTORE SWAP2 DUP3 MSTORE DUP5 DUP3 ADD SWAP3 POP DUP4 DUP2 ADD DUP6 ADD SWAP2 DUP11 DUP4 GT ISZERO PUSH3 0x245 JUMPI PUSH1 0x0 DUP1 REVERT JUMPDEST SWAP4 DUP6 ADD SWAP4 JUMPDEST DUP3 DUP6 LT ISZERO PUSH3 0x26E JUMPI PUSH3 0x25E DUP6 PUSH3 0x159 JUMP JUMPDEST DUP5 MSTORE SWAP4 DUP6 ADD SWAP4 SWAP3 DUP6 ADD SWAP3 PUSH3 0x24A JUMP JUMPDEST DUP1 SWAP7 POP POP POP POP POP POP POP SWAP3 POP SWAP3 POP SWAP3 JUMP JUMPDEST PUSH2 0x1DA0 DUP1 PUSH3 0x28E PUSH1 0x0 CODECOPY PUSH1 0x0 RETURN INVALID PUSH1 0x80 PUSH1 0x40 MSTORE PUSH1 0x4 CALLDATASIZE LT PUSH2 0x14B JUMPI PUSH1 0x0 CALLDATALOAD PUSH1 0xE0 SHR DUP1 PUSH4 0x7C237EEA GT PUSH2 0xB6 JUMPI DUP1 PUSH4 0xE4997DC5 GT PUSH2 0x6F JUMPI DUP1 PUSH4 0xE4997DC5 EQ PUSH2 0x38A JUMPI DUP1 PUSH4 0xE9E4E160 EQ PUSH2 0x3AA JUMPI DUP1 PUSH4 0xF2FDE38B EQ PUSH2 0x3CA JUMPI DUP1 PUSH4 0xFCF984A9 EQ PUSH2 0x3EA JUMPI DUP1 PUSH4 0xFE575A87 EQ PUSH2 0x40A JUMPI DUP1 PUSH4 0xFF7F0CF9 EQ PUSH2 0x443 JUMPI PUSH1 0x0 DUP1 REVERT JUMPDEST DUP1 PUSH4 0x7C237EEA EQ PUSH2 0x2FB JUMPI DUP1 PUSH4 0x8DA5CB5B EQ PUSH2 0x31B JUMPI DUP1 PUSH4 0x952977F5 EQ PUSH2 0x339 JUMPI DUP1 PUSH4 0xA096C5A2 EQ PUSH2 0x34E JUMPI DUP1 PUSH4 0xB42A275E EQ PUSH2 0x362 JUMPI DUP1 PUSH4 0xD55A34E4 EQ PUSH2 0x375 JUMPI PUSH1 0x0 DUP1 REVERT JUMPDEST DUP1 PUSH4 0x512DDCF9 GT PUSH2 0x108 JUMPI DUP1 PUSH4 0x512DDCF9 EQ PUSH2 0x24B JUMPI DUP1 PUSH4 0x51ED8288 EQ PUSH2 0x26B JUMPI DUP1 PUSH4 0x54FD4D50 EQ PUSH2 0x27E JUMPI DUP1 PUSH4 0x69C57352 EQ PUSH2 0x294 JUMPI DUP1 PUSH4 0x715018A6 EQ PUSH2 0x2B6 JUMPI DUP1 PUSH4 0x785FA7CE EQ PUSH2 0x2CB JUMPI PUSH1 0x0 DUP1 REVERT JUMPDEST DUP1 PUSH4 0x47A5D43 EQ PUSH2 0x150 JUMPI DUP1 PUSH4 0x8CFBC19 EQ PUSH2 0x172 JUMPI DUP1 PUSH4 0xECB93C0 EQ PUSH2 0x1AF JUMPI DUP1 PUSH4 0x10603023 EQ PUSH2 0x1CF JUMPI DUP1 PUSH4 0x19C8C1C5 EQ PUSH2 0x1EF JUMPI DUP1 PUSH4 0x476CAA70 EQ PUSH2 0x21D JUMPI JUMPDEST PUSH1 0x0 DUP1 REVERT JUMPDEST CALLVALUE DUP1 ISZERO PUSH2 0x15C JUMPI PUSH1 0x0 DUP1 REVERT JUMPDEST POP PUSH2 0x170 PUSH2 0x16B CALLDATASIZE PUSH1 0x4 PUSH2 0x19BE JUMP JUMPDEST PUSH2 0x458 JUMP JUMPDEST STOP JUMPDEST CALLVALUE DUP1 ISZERO PUSH2 0x17E JUMPI PUSH1 0x0 DUP1 REVERT JUMPDEST POP PUSH1 0x1 SLOAD PUSH2 0x192 SWAP1 PUSH1 0x1 PUSH1 0x1 PUSH1 0xA0 SHL SUB AND DUP2 JUMP JUMPDEST PUSH1 0x40 MLOAD PUSH1 0x1 PUSH1 0x1 PUSH1 0xA0 SHL SUB SWAP1 SWAP2 AND DUP2 MSTORE PUSH1 0x20 ADD JUMPDEST PUSH1 0x40 MLOAD DUP1 SWAP2 SUB SWAP1 RETURN JUMPDEST CALLVALUE DUP1 ISZERO PUSH2 0x1BB JUMPI PUSH1 0x0 DUP1 REVERT JUMPDEST POP PUSH2 0x170 PUSH2 0x1CA CALLDATASIZE PUSH1 0x4 PUSH2 0x19FC JUMP JUMPDEST PUSH2 0x8EE JUMP JUMPDEST CALLVALUE DUP1 ISZERO PUSH2 0x1DB JUMPI PUSH1 0x0 DUP1 REVERT JUMPDEST POP PUSH2 0x170 PUSH2 0x1EA CALLDATASIZE PUSH1 0x4 PUSH2 0x19BE JUMP JUMPDEST PUSH2 0x91A JUMP JUMPDEST CALLVALUE DUP1 ISZERO PUSH2 0x1FB JUMPI PUSH1 0x0 DUP1 REVERT JUMPDEST POP PUSH2 0x210 PUSH2 0x20A CALLDATASIZE PUSH1 0x4 PUSH2 0x19FC JUMP JUMPDEST POP PUSH1 0x60 SWAP1 JUMP JUMPDEST PUSH1 0x40 MLOAD PUSH2 0x1A6 SWAP2 SWAP1 PUSH2 0x1A19 JUMP JUMPDEST CALLVALUE DUP1 ISZERO PUSH2 0x229 JUMPI PUSH1 0x0 DUP1 REVERT JUMPDEST POP PUSH2 0x23D PUSH2 0x238 CALLDATASIZE PUSH1 0x4 PUSH2 0x19FC JUMP JUMPDEST PUSH2 0x927 JUMP JUMPDEST PUSH1 0x40 MLOAD SWAP1 DUP2 MSTORE PUSH1 0x20 ADD PUSH2 0x1A6 JUMP JUMPDEST CALLVALUE DUP1 ISZERO PUSH2 0x257 JUMPI PUSH1 0x0 DUP1 REVERT JUMPDEST POP PUSH2 0x170 PUSH2 0x266 CALLDATASIZE PUSH1 0x4 PUSH2 0x19BE JUMP JUMPDEST PUSH2 0x99B JUMP JUMPDEST PUSH2 0x170 PUSH2 0x279 CALLDATASIZE PUSH1 0x4 PUSH2 0x19BE JUMP JUMPDEST PUSH2 0xACF JUMP JUMPDEST CALLVALUE DUP1 ISZERO PUSH2 0x28A JUMPI PUSH1 0x0 DUP1 REVERT JUMPDEST POP PUSH2 0x23D PUSH1 0x2 SLOAD DUP2 JUMP JUMPDEST CALLVALUE DUP1 ISZERO PUSH2 0x2A0 JUMPI PUSH1 0x0 DUP1 REVERT JUMPDEST POP PUSH2 0x2A9 PUSH2 0xDD9 JUMP JUMPDEST PUSH1 0x40 MLOAD PUSH2 0x1A6 SWAP2 SWAP1 PUSH2 0x1A89 JUMP JUMPDEST CALLVALUE DUP1 ISZERO PUSH2 0x2C2 JUMPI PUSH1 0x0 DUP1 REVERT JUMPDEST POP PUSH2 0x170 PUSH2 0xE3B JUMP JUMPDEST CALLVALUE DUP1 ISZERO PUSH2 0x2D7 JUMPI PUSH1 0x0 DUP1 REVERT JUMPDEST POP PUSH2 0x2EB PUSH2 0x2E6 CALLDATASIZE PUSH1 0x4 PUSH2 0x19FC JUMP JUMPDEST PUSH2 0xE4F JUMP JUMPDEST PUSH1 0x40 MLOAD SWAP1 ISZERO ISZERO DUP2 MSTORE PUSH1 0x20 ADD PUSH2 0x1A6 JUMP JUMPDEST CALLVALUE DUP1 ISZERO PUSH2 0x307 JUMPI PUSH1 0x0 DUP1 REVERT JUMPDEST POP PUSH2 0x170 PUSH2 0x316 CALLDATASIZE PUSH1 0x4 PUSH2 0x1AD6 JUMP JUMPDEST PUSH2 0xEB3 JUMP JUMPDEST CALLVALUE DUP1 ISZERO PUSH2 0x327 JUMPI PUSH1 0x0 DUP1 REVERT JUMPDEST POP PUSH1 0x0 SLOAD PUSH1 0x1 PUSH1 0x1 PUSH1 0xA0 SHL SUB AND PUSH2 0x192 JUMP JUMPDEST CALLVALUE DUP1 ISZERO PUSH2 0x345 JUMPI PUSH1 0x0 DUP1 REVERT JUMPDEST POP PUSH1 0x3 SLOAD PUSH2 0x23D JUMP JUMPDEST CALLVALUE DUP1 ISZERO PUSH2 0x35A JUMPI PUSH1 0x0 DUP1 REVERT JUMPDEST POP PUSH1 0x60 PUSH2 0x210 JUMP JUMPDEST CALLVALUE DUP1 ISZERO PUSH2 0x36E JUMPI PUSH1 0x0 DUP1 REVERT JUMPDEST POP SELFBALANCE PUSH2 0x23D JUMP JUMPDEST CALLVALUE DUP1 ISZERO PUSH2 0x381 JUMPI PUSH1 0x0 DUP1 REVERT JUMPDEST POP PUSH2 0x210 PUSH2 0x11D6 JUMP JUMPDEST CALLVALUE DUP1 ISZERO PUSH2 0x396 JUMPI PUSH1 0x0 DUP1 REVERT JUMPDEST POP PUSH2 0x170 PUSH2 0x3A5 CALLDATASIZE PUSH1 0x4 PUSH2 0x19FC JUMP JUMPDEST PUSH2 0x1309 JUMP JUMPDEST CALLVALUE DUP1 ISZERO PUSH2 0x3B6 JUMPI PUSH1 0x0 DUP1 REVERT JUMPDEST POP PUSH2 0x170 PUSH2 0x3C5 CALLDATASIZE PUSH1 0x4 PUSH2 0x1B25 JUMP JUMPDEST PUSH2 0x1332 JUMP JUMPDEST CALLVALUE DUP1 ISZERO PUSH2 0x3D6 JUMPI PUSH1 0x0 DUP1 REVERT JUMPDEST POP PUSH2 0x170 PUSH2 0x3E5 CALLDATASIZE PUSH1 0x4 PUSH2 0x19FC JUMP JUMPDEST PUSH2 0x1351 JUMP JUMPDEST CALLVALUE DUP1 ISZERO PUSH2 0x3F6 JUMPI PUSH1 0x0 DUP1 REVERT JUMPDEST POP PUSH2 0x170 PUSH2 0x405 CALLDATASIZE PUSH1 0x4 PUSH2 0x19FC JUMP JUMPDEST PUSH2 0x13CA JUMP JUMPDEST CALLVALUE DUP1 ISZERO PUSH2 0x416 JUMPI PUSH1 0x0 DUP1 REVERT JUMPDEST POP PUSH2 0x2EB PUSH2 0x425 CALLDATASIZE PUSH1 0x4 PUSH2 0x19FC JUMP JUMPDEST PUSH1 0x1 PUSH1 0x1 PUSH1 0xA0 SHL SUB AND PUSH1 0x0 SWAP1 DUP2 MSTORE PUSH1 0x6 PUSH1 0x20 MSTORE PUSH1 0x40 SWAP1 KECCAK256 SLOAD PUSH1 0xFF AND SWAP1 JUMP JUMPDEST CALLVALUE DUP1 ISZERO PUSH2 0x44F JUMPI PUSH1 0x0 DUP1 REVERT JUMPDEST POP PUSH2 0x170 PUSH2 0x14D3 JUMP JUMPDEST PUSH1 0x0 DUP2 DUP2 MSTORE PUSH1 0x4 PUSH1 0x20 MSTORE PUSH1 0x40 SWAP1 KECCAK256 SLOAD PUSH1 0xFF AND ISZERO ISZERO PUSH1 0x1 EQ PUSH2 0x4BB JUMPI PUSH1 0x40 MLOAD PUSH3 0x461BCD PUSH1 0xE5 SHL DUP2 MSTORE PUSH1 0x20 PUSH1 0x4 DUP3 ADD MSTORE PUSH1 0x18 PUSH1 0x24 DUP3 ADD MSTORE PUSH24 0x54686973204E4654206973206E6F7420666F722073616C65 PUSH1 0x40 SHL PUSH1 0x44 DUP3 ADD MSTORE PUSH1 0x64 ADD JUMPDEST PUSH1 0x40 MLOAD DUP1 SWAP2 SUB SWAP1 REVERT JUMPDEST PUSH1 0x0 DUP2 DUP2 MSTORE PUSH1 0x5 PUSH1 0x20 MSTORE PUSH1 0x40 SWAP1 KECCAK256 PUSH1 0x3 ADD SLOAD PUSH1 0x1 PUSH1 0x1 PUSH1 0xA0 SHL SUB AND PUSH2 0x522 JUMPI PUSH1 0x40 MLOAD PUSH3 0x461BCD PUSH1 0xE5 SHL DUP2 MSTORE PUSH1 0x20 PUSH1 0x4 DUP3 ADD DUP2 SWAP1 MSTORE PUSH1 0x24 DUP3 ADD MSTORE PUSH32 0x5468697320746F6B656E2073656C6C6564206279204E617469766520636F696E PUSH1 0x44 DUP3 ADD MSTORE PUSH1 0x64 ADD PUSH2 0x4B2 JUMP JUMPDEST PUSH1 0x0 DUP2 DUP2 MSTORE PUSH1 0x5 PUSH1 0x20 MSTORE PUSH1 0x40 DUP1 DUP3 KECCAK256 PUSH1 0x3 ADD SLOAD SWAP1 MLOAD PUSH4 0x70A08231 PUSH1 0xE0 SHL DUP2 MSTORE CALLER PUSH1 0x4 DUP3 ADD MSTORE PUSH1 0x1 PUSH1 0x1 PUSH1 0xA0 SHL SUB SWAP1 SWAP2 AND SWAP2 SWAP1 DUP3 SWAP1 PUSH4 0x70A08231 SWAP1 PUSH1 0x24 ADD PUSH1 0x20 PUSH1 0x40 MLOAD DUP1 DUP4 SUB DUP2 DUP7 GAS STATICCALL ISZERO DUP1 ISZERO PUSH2 0x57C JUMPI RETURNDATASIZE PUSH1 0x0 DUP1 RETURNDATACOPY RETURNDATASIZE PUSH1 0x0 REVERT JUMPDEST POP POP POP POP PUSH1 0x40 MLOAD RETURNDATASIZE PUSH1 0x1F NOT PUSH1 0x1F DUP3 ADD AND DUP3 ADD DUP1 PUSH1 0x40 MSTORE POP DUP2 ADD SWAP1 PUSH2 0x5A0 SWAP2 SWAP1 PUSH2 0x1BEA JUMP JUMPDEST PUSH1 0x0 DUP5 DUP2 MSTORE PUSH1 0x5 PUSH1 0x20 MSTORE PUSH1 0x40 SWAP1 KECCAK256 PUSH1 0x2 ADD SLOAD SWAP1 SWAP2 POP DUP2 LT ISZERO PUSH2 0x621 JUMPI PUSH1 0x40 MLOAD PUSH3 0x461BCD PUSH1 0xE5 SHL DUP2 MSTORE PUSH1 0x20 PUSH1 0x4 DUP3 ADD MSTORE PUSH1 0x34 PUSH1 0x24 DUP3 ADD MSTORE PUSH32 0x596F7520646F206E6F74206861766520656E6F75676820746F6B656E73206F6E PUSH1 0x44 DUP3 ADD MSTORE PUSH20 0x20796F75722062616C616E636520746F20706179 PUSH1 0x60 SHL PUSH1 0x64 DUP3 ADD MSTORE PUSH1 0x84 ADD PUSH2 0x4B2 JUMP JUMPDEST PUSH1 0x40 MLOAD PUSH4 0x6EB1769F PUSH1 0xE1 SHL DUP2 MSTORE CALLER PUSH1 0x4 DUP3 ADD MSTORE ADDRESS PUSH1 0x24 DUP3 ADD MSTORE PUSH1 0x0 SWAP1 PUSH1 0x1 PUSH1 0x1 PUSH1 0xA0 SHL SUB DUP5 AND SWAP1 PUSH4 0xDD62ED3E SWAP1 PUSH1 0x44 ADD PUSH1 0x20 PUSH1 0x40 MLOAD DUP1 DUP4 SUB DUP2 DUP7 GAS STATICCALL ISZERO DUP1 ISZERO PUSH2 0x66E JUMPI RETURNDATASIZE PUSH1 0x0 DUP1 RETURNDATACOPY RETURNDATASIZE PUSH1 0x0 REVERT JUMPDEST POP POP POP POP PUSH1 0x40 MLOAD RETURNDATASIZE PUSH1 0x1F NOT PUSH1 0x1F DUP3 ADD AND DUP3 ADD DUP1 PUSH1 0x40 MSTORE POP DUP2 ADD SWAP1 PUSH2 0x692 SWAP2 SWAP1 PUSH2 0x1BEA JUMP JUMPDEST PUSH1 0x0 DUP6 DUP2 MSTORE PUSH1 0x5 PUSH1 0x20 MSTORE PUSH1 0x40 SWAP1 KECCAK256 PUSH1 0x2 ADD SLOAD SWAP1 SWAP2 POP DUP2 LT ISZERO PUSH2 0x71C JUMPI PUSH1 0x40 MLOAD PUSH3 0x461BCD PUSH1 0xE5 SHL DUP2 MSTORE PUSH1 0x20 PUSH1 0x4 DUP3 ADD MSTORE PUSH1 0x3A PUSH1 0x24 DUP3 ADD MSTORE PUSH32 0x596F7520646964206E6F7420616C6C6F772074686520636F6E74726163742074 PUSH1 0x44 DUP3 ADD MSTORE PUSH32 0x6F2073656E642074686520707572636861736520616D6F756E74000000000000 PUSH1 0x64 DUP3 ADD MSTORE PUSH1 0x84 ADD PUSH2 0x4B2 JUMP JUMPDEST PUSH1 0x0 DUP5 DUP2 MSTORE PUSH1 0x5 PUSH1 0x20 MSTORE PUSH1 0x40 DUP2 KECCAK256 PUSH1 0x2 ADD SLOAD SWAP1 PUSH2 0x745 PUSH2 0x73D DUP4 PUSH1 0x64 PUSH2 0x1541 JUMP JUMPDEST PUSH1 0x3 SLOAD PUSH2 0x1556 JUMP JUMPDEST SWAP1 POP PUSH2 0x759 PUSH1 0x0 SLOAD PUSH1 0x1 PUSH1 0x1 PUSH1 0xA0 SHL SUB AND SWAP1 JUMP JUMPDEST PUSH1 0x0 DUP8 DUP2 MSTORE PUSH1 0x5 PUSH1 0x20 MSTORE PUSH1 0x40 SWAP1 KECCAK256 PUSH1 0x1 ADD SLOAD PUSH1 0x1 PUSH1 0x1 PUSH1 0xA0 SHL SUB SWAP2 DUP3 AND SWAP2 AND SUB PUSH2 0x781 JUMPI POP PUSH1 0x0 JUMPDEST PUSH1 0x0 PUSH2 0x78D DUP4 DUP4 PUSH2 0x1562 JUMP JUMPDEST PUSH1 0x0 DUP9 DUP2 MSTORE PUSH1 0x5 PUSH1 0x20 MSTORE PUSH1 0x40 SWAP1 KECCAK256 PUSH1 0x1 ADD SLOAD SWAP1 SWAP2 POP PUSH2 0x7BB SWAP1 PUSH1 0x1 PUSH1 0x1 PUSH1 0xA0 SHL SUB DUP9 DUP2 AND SWAP2 CALLER SWAP2 AND DUP5 PUSH2 0x156E JUMP JUMPDEST DUP2 ISZERO PUSH2 0x7E9 JUMPI PUSH2 0x7E9 CALLER PUSH2 0x7D7 PUSH1 0x0 SLOAD PUSH1 0x1 PUSH1 0x1 PUSH1 0xA0 SHL SUB AND SWAP1 JUMP JUMPDEST PUSH1 0x1 PUSH1 0x1 PUSH1 0xA0 SHL SUB DUP10 AND SWAP2 SWAP1 DUP6 PUSH2 0x156E JUMP JUMPDEST PUSH1 0x1 SLOAD PUSH1 0x40 MLOAD PUSH4 0x23B872DD PUSH1 0xE0 SHL DUP2 MSTORE PUSH1 0x1 PUSH1 0x1 PUSH1 0xA0 SHL SUB SWAP1 SWAP2 AND SWAP1 PUSH4 0x23B872DD SWAP1 PUSH2 0x81D SWAP1 ADDRESS SWAP1 CALLER SWAP1 DUP13 SWAP1 PUSH1 0x4 ADD PUSH2 0x1C03 JUMP JUMPDEST PUSH1 0x0 PUSH1 0x40 MLOAD DUP1 DUP4 SUB DUP2 PUSH1 0x0 DUP8 DUP1 EXTCODESIZE ISZERO DUP1 ISZERO PUSH2 0x837 JUMPI PUSH1 0x0 DUP1 REVERT JUMPDEST POP GAS CALL ISZERO DUP1 ISZERO PUSH2 0x84B JUMPI RETURNDATASIZE PUSH1 0x0 DUP1 RETURNDATACOPY RETURNDATASIZE PUSH1 0x0 REVERT JUMPDEST POP POP POP PUSH1 0x0 DUP9 DUP2 MSTORE PUSH1 0x4 PUSH1 0x20 MSTORE PUSH1 0x40 SWAP1 KECCAK256 DUP1 SLOAD PUSH1 0xFF NOT AND SWAP1 SSTORE POP PUSH2 0x86E DUP8 PUSH2 0x15C6 JUMP JUMPDEST PUSH1 0x0 DUP8 DUP2 MSTORE PUSH1 0x5 PUSH1 0x20 SWAP1 DUP2 MSTORE PUSH1 0x40 SWAP2 DUP3 SWAP1 KECCAK256 PUSH1 0x1 DUP2 ADD SLOAD PUSH1 0x3 DUP3 ADD SLOAD PUSH1 0x2 SWAP1 SWAP3 ADD SLOAD DUP5 MLOAD PUSH1 0x1 PUSH1 0x1 PUSH1 0xA0 SHL SUB SWAP3 DUP4 AND DUP2 MSTORE CALLER SWAP5 DUP2 ADD SWAP5 SWAP1 SWAP5 MSTORE DUP4 DUP6 ADD DUP13 SWAP1 MSTORE SWAP2 AND PUSH1 0x60 DUP4 ADD MSTORE PUSH1 0x80 DUP3 ADD MSTORE SWAP1 MLOAD PUSH32 0xD369FDCFEB128F60117661EBD8F220B7265C0A04FEE0E9905EB8C6AB2767B9E5 SWAP2 DUP2 SWAP1 SUB PUSH1 0xA0 ADD SWAP1 LOG1 POP POP POP POP POP POP POP JUMP JUMPDEST PUSH2 0x8F6 PUSH2 0x1638 JUMP JUMPDEST PUSH1 0x1 PUSH1 0x1 PUSH1 0xA0 SHL SUB AND PUSH1 0x0 SWAP1 DUP2 MSTORE PUSH1 0x6 PUSH1 0x20 MSTORE PUSH1 0x40 SWAP1 KECCAK256 DUP1 SLOAD PUSH1 0xFF NOT AND PUSH1 0x1 OR SWAP1 SSTORE JUMP JUMPDEST PUSH2 0x922 PUSH2 0x1638 JUMP JUMPDEST PUSH1 0x3 SSTORE JUMP JUMPDEST PUSH1 0x40 MLOAD PUSH4 0x70A08231 PUSH1 0xE0 SHL DUP2 MSTORE ADDRESS PUSH1 0x4 DUP3 ADD MSTORE PUSH1 0x0 SWAP1 DUP3 SWAP1 PUSH1 0x1 PUSH1 0x1 PUSH1 0xA0 SHL SUB DUP3 AND SWAP1 PUSH4 0x70A08231 SWAP1 PUSH1 0x24 ADD PUSH1 0x20 PUSH1 0x40 MLOAD DUP1 DUP4 SUB DUP2 DUP7 GAS STATICCALL ISZERO DUP1 ISZERO PUSH2 0x970 JUMPI RETURNDATASIZE PUSH1 0x0 DUP1 RETURNDATACOPY RETURNDATASIZE PUSH1 0x0 REVERT JUMPDEST POP POP POP POP PUSH1 0x40 MLOAD RETURNDATASIZE PUSH1 0x1F NOT PUSH1 0x1F DUP3 ADD AND DUP3 ADD DUP1 PUSH1 0x40 MSTORE POP DUP2 ADD SWAP1 PUSH2 0x994 SWAP2 SWAP1 PUSH2 0x1BEA JUMP JUMPDEST SWAP4 SWAP3 POP POP POP JUMP JUMPDEST PUSH1 0x0 SLOAD PUSH1 0x1 PUSH1 0x1 PUSH1 0xA0 SHL SUB AND CALLER EQ PUSH2 0xA0D JUMPI PUSH1 0x0 DUP2 DUP2 MSTORE PUSH1 0x5 PUSH1 0x20 MSTORE PUSH1 0x40 SWAP1 KECCAK256 PUSH1 0x1 ADD SLOAD PUSH1 0x1 PUSH1 0x1 PUSH1 0xA0 SHL SUB AND CALLER EQ PUSH2 0xA0D JUMPI PUSH1 0x40 MLOAD PUSH3 0x461BCD PUSH1 0xE5 SHL DUP2 MSTORE PUSH1 0x20 PUSH1 0x4 DUP3 ADD MSTORE PUSH1 0x14 PUSH1 0x24 DUP3 ADD MSTORE PUSH20 0x151A1A5CC81A5CC81B9BDD081E5BDD5C88139195 PUSH1 0x62 SHL PUSH1 0x44 DUP3 ADD MSTORE PUSH1 0x64 ADD PUSH2 0x4B2 JUMP JUMPDEST PUSH1 0x1 SLOAD PUSH1 0x40 MLOAD PUSH4 0x23B872DD PUSH1 0xE0 SHL DUP2 MSTORE PUSH1 0x1 PUSH1 0x1 PUSH1 0xA0 SHL SUB SWAP1 SWAP2 AND SWAP1 PUSH4 0x23B872DD SWAP1 PUSH2 0xA41 SWAP1 ADDRESS SWAP1 CALLER SWAP1 DUP7 SWAP1 PUSH1 0x4 ADD PUSH2 0x1C03 JUMP JUMPDEST PUSH1 0x0 PUSH1 0x40 MLOAD DUP1 DUP4 SUB DUP2 PUSH1 0x0 DUP8 DUP1 EXTCODESIZE ISZERO DUP1 ISZERO PUSH2 0xA5B JUMPI PUSH1 0x0 DUP1 REVERT JUMPDEST POP GAS CALL ISZERO DUP1 ISZERO PUSH2 0xA6F JUMPI RETURNDATASIZE PUSH1 0x0 DUP1 RETURNDATACOPY RETURNDATASIZE PUSH1 0x0 REVERT JUMPDEST POP POP POP PUSH1 0x0 DUP3 DUP2 MSTORE PUSH1 0x4 PUSH1 0x20 MSTORE PUSH1 0x40 SWAP1 KECCAK256 DUP1 SLOAD PUSH1 0xFF NOT AND SWAP1 SSTORE POP PUSH2 0xA92 DUP2 PUSH2 0x15C6 JUMP JUMPDEST PUSH1 0x40 DUP1 MLOAD CALLER DUP2 MSTORE PUSH1 0x20 DUP2 ADD DUP4 SWAP1 MSTORE PUSH32 0x8BF8E8F2F9D065B620F4E940D87122B03DD779D0FFD6A1590572E1E6D0416BEF SWAP2 ADD JUMPDEST PUSH1 0x40 MLOAD DUP1 SWAP2 SUB SWAP1 LOG1 POP JUMP JUMPDEST PUSH1 0x0 DUP2 DUP2 MSTORE PUSH1 0x4 PUSH1 0x20 MSTORE PUSH1 0x40 SWAP1 KECCAK256 SLOAD PUSH1 0xFF AND ISZERO ISZERO PUSH1 0x1 EQ PUSH2 0xB2D JUMPI PUSH1 0x40 MLOAD PUSH3 0x461BCD PUSH1 0xE5 SHL DUP2 MSTORE PUSH1 0x20 PUSH1 0x4 DUP3 ADD MSTORE PUSH1 0x18 PUSH1 0x24 DUP3 ADD MSTORE PUSH24 0x54686973204E4654206973206E6F7420666F722073616C65 PUSH1 0x40 SHL PUSH1 0x44 DUP3 ADD MSTORE PUSH1 0x64 ADD PUSH2 0x4B2 JUMP JUMPDEST PUSH1 0x0 DUP2 DUP2 MSTORE PUSH1 0x5 PUSH1 0x20 MSTORE PUSH1 0x40 SWAP1 KECCAK256 PUSH1 0x2 ADD SLOAD CALLVALUE LT ISZERO PUSH2 0xB9D JUMPI PUSH1 0x40 MLOAD PUSH3 0x461BCD PUSH1 0xE5 SHL DUP2 MSTORE PUSH1 0x20 PUSH1 0x4 DUP3 ADD MSTORE PUSH1 0x26 PUSH1 0x24 DUP3 ADD MSTORE PUSH32 0x596F752068617665206E6F74207061696420656E6F75676820666F7220746869 PUSH1 0x44 DUP3 ADD MSTORE PUSH6 0x73206974656D PUSH1 0xD0 SHL PUSH1 0x64 DUP3 ADD MSTORE PUSH1 0x84 ADD PUSH2 0x4B2 JUMP JUMPDEST PUSH1 0x0 DUP2 DUP2 MSTORE PUSH1 0x5 PUSH1 0x20 MSTORE PUSH1 0x40 SWAP1 KECCAK256 PUSH1 0x3 ADD SLOAD PUSH1 0x1 PUSH1 0x1 PUSH1 0xA0 SHL SUB AND ISZERO PUSH2 0xC05 JUMPI PUSH1 0x40 MLOAD PUSH3 0x461BCD PUSH1 0xE5 SHL DUP2 MSTORE PUSH1 0x20 PUSH1 0x4 DUP3 ADD MSTORE PUSH1 0x1A PUSH1 0x24 DUP3 ADD MSTORE PUSH32 0x5468697320746F6B656E2073656C6C6564206279204552433230000000000000 PUSH1 0x44 DUP3 ADD MSTORE PUSH1 0x64 ADD PUSH2 0x4B2 JUMP JUMPDEST CALLVALUE PUSH1 0x0 PUSH2 0xC16 PUSH2 0x73D DUP4 PUSH1 0x64 PUSH2 0x1541 JUMP JUMPDEST SWAP1 POP PUSH2 0xC2A PUSH1 0x0 SLOAD PUSH1 0x1 PUSH1 0x1 PUSH1 0xA0 SHL SUB AND SWAP1 JUMP JUMPDEST PUSH1 0x0 DUP5 DUP2 MSTORE PUSH1 0x5 PUSH1 0x20 MSTORE PUSH1 0x40 SWAP1 KECCAK256 PUSH1 0x1 ADD SLOAD PUSH1 0x1 PUSH1 0x1 PUSH1 0xA0 SHL SUB SWAP2 DUP3 AND SWAP2 AND SUB PUSH2 0xC52 JUMPI POP PUSH1 0x0 JUMPDEST PUSH1 0x0 PUSH2 0xC5E DUP4 DUP4 PUSH2 0x1562 JUMP JUMPDEST PUSH1 0x0 DUP6 DUP2 MSTORE PUSH1 0x5 PUSH1 0x20 MSTORE PUSH1 0x40 DUP1 DUP3 KECCAK256 PUSH1 0x1 ADD SLOAD SWAP1 MLOAD SWAP3 SWAP4 POP PUSH1 0x1 PUSH1 0x1 PUSH1 0xA0 SHL SUB AND SWAP2 DUP4 ISZERO PUSH2 0x8FC MUL SWAP2 DUP5 SWAP2 SWAP1 DUP2 DUP2 DUP2 DUP6 DUP9 DUP9 CALL SWAP4 POP POP POP POP ISZERO DUP1 ISZERO PUSH2 0xCA7 JUMPI RETURNDATASIZE PUSH1 0x0 DUP1 RETURNDATACOPY RETURNDATASIZE PUSH1 0x0 REVERT JUMPDEST POP DUP2 ISZERO PUSH2 0xCE9 JUMPI PUSH1 0x0 DUP1 SLOAD PUSH1 0x40 MLOAD PUSH1 0x1 PUSH1 0x1 PUSH1 0xA0 SHL SUB SWAP1 SWAP2 AND SWAP2 DUP5 ISZERO PUSH2 0x8FC MUL SWAP2 DUP6 SWAP2 DUP2 DUP2 DUP2 DUP6 DUP9 DUP9 CALL SWAP4 POP POP POP POP ISZERO DUP1 ISZERO PUSH2 0xCE7 JUMPI RETURNDATASIZE PUSH1 0x0 DUP1 RETURNDATACOPY RETURNDATASIZE PUSH1 0x0 REVERT JUMPDEST POP JUMPDEST PUSH1 0x1 SLOAD PUSH1 0x40 MLOAD PUSH4 0x23B872DD PUSH1 0xE0 SHL DUP2 MSTORE PUSH1 0x1 PUSH1 0x1 PUSH1 0xA0 SHL SUB SWAP1 SWAP2 AND SWAP1 PUSH4 0x23B872DD SWAP1 PUSH2 0xD1D SWAP1 ADDRESS SWAP1 CALLER SWAP1 DUP10 SWAP1 PUSH1 0x4 ADD PUSH2 0x1C03 JUMP JUMPDEST PUSH1 0x0 PUSH1 0x40 MLOAD DUP1 DUP4 SUB DUP2 PUSH1 0x0 DUP8 DUP1 EXTCODESIZE ISZERO DUP1 ISZERO PUSH2 0xD37 JUMPI PUSH1 0x0 DUP1 REVERT JUMPDEST POP GAS CALL ISZERO DUP1 ISZERO PUSH2 0xD4B JUMPI RETURNDATASIZE PUSH1 0x0 DUP1 RETURNDATACOPY RETURNDATASIZE PUSH1 0x0 REVERT JUMPDEST POP POP POP PUSH1 0x0 DUP6 DUP2 MSTORE PUSH1 0x4 PUSH1 0x20 SWAP1 DUP2 MSTORE PUSH1 0x40 DUP1 DUP4 KECCAK256 DUP1 SLOAD PUSH1 0xFF NOT AND SWAP1 SSTORE PUSH1 0x5 DUP3 MSTORE SWAP2 DUP3 SWAP1 KECCAK256 PUSH1 0x1 DUP2 ADD SLOAD PUSH1 0x2 SWAP1 SWAP2 ADD SLOAD DUP4 MLOAD PUSH1 0x1 PUSH1 0x1 PUSH1 0xA0 SHL SUB SWAP1 SWAP3 AND DUP3 MSTORE CALLER SWAP3 DUP3 ADD SWAP3 SWAP1 SWAP3 MSTORE SWAP2 DUP3 ADD DUP8 SWAP1 MSTORE PUSH1 0x60 DUP3 ADD MSTORE PUSH32 0x89F5ADC174562E07C9C9B1CAE7109BBECB21CF9D1B2847E550042B8653C54A0E SWAP2 POP PUSH1 0x80 ADD PUSH1 0x40 MLOAD DUP1 SWAP2 SUB SWAP1 LOG1 PUSH2 0xDD3 DUP5 PUSH2 0x15C6 JUMP JUMPDEST POP POP POP POP JUMP JUMPDEST PUSH1 0x60 PUSH1 0x7 DUP1 SLOAD DUP1 PUSH1 0x20 MUL PUSH1 0x20 ADD PUSH1 0x40 MLOAD SWAP1 DUP2 ADD PUSH1 0x40 MSTORE DUP1 SWAP3 SWAP2 SWAP1 DUP2 DUP2 MSTORE PUSH1 0x20 ADD DUP3 DUP1 SLOAD DUP1 ISZERO PUSH2 0xE31 JUMPI PUSH1 0x20 MUL DUP3 ADD SWAP2 SWAP1 PUSH1 0x0 MSTORE PUSH1 0x20 PUSH1 0x0 KECCAK256 SWAP1 JUMPDEST DUP2 SLOAD PUSH1 0x1 PUSH1 0x1 PUSH1 0xA0 SHL SUB AND DUP2 MSTORE PUSH1 0x1 SWAP1 SWAP2 ADD SWAP1 PUSH1 0x20 ADD DUP1 DUP4 GT PUSH2 0xE13 JUMPI JUMPDEST POP POP POP POP POP SWAP1 POP SWAP1 JUMP JUMPDEST PUSH2 0xE43 PUSH2 0x1638 JUMP JUMPDEST PUSH2 0xE4D PUSH1 0x0 PUSH2 0x1692 JUMP JUMPDEST JUMP JUMPDEST PUSH1 0x0 DUP1 JUMPDEST PUSH1 0x7 SLOAD DUP2 LT ISZERO PUSH2 0xEAA JUMPI PUSH1 0x7 DUP2 DUP2 SLOAD DUP2 LT PUSH2 0xE70 JUMPI PUSH2 0xE70 PUSH2 0x1C27 JUMP JUMPDEST PUSH1 0x0 SWAP2 DUP3 MSTORE PUSH1 0x20 SWAP1 SWAP2 KECCAK256 ADD SLOAD PUSH1 0x1 PUSH1 0x1 PUSH1 0xA0 SHL SUB SWAP1 DUP2 AND SWAP1 DUP5 AND SUB PUSH2 0xE98 JUMPI POP PUSH1 0x1 SWAP3 SWAP2 POP POP JUMP JUMPDEST DUP1 PUSH2 0xEA2 DUP2 PUSH2 0x1C53 JUMP JUMPDEST SWAP2 POP POP PUSH2 0xE53 JUMP JUMPDEST POP PUSH1 0x0 SWAP3 SWAP2 POP POP JUMP JUMPDEST PUSH1 0x1 SLOAD PUSH1 0x40 MLOAD PUSH4 0x31A9108F PUSH1 0xE1 SHL DUP2 MSTORE PUSH1 0x4 DUP2 ADD DUP6 SWAP1 MSTORE CALLER SWAP2 PUSH1 0x1 PUSH1 0x1 PUSH1 0xA0 SHL SUB AND SWAP1 PUSH4 0x6352211E SWAP1 PUSH1 0x24 ADD PUSH1 0x20 PUSH1 0x40 MLOAD DUP1 DUP4 SUB DUP2 DUP7 GAS STATICCALL ISZERO DUP1 ISZERO PUSH2 0xEFC JUMPI RETURNDATASIZE PUSH1 0x0 DUP1 RETURNDATACOPY RETURNDATASIZE PUSH1 0x0 REVERT JUMPDEST POP POP POP POP PUSH1 0x40 MLOAD RETURNDATASIZE PUSH1 0x1F NOT PUSH1 0x1F DUP3 ADD AND DUP3 ADD DUP1 PUSH1 0x40 MSTORE POP DUP2 ADD SWAP1 PUSH2 0xF20 SWAP2 SWAP1 PUSH2 0x1C6C JUMP JUMPDEST PUSH1 0x1 PUSH1 0x1 PUSH1 0xA0 SHL SUB AND EQ PUSH2 0xF76 JUMPI PUSH1 0x40 MLOAD PUSH3 0x461BCD PUSH1 0xE5 SHL DUP2 MSTORE PUSH1 0x20 PUSH1 0x4 DUP3 ADD MSTORE PUSH1 0x19 PUSH1 0x24 DUP3 ADD MSTORE PUSH32 0x596F7520646F6E2774206F776E207468697320746F6B656E2100000000000000 PUSH1 0x44 DUP3 ADD MSTORE PUSH1 0x64 ADD PUSH2 0x4B2 JUMP JUMPDEST PUSH1 0x0 DUP3 GT PUSH2 0xFC6 JUMPI PUSH1 0x40 MLOAD PUSH3 0x461BCD PUSH1 0xE5 SHL DUP2 MSTORE PUSH1 0x20 PUSH1 0x4 DUP3 ADD MSTORE PUSH1 0x1F PUSH1 0x24 DUP3 ADD MSTORE PUSH32 0x5072696365206D7573742062652067726561746572207468616E207A65726F00 PUSH1 0x44 DUP3 ADD MSTORE PUSH1 0x64 ADD PUSH2 0x4B2 JUMP JUMPDEST PUSH1 0x1 PUSH1 0x1 PUSH1 0xA0 SHL SUB DUP2 AND ISZERO PUSH2 0x1044 JUMPI PUSH2 0xFDE DUP2 PUSH2 0xE4F JUMP JUMPDEST ISZERO ISZERO PUSH1 0x1 EQ PUSH2 0x1044 JUMPI PUSH1 0x40 MLOAD PUSH3 0x461BCD PUSH1 0xE5 SHL DUP2 MSTORE PUSH1 0x20 PUSH1 0x4 DUP3 ADD MSTORE PUSH1 0x2C PUSH1 0x24 DUP3 ADD MSTORE PUSH32 0x54686973204552433230206E6F7420616C6C6F77656420617320612074726164 PUSH1 0x44 DUP3 ADD MSTORE PUSH12 0x696E672063757272656E6379 PUSH1 0xA0 SHL PUSH1 0x64 DUP3 ADD MSTORE PUSH1 0x84 ADD PUSH2 0x4B2 JUMP JUMPDEST PUSH1 0x0 DUP4 DUP2 MSTORE PUSH1 0x4 PUSH1 0x20 DUP2 DUP2 MSTORE PUSH1 0x40 DUP1 DUP5 KECCAK256 DUP1 SLOAD PUSH1 0xFF NOT AND PUSH1 0x1 SWAP1 DUP2 OR SWAP1 SWAP2 SSTORE DUP2 MLOAD PUSH1 0x80 DUP2 ADD DUP4 MSTORE DUP9 DUP2 MSTORE CALLER DUP2 DUP6 ADD DUP2 DUP2 MSTORE DUP3 DUP6 ADD DUP11 DUP2 MSTORE PUSH1 0x1 PUSH1 0x1 PUSH1 0xA0 SHL SUB DUP11 DUP2 AND PUSH1 0x60 DUP7 ADD SWAP1 DUP2 MSTORE DUP14 DUP12 MSTORE PUSH1 0x5 SWAP1 SWAP9 MSTORE SWAP9 DUP7 SWAP1 KECCAK256 SWAP4 MLOAD DUP5 SSTORE SWAP1 MLOAD DUP4 DUP6 ADD DUP1 SLOAD SWAP2 DUP11 AND PUSH1 0x1 PUSH1 0x1 PUSH1 0xA0 SHL SUB NOT SWAP3 DUP4 AND OR SWAP1 SSTORE SWAP1 MLOAD PUSH1 0x2 DUP5 ADD SSTORE SWAP5 MLOAD PUSH1 0x3 SWAP1 SWAP3 ADD DUP1 SLOAD SWAP3 DUP9 AND SWAP3 SWAP1 SWAP6 AND SWAP2 SWAP1 SWAP2 OR SWAP1 SWAP4 SSTORE SLOAD SWAP1 MLOAD PUSH4 0x23B872DD PUSH1 0xE0 SHL DUP2 MSTORE SWAP4 AND SWAP3 PUSH4 0x23B872DD SWAP3 PUSH2 0x10F9 SWAP3 SWAP2 ADDRESS SWAP2 DUP10 SWAP2 ADD PUSH2 0x1C03 JUMP JUMPDEST PUSH1 0x0 PUSH1 0x40 MLOAD DUP1 DUP4 SUB DUP2 PUSH1 0x0 DUP8 DUP1 EXTCODESIZE ISZERO DUP1 ISZERO PUSH2 0x1113 JUMPI PUSH1 0x0 DUP1 REVERT JUMPDEST POP GAS CALL ISZERO DUP1 ISZERO PUSH2 0x1127 JUMPI RETURNDATASIZE PUSH1 0x0 DUP1 RETURNDATACOPY RETURNDATASIZE PUSH1 0x0 REVERT JUMPDEST POP POP POP PUSH1 0x1 PUSH1 0x1 PUSH1 0xA0 SHL SUB DUP3 AND SWAP1 POP PUSH2 0x1193 JUMPI PUSH1 0x40 DUP1 MLOAD CALLER DUP2 MSTORE PUSH1 0x20 DUP2 ADD DUP6 SWAP1 MSTORE PUSH1 0x1 PUSH1 0x1 PUSH1 0xA0 SHL SUB DUP4 AND SWAP2 DUP2 ADD SWAP2 SWAP1 SWAP2 MSTORE PUSH1 0x60 DUP2 ADD DUP4 SWAP1 MSTORE PUSH32 0xA4292E75F7EAFDE90821610C4CABFC298540C274B50A7EA784A529A2B8A4A6F SWAP1 PUSH1 0x80 ADD JUMPDEST PUSH1 0x40 MLOAD DUP1 SWAP2 SUB SWAP1 LOG1 POP POP POP JUMP JUMPDEST PUSH1 0x40 DUP1 MLOAD CALLER DUP2 MSTORE PUSH1 0x20 DUP2 ADD DUP6 SWAP1 MSTORE SWAP1 DUP2 ADD DUP4 SWAP1 MSTORE PUSH32 0x4524387B4311078B7531910A140A6975002B10ACA4CF12255E98DA8F1FF1B35B SWAP1 PUSH1 0x60 ADD PUSH2 0x1186 JUMP JUMPDEST POP POP POP JUMP JUMPDEST PUSH1 0x8 SLOAD PUSH1 0x60 SWAP1 PUSH1 0x0 SWAP1 PUSH8 0xFFFFFFFFFFFFFFFF DUP2 GT ISZERO PUSH2 0x11F7 JUMPI PUSH2 0x11F7 PUSH2 0x1B0F JUMP JUMPDEST PUSH1 0x40 MLOAD SWAP1 DUP1 DUP3 MSTORE DUP1 PUSH1 0x20 MUL PUSH1 0x20 ADD DUP3 ADD PUSH1 0x40 MSTORE DUP1 ISZERO PUSH2 0x1249 JUMPI DUP2 PUSH1 0x20 ADD JUMPDEST PUSH1 0x40 DUP1 MLOAD PUSH1 0x80 DUP2 ADD DUP3 MSTORE PUSH1 0x0 DUP1 DUP3 MSTORE PUSH1 0x20 DUP1 DUP4 ADD DUP3 SWAP1 MSTORE SWAP3 DUP3 ADD DUP2 SWAP1 MSTORE PUSH1 0x60 DUP3 ADD MSTORE DUP3 MSTORE PUSH1 0x0 NOT SWAP1 SWAP3 ADD SWAP2 ADD DUP2 PUSH2 0x1215 JUMPI SWAP1 POP JUMPDEST POP SWAP1 POP PUSH1 0x0 JUMPDEST PUSH1 0x8 SLOAD DUP2 LT ISZERO PUSH2 0x1303 JUMPI PUSH1 0x0 PUSH1 0x8 DUP3 DUP2 SLOAD DUP2 LT PUSH2 0x126E JUMPI PUSH2 0x126E PUSH2 0x1C27 JUMP JUMPDEST PUSH1 0x0 SWAP2 DUP3 MSTORE PUSH1 0x20 DUP1 DUP4 KECCAK256 SWAP1 SWAP2 ADD SLOAD PUSH1 0x40 DUP1 MLOAD PUSH1 0x80 DUP2 ADD DUP3 MSTORE DUP3 DUP2 MSTORE DUP3 DUP6 MSTORE PUSH1 0x5 DUP1 DUP6 MSTORE DUP3 DUP7 KECCAK256 PUSH1 0x1 DUP2 ADD SLOAD PUSH1 0x1 PUSH1 0x1 PUSH1 0xA0 SHL SUB SWAP1 DUP2 AND DUP5 DUP9 ADD MSTORE PUSH1 0x2 DUP3 ADD SLOAD SWAP5 DUP5 ADD SWAP5 SWAP1 SWAP5 MSTORE SWAP6 DUP5 SWAP1 MSTORE SWAP1 SWAP4 MSTORE PUSH1 0x3 SWAP1 SWAP4 ADD SLOAD SWAP1 SWAP3 AND PUSH1 0x60 DUP3 ADD MSTORE DUP5 MLOAD SWAP2 SWAP3 POP SWAP1 DUP2 SWAP1 DUP6 SWAP1 DUP6 SWAP1 DUP2 LT PUSH2 0x12E3 JUMPI PUSH2 0x12E3 PUSH2 0x1C27 JUMP JUMPDEST PUSH1 0x20 MUL PUSH1 0x20 ADD ADD DUP2 SWAP1 MSTORE POP POP POP DUP1 DUP1 PUSH2 0x12FB SWAP1 PUSH2 0x1C53 JUMP JUMPDEST SWAP2 POP POP PUSH2 0x124F JUMP JUMPDEST POP SWAP2 SWAP1 POP JUMP JUMPDEST PUSH2 0x1311 PUSH2 0x1638 JUMP JUMPDEST PUSH1 0x1 PUSH1 0x1 PUSH1 0xA0 SHL SUB AND PUSH1 0x0 SWAP1 DUP2 MSTORE PUSH1 0x6 PUSH1 0x20 MSTORE PUSH1 0x40 SWAP1 KECCAK256 DUP1 SLOAD PUSH1 0xFF NOT AND SWAP1 SSTORE JUMP JUMPDEST PUSH2 0x133A PUSH2 0x1638 JUMP JUMPDEST DUP1 MLOAD PUSH2 0x134D SWAP1 PUSH1 0x7 SWAP1 PUSH1 0x20 DUP5 ADD SWAP1 PUSH2 0x1944 JUMP JUMPDEST POP POP JUMP JUMPDEST PUSH2 0x1359 PUSH2 0x1638 JUMP JUMPDEST PUSH1 0x1 PUSH1 0x1 PUSH1 0xA0 SHL SUB DUP2 AND PUSH2 0x13BE JUMPI PUSH1 0x40 MLOAD PUSH3 0x461BCD PUSH1 0xE5 SHL DUP2 MSTORE PUSH1 0x20 PUSH1 0x4 DUP3 ADD MSTORE PUSH1 0x26 PUSH1 0x24 DUP3 ADD MSTORE PUSH32 0x4F776E61626C653A206E6577206F776E657220697320746865207A65726F2061 PUSH1 0x44 DUP3 ADD MSTORE PUSH6 0x646472657373 PUSH1 0xD0 SHL PUSH1 0x64 DUP3 ADD MSTORE PUSH1 0x84 ADD PUSH2 0x4B2 JUMP JUMPDEST PUSH2 0x13C7 DUP2 PUSH2 0x1692 JUMP JUMPDEST POP JUMP JUMPDEST PUSH2 0x13D2 PUSH2 0x1638 JUMP JUMPDEST PUSH1 0x40 MLOAD PUSH4 0x70A08231 PUSH1 0xE0 SHL DUP2 MSTORE ADDRESS PUSH1 0x4 DUP3 ADD MSTORE DUP2 SWAP1 PUSH1 0x0 SWAP1 PUSH1 0x1 PUSH1 0x1 PUSH1 0xA0 SHL SUB DUP4 AND SWAP1 PUSH4 0x70A08231 SWAP1 PUSH1 0x24 ADD PUSH1 0x20 PUSH1 0x40 MLOAD DUP1 DUP4 SUB DUP2 DUP7 GAS STATICCALL ISZERO DUP1 ISZERO PUSH2 0x141B JUMPI RETURNDATASIZE PUSH1 0x0 DUP1 RETURNDATACOPY RETURNDATASIZE PUSH1 0x0 REVERT JUMPDEST POP POP POP POP PUSH1 0x40 MLOAD RETURNDATASIZE PUSH1 0x1F NOT PUSH1 0x1F DUP3 ADD AND DUP3 ADD DUP1 PUSH1 0x40 MSTORE POP DUP2 ADD SWAP1 PUSH2 0x143F SWAP2 SWAP1 PUSH2 0x1BEA JUMP JUMPDEST SWAP1 POP DUP2 PUSH1 0x1 PUSH1 0x1 PUSH1 0xA0 SHL SUB AND PUSH4 0xA9059CBB PUSH2 0x1462 PUSH1 0x0 SLOAD PUSH1 0x1 PUSH1 0x1 PUSH1 0xA0 SHL SUB AND SWAP1 JUMP JUMPDEST PUSH1 0x40 MLOAD PUSH1 0x1 PUSH1 0x1 PUSH1 0xE0 SHL SUB NOT PUSH1 0xE0 DUP5 SWAP1 SHL AND DUP2 MSTORE PUSH1 0x1 PUSH1 0x1 PUSH1 0xA0 SHL SUB SWAP1 SWAP2 AND PUSH1 0x4 DUP3 ADD MSTORE PUSH1 0x24 DUP2 ADD DUP5 SWAP1 MSTORE PUSH1 0x44 ADD PUSH1 0x20 PUSH1 0x40 MLOAD DUP1 DUP4 SUB DUP2 PUSH1 0x0 DUP8 GAS CALL ISZERO DUP1 ISZERO PUSH2 0x14AF JUMPI RETURNDATASIZE PUSH1 0x0 DUP1 RETURNDATACOPY RETURNDATASIZE PUSH1 0x0 REVERT JUMPDEST POP POP POP POP PUSH1 0x40 MLOAD RETURNDATASIZE PUSH1 0x1F NOT PUSH1 0x1F DUP3 ADD AND DUP3 ADD DUP1 PUSH1 0x40 MSTORE POP DUP2 ADD SWAP1 PUSH2 0xDD3 SWAP2 SWAP1 PUSH2 0x1C89 JUMP JUMPDEST PUSH2 0x14DB PUSH2 0x1638 JUMP JUMPDEST PUSH1 0x40 MLOAD SELFBALANCE SWAP1 CALLER SWAP1 DUP3 ISZERO PUSH2 0x8FC MUL SWAP1 DUP4 SWAP1 PUSH1 0x0 DUP2 DUP2 DUP2 DUP6 DUP9 DUP9 CALL SWAP4 POP POP POP POP ISZERO DUP1 ISZERO PUSH2 0x150A JUMPI RETURNDATASIZE PUSH1 0x0 DUP1 RETURNDATACOPY RETURNDATASIZE PUSH1 0x0 REVERT JUMPDEST POP PUSH1 0x40 DUP1 MLOAD CALLER DUP2 MSTORE PUSH1 0x20 DUP2 ADD DUP4 SWAP1 MSTORE PUSH32 0xD59F809F461FB2E2CA77F931DC43A9AAAA4295B0ED3C8E6ADC04D0AAB43EEB47 SWAP2 ADD PUSH2 0xAC4 JUMP JUMPDEST PUSH1 0x0 PUSH2 0x154D DUP3 DUP5 PUSH2 0x1CAB JUMP JUMPDEST SWAP1 POP JUMPDEST SWAP3 SWAP2 POP POP JUMP JUMPDEST PUSH1 0x0 PUSH2 0x154D DUP3 DUP5 PUSH2 0x1CCD JUMP JUMPDEST PUSH1 0x0 PUSH2 0x154D DUP3 DUP5 PUSH2 0x1CE4 JUMP JUMPDEST PUSH2 0xDD3 DUP5 PUSH4 0x23B872DD PUSH1 0xE0 SHL DUP6 DUP6 DUP6 PUSH1 0x40 MLOAD PUSH1 0x24 ADD PUSH2 0x158F SWAP4 SWAP3 SWAP2 SWAP1 PUSH2 0x1C03 JUMP JUMPDEST PUSH1 0x40 DUP1 MLOAD PUSH1 0x1F NOT DUP2 DUP5 SUB ADD DUP2 MSTORE SWAP2 SWAP1 MSTORE PUSH1 0x20 DUP2 ADD DUP1 MLOAD PUSH1 0x1 PUSH1 0x1 PUSH1 0xE0 SHL SUB AND PUSH1 0x1 PUSH1 0x1 PUSH1 0xE0 SHL SUB NOT SWAP1 SWAP4 AND SWAP3 SWAP1 SWAP3 OR SWAP1 SWAP2 MSTORE PUSH2 0x16E2 JUMP JUMPDEST PUSH1 0x40 DUP1 MLOAD PUSH1 0x80 DUP2 ADD DUP3 MSTORE PUSH1 0x0 DUP1 DUP3 MSTORE PUSH1 0x20 DUP1 DUP4 ADD DUP3 DUP2 MSTORE DUP4 DUP6 ADD DUP4 DUP2 MSTORE PUSH1 0x60 DUP6 ADD DUP5 DUP2 MSTORE SWAP7 DUP5 MSTORE PUSH1 0x5 SWAP1 SWAP3 MSTORE SWAP4 SWAP1 SWAP2 KECCAK256 SWAP2 MLOAD DUP3 SSTORE SWAP2 MLOAD PUSH1 0x1 DUP3 ADD DUP1 SLOAD PUSH1 0x1 PUSH1 0x1 PUSH1 0xA0 SHL SUB SWAP3 DUP4 AND PUSH1 0x1 PUSH1 0x1 PUSH1 0xA0 SHL SUB NOT SWAP2 DUP3 AND OR SWAP1 SWAP2 SSTORE SWAP3 MLOAD PUSH1 0x2 DUP4 ADD SSTORE SWAP3 MLOAD PUSH1 0x3 SWAP1 SWAP2 ADD DUP1 SLOAD SWAP2 SWAP1 SWAP4 AND SWAP2 AND OR SWAP1 SSTORE JUMP JUMPDEST PUSH1 0x0 SLOAD PUSH1 0x1 PUSH1 0x1 PUSH1 0xA0 SHL SUB AND CALLER EQ PUSH2 0xE4D JUMPI PUSH1 0x40 MLOAD PUSH3 0x461BCD PUSH1 0xE5 SHL DUP2 MSTORE PUSH1 0x20 PUSH1 0x4 DUP3 ADD DUP2 SWAP1 MSTORE PUSH1 0x24 DUP3 ADD MSTORE PUSH32 0x4F776E61626C653A2063616C6C6572206973206E6F7420746865206F776E6572 PUSH1 0x44 DUP3 ADD MSTORE PUSH1 0x64 ADD PUSH2 0x4B2 JUMP JUMPDEST PUSH1 0x0 DUP1 SLOAD PUSH1 0x1 PUSH1 0x1 PUSH1 0xA0 SHL SUB DUP4 DUP2 AND PUSH1 0x1 PUSH1 0x1 PUSH1 0xA0 SHL SUB NOT DUP4 AND DUP2 OR DUP5 SSTORE PUSH1 0x40 MLOAD SWAP2 SWAP1 SWAP3 AND SWAP3 DUP4 SWAP2 PUSH32 0x8BE0079C531659141344CD1FD0A4F28419497F9722A3DAAFE3B4186F6B6457E0 SWAP2 SWAP1 LOG3 POP POP JUMP JUMPDEST PUSH1 0x0 PUSH2 0x1737 DUP3 PUSH1 0x40 MLOAD DUP1 PUSH1 0x40 ADD PUSH1 0x40 MSTORE DUP1 PUSH1 0x20 DUP2 MSTORE PUSH1 0x20 ADD PUSH32 0x5361666545524332303A206C6F772D6C6576656C2063616C6C206661696C6564 DUP2 MSTORE POP DUP6 PUSH1 0x1 PUSH1 0x1 PUSH1 0xA0 SHL SUB AND PUSH2 0x17B4 SWAP1 SWAP3 SWAP2 SWAP1 PUSH4 0xFFFFFFFF AND JUMP JUMPDEST DUP1 MLOAD SWAP1 SWAP2 POP ISZERO PUSH2 0x11D1 JUMPI DUP1 DUP1 PUSH1 0x20 ADD SWAP1 MLOAD DUP2 ADD SWAP1 PUSH2 0x1755 SWAP2 SWAP1 PUSH2 0x1C89 JUMP JUMPDEST PUSH2 0x11D1 JUMPI PUSH1 0x40 MLOAD PUSH3 0x461BCD PUSH1 0xE5 SHL DUP2 MSTORE PUSH1 0x20 PUSH1 0x4 DUP3 ADD MSTORE PUSH1 0x2A PUSH1 0x24 DUP3 ADD MSTORE PUSH32 0x5361666545524332303A204552433230206F7065726174696F6E20646964206E PUSH1 0x44 DUP3 ADD MSTORE PUSH10 0x1BDD081CDD58D8D95959 PUSH1 0xB2 SHL PUSH1 0x64 DUP3 ADD MSTORE PUSH1 0x84 ADD PUSH2 0x4B2 JUMP JUMPDEST PUSH1 0x60 PUSH2 0x17C3 DUP5 DUP5 PUSH1 0x0 DUP6 PUSH2 0x17CB JUMP JUMPDEST SWAP5 SWAP4 POP POP POP POP JUMP JUMPDEST PUSH1 0x60 DUP3 SELFBALANCE LT ISZERO PUSH2 0x182C JUMPI PUSH1 0x40 MLOAD PUSH3 0x461BCD PUSH1 0xE5 SHL DUP2 MSTORE PUSH1 0x20 PUSH1 0x4 DUP3 ADD MSTORE PUSH1 0x26 PUSH1 0x24 DUP3 ADD MSTORE PUSH32 0x416464726573733A20696E73756666696369656E742062616C616E636520666F PUSH1 0x44 DUP3 ADD MSTORE PUSH6 0x1C8818D85B1B PUSH1 0xD2 SHL PUSH1 0x64 DUP3 ADD MSTORE PUSH1 0x84 ADD PUSH2 0x4B2 JUMP JUMPDEST PUSH1 0x0 DUP1 DUP7 PUSH1 0x1 PUSH1 0x1 PUSH1 0xA0 SHL SUB AND DUP6 DUP8 PUSH1 0x40 MLOAD PUSH2 0x1848 SWAP2 SWAP1 PUSH2 0x1D1B JUMP JUMPDEST PUSH1 0x0 PUSH1 0x40 MLOAD DUP1 DUP4 SUB DUP2 DUP6 DUP8 GAS CALL SWAP3 POP POP POP RETURNDATASIZE DUP1 PUSH1 0x0 DUP2 EQ PUSH2 0x1885 JUMPI PUSH1 0x40 MLOAD SWAP2 POP PUSH1 0x1F NOT PUSH1 0x3F RETURNDATASIZE ADD AND DUP3 ADD PUSH1 0x40 MSTORE RETURNDATASIZE DUP3 MSTORE RETURNDATASIZE PUSH1 0x0 PUSH1 0x20 DUP5 ADD RETURNDATACOPY PUSH2 0x188A JUMP JUMPDEST PUSH1 0x60 SWAP2 POP JUMPDEST POP SWAP2 POP SWAP2 POP PUSH2 0x189B DUP8 DUP4 DUP4 DUP8 PUSH2 0x18A6 JUMP JUMPDEST SWAP8 SWAP7 POP POP POP POP POP POP POP JUMP JUMPDEST PUSH1 0x60 DUP4 ISZERO PUSH2 0x1915 JUMPI DUP3 MLOAD PUSH1 0x0 SUB PUSH2 0x190E JUMPI PUSH1 0x1 PUSH1 0x1 PUSH1 0xA0 SHL SUB DUP6 AND EXTCODESIZE PUSH2 0x190E JUMPI PUSH1 0x40 MLOAD PUSH3 0x461BCD PUSH1 0xE5 SHL DUP2 MSTORE PUSH1 0x20 PUSH1 0x4 DUP3 ADD MSTORE PUSH1 0x1D PUSH1 0x24 DUP3 ADD MSTORE PUSH32 0x416464726573733A2063616C6C20746F206E6F6E2D636F6E7472616374000000 PUSH1 0x44 DUP3 ADD MSTORE PUSH1 0x64 ADD PUSH2 0x4B2 JUMP JUMPDEST POP DUP2 PUSH2 0x17C3 JUMP JUMPDEST PUSH2 0x17C3 DUP4 DUP4 DUP2 MLOAD ISZERO PUSH2 0x192A JUMPI DUP2 MLOAD DUP1 DUP4 PUSH1 0x20 ADD REVERT JUMPDEST DUP1 PUSH1 0x40 MLOAD PUSH3 0x461BCD PUSH1 0xE5 SHL DUP2 MSTORE PUSH1 0x4 ADD PUSH2 0x4B2 SWAP2 SWAP1 PUSH2 0x1D37 JUMP JUMPDEST DUP3 DUP1 SLOAD DUP3 DUP3 SSTORE SWAP1 PUSH1 0x0 MSTORE PUSH1 0x20 PUSH1 0x0 KECCAK256 SWAP1 DUP2 ADD SWAP3 DUP3 ISZERO PUSH2 0x1999 JUMPI SWAP2 PUSH1 0x20 MUL DUP3 ADD JUMPDEST DUP3 DUP2 GT ISZERO PUSH2 0x1999 JUMPI DUP3 MLOAD DUP3 SLOAD PUSH1 0x1 PUSH1 0x1 PUSH1 0xA0 SHL SUB NOT AND PUSH1 0x1 PUSH1 0x1 PUSH1 0xA0 SHL SUB SWAP1 SWAP2 AND OR DUP3 SSTORE PUSH1 0x20 SWAP1 SWAP3 ADD SWAP2 PUSH1 0x1 SWAP1 SWAP2 ADD SWAP1 PUSH2 0x1964 JUMP JUMPDEST POP PUSH2 0x19A5 SWAP3 SWAP2 POP PUSH2 0x19A9 JUMP JUMPDEST POP SWAP1 JUMP JUMPDEST JUMPDEST DUP1 DUP3 GT ISZERO PUSH2 0x19A5 JUMPI PUSH1 0x0 DUP2 SSTORE PUSH1 0x1 ADD PUSH2 0x19AA JUMP JUMPDEST PUSH1 0x0 PUSH1 0x20 DUP3 DUP5 SUB SLT ISZERO PUSH2 0x19D0 JUMPI PUSH1 0x0 DUP1 REVERT JUMPDEST POP CALLDATALOAD SWAP2 SWAP1 POP JUMP JUMPDEST PUSH1 0x1 PUSH1 0x1 PUSH1 0xA0 SHL SUB DUP2 AND DUP2 EQ PUSH2 0x13C7 JUMPI PUSH1 0x0 DUP1 REVERT JUMPDEST DUP1 CALLDATALOAD PUSH2 0x19F7 DUP2 PUSH2 0x19D7 JUMP JUMPDEST SWAP2 SWAP1 POP JUMP JUMPDEST PUSH1 0x0 PUSH1 0x20 DUP3 DUP5 SUB SLT ISZERO PUSH2 0x1A0E JUMPI PUSH1 0x0 DUP1 REVERT JUMPDEST DUP2 CALLDATALOAD PUSH2 0x994 DUP2 PUSH2 0x19D7 JUMP JUMPDEST PUSH1 0x20 DUP1 DUP3 MSTORE DUP3 MLOAD DUP3 DUP3 ADD DUP2 SWAP1 MSTORE PUSH1 0x0 SWAP2 SWAP1 PUSH1 0x40 SWAP1 DUP2 DUP6 ADD SWAP1 DUP7 DUP5 ADD DUP6 JUMPDEST DUP3 DUP2 LT ISZERO PUSH2 0x1A7C JUMPI DUP2 MLOAD DUP1 MLOAD DUP6 MSTORE DUP7 DUP2 ADD MLOAD PUSH1 0x1 PUSH1 0x1 PUSH1 0xA0 SHL SUB SWAP1 DUP2 AND DUP9 DUP8 ADD MSTORE DUP7 DUP3 ADD MLOAD DUP8 DUP8 ADD MSTORE PUSH1 0x60 SWAP2 DUP3 ADD MLOAD AND SWAP1 DUP6 ADD MSTORE PUSH1 0x80 SWAP1 SWAP4 ADD SWAP3 SWAP1 DUP6 ADD SWAP1 PUSH1 0x1 ADD PUSH2 0x1A36 JUMP JUMPDEST POP SWAP2 SWAP8 SWAP7 POP POP POP POP POP POP POP JUMP JUMPDEST PUSH1 0x20 DUP1 DUP3 MSTORE DUP3 MLOAD DUP3 DUP3 ADD DUP2 SWAP1 MSTORE PUSH1 0x0 SWAP2 SWAP1 DUP5 DUP3 ADD SWAP1 PUSH1 0x40 DUP6 ADD SWAP1 DUP5 JUMPDEST DUP2 DUP2 LT ISZERO PUSH2 0x1ACA JUMPI DUP4 MLOAD PUSH1 0x1 PUSH1 0x1 PUSH1 0xA0 SHL SUB AND DUP4 MSTORE SWAP3 DUP5 ADD SWAP3 SWAP2 DUP5 ADD SWAP2 PUSH1 0x1 ADD PUSH2 0x1AA5 JUMP JUMPDEST POP SWAP1 SWAP7 SWAP6 POP POP POP POP POP POP JUMP JUMPDEST PUSH1 0x0 DUP1 PUSH1 0x0 PUSH1 0x60 DUP5 DUP7 SUB SLT ISZERO PUSH2 0x1AEB JUMPI PUSH1 0x0 DUP1 REVERT JUMPDEST DUP4 CALLDATALOAD SWAP3 POP PUSH1 0x20 DUP5 ADD CALLDATALOAD SWAP2 POP PUSH1 0x40 DUP5 ADD CALLDATALOAD PUSH2 0x1B04 DUP2 PUSH2 0x19D7 JUMP JUMPDEST DUP1 SWAP2 POP POP SWAP3 POP SWAP3 POP SWAP3 JUMP JUMPDEST PUSH4 0x4E487B71 PUSH1 0xE0 SHL PUSH1 0x0 MSTORE PUSH1 0x41 PUSH1 0x4 MSTORE PUSH1 0x24 PUSH1 0x0 REVERT JUMPDEST PUSH1 0x0 PUSH1 0x20 DUP1 DUP4 DUP6 SUB SLT ISZERO PUSH2 0x1B38 JUMPI PUSH1 0x0 DUP1 REVERT JUMPDEST DUP3 CALLDATALOAD PUSH8 0xFFFFFFFFFFFFFFFF DUP1 DUP3 GT ISZERO PUSH2 0x1B50 JUMPI PUSH1 0x0 DUP1 REVERT JUMPDEST DUP2 DUP6 ADD SWAP2 POP DUP6 PUSH1 0x1F DUP4 ADD SLT PUSH2 0x1B64 JUMPI PUSH1 0x0 DUP1 REVERT JUMPDEST DUP2 CALLDATALOAD DUP2 DUP2 GT ISZERO PUSH2 0x1B76 JUMPI PUSH2 0x1B76 PUSH2 0x1B0F JUMP JUMPDEST DUP1 PUSH1 0x5 SHL PUSH1 0x40 MLOAD PUSH1 0x1F NOT PUSH1 0x3F DUP4 ADD AND DUP2 ADD DUP2 DUP2 LT DUP6 DUP3 GT OR ISZERO PUSH2 0x1B9B JUMPI PUSH2 0x1B9B PUSH2 0x1B0F JUMP JUMPDEST PUSH1 0x40 MSTORE SWAP2 DUP3 MSTORE DUP5 DUP3 ADD SWAP3 POP DUP4 DUP2 ADD DUP6 ADD SWAP2 DUP9 DUP4 GT ISZERO PUSH2 0x1BB9 JUMPI PUSH1 0x0 DUP1 REVERT JUMPDEST SWAP4 DUP6 ADD SWAP4 JUMPDEST DUP3 DUP6 LT ISZERO PUSH2 0x1BDE JUMPI PUSH2 0x1BCF DUP6 PUSH2 0x19EC JUMP JUMPDEST DUP5 MSTORE SWAP4 DUP6 ADD SWAP4 SWAP3 DUP6 ADD SWAP3 PUSH2 0x1BBE JUMP JUMPDEST SWAP9 SWAP8 POP POP POP POP POP POP POP POP JUMP JUMPDEST PUSH1 0x0 PUSH1 0x20 DUP3 DUP5 SUB SLT ISZERO PUSH2 0x1BFC JUMPI PUSH1 0x0 DUP1 REVERT JUMPDEST POP MLOAD SWAP2 SWAP1 POP JUMP JUMPDEST PUSH1 0x1 PUSH1 0x1 PUSH1 0xA0 SHL SUB SWAP4 DUP5 AND DUP2 MSTORE SWAP2 SWAP1 SWAP3 AND PUSH1 0x20 DUP3 ADD MSTORE PUSH1 0x40 DUP2 ADD SWAP2 SWAP1 SWAP2 MSTORE PUSH1 0x60 ADD SWAP1 JUMP JUMPDEST PUSH4 0x4E487B71 PUSH1 0xE0 SHL PUSH1 0x0 MSTORE PUSH1 0x32 PUSH1 0x4 MSTORE PUSH1 0x24 PUSH1 0x0 REVERT JUMPDEST PUSH4 0x4E487B71 PUSH1 0xE0 SHL PUSH1 0x0 MSTORE PUSH1 0x11 PUSH1 0x4 MSTORE PUSH1 0x24 PUSH1 0x0 REVERT JUMPDEST PUSH1 0x0 PUSH1 0x1 DUP3 ADD PUSH2 0x1C65 JUMPI PUSH2 0x1C65 PUSH2 0x1C3D JUMP JUMPDEST POP PUSH1 0x1 ADD SWAP1 JUMP JUMPDEST PUSH1 0x0 PUSH1 0x20 DUP3 DUP5 SUB SLT ISZERO PUSH2 0x1C7E JUMPI PUSH1 0x0 DUP1 REVERT JUMPDEST DUP2 MLOAD PUSH2 0x994 DUP2 PUSH2 0x19D7 JUMP JUMPDEST PUSH1 0x0 PUSH1 0x20 DUP3 DUP5 SUB SLT ISZERO PUSH2 0x1C9B JUMPI PUSH1 0x0 DUP1 REVERT JUMPDEST DUP2 MLOAD DUP1 ISZERO ISZERO DUP2 EQ PUSH2 0x994 JUMPI PUSH1 0x0 DUP1 REVERT JUMPDEST PUSH1 0x0 DUP3 PUSH2 0x1CC8 JUMPI PUSH4 0x4E487B71 PUSH1 0xE0 SHL PUSH1 0x0 MSTORE PUSH1 0x12 PUSH1 0x4 MSTORE PUSH1 0x24 PUSH1 0x0 REVERT JUMPDEST POP DIV SWAP1 JUMP JUMPDEST DUP1 DUP3 MUL DUP2 ISZERO DUP3 DUP3 DIV DUP5 EQ OR PUSH2 0x1550 JUMPI PUSH2 0x1550 PUSH2 0x1C3D JUMP JUMPDEST DUP2 DUP2 SUB DUP2 DUP2 GT ISZERO PUSH2 0x1550 JUMPI PUSH2 0x1550 PUSH2 0x1C3D JUMP JUMPDEST PUSH1 0x0 JUMPDEST DUP4 DUP2 LT ISZERO PUSH2 0x1D12 JUMPI DUP2 DUP2 ADD MLOAD DUP4 DUP3 ADD MSTORE PUSH1 0x20 ADD PUSH2 0x1CFA JUMP JUMPDEST POP POP PUSH1 0x0 SWAP2 ADD MSTORE JUMP JUMPDEST PUSH1 0x0 DUP3 MLOAD PUSH2 0x1D2D DUP2 DUP5 PUSH1 0x20 DUP8 ADD PUSH2 0x1CF7 JUMP JUMPDEST SWAP2 SWAP1 SWAP2 ADD SWAP3 SWAP2 POP POP JUMP JUMPDEST PUSH1 0x20 DUP2 MSTORE PUSH1 0x0 DUP3 MLOAD DUP1 PUSH1 0x20 DUP5 ADD MSTORE PUSH2 0x1D56 DUP2 PUSH1 0x40 DUP6 ADD PUSH1 0x20 DUP8 ADD PUSH2 0x1CF7 JUMP JUMPDEST PUSH1 0x1F ADD PUSH1 0x1F NOT AND SWAP2 SWAP1 SWAP2 ADD PUSH1 0x40 ADD SWAP3 SWAP2 POP POP JUMP INVALID LOG2 PUSH5 0x6970667358 0x22 SLT KECCAK256 SWAP14 0xBA 0x4F JUMPI 0xC0 PUSH22 0x20B17944BEB38C6BA8148DF32EE9E47DF738D03D4E99 GASPRICE SWAP13 0xFB PUSH7 0x64736F6C634300 ADDMOD SLT STOP CALLER "
				},
				"gasEstimates": {
					"creation": {
						"codeDepositCost": "1516800",
						"executionCost": "infinite",
						"totalCost": "infinite"
					},
					"external": {
						"addBlackList(address)": "26836",
						"bankAmount()": "305",
						"bankAmountERC20(address)": "infinite",
						"buyNFT(uint256)": "infinite",
						"buyNFTbyERC20(uint256)": "infinite",
						"deSellNFT(uint256)": "infinite",
						"getAllowedERC20()": "infinite",
						"getMyTokensAtSale()": "infinite",
						"getTokensAtSale()": "infinite",
						"getTradeFee()": "2359",
						"getUserTokensAtSale(address)": "infinite",
						"isAllowedERC20(address)": "infinite",
						"isBlacklisted(address)": "2653",
						"marketNft()": "2372",
						"owner()": "2365",
						"removeBlackList(address)": "26784",
						"renounceOwnership()": "infinite",
						"sellNFT(uint256,uint256,address)": "infinite",
						"setAllowedERC20(address[])": "infinite",
						"setTradeFee(uint256)": "24578",
						"transferOwnership(address)": "infinite",
						"version()": "2362",
						"withdrawBank()": "infinite",
						"withdrawBankERC20(address)": "infinite"
					},
					"internal": {
						"__addTokenToSale(uint256)": "infinite",
						"__delTokenForSale(uint256)": "infinite",
						"_clearSellToken(uint256)": "infinite"
					}
				},
				"methodIdentifiers": {
					"addBlackList(address)": "0ecb93c0",
					"bankAmount()": "b42a275e",
					"bankAmountERC20(address)": "476caa70",
					"buyNFT(uint256)": "51ed8288",
					"buyNFTbyERC20(uint256)": "047a5d43",
					"deSellNFT(uint256)": "512ddcf9",
					"getAllowedERC20()": "69c57352",
					"getMyTokensAtSale()": "a096c5a2",
					"getTokensAtSale()": "d55a34e4",
					"getTradeFee()": "952977f5",
					"getUserTokensAtSale(address)": "19c8c1c5",
					"isAllowedERC20(address)": "785fa7ce",
					"isBlacklisted(address)": "fe575a87",
					"marketNft()": "08cfbc19",
					"owner()": "8da5cb5b",
					"removeBlackList(address)": "e4997dc5",
					"renounceOwnership()": "715018a6",
					"sellNFT(uint256,uint256,address)": "7c237eea",
					"setAllowedERC20(address[])": "e9e4e160",
					"setTradeFee(uint256)": "10603023",
					"transferOwnership(address)": "f2fde38b",
					"version()": "54fd4d50",
					"withdrawBank()": "ff7f0cf9",
					"withdrawBankERC20(address)": "fcf984a9"
				}
			},
			"storageLayout": {
				"storage": [
					{
						"astId": 26,
						"contract": "source/Marketplace.sol:Marketplace",
						"label": "_owner",
						"offset": 0,
						"slot": "0",
						"type": "t_address"
					},
					{
						"astId": 2316,
						"contract": "source/Marketplace.sol:Marketplace",
						"label": "marketNft",
						"offset": 0,
						"slot": "1",
						"type": "t_contract(IERC721)638"
					},
					{
						"astId": 2319,
						"contract": "source/Marketplace.sol:Marketplace",
						"label": "version",
						"offset": 0,
						"slot": "2",
						"type": "t_uint256"
					},
					{
						"astId": 2322,
						"contract": "source/Marketplace.sol:Marketplace",
						"label": "_tradeFee",
						"offset": 0,
						"slot": "3",
						"type": "t_uint256"
					},
					{
						"astId": 2326,
						"contract": "source/Marketplace.sol:Marketplace",
						"label": "_isTokensAtSale",
						"offset": 0,
						"slot": "4",
						"type": "t_mapping(t_uint256,t_bool)"
					},
					{
						"astId": 2331,
						"contract": "source/Marketplace.sol:Marketplace",
						"label": "_tokensAtSale",
						"offset": 0,
						"slot": "5",
						"type": "t_mapping(t_uint256,t_struct(SelledNFT)2313_storage)"
					},
					{
						"astId": 2335,
						"contract": "source/Marketplace.sol:Marketplace",
						"label": "_blackList",
						"offset": 0,
						"slot": "6",
						"type": "t_mapping(t_address,t_bool)"
					},
					{
						"astId": 2338,
						"contract": "source/Marketplace.sol:Marketplace",
						"label": "_allowedERC20",
						"offset": 0,
						"slot": "7",
						"type": "t_array(t_address)dyn_storage"
					},
					{
						"astId": 2341,
						"contract": "source/Marketplace.sol:Marketplace",
						"label": "_tokensIdsAtSale",
						"offset": 0,
						"slot": "8",
						"type": "t_array(t_uint256)dyn_storage"
					}
				],
				"types": {
					"t_address": {
						"encoding": "inplace",
						"label": "address",
						"numberOfBytes": "20"
					},
					"t_array(t_address)dyn_storage": {
						"base": "t_address",
						"encoding": "dynamic_array",
						"label": "address[]",
						"numberOfBytes": "32"
					},
					"t_array(t_uint256)dyn_storage": {
						"base": "t_uint256",
						"encoding": "dynamic_array",
						"label": "uint256[]",
						"numberOfBytes": "32"
					},
					"t_bool": {
						"encoding": "inplace",
						"label": "bool",
						"numberOfBytes": "1"
					},
					"t_contract(IERC721)638": {
						"encoding": "inplace",
						"label": "contract IERC721",
						"numberOfBytes": "20"
					},
					"t_mapping(t_address,t_bool)": {
						"encoding": "mapping",
						"key": "t_address",
						"label": "mapping(address => bool)",
						"numberOfBytes": "32",
						"value": "t_bool"
					},
					"t_mapping(t_uint256,t_bool)": {
						"encoding": "mapping",
						"key": "t_uint256",
						"label": "mapping(uint256 => bool)",
						"numberOfBytes": "32",
						"value": "t_bool"
					},
					"t_mapping(t_uint256,t_struct(SelledNFT)2313_storage)": {
						"encoding": "mapping",
						"key": "t_uint256",
						"label": "mapping(uint256 => struct Marketplace.SelledNFT)",
						"numberOfBytes": "32",
						"value": "t_struct(SelledNFT)2313_storage"
					},
					"t_struct(SelledNFT)2313_storage": {
						"encoding": "inplace",
						"label": "struct Marketplace.SelledNFT",
						"members": [
							{
								"astId": 2306,
								"contract": "source/Marketplace.sol:Marketplace",
								"label": "tokenId",
								"offset": 0,
								"slot": "0",
								"type": "t_uint256"
							},
							{
								"astId": 2308,
								"contract": "source/Marketplace.sol:Marketplace",
								"label": "seller",
								"offset": 0,
								"slot": "1",
								"type": "t_address"
							},
							{
								"astId": 2310,
								"contract": "source/Marketplace.sol:Marketplace",
								"label": "price",
								"offset": 0,
								"slot": "2",
								"type": "t_uint256"
							},
							{
								"astId": 2312,
								"contract": "source/Marketplace.sol:Marketplace",
								"label": "erc20",
								"offset": 0,
								"slot": "3",
								"type": "t_address"
							}
						],
						"numberOfBytes": "128"
					},
					"t_uint256": {
						"encoding": "inplace",
						"label": "uint256",
						"numberOfBytes": "32"
					}
				}
			},
			"userdoc": {
				"kind": "user",
				"methods": {},
				"version": 1
			}
		}
	}
}